{
  "_format": "hh-sol-artifact-1",
  "contractName": "BattleshipStateChannel",
  "sourceName": "contracts/BattleshipStateChannel.sol",
  "abi": [
    {
      "inputs": [],
      "stateMutability": "nonpayable",
      "type": "constructor"
    },
    {
      "inputs": [
        {
          "internalType": "address",
          "name": "target",
          "type": "address"
        }
      ],
      "name": "AddressEmptyCode",
      "type": "error"
    },
    {
      "inputs": [
        {
          "internalType": "address",
          "name": "implementation",
          "type": "address"
        }
      ],
      "name": "ERC1967InvalidImplementation",
      "type": "error"
    },
    {
      "inputs": [],
      "name": "ERC1967NonPayable",
      "type": "error"
    },
    {
      "inputs": [],
      "name": "FailedCall",
      "type": "error"
    },
    {
      "inputs": [],
      "name": "InvalidInitialization",
      "type": "error"
    },
    {
      "inputs": [],
      "name": "NotInitializing",
      "type": "error"
    },
    {
      "inputs": [
        {
          "internalType": "address",
          "name": "owner",
          "type": "address"
        }
      ],
      "name": "OwnableInvalidOwner",
      "type": "error"
    },
    {
      "inputs": [
        {
          "internalType": "address",
          "name": "account",
          "type": "address"
        }
      ],
      "name": "OwnableUnauthorizedAccount",
      "type": "error"
    },
    {
      "inputs": [],
      "name": "ReentrancyGuardReentrantCall",
      "type": "error"
    },
    {
      "inputs": [],
      "name": "UUPSUnauthorizedCallContext",
      "type": "error"
    },
    {
      "inputs": [
        {
          "internalType": "bytes32",
          "name": "slot",
          "type": "bytes32"
        }
      ],
      "name": "UUPSUnsupportedProxiableUUID",
      "type": "error"
    },
    {
      "anonymous": false,
      "inputs": [
        {
          "indexed": true,
          "internalType": "uint256",
          "name": "channelId",
          "type": "uint256"
        }
      ],
      "name": "ChannelClosed",
      "type": "event"
    },
    {
      "anonymous": false,
      "inputs": [
        {
          "indexed": true,
          "internalType": "uint256",
          "name": "channelId",
          "type": "uint256"
        },
        {
          "indexed": true,
          "internalType": "address",
          "name": "player1",
          "type": "address"
        },
        {
          "indexed": true,
          "internalType": "address",
          "name": "player2",
          "type": "address"
        }
      ],
      "name": "ChannelOpened",
      "type": "event"
    },
    {
      "anonymous": false,
      "inputs": [
        {
          "indexed": true,
          "internalType": "uint256",
          "name": "channelId",
          "type": "uint256"
        },
        {
          "indexed": false,
          "internalType": "bytes32",
          "name": "initialStateHash",
          "type": "bytes32"
        }
      ],
      "name": "ChannelReady",
      "type": "event"
    },
    {
      "anonymous": false,
      "inputs": [
        {
          "indexed": true,
          "internalType": "uint256",
          "name": "channelId",
          "type": "uint256"
        },
        {
          "indexed": true,
          "internalType": "address",
          "name": "winner",
          "type": "address"
        }
      ],
      "name": "ChannelSettled",
      "type": "event"
    },
    {
      "anonymous": false,
      "inputs": [
        {
          "indexed": true,
          "internalType": "uint256",
          "name": "disputeId",
          "type": "uint256"
        },
        {
          "indexed": true,
          "internalType": "address",
          "name": "respondent",
          "type": "address"
        },
        {
          "indexed": false,
          "internalType": "bytes32",
          "name": "newStateHash",
          "type": "bytes32"
        }
      ],
      "name": "DisputeChallenged",
      "type": "event"
    },
    {
      "anonymous": false,
      "inputs": [
        {
          "indexed": true,
          "internalType": "uint256",
          "name": "channelId",
          "type": "uint256"
        },
        {
          "indexed": true,
          "internalType": "uint256",
          "name": "disputeIOd",
          "type": "uint256"
        },
        {
          "indexed": true,
          "internalType": "address",
          "name": "challenger",
          "type": "address"
        },
        {
          "indexed": false,
          "internalType": "enum BattleshipStateChannel.DisputeType",
          "name": "disputeType",
          "type": "uint8"
        }
      ],
      "name": "DisputeInitiated",
      "type": "event"
    },
    {
      "anonymous": false,
      "inputs": [
        {
          "indexed": true,
          "internalType": "uint256",
          "name": "disputeId",
          "type": "uint256"
        },
        {
          "indexed": true,
          "internalType": "address",
          "name": "winner",
          "type": "address"
        },
        {
          "indexed": false,
          "internalType": "bytes32",
          "name": "finalStateHash",
          "type": "bytes32"
        }
      ],
      "name": "DisputeResolved",
      "type": "event"
    },
    {
      "anonymous": false,
      "inputs": [
        {
          "indexed": true,
          "internalType": "uint256",
          "name": "channelId",
          "type": "uint256"
        },
        {
          "indexed": true,
          "internalType": "address",
          "name": "player",
          "type": "address"
        },
        {
          "indexed": false,
          "internalType": "bytes32",
          "name": "stateHash",
          "type": "bytes32"
        }
      ],
      "name": "InitialStateSubmitted",
      "type": "event"
    },
    {
      "anonymous": false,
      "inputs": [
        {
          "indexed": false,
          "internalType": "uint64",
          "name": "version",
          "type": "uint64"
        }
      ],
      "name": "Initialized",
      "type": "event"
    },
    {
      "anonymous": false,
      "inputs": [
        {
          "indexed": true,
          "internalType": "address",
          "name": "previousOwner",
          "type": "address"
        },
        {
          "indexed": true,
          "internalType": "address",
          "name": "newOwner",
          "type": "address"
        }
      ],
      "name": "OwnershipTransferred",
      "type": "event"
    },
    {
      "anonymous": false,
      "inputs": [
        {
          "indexed": true,
          "internalType": "uint256",
          "name": "channelId",
          "type": "uint256"
        },
        {
          "indexed": true,
          "internalType": "address",
          "name": "claimer",
          "type": "address"
        }
      ],
      "name": "TimeoutClaimed",
      "type": "event"
    },
    {
      "anonymous": false,
      "inputs": [
        {
          "indexed": true,
          "internalType": "address",
          "name": "implementation",
          "type": "address"
        }
      ],
      "name": "Upgraded",
      "type": "event"
    },
    {
      "inputs": [],
      "name": "CHALLENGE_PERIOD",
      "outputs": [
        {
          "internalType": "uint256",
          "name": "",
          "type": "uint256"
        }
      ],
      "stateMutability": "view",
      "type": "function"
    },
    {
      "inputs": [],
      "name": "MAX_MOVES",
      "outputs": [
        {
          "internalType": "uint256",
          "name": "",
          "type": "uint256"
        }
      ],
      "stateMutability": "view",
      "type": "function"
    },
    {
      "inputs": [],
      "name": "RESPONSE_PERIOD",
      "outputs": [
        {
          "internalType": "uint256",
          "name": "",
          "type": "uint256"
        }
      ],
      "stateMutability": "view",
      "type": "function"
    },
    {
      "inputs": [],
      "name": "UPGRADE_INTERFACE_VERSION",
      "outputs": [
        {
          "internalType": "string",
          "name": "",
          "type": "string"
        }
      ],
      "stateMutability": "view",
      "type": "function"
    },
    {
      "inputs": [
        {
          "internalType": "uint256",
          "name": "",
          "type": "uint256"
        }
      ],
      "name": "channelToDispute",
      "outputs": [
        {
          "internalType": "uint256",
          "name": "",
          "type": "uint256"
        }
      ],
      "stateMutability": "view",
      "type": "function"
    },
    {
      "inputs": [
        {
          "internalType": "uint256",
          "name": "",
          "type": "uint256"
        }
      ],
      "name": "channels",
      "outputs": [
        {
          "internalType": "uint256",
          "name": "channelId",
          "type": "uint256"
        },
        {
          "internalType": "address",
          "name": "player1",
          "type": "address"
        },
        {
          "internalType": "address",
          "name": "player2",
          "type": "address"
        },
        {
          "internalType": "enum BattleshipStateChannel.ChannelStatus",
          "name": "status",
          "type": "uint8"
        },
        {
          "internalType": "uint256",
          "name": "openedAt",
          "type": "uint256"
        },
        {
          "internalType": "bytes32",
          "name": "latestStateHash",
          "type": "bytes32"
        },
        {
          "internalType": "uint256",
          "name": "latestNonce",
          "type": "uint256"
        },
        {
          "internalType": "address",
          "name": "winner",
          "type": "address"
        },
        {
          "internalType": "uint256",
          "name": "settlementTime",
          "type": "uint256"
        }
      ],
      "stateMutability": "view",
      "type": "function"
    },
    {
      "inputs": [
        {
          "internalType": "uint256",
          "name": "channelId",
          "type": "uint256"
        }
      ],
      "name": "claimTimeout",
      "outputs": [],
      "stateMutability": "nonpayable",
      "type": "function"
    },
    {
      "inputs": [
        {
          "internalType": "uint256",
          "name": "",
          "type": "uint256"
        }
      ],
      "name": "disputes",
      "outputs": [
        {
          "internalType": "uint256",
          "name": "channelId",
          "type": "uint256"
        },
        {
          "internalType": "address",
          "name": "challenger",
          "type": "address"
        },
        {
          "internalType": "address",
          "name": "respondent",
          "type": "address"
        },
        {
          "internalType": "enum BattleshipStateChannel.DisputeType",
          "name": "disputeType",
          "type": "uint8"
        },
        {
          "internalType": "enum BattleshipStateChannel.DisputeStatus",
          "name": "status",
          "type": "uint8"
        },
        {
          "internalType": "uint256",
          "name": "challengeTime",
          "type": "uint256"
        },
        {
          "internalType": "uint256",
          "name": "responseDeadline",
          "type": "uint256"
        },
        {
          "internalType": "bytes32",
          "name": "challengedStateHash",
          "type": "bytes32"
        },
        {
          "internalType": "uint256",
          "name": "challengedNonce",
          "type": "uint256"
        },
        {
          "components": [
            {
              "internalType": "bytes32",
              "name": "stateHash",
              "type": "bytes32"
            },
            {
              "internalType": "uint256",
              "name": "nonce",
              "type": "uint256"
            },
            {
              "internalType": "address",
              "name": "currentTurn",
              "type": "address"
            },
            {
              "internalType": "uint256",
              "name": "moveCount",
              "type": "uint256"
            },
            {
              "internalType": "bytes32",
              "name": "player1ShipCommitment",
              "type": "bytes32"
            },
            {
              "internalType": "bytes32",
              "name": "player2ShipCommitment",
              "type": "bytes32"
            },
            {
              "internalType": "uint8",
              "name": "player1Hits",
              "type": "uint8"
            },
            {
              "internalType": "uint8",
              "name": "player2Hits",
              "type": "uint8"
            },
            {
              "internalType": "bool",
              "name": "gameEnded",
              "type": "bool"
            },
            {
              "internalType": "address",
              "name": "winner",
              "type": "address"
            },
            {
              "internalType": "uint256",
              "name": "timestamp",
              "type": "uint256"
            }
          ],
          "internalType": "struct BattleshipStateChannel.GameState",
          "name": "challengedState",
          "type": "tuple"
        },
        {
          "internalType": "bool",
          "name": "resolved",
          "type": "bool"
        }
      ],
      "stateMutability": "view",
      "type": "function"
    },
    {
      "inputs": [
        {
          "internalType": "bytes32",
          "name": "",
          "type": "bytes32"
        }
      ],
      "name": "gameStates",
      "outputs": [
        {
          "internalType": "bytes32",
          "name": "stateHash",
          "type": "bytes32"
        },
        {
          "internalType": "uint256",
          "name": "nonce",
          "type": "uint256"
        },
        {
          "internalType": "address",
          "name": "currentTurn",
          "type": "address"
        },
        {
          "internalType": "uint256",
          "name": "moveCount",
          "type": "uint256"
        },
        {
          "internalType": "bytes32",
          "name": "player1ShipCommitment",
          "type": "bytes32"
        },
        {
          "internalType": "bytes32",
          "name": "player2ShipCommitment",
          "type": "bytes32"
        },
        {
          "internalType": "uint8",
          "name": "player1Hits",
          "type": "uint8"
        },
        {
          "internalType": "uint8",
          "name": "player2Hits",
          "type": "uint8"
        },
        {
          "internalType": "bool",
          "name": "gameEnded",
          "type": "bool"
        },
        {
          "internalType": "address",
          "name": "winner",
          "type": "address"
        },
        {
          "internalType": "uint256",
          "name": "timestamp",
          "type": "uint256"
        }
      ],
      "stateMutability": "view",
      "type": "function"
    },
    {
      "inputs": [
        {
          "internalType": "uint256",
          "name": "channelId",
          "type": "uint256"
        }
      ],
      "name": "getChannel",
      "outputs": [
        {
          "internalType": "uint256",
          "name": "",
          "type": "uint256"
        },
        {
          "internalType": "address",
          "name": "",
          "type": "address"
        },
        {
          "internalType": "address",
          "name": "",
          "type": "address"
        },
        {
          "internalType": "enum BattleshipStateChannel.ChannelStatus",
          "name": "",
          "type": "uint8"
        },
        {
          "internalType": "uint256",
          "name": "",
          "type": "uint256"
        },
        {
          "internalType": "bytes32",
          "name": "",
          "type": "bytes32"
        },
        {
          "internalType": "uint256",
          "name": "",
          "type": "uint256"
        },
        {
          "internalType": "address",
          "name": "",
          "type": "address"
        },
        {
          "internalType": "uint256",
          "name": "",
          "type": "uint256"
        }
      ],
      "stateMutability": "view",
      "type": "function"
    },
    {
      "inputs": [
        {
          "internalType": "uint256",
          "name": "disputeId",
          "type": "uint256"
        }
      ],
      "name": "getDispute",
      "outputs": [
        {
          "internalType": "uint256",
          "name": "",
          "type": "uint256"
        },
        {
          "internalType": "address",
          "name": "",
          "type": "address"
        },
        {
          "internalType": "address",
          "name": "",
          "type": "address"
        },
        {
          "internalType": "enum BattleshipStateChannel.DisputeType",
          "name": "",
          "type": "uint8"
        },
        {
          "internalType": "enum BattleshipStateChannel.DisputeStatus",
          "name": "",
          "type": "uint8"
        },
        {
          "internalType": "uint256",
          "name": "",
          "type": "uint256"
        },
        {
          "internalType": "uint256",
          "name": "",
          "type": "uint256"
        },
        {
          "internalType": "bytes32",
          "name": "",
          "type": "bytes32"
        },
        {
          "internalType": "uint256",
          "name": "",
          "type": "uint256"
        },
        {
          "internalType": "bool",
          "name": "",
          "type": "bool"
        }
      ],
      "stateMutability": "view",
      "type": "function"
    },
    {
      "inputs": [
        {
          "internalType": "bytes32",
          "name": "stateHash",
          "type": "bytes32"
        }
      ],
      "name": "getGameState",
      "outputs": [
        {
          "components": [
            {
              "internalType": "bytes32",
              "name": "stateHash",
              "type": "bytes32"
            },
            {
              "internalType": "uint256",
              "name": "nonce",
              "type": "uint256"
            },
            {
              "internalType": "address",
              "name": "currentTurn",
              "type": "address"
            },
            {
              "internalType": "uint256",
              "name": "moveCount",
              "type": "uint256"
            },
            {
              "internalType": "bytes32",
              "name": "player1ShipCommitment",
              "type": "bytes32"
            },
            {
              "internalType": "bytes32",
              "name": "player2ShipCommitment",
              "type": "bytes32"
            },
            {
              "internalType": "uint8",
              "name": "player1Hits",
              "type": "uint8"
            },
            {
              "internalType": "uint8",
              "name": "player2Hits",
              "type": "uint8"
            },
            {
              "internalType": "bool",
              "name": "gameEnded",
              "type": "bool"
            },
            {
              "internalType": "address",
              "name": "winner",
              "type": "address"
            },
            {
              "internalType": "uint256",
              "name": "timestamp",
              "type": "uint256"
            }
          ],
          "internalType": "struct BattleshipStateChannel.GameState",
          "name": "",
          "type": "tuple"
        }
      ],
      "stateMutability": "view",
      "type": "function"
    },
    {
      "inputs": [
        {
          "internalType": "address",
          "name": "_shipPlacementVerifier",
          "type": "address"
        },
        {
          "internalType": "address",
          "name": "_moveVerifier",
          "type": "address"
        },
        {
          "internalType": "address",
          "name": "_winVerifier",
          "type": "address"
        }
      ],
      "name": "initialize",
      "outputs": [],
      "stateMutability": "nonpayable",
      "type": "function"
    },
    {
      "inputs": [
        {
          "internalType": "uint256",
          "name": "channelId",
          "type": "uint256"
        },
        {
          "internalType": "enum BattleshipStateChannel.DisputeType",
          "name": "disputeType",
          "type": "uint8"
        },
        {
          "components": [
            {
              "internalType": "bytes32",
              "name": "stateHash",
              "type": "bytes32"
            },
            {
              "internalType": "uint256",
              "name": "nonce",
              "type": "uint256"
            },
            {
              "internalType": "address",
              "name": "currentTurn",
              "type": "address"
            },
            {
              "internalType": "uint256",
              "name": "moveCount",
              "type": "uint256"
            },
            {
              "internalType": "bytes32",
              "name": "player1ShipCommitment",
              "type": "bytes32"
            },
            {
              "internalType": "bytes32",
              "name": "player2ShipCommitment",
              "type": "bytes32"
            },
            {
              "internalType": "uint8",
              "name": "player1Hits",
              "type": "uint8"
            },
            {
              "internalType": "uint8",
              "name": "player2Hits",
              "type": "uint8"
            },
            {
              "internalType": "bool",
              "name": "gameEnded",
              "type": "bool"
            },
            {
              "internalType": "address",
              "name": "winner",
              "type": "address"
            },
            {
              "internalType": "uint256",
              "name": "timestamp",
              "type": "uint256"
            }
          ],
          "internalType": "struct BattleshipStateChannel.GameState",
          "name": "challengedState",
          "type": "tuple"
        },
        {
          "internalType": "bytes",
          "name": "signature1",
          "type": "bytes"
        },
        {
          "internalType": "bytes",
          "name": "signature2",
          "type": "bytes"
        }
      ],
      "name": "initiateDispute",
      "outputs": [],
      "stateMutability": "nonpayable",
      "type": "function"
    },
    {
      "inputs": [],
      "name": "moveVerifier",
      "outputs": [
        {
          "internalType": "contract IMoveVerifier",
          "name": "",
          "type": "address"
        }
      ],
      "stateMutability": "view",
      "type": "function"
    },
    {
      "inputs": [],
      "name": "nextChannelId",
      "outputs": [
        {
          "internalType": "uint256",
          "name": "",
          "type": "uint256"
        }
      ],
      "stateMutability": "view",
      "type": "function"
    },
    {
      "inputs": [],
      "name": "nextDisputeId",
      "outputs": [
        {
          "internalType": "uint256",
          "name": "",
          "type": "uint256"
        }
      ],
      "stateMutability": "view",
      "type": "function"
    },
    {
      "inputs": [
        {
          "internalType": "address",
          "name": "player2",
          "type": "address"
        }
      ],
      "name": "openChannel",
      "outputs": [
        {
          "internalType": "uint256",
          "name": "channelId",
          "type": "uint256"
        }
      ],
      "stateMutability": "nonpayable",
      "type": "function"
    },
    {
      "inputs": [],
      "name": "owner",
      "outputs": [
        {
          "internalType": "address",
          "name": "",
          "type": "address"
        }
      ],
      "stateMutability": "view",
      "type": "function"
    },
    {
      "inputs": [],
      "name": "proxiableUUID",
      "outputs": [
        {
          "internalType": "bytes32",
          "name": "",
          "type": "bytes32"
        }
      ],
      "stateMutability": "view",
      "type": "function"
    },
    {
      "inputs": [],
      "name": "renounceOwnership",
      "outputs": [],
      "stateMutability": "nonpayable",
      "type": "function"
    },
    {
      "inputs": [
        {
          "internalType": "uint256",
          "name": "disputeId",
          "type": "uint256"
        }
      ],
      "name": "resolveDispute",
      "outputs": [],
      "stateMutability": "nonpayable",
      "type": "function"
    },
    {
      "inputs": [
        {
          "internalType": "uint256",
          "name": "disputeId",
          "type": "uint256"
        },
        {
          "components": [
            {
              "internalType": "bytes32",
              "name": "stateHash",
              "type": "bytes32"
            },
            {
              "internalType": "uint256",
              "name": "nonce",
              "type": "uint256"
            },
            {
              "internalType": "address",
              "name": "currentTurn",
              "type": "address"
            },
            {
              "internalType": "uint256",
              "name": "moveCount",
              "type": "uint256"
            },
            {
              "internalType": "bytes32",
              "name": "player1ShipCommitment",
              "type": "bytes32"
            },
            {
              "internalType": "bytes32",
              "name": "player2ShipCommitment",
              "type": "bytes32"
            },
            {
              "internalType": "uint8",
              "name": "player1Hits",
              "type": "uint8"
            },
            {
              "internalType": "uint8",
              "name": "player2Hits",
              "type": "uint8"
            },
            {
              "internalType": "bool",
              "name": "gameEnded",
              "type": "bool"
            },
            {
              "internalType": "address",
              "name": "winner",
              "type": "address"
            },
            {
              "internalType": "uint256",
              "name": "timestamp",
              "type": "uint256"
            }
          ],
          "internalType": "struct BattleshipStateChannel.GameState",
          "name": "counterState",
          "type": "tuple"
        },
        {
          "internalType": "bytes",
          "name": "signature1",
          "type": "bytes"
        },
        {
          "internalType": "bytes",
          "name": "signature2",
          "type": "bytes"
        },
        {
          "components": [
            {
              "internalType": "uint256[2]",
              "name": "pA",
              "type": "uint256[2]"
            },
            {
              "internalType": "uint256[2][2]",
              "name": "pB",
              "type": "uint256[2][2]"
            },
            {
              "internalType": "uint256[2]",
              "name": "pC",
              "type": "uint256[2]"
            },
            {
              "internalType": "uint256[3]",
              "name": "pubSignals",
              "type": "uint256[3]"
            }
          ],
          "internalType": "struct BattleshipStateChannel.MoveProof[]",
          "name": "moveProofs",
          "type": "tuple[]"
        }
      ],
      "name": "respondToDispute",
      "outputs": [],
      "stateMutability": "nonpayable",
      "type": "function"
    },
    {
      "inputs": [
        {
          "internalType": "uint256",
          "name": "channelId",
          "type": "uint256"
        },
        {
          "components": [
            {
              "internalType": "bytes32",
              "name": "stateHash",
              "type": "bytes32"
            },
            {
              "internalType": "uint256",
              "name": "nonce",
              "type": "uint256"
            },
            {
              "internalType": "address",
              "name": "currentTurn",
              "type": "address"
            },
            {
              "internalType": "uint256",
              "name": "moveCount",
              "type": "uint256"
            },
            {
              "internalType": "bytes32",
              "name": "player1ShipCommitment",
              "type": "bytes32"
            },
            {
              "internalType": "bytes32",
              "name": "player2ShipCommitment",
              "type": "bytes32"
            },
            {
              "internalType": "uint8",
              "name": "player1Hits",
              "type": "uint8"
            },
            {
              "internalType": "uint8",
              "name": "player2Hits",
              "type": "uint8"
            },
            {
              "internalType": "bool",
              "name": "gameEnded",
              "type": "bool"
            },
            {
              "internalType": "address",
              "name": "winner",
              "type": "address"
            },
            {
              "internalType": "uint256",
              "name": "timestamp",
              "type": "uint256"
            }
          ],
          "internalType": "struct BattleshipStateChannel.GameState",
          "name": "finalState",
          "type": "tuple"
        },
        {
          "internalType": "bytes",
          "name": "signature1",
          "type": "bytes"
        },
        {
          "internalType": "bytes",
          "name": "signature2",
          "type": "bytes"
        },
        {
          "components": [
            {
              "internalType": "uint256[2]",
              "name": "pA",
              "type": "uint256[2]"
            },
            {
              "internalType": "uint256[2][2]",
              "name": "pB",
              "type": "uint256[2][2]"
            },
            {
              "internalType": "uint256[2]",
              "name": "pC",
              "type": "uint256[2]"
            },
            {
              "internalType": "uint256[3]",
              "name": "pubSignals",
              "type": "uint256[3]"
            }
          ],
          "internalType": "struct BattleshipStateChannel.WinProof",
          "name": "winProof",
          "type": "tuple"
        }
      ],
      "name": "settleChannel",
      "outputs": [],
      "stateMutability": "nonpayable",
      "type": "function"
    },
    {
      "inputs": [],
      "name": "shipPlacementVerifier",
      "outputs": [
        {
          "internalType": "contract IShipPlacementVerifier",
          "name": "",
          "type": "address"
        }
      ],
      "stateMutability": "view",
      "type": "function"
    },
    {
      "inputs": [
        {
          "internalType": "uint256",
          "name": "channelId",
          "type": "uint256"
        },
        {
          "components": [
            {
              "internalType": "bytes32",
              "name": "stateHash",
              "type": "bytes32"
            },
            {
              "internalType": "uint256",
              "name": "nonce",
              "type": "uint256"
            },
            {
              "internalType": "address",
              "name": "currentTurn",
              "type": "address"
            },
            {
              "internalType": "uint256",
              "name": "moveCount",
              "type": "uint256"
            },
            {
              "internalType": "bytes32",
              "name": "player1ShipCommitment",
              "type": "bytes32"
            },
            {
              "internalType": "bytes32",
              "name": "player2ShipCommitment",
              "type": "bytes32"
            },
            {
              "internalType": "uint8",
              "name": "player1Hits",
              "type": "uint8"
            },
            {
              "internalType": "uint8",
              "name": "player2Hits",
              "type": "uint8"
            },
            {
              "internalType": "bool",
              "name": "gameEnded",
              "type": "bool"
            },
            {
              "internalType": "address",
              "name": "winner",
              "type": "address"
            },
            {
              "internalType": "uint256",
              "name": "timestamp",
              "type": "uint256"
            }
          ],
          "internalType": "struct BattleshipStateChannel.GameState",
          "name": "initialState",
          "type": "tuple"
        },
        {
          "internalType": "bytes",
          "name": "signature",
          "type": "bytes"
        },
        {
          "components": [
            {
              "internalType": "uint256[2]",
              "name": "pA",
              "type": "uint256[2]"
            },
            {
              "internalType": "uint256[2][2]",
              "name": "pB",
              "type": "uint256[2][2]"
            },
            {
              "internalType": "uint256[2]",
              "name": "pC",
              "type": "uint256[2]"
            },
            {
              "internalType": "uint256[2]",
              "name": "pubSignals",
              "type": "uint256[2]"
            }
          ],
          "internalType": "struct BattleshipStateChannel.ShipPlacementProof",
          "name": "shipProof",
          "type": "tuple"
        }
      ],
      "name": "submitInitialState",
      "outputs": [],
      "stateMutability": "nonpayable",
      "type": "function"
    },
    {
      "inputs": [
        {
          "internalType": "address",
          "name": "newOwner",
          "type": "address"
        }
      ],
      "name": "transferOwnership",
      "outputs": [],
      "stateMutability": "nonpayable",
      "type": "function"
    },
    {
      "inputs": [
        {
          "internalType": "address",
          "name": "newImplementation",
          "type": "address"
        },
        {
          "internalType": "bytes",
          "name": "data",
          "type": "bytes"
        }
      ],
      "name": "upgradeToAndCall",
      "outputs": [],
      "stateMutability": "payable",
      "type": "function"
    },
    {
      "inputs": [],
      "name": "winVerifier",
      "outputs": [
        {
          "internalType": "contract IWinVerifier",
          "name": "",
          "type": "address"
        }
      ],
      "stateMutability": "view",
      "type": "function"
    }
  ],
  "bytecode": "0x60a0604052306080523480156200001557600080fd5b506200002062000026565b620000da565b7ff0c57e16840df040f15088dc2f81fe391c3923bec73e23a9662efc9c229c6a00805468010000000000000000900460ff1615620000775760405163f92ee8a960e01b815260040160405180910390fd5b80546001600160401b0390811614620000d75780546001600160401b0319166001600160401b0390811782556040519081527fc7f505b2f371ae2175ee4913f4499e1f2633a7b5936321eed1cdaeb6115181d29060200160405180910390a15b50565b60805161360362000104600039600081816121cc015281816121f5015261233b01526136036000f3fe6080604052600436106101c25760003560e01c80638d2d99ee116100f7578063d173bf9c11610095578063f4606f0011610064578063f4606f001461093b578063f5032e5314610951578063f54aed2714610971578063f98b954b1461098657600080fd5b8063d173bf9c146107ef578063e3a96cbd1461080f578063e5949b5d146108a7578063f2fde38b1461091b57600080fd5b8063c0c53b8b116100d1578063c0c53b8b14610670578063c2b7b86814610690578063c3a079ed146106b0578063cd57c20c146106c657600080fd5b80638d2d99ee146105d55780638da5cb5b146105f5578063ad3cb1cc1461063257600080fd5b80634f1ef28611610164578063594d6fdb1161013e578063594d6fdb146105535780636a8d748414610580578063715018a6146105a057806386e773f1146105b557600080fd5b80634f1ef2861461040157806352d1902d14610414578063564a565d1461042957600080fd5b8063183daf4f116101a0578063183daf4f146102945780632abb5e9d146102b65780632fe7e41f146102d6578063489d2220146103c957600080fd5b80630d77a785146101c75780630db39934146101ef57806310df54a014610205575b600080fd5b3480156101d357600080fd5b506101dc606481565b6040519081526020015b60405180910390f35b3480156101fb57600080fd5b506101dc60085481565b34801561021157600080fd5b5061027f6102203660046129d9565b60009081526003602081905260409091208054600182015460028301549383015460048401546005850154600686015460079096015494976001600160a01b039485169785811697600160a01b90910460ff1696949593949293169190565b6040516101e699989796959493929190612a18565b3480156102a057600080fd5b506102b46102af366004612ada565b6109a6565b005b3480156102c257600080fd5b506101dc6102d1366004612ba4565b610da0565b3480156102e257600080fd5b506103626102f13660046129d9565b600660208190526000918252604090912080546001820154600283015460038401546004850154600586015496860154600790960154949693956001600160a01b039384169592949193919260ff80831693610100840482169362010000810490921692630100000090920416908b565b604080519b8c5260208c019a909a526001600160a01b03988916998b019990995260608a0196909652608089019490945260a088019290925260ff90811660c08801521660e0860152151561010085015216610120830152610140820152610160016101e6565b3480156103d557600080fd5b506000546103e9906001600160a01b031681565b6040516001600160a01b0390911681526020016101e6565b6102b461040f366004612c32565b610e9c565b34801561042057600080fd5b506101dc610ebb565b34801561043557600080fd5b5061053c6104443660046129d9565b60046020818152600092835260409283902080546001820154600283015460038401549584015460058501546006860154895161016081018b526007880154815260088801549881019890985260098701546001600160a01b039081169a89019a909a52600a8701546060890152600b8701546080890152600c87015460a0890152600d87015460ff81811660c08b0152610100808304821660e08c015262010000830482161515908b015263010000009091048b166101208a0152600e8801546101408a0152600f9097015495999485169894841697600160a01b8504881697600160a81b9095048516969394929391929091168b565b6040516101e69b9a99989796959493929190612d8c565b34801561055f57600080fd5b506101dc61056e3660046129d9565b60056020526000908152604090205481565b34801561058c57600080fd5b506102b461059b366004612e07565b610ed8565b3480156105ac57600080fd5b506102b46113b2565b3480156105c157600080fd5b506102b46105d03660046129d9565b6113c6565b3480156105e157600080fd5b506002546103e9906001600160a01b031681565b34801561060157600080fd5b507f9016d09d72d40fdae2fd8ceac6b6234c7706214fd39c1cd1e609a0528c199300546001600160a01b03166103e9565b34801561063e57600080fd5b50610663604051806040016040528060058152602001640352e302e360dc1b81525081565b6040516101e69190612ecc565b34801561067c57600080fd5b506102b461068b366004612eff565b611571565b34801561069c57600080fd5b506102b46106ab3660046129d9565b6116c4565b3480156106bc57600080fd5b506101dc61012c81565b3480156106d257600080fd5b506107e26106e13660046129d9565b6040805161016081018252600080825260208201819052918101829052606081018290526080810182905260a0810182905260c0810182905260e0810182905261010081018290526101208101829052610140810191909152506000908152600660208181526040928390208351610160810185528154815260018201549281019290925260028101546001600160a01b03908116948301949094526003810154606083015260048101546080830152600581015460a08301529182015460ff80821660c0840152610100808304821660e0850152620100008304909116151590830152630100000090049092166101208301526007015461014082015290565b6040516101e69190612f4a565b3480156107fb57600080fd5b506001546103e9906001600160a01b031681565b34801561081b57600080fd5b5061089161082a3660046129d9565b600090815260046020819052604090912080546001820154600283015460038401549484015460058501546006860154600f9096015494976001600160a01b03948516979484169660ff600160a01b8604811697600160a81b909604811696959192911690565b6040516101e69a99989796959493929190612f59565b3480156108b357600080fd5b5061027f6108c23660046129d9565b60036020819052600091825260409091208054600182015460028301549383015460048401546005850154600686015460079096015494966001600160a01b039485169685821696600160a01b90920460ff1695169089565b34801561092757600080fd5b506102b4610936366004612ba4565b611902565b34801561094757600080fd5b506101dc60075481565b34801561095d57600080fd5b506102b461096c366004612fc4565b611940565b34801561097d57600080fd5b506101dc607881565b34801561099257600080fd5b506102b46109a13660046130ae565b611dc8565b6000878152600360205260408120906002820154600160a01b900460ff1660038111156109d5576109d56129f2565b14610a1c5760405162461bcd60e51b815260206004820152601260248201527110da185b9b995b081b9bdd081bdc195b995960721b60448201526064015b60405180910390fd5b60018101546001600160a01b0316331480610a43575060028101546001600160a01b031633145b610a5f5760405162461bcd60e51b8152600401610a139061312e565b60008881526005602052604090205415610abb5760405162461bcd60e51b815260206004820152601960248201527f4469737075746520616c726561647920696e69746961746564000000000000006044820152606401610a13565b60018101546000906001600160a01b03163314610ae55760018201546001600160a01b0316610af4565b60028201546001600160a01b03165b9050600087604051602001610b099190613187565b604051602081830303815290604052805190602001209050610b6e8188888080601f01602080910402602001604051908101604052809392919081815260200183838082843760009201919091525050505060018601546001600160a01b0316612148565b610bb05760405162461bcd60e51b8152602060048201526013602482015272496e76616c6964207369676e6174757265203160681b6044820152606401610a13565b610bfd8186868080601f01602080910402602001604051908101604052809392919081815260200183838082843760009201919091525050505060028601546001600160a01b0316612148565b610c3f5760405162461bcd60e51b815260206004820152601360248201527224b73b30b634b21039b4b3b730ba3ab932901960691b6044820152606401610a13565b6008805460009182610c5083613253565b9091555060008181526004602052604090208c8155600181018054336001600160a01b0319918216179091556002820180549182166001600160a01b038816908117825593945091928d92916001600160a81b03191617600160a01b836003811115610cbe57610cbe6129f2565b021790555060028101805460ff60a81b191690554260038201819055610ce69060789061326c565b60048201556005810183905560208a013560068201558960078201610d0b82826132a6565b505060008c815260056020908152604080832085905560028801805460ff60a01b1916600160a01b179055858352600690915290208a90610d4c82826132a6565b905050336001600160a01b0316828d7fb8880effb67dd7283293254619484f4eed363df2b042eb31b547420ec35da1698e604051610d8a91906133c4565b60405180910390a4505050505050505050505050565b60006001600160a01b038216610df85760405162461bcd60e51b815260206004820152601860248201527f496e76616c696420706c617965722061646472657373657300000000000000006044820152606401610a13565b60078054906000610e0883613253565b909155506000818152600360208190526040808320848155600181018054336001600160a01b031990911681179091556002820180546001600160a81b0319166001600160a01b038a169081179091554294830194909455600582018590559151949550939192909185917f55bc5cbdb280ba924235746821de33542a878e786d67a54fd0a95bd64019384491a450919050565b610ea46121c1565b610ead82612266565b610eb7828261226e565b5050565b6000610ec5612330565b506000805160206135ae83398151915290565b610ee0612379565b6000878152600360205260408120906002820154600160a01b900460ff166003811115610f0f57610f0f6129f2565b14610f5c5760405162461bcd60e51b815260206004820152601f60248201527f4368616e6e656c206e6f74206f70656e20666f7220736574746c656d656e74006044820152606401610a13565b60018101546001600160a01b0316331480610f83575060028101546001600160a01b031633145b610f9f5760405162461bcd60e51b8152600401610a139061312e565b60018101546001600160a01b0316600090815260088201602052604090205460ff168015610feb575060028101546001600160a01b0316600090815260088201602052604090205460ff165b6110465760405162461bcd60e51b815260206004820152602660248201527f426f746820706c6179657273206d757374207375626d697420696e697469616c60448201526520737461746560d01b6064820152608401610a13565b600088815260056020526040902054156110b25760405162461bcd60e51b815260206004820152602760248201527f4368616e6e656c2068617320616e206163746976652064697370757465206f6e6044820152662d676f696e672160c81b6064820152608401610a13565b6000876040516020016110c59190613187565b60405160208183030381529060405280519060200120905061112a8188888080601f01602080910402602001604051908101604052809392919081815260200183838082843760009201919091525050505060018501546001600160a01b0316612148565b6111765760405162461bcd60e51b815260206004820152601a60248201527f496e76616c696420506c617965722031207369676e61747572650000000000006044820152606401610a13565b6111c38186868080601f01602080910402602001604051908101604052809392919081815260200183838082843760009201919091525050505060028501546001600160a01b0316612148565b61120f5760405162461bcd60e51b815260206004820152601a60248201527f496e76616c696420506c617965722032207369676e61747572650000000000006044820152606401610a13565b600254604080516308a3cff560e11b81526000926001600160a01b0316916311479fea916112509188919082019060c0830190610100840190600401613401565b602060405180830381865afa15801561126d573d6000803e3d6000fd5b505050506040513d601f19601f820116820180604052508101906112919190613432565b9050806112d45760405162461bcd60e51b815260206004820152601160248201527024b73b30b634b2103bb4b710383937b7b360791b6044820152606401610a13565b6002838101805460ff60a01b1916600160a01b830217905550600680840180546001600160a01b03191633179055600484018390556020808b01356005860155426007860155600084815291905260409020899061133282826132a6565b5061134790506101408a016101208b01612ba4565b6001600160a01b03168a7f92e7428626b1e8dc1430165cf6201218777fc57223037be71113251799bae1ab60405160405180910390a35050506113a960017f9b779b17422d0df92223018b32b4d1fa46e071723d6817e2486d003becc55f0055565b50505050505050565b6113ba6123e9565b6113c46000612444565b565b6000818152600360205260408120906002820154600160a01b900460ff1660038111156113f5576113f56129f2565b146114365760405162461bcd60e51b81526020600482015260116024820152704368616e6e656c206e6f74206f70656e2160781b6044820152606401610a13565b60018101546001600160a01b031633148061145d575060028101546001600160a01b031633145b6114795760405162461bcd60e51b8152600401610a139061312e565b61148661012c600761344f565b8160030154611495919061326c565b42116114e35760405162461bcd60e51b815260206004820152601960248201527f4368616c6c656e676520706572696f64206e6f74206f766572000000000000006044820152606401610a13565b60028101805460ff60a01b1916600160a11b1790556006810180546001600160a01b0319163390811790915542600783015560405183907f2506b4eed08805d7166c29cfd21dbb2c2b7f3009ca99b3cf919dd573ed05ad5190600090a3604051339083907f92e7428626b1e8dc1430165cf6201218777fc57223037be71113251799bae1ab90600090a35050565b600061157b6124b5565b805490915060ff600160401b820416159067ffffffffffffffff166000811580156115a35750825b905060008267ffffffffffffffff1660011480156115c05750303b155b9050811580156115ce575080155b156115ec5760405163f92ee8a960e01b815260040160405180910390fd5b845467ffffffffffffffff19166001178555831561161657845460ff60401b1916600160401b1785555b61161f336124e0565b6116276124f1565b61162f6124f9565b600080546001600160a01b03808b166001600160a01b031992831617909255600180548a841690831617815560028054938a1693909216929092179055600781905560085583156116ba57845460ff60401b19168555604051600181527fc7f505b2f371ae2175ee4913f4499e1f2633a7b5936321eed1cdaeb6115181d29060200160405180910390a15b5050505050505050565b6000818152600460205260409020600f81015460ff16156117275760405162461bcd60e51b815260206004820152601860248201527f4469737075746520616c7265616479207265736f6c76656400000000000000006044820152606401610a13565b6000600282810154600160a81b900460ff1690811115611749576117496129f2565b1480156117595750806004015442115b6117c05760405162461bcd60e51b815260206004820152603260248201527f44697370757465206e6f7420616374697665206f7220726573706f6e736520646044820152711958591b1a5b99481b9bdd081c185cdcd95960721b6064820152608401610a13565b805460009081526003602052604081209080600284810154600160a81b900460ff16908111156117f2576117f26129f2565b0361180b575060018201546001600160a01b031661181b565b5060018201546001600160a01b03165b6002828101805460ff60a01b1916600160a11b179055600680840180546001600160a01b0319166001600160a01b0385169081179091556005868101805460048801559287015490860155426007860155600f8601805460ff19166001179055918501805460ff60a81b1916600160a91b1790555460405190815285907f1cf4fb7a0897dc3f9a1229a1b0a6c5243e5147f0ac591661ff0538932c8c2eb59060200160405180910390a382546040516001600160a01b03831691907f92e7428626b1e8dc1430165cf6201218777fc57223037be71113251799bae1ab90600090a350505050565b61190a6123e9565b6001600160a01b03811661193457604051631e4fbdf760e01b815260006004820152602401610a13565b61193d81612444565b50565b600088815260046020526040812090600282810154600160a81b900460ff169081111561196f5761196f6129f2565b146119b15760405162461bcd60e51b815260206004820152601260248201527144697370757465206e6f742061637469766560701b6044820152606401610a13565b42816004015411611a045760405162461bcd60e51b815260206004820152601860248201527f526573706f6e736520646561646c696e652070617373656400000000000000006044820152606401610a13565b60028101546001600160a01b03163314611a555760405162461bcd60e51b8152602060048201526012602482015271139bdd081d1a19481c995cdc1bdb99195b9d60721b6044820152606401610a13565b80546000908152600360209081526040909120600683015490918a013511611adb5760405162461bcd60e51b815260206004820152603360248201527f4e6f6e636520746f6f206c6f772e20436f756e7465722d7374617465206d757360448201527274206861766520686967686572206e6f6e636560681b6064820152608401610a13565b600089604051602001611aee9190613187565b604051602081830303815290604052805190602001209050611b53818a8a8080601f01602080910402602001604051908101604052809392919081815260200183838082843760009201919091525050505060018501546001600160a01b0316612148565b611b955760405162461bcd60e51b8152602060048201526013602482015272496e76616c6964207369676e6174757265203160681b6044820152606401610a13565b611be28188888080601f01602080910402602001604051908101604052809392919081815260200183838082843760009201919091525050505060028501546001600160a01b0316612148565b611c245760405162461bcd60e51b815260206004820152601360248201527224b73b30b634b21039b4b3b730ba3ab932901960691b6044820152606401610a13565b8315611d21576040805161016081018252600785015481526008850154602082015260098501546001600160a01b0390811692820192909252600a8501546060820152600b8501546080820152600c85015460a0820152600d85015460ff80821660c0840152610100808304821660e085015262010000830490911615159083015263010000009004909116610120820152600e840154610140820152611cdd9086908690611cd8368f90038f018f613466565b612509565b611d215760405162461bcd60e51b8152602060048201526015602482015274496e76616c6964206d6f76652073657175656e636560581b6044820152606401610a13565b60028301805460ff60a81b1916600160a81b179055600583018190558960078401611d4c82826132a6565b505060208a01356006840155611d6360784261326c565b600484015560008181526006602052604090208a90611d8282826132a6565b505060405181815233908c907f8c9fe4fb583483b839f1de68d542bb66cb26f5fbce4ee41c7d381717c61dcbcc9060200160405180910390a35050505050505050505050565b6000858152600360205260408120906002820154600160a01b900460ff166003811115611df757611df76129f2565b14611e375760405162461bcd60e51b815260206004820152601060248201526f21b430b73732b6103737ba1037b832b760811b6044820152606401610a13565b60018101546001600160a01b0316331480611e5e575060028101546001600160a01b031633145b611e7a5760405162461bcd60e51b8152600401610a139061312e565b33600090815260088201602052604090205460ff1615611edc5760405162461bcd60e51b815260206004820152601f60248201527f416c7265616479207375626d697474656420696e697469616c207374617465006044820152606401610a13565b6000805460408051637ae4eb4f60e11b81526001600160a01b039092169163f5c9d69e91611f1c91879182019060c0830190610100840190600401613518565b602060405180830381865afa158015611f39573d6000803e3d6000fd5b505050506040513d601f19601f82011682018060405250810190611f5d9190613432565b905080611fac5760405162461bcd60e51b815260206004820152601c60248201527f496e76616c6964207368697020706c6163656d656e742070726f6f66000000006044820152606401610a13565b600086604051602001611fbf9190613187565b6040516020818303038152906040528051906020012090506120198187878080601f016020809104026020016040519081016040528093929190818152602001838380828437600092019190915250339250612148915050565b6120595760405162461bcd60e51b8152602060048201526011602482015270496e76616c6964207369676e617475726560781b6044820152606401610a13565b33600081815260088501602052604090819020805460ff191660011790555189907fbee23f4bd91359c47ec4f5fec8b03a7205071aa4cd5300fab17846e22a8867b3906120a99085815260200190565b60405180910390a360018301546001600160a01b0316600090815260088401602052604090205460ff1680156120fd575060028301546001600160a01b0316600090815260088401602052604090205460ff165b156116ba576004830181905560405181815288907f31ff072785a17f31ee54e2c21b06372f633d3c9dae231e606c6078a8dd0832609060200160405180910390a25050505050505050565b6040517f19457468657265756d205369676e6564204d6573736167653a0a3332000000006020820152603c81018490526000908190605c01604051602081830303815290604052805190602001209050826001600160a01b03166121ac828661267b565b6001600160a01b0316149150505b9392505050565b306001600160a01b037f000000000000000000000000000000000000000000000000000000000000000016148061224857507f00000000000000000000000000000000000000000000000000000000000000006001600160a01b031661223c6000805160206135ae833981519152546001600160a01b031690565b6001600160a01b031614155b156113c45760405163703e46dd60e11b815260040160405180910390fd5b61193d6123e9565b816001600160a01b03166352d1902d6040518163ffffffff1660e01b8152600401602060405180830381865afa9250505080156122c8575060408051601f3d908101601f191682019092526122c591810190613549565b60015b6122f057604051634c9c8ce360e01b81526001600160a01b0383166004820152602401610a13565b6000805160206135ae833981519152811461232157604051632a87526960e21b815260048101829052602401610a13565b61232b8383612748565b505050565b306001600160a01b037f000000000000000000000000000000000000000000000000000000000000000016146113c45760405163703e46dd60e11b815260040160405180910390fd5b7f9b779b17422d0df92223018b32b4d1fa46e071723d6817e2486d003becc55f008054600119016123bd57604051633ee5aeb560e01b815260040160405180910390fd5b60029055565b60017f9b779b17422d0df92223018b32b4d1fa46e071723d6817e2486d003becc55f0055565b3361241b7f9016d09d72d40fdae2fd8ceac6b6234c7706214fd39c1cd1e609a0528c199300546001600160a01b031690565b6001600160a01b0316146113c45760405163118cdaa760e01b8152336004820152602401610a13565b7f9016d09d72d40fdae2fd8ceac6b6234c7706214fd39c1cd1e609a0528c19930080546001600160a01b031981166001600160a01b03848116918217845560405192169182907f8be0079c531659141344cd1fd0a4f28419497f9722a3daafe3b4186f6b6457e090600090a3505050565b6000807ff0c57e16840df040f15088dc2f81fe391c3923bec73e23a9662efc9c229c6a005b92915050565b6124e861279e565b61193d816127c3565b6113c461279e565b61250161279e565b6113c46127cb565b6000836125585760405162461bcd60e51b815260206004820152601760248201527f4e6f206d6f76652070726f6f66732070726f76696465640000000000000000006044820152606401610a13565b60005b84811015612663576001546000906001600160a01b03166311479fea88888581811061258957612589613562565b905061016002016000018989868181106125a5576125a5613562565b905061016002016040018a8a878181106125c1576125c1613562565b9050610160020160c0018b8b888181106125dd576125dd613562565b90506101600201610100016040518563ffffffff1660e01b81526004016126079493929190613401565b602060405180830381865afa158015612624573d6000803e3d6000fd5b505050506040513d601f19601f820116820180604052508101906126489190613432565b90508061265a57600092505050612673565b5060010161255b565b50612670838387876127d3565b90505b949350505050565b6000815160411461268e575060006124da565b60208201516040830151606084015160001a601b8110156126b7576126b4601b82613578565b90505b8060ff16601b141580156126cf57508060ff16601c14155b156126e057600093505050506124da565b60408051600081526020810180835288905260ff831691810191909152606081018490526080810183905260019060a0016020604051602081039080840390855afa158015612733573d6000803e3d6000fd5b5050604051601f190151979650505050505050565b61275182612841565b6040516001600160a01b038316907fbc7cd75a20ee27fd9adebab32041f755214dbc6bffa90cc0225b39da2e5c2d3b90600090a28051156127965761232b82826128a6565b610eb761291c565b6127a661293b565b6113c457604051631afcd79f60e31b815260040160405180910390fd5b61190a61279e565b6123c361279e565b600084602001518460200151116127ec57506000612673565b60608501516127fc90839061326c565b84606001511461280e57506000612673565b60c085015161282190839060ff1661326c565b8460c0015160ff161461283657506000612673565b506001949350505050565b806001600160a01b03163b60000361287757604051634c9c8ce360e01b81526001600160a01b0382166004820152602401610a13565b6000805160206135ae83398151915280546001600160a01b0319166001600160a01b0392909216919091179055565b6060600080846001600160a01b0316846040516128c39190613591565b600060405180830381855af49150503d80600081146128fe576040519150601f19603f3d011682016040523d82523d6000602084013e612903565b606091505b5091509150612913858383612955565b95945050505050565b34156113c45760405163b398979f60e01b815260040160405180910390fd5b60006129456124b5565b54600160401b900460ff16919050565b60608261296a57612965826129b1565b6121ba565b815115801561298157506001600160a01b0384163b155b156129aa57604051639996b31560e01b81526001600160a01b0385166004820152602401610a13565b50806121ba565b8051156129c057805160208201fd5b60405163d6bda27560e01b815260040160405180910390fd5b6000602082840312156129eb57600080fd5b5035919050565b634e487b7160e01b600052602160045260246000fd5b6004811061193d5761193d6129f2565b8981526001600160a01b0389811660208301528881166040830152610120820190612a4289612a08565b8860608401528760808401528660a08401528560c084015280851660e084015250826101008301529a9950505050505050505050565b60006101608284031215612a8b57600080fd5b50919050565b60008083601f840112612aa357600080fd5b50813567ffffffffffffffff811115612abb57600080fd5b602083019150836020828501011115612ad357600080fd5b9250929050565b60008060008060008060006101e0888a031215612af657600080fd5b87359650602088013560048110612b0c57600080fd5b9550612b1b8960408a01612a78565b94506101a088013567ffffffffffffffff80821115612b3957600080fd5b612b458b838c01612a91565b90965094506101c08a0135915080821115612b5f57600080fd5b50612b6c8a828b01612a91565b989b979a50959850939692959293505050565b6001600160a01b038116811461193d57600080fd5b8035612b9f81612b7f565b919050565b600060208284031215612bb657600080fd5b81356121ba81612b7f565b634e487b7160e01b600052604160045260246000fd5b604051610160810167ffffffffffffffff81118282101715612bfb57612bfb612bc1565b60405290565b604051601f8201601f1916810167ffffffffffffffff81118282101715612c2a57612c2a612bc1565b604052919050565b60008060408385031215612c4557600080fd5b8235612c5081612b7f565b915060208381013567ffffffffffffffff80821115612c6e57600080fd5b818601915086601f830112612c8257600080fd5b813581811115612c9457612c94612bc1565b612ca6601f8201601f19168501612c01565b91508082528784828501011115612cbc57600080fd5b80848401858401376000848284010152508093505050509250929050565b60038110612cea57612cea6129f2565b9052565b80518252602081015160208301526040810151612d1660408401826001600160a01b03169052565b50606081015160608301526080810151608083015260a081015160a083015260c0810151612d4960c084018260ff169052565b5060e0810151612d5e60e084018260ff169052565b5061010081810151151590830152610120808201516001600160a01b03169083015261014090810151910152565b8b81526001600160a01b038b811660208301528a1660408201526102a08101612db48a612a08565b896060830152612dc7608083018a612cda565b8760a08301528660c08301528560e083015284610100830152612dee610120830185612cee565b8215156102808301529c9b505050505050505050505050565b6000806000806000806000610320888a031215612e2357600080fd5b87359650612e348960208a01612a78565b955061018088013567ffffffffffffffff80821115612e5257600080fd5b612e5e8b838c01612a91565b90975095506101a08a0135915080821115612e7857600080fd5b50612e858a828b01612a91565b9094509250612e9a9050896101c08a01612a78565b905092959891949750929550565b60005b83811015612ec3578181015183820152602001612eab565b50506000910152565b6020815260008251806020840152612eeb816040850160208701612ea8565b601f01601f19169190910160400192915050565b600080600060608486031215612f1457600080fd5b8335612f1f81612b7f565b92506020840135612f2f81612b7f565b91506040840135612f3f81612b7f565b809150509250925092565b61016081016124da8284612cee565b8a81526001600160a01b038a81166020830152891660408201526101408101612f8189612a08565b886060830152612f946080830189612cda565b60a082019690965260c081019490945260e084019290925261010083015215156101209091015295945050505050565b6000806000806000806000806101e0898b031215612fe157600080fd5b88359750612ff28a60208b01612a78565b965061018089013567ffffffffffffffff8082111561301057600080fd5b61301c8c838d01612a91565b90985096506101a08b013591508082111561303657600080fd5b6130428c838d01612a91565b90965094506101c08b013591508082111561305c57600080fd5b818b0191508b601f83011261307057600080fd5b81358181111561307f57600080fd5b8c60206101608302850101111561309557600080fd5b6020830194508093505050509295985092959890939650565b60008060008060008587036102e08112156130c857600080fd5b863595506130d98860208901612a78565b945061018087013567ffffffffffffffff8111156130f657600080fd5b61310289828a01612a91565b90955093505061014061019f198201121561311c57600080fd5b506101a0860190509295509295909350565b6020808252600c908201526b2737ba103090383630bcb2b960a11b604082015260600190565b60ff8116811461193d57600080fd5b8035612b9f81613154565b801515811461193d57600080fd5b8035612b9f8161316e565b813581526020808301359082015261016081016131a660408401612b94565b6001600160a01b038116604084015250606083013560608301526080830135608083015260a083013560a08301526131e060c08401613163565b60ff1660c08301526131f460e08401613163565b60ff1660e083015261010061320a84820161317c565b15159083015261012061321e848201612b94565b6001600160a01b03811684830152505061014092830135919092015290565b634e487b7160e01b600052601160045260246000fd5b6000600182016132655761326561323d565b5060010190565b808201808211156124da576124da61323d565b600081356124da81612b7f565b600081356124da81613154565b600081356124da8161316e565b81358155602082013560018201556132e76132c36040840161327f565b6002830180546001600160a01b0319166001600160a01b0392909216919091179055565b606082013560038201556080820135600482015560a082013560058201556006810161332961331860c0850161328c565b825460ff191660ff91909116178255565b61334e61333860e0850161328c565b825461ff00191660089190911b61ff0016178255565b61337a61335e6101008501613299565b82805462ff0000191691151560101b62ff000016919091179055565b6133b461338a610120850161327f565b8280546301000000600160b81b03191660189290921b6301000000600160b81b0316919091179055565b5061014082013560078201555050565b602081016133d183612a08565b91905290565b8060005b60028110156133fb576040808386379384019391909101906001016133db565b50505050565b6101608101604086833761341860408301866133d7565b60408460c084013760608361010084013795945050505050565b60006020828403121561344457600080fd5b81516121ba8161316e565b80820281158282048414176124da576124da61323d565b6000610160828403121561347957600080fd5b613481612bd7565b823581526020830135602082015261349b60408401612b94565b6040820152606083013560608201526080830135608082015260a083013560a08201526134ca60c08401613163565b60c08201526134db60e08401613163565b60e08201526101006134ee81850161317c565b90820152610120613500848201612b94565b90820152610140928301359281019290925250919050565b6101408101604086833761352f60408301866133d7565b60408460c084013760408361010084013795945050505050565b60006020828403121561355b57600080fd5b5051919050565b634e487b7160e01b600052603260045260246000fd5b60ff81811683821601908111156124da576124da61323d565b600082516135a3818460208701612ea8565b919091019291505056fe360894a13ba1a3210667c828492db98dca3e2076cc3735a920a3ca505d382bbca264697066735822122039a73072d41626bac571d6bbe3d4db397c6ea1dac93084aeab96e1f5526fd57064736f6c63430008160033",
  "linkReferences": {},
  "deployedLinkReferences": {}
}