{
  "_format": "hh-sol-artifact-1",
  "contractName": "BattleshipStateChannel",
  "sourceName": "contracts/BattleshipStateChannel.sol",
  "abi": [
    {
      "inputs": [],
      "stateMutability": "nonpayable",
      "type": "constructor"
    },
    {
      "inputs": [
        {
          "internalType": "address",
          "name": "target",
          "type": "address"
        }
      ],
      "name": "AddressEmptyCode",
      "type": "error"
    },
    {
      "inputs": [
        {
          "internalType": "address",
          "name": "implementation",
          "type": "address"
        }
      ],
      "name": "ERC1967InvalidImplementation",
      "type": "error"
    },
    {
      "inputs": [],
      "name": "ERC1967NonPayable",
      "type": "error"
    },
    {
      "inputs": [],
      "name": "FailedCall",
      "type": "error"
    },
    {
      "inputs": [],
      "name": "InvalidInitialization",
      "type": "error"
    },
    {
      "inputs": [],
      "name": "NotInitializing",
      "type": "error"
    },
    {
      "inputs": [
        {
          "internalType": "address",
          "name": "owner",
          "type": "address"
        }
      ],
      "name": "OwnableInvalidOwner",
      "type": "error"
    },
    {
      "inputs": [
        {
          "internalType": "address",
          "name": "account",
          "type": "address"
        }
      ],
      "name": "OwnableUnauthorizedAccount",
      "type": "error"
    },
    {
      "inputs": [],
      "name": "ReentrancyGuardReentrantCall",
      "type": "error"
    },
    {
      "inputs": [],
      "name": "UUPSUnauthorizedCallContext",
      "type": "error"
    },
    {
      "inputs": [
        {
          "internalType": "bytes32",
          "name": "slot",
          "type": "bytes32"
        }
      ],
      "name": "UUPSUnsupportedProxiableUUID",
      "type": "error"
    },
    {
      "anonymous": false,
      "inputs": [
        {
          "indexed": true,
          "internalType": "uint256",
          "name": "channelId",
          "type": "uint256"
        }
      ],
      "name": "ChannelClosed",
      "type": "event"
    },
    {
      "anonymous": false,
      "inputs": [
        {
          "indexed": true,
          "internalType": "uint256",
          "name": "channelId",
          "type": "uint256"
        },
        {
          "indexed": true,
          "internalType": "address",
          "name": "player1",
          "type": "address"
        },
        {
          "indexed": true,
          "internalType": "address",
          "name": "player2",
          "type": "address"
        }
      ],
      "name": "ChannelOpened",
      "type": "event"
    },
    {
      "anonymous": false,
      "inputs": [
        {
          "indexed": true,
          "internalType": "uint256",
          "name": "channelId",
          "type": "uint256"
        },
        {
          "indexed": false,
          "internalType": "bytes32",
          "name": "initialStateHash",
          "type": "bytes32"
        }
      ],
      "name": "ChannelReady",
      "type": "event"
    },
    {
      "anonymous": false,
      "inputs": [
        {
          "indexed": true,
          "internalType": "uint256",
          "name": "channelId",
          "type": "uint256"
        },
        {
          "indexed": true,
          "internalType": "address",
          "name": "winner",
          "type": "address"
        }
      ],
      "name": "ChannelSettled",
      "type": "event"
    },
    {
      "anonymous": false,
      "inputs": [
        {
          "indexed": true,
          "internalType": "uint256",
          "name": "disputeId",
          "type": "uint256"
        },
        {
          "indexed": true,
          "internalType": "address",
          "name": "respondent",
          "type": "address"
        },
        {
          "indexed": false,
          "internalType": "bytes32",
          "name": "newStateHash",
          "type": "bytes32"
        }
      ],
      "name": "DisputeChallenged",
      "type": "event"
    },
    {
      "anonymous": false,
      "inputs": [
        {
          "indexed": true,
          "internalType": "uint256",
          "name": "channelId",
          "type": "uint256"
        },
        {
          "indexed": true,
          "internalType": "uint256",
          "name": "disputeId",
          "type": "uint256"
        },
        {
          "indexed": true,
          "internalType": "address",
          "name": "challenger",
          "type": "address"
        },
        {
          "indexed": false,
          "internalType": "enum BattleshipStateChannel.DisputeType",
          "name": "disputeType",
          "type": "uint8"
        }
      ],
      "name": "DisputeInitiated",
      "type": "event"
    },
    {
      "anonymous": false,
      "inputs": [
        {
          "indexed": true,
          "internalType": "uint256",
          "name": "disputeId",
          "type": "uint256"
        },
        {
          "indexed": true,
          "internalType": "address",
          "name": "winner",
          "type": "address"
        },
        {
          "indexed": false,
          "internalType": "bytes32",
          "name": "finalStateHash",
          "type": "bytes32"
        }
      ],
      "name": "DisputeResolved",
      "type": "event"
    },
    {
      "anonymous": false,
      "inputs": [
        {
          "indexed": true,
          "internalType": "uint256",
          "name": "channelId",
          "type": "uint256"
        },
        {
          "indexed": true,
          "internalType": "address",
          "name": "player",
          "type": "address"
        },
        {
          "indexed": false,
          "internalType": "bytes32",
          "name": "stateHash",
          "type": "bytes32"
        }
      ],
      "name": "InitialStateSubmitted",
      "type": "event"
    },
    {
      "anonymous": false,
      "inputs": [
        {
          "indexed": false,
          "internalType": "uint64",
          "name": "version",
          "type": "uint64"
        }
      ],
      "name": "Initialized",
      "type": "event"
    },
    {
      "anonymous": false,
      "inputs": [
        {
          "indexed": true,
          "internalType": "uint256",
          "name": "channelId",
          "type": "uint256"
        },
        {
          "indexed": true,
          "internalType": "bytes32",
          "name": "moveHash",
          "type": "bytes32"
        },
        {
          "indexed": true,
          "internalType": "address",
          "name": "player",
          "type": "address"
        }
      ],
      "name": "MoveHashVerified",
      "type": "event"
    },
    {
      "anonymous": false,
      "inputs": [
        {
          "indexed": true,
          "internalType": "address",
          "name": "previousOwner",
          "type": "address"
        },
        {
          "indexed": true,
          "internalType": "address",
          "name": "newOwner",
          "type": "address"
        }
      ],
      "name": "OwnershipTransferred",
      "type": "event"
    },
    {
      "anonymous": false,
      "inputs": [
        {
          "indexed": true,
          "internalType": "uint256",
          "name": "channelId",
          "type": "uint256"
        },
        {
          "indexed": true,
          "internalType": "address",
          "name": "claimer",
          "type": "address"
        }
      ],
      "name": "TimeoutClaimed",
      "type": "event"
    },
    {
      "anonymous": false,
      "inputs": [
        {
          "indexed": true,
          "internalType": "address",
          "name": "implementation",
          "type": "address"
        }
      ],
      "name": "Upgraded",
      "type": "event"
    },
    {
      "inputs": [],
      "name": "CHALLENGE_PERIOD",
      "outputs": [
        {
          "internalType": "uint256",
          "name": "",
          "type": "uint256"
        }
      ],
      "stateMutability": "view",
      "type": "function"
    },
    {
      "inputs": [],
      "name": "DOMAIN_SEPARATOR",
      "outputs": [
        {
          "internalType": "bytes32",
          "name": "",
          "type": "bytes32"
        }
      ],
      "stateMutability": "view",
      "type": "function"
    },
    {
      "inputs": [],
      "name": "GAMESTATE_TYPEHASH",
      "outputs": [
        {
          "internalType": "bytes32",
          "name": "",
          "type": "bytes32"
        }
      ],
      "stateMutability": "view",
      "type": "function"
    },
    {
      "inputs": [],
      "name": "MAX_MOVES",
      "outputs": [
        {
          "internalType": "uint256",
          "name": "",
          "type": "uint256"
        }
      ],
      "stateMutability": "view",
      "type": "function"
    },
    {
      "inputs": [],
      "name": "RESPONSE_PERIOD",
      "outputs": [
        {
          "internalType": "uint256",
          "name": "",
          "type": "uint256"
        }
      ],
      "stateMutability": "view",
      "type": "function"
    },
    {
      "inputs": [],
      "name": "TOTAL_SHIP_CELLS",
      "outputs": [
        {
          "internalType": "uint256",
          "name": "",
          "type": "uint256"
        }
      ],
      "stateMutability": "view",
      "type": "function"
    },
    {
      "inputs": [],
      "name": "UPGRADE_INTERFACE_VERSION",
      "outputs": [
        {
          "internalType": "string",
          "name": "",
          "type": "string"
        }
      ],
      "stateMutability": "view",
      "type": "function"
    },
    {
      "inputs": [
        {
          "internalType": "uint256",
          "name": "",
          "type": "uint256"
        }
      ],
      "name": "channelToDispute",
      "outputs": [
        {
          "internalType": "uint256",
          "name": "",
          "type": "uint256"
        }
      ],
      "stateMutability": "view",
      "type": "function"
    },
    {
      "inputs": [
        {
          "internalType": "uint256",
          "name": "",
          "type": "uint256"
        }
      ],
      "name": "channels",
      "outputs": [
        {
          "internalType": "uint256",
          "name": "channelId",
          "type": "uint256"
        },
        {
          "internalType": "address",
          "name": "player1",
          "type": "address"
        },
        {
          "internalType": "address",
          "name": "player2",
          "type": "address"
        },
        {
          "internalType": "enum BattleshipStateChannel.ChannelStatus",
          "name": "status",
          "type": "uint8"
        },
        {
          "internalType": "uint256",
          "name": "openedAt",
          "type": "uint256"
        },
        {
          "internalType": "bytes32",
          "name": "latestStateHash",
          "type": "bytes32"
        },
        {
          "internalType": "uint256",
          "name": "latestNonce",
          "type": "uint256"
        },
        {
          "internalType": "address",
          "name": "winner",
          "type": "address"
        },
        {
          "internalType": "uint256",
          "name": "settlementTime",
          "type": "uint256"
        }
      ],
      "stateMutability": "view",
      "type": "function"
    },
    {
      "inputs": [
        {
          "internalType": "uint256",
          "name": "channelId",
          "type": "uint256"
        }
      ],
      "name": "claimTimeout",
      "outputs": [],
      "stateMutability": "nonpayable",
      "type": "function"
    },
    {
      "inputs": [
        {
          "internalType": "uint256",
          "name": "",
          "type": "uint256"
        }
      ],
      "name": "disputes",
      "outputs": [
        {
          "internalType": "uint256",
          "name": "channelId",
          "type": "uint256"
        },
        {
          "internalType": "address",
          "name": "challenger",
          "type": "address"
        },
        {
          "internalType": "address",
          "name": "respondent",
          "type": "address"
        },
        {
          "internalType": "enum BattleshipStateChannel.DisputeType",
          "name": "disputeType",
          "type": "uint8"
        },
        {
          "internalType": "enum BattleshipStateChannel.DisputeStatus",
          "name": "status",
          "type": "uint8"
        },
        {
          "internalType": "uint256",
          "name": "challengeTime",
          "type": "uint256"
        },
        {
          "internalType": "uint256",
          "name": "responseDeadline",
          "type": "uint256"
        },
        {
          "internalType": "bytes32",
          "name": "challengedStateHash",
          "type": "bytes32"
        },
        {
          "internalType": "uint256",
          "name": "challengedNonce",
          "type": "uint256"
        },
        {
          "components": [
            {
              "internalType": "uint256",
              "name": "nonce",
              "type": "uint256"
            },
            {
              "internalType": "address",
              "name": "currentTurn",
              "type": "address"
            },
            {
              "internalType": "uint256",
              "name": "moveCount",
              "type": "uint256"
            },
            {
              "internalType": "bytes32",
              "name": "player1ShipCommitment",
              "type": "bytes32"
            },
            {
              "internalType": "bytes32",
              "name": "player2ShipCommitment",
              "type": "bytes32"
            },
            {
              "internalType": "uint8",
              "name": "player1Hits",
              "type": "uint8"
            },
            {
              "internalType": "uint8",
              "name": "player2Hits",
              "type": "uint8"
            },
            {
              "internalType": "bool",
              "name": "gameEnded",
              "type": "bool"
            },
            {
              "internalType": "address",
              "name": "winner",
              "type": "address"
            },
            {
              "internalType": "uint256",
              "name": "timestamp",
              "type": "uint256"
            },
            {
              "internalType": "uint256",
              "name": "lastMoveHash",
              "type": "uint256"
            }
          ],
          "internalType": "struct BattleshipStateChannel.GameState",
          "name": "challengedState",
          "type": "tuple"
        },
        {
          "internalType": "bool",
          "name": "resolved",
          "type": "bool"
        },
        {
          "internalType": "bytes32",
          "name": "disputedMoveHash",
          "type": "bytes32"
        }
      ],
      "stateMutability": "view",
      "type": "function"
    },
    {
      "inputs": [
        {
          "internalType": "bytes32",
          "name": "",
          "type": "bytes32"
        }
      ],
      "name": "gameStates",
      "outputs": [
        {
          "internalType": "uint256",
          "name": "nonce",
          "type": "uint256"
        },
        {
          "internalType": "address",
          "name": "currentTurn",
          "type": "address"
        },
        {
          "internalType": "uint256",
          "name": "moveCount",
          "type": "uint256"
        },
        {
          "internalType": "bytes32",
          "name": "player1ShipCommitment",
          "type": "bytes32"
        },
        {
          "internalType": "bytes32",
          "name": "player2ShipCommitment",
          "type": "bytes32"
        },
        {
          "internalType": "uint8",
          "name": "player1Hits",
          "type": "uint8"
        },
        {
          "internalType": "uint8",
          "name": "player2Hits",
          "type": "uint8"
        },
        {
          "internalType": "bool",
          "name": "gameEnded",
          "type": "bool"
        },
        {
          "internalType": "address",
          "name": "winner",
          "type": "address"
        },
        {
          "internalType": "uint256",
          "name": "timestamp",
          "type": "uint256"
        },
        {
          "internalType": "uint256",
          "name": "lastMoveHash",
          "type": "uint256"
        }
      ],
      "stateMutability": "view",
      "type": "function"
    },
    {
      "inputs": [
        {
          "internalType": "uint256",
          "name": "channelId",
          "type": "uint256"
        }
      ],
      "name": "getChannel",
      "outputs": [
        {
          "internalType": "uint256",
          "name": "",
          "type": "uint256"
        },
        {
          "internalType": "address",
          "name": "",
          "type": "address"
        },
        {
          "internalType": "address",
          "name": "",
          "type": "address"
        },
        {
          "internalType": "enum BattleshipStateChannel.ChannelStatus",
          "name": "",
          "type": "uint8"
        },
        {
          "internalType": "uint256",
          "name": "",
          "type": "uint256"
        },
        {
          "internalType": "bytes32",
          "name": "",
          "type": "bytes32"
        },
        {
          "internalType": "uint256",
          "name": "",
          "type": "uint256"
        },
        {
          "internalType": "address",
          "name": "",
          "type": "address"
        },
        {
          "internalType": "uint256",
          "name": "",
          "type": "uint256"
        }
      ],
      "stateMutability": "view",
      "type": "function"
    },
    {
      "inputs": [
        {
          "internalType": "uint256",
          "name": "disputeId",
          "type": "uint256"
        }
      ],
      "name": "getDispute",
      "outputs": [
        {
          "internalType": "uint256",
          "name": "",
          "type": "uint256"
        },
        {
          "internalType": "address",
          "name": "",
          "type": "address"
        },
        {
          "internalType": "address",
          "name": "",
          "type": "address"
        },
        {
          "internalType": "enum BattleshipStateChannel.DisputeType",
          "name": "",
          "type": "uint8"
        },
        {
          "internalType": "enum BattleshipStateChannel.DisputeStatus",
          "name": "",
          "type": "uint8"
        },
        {
          "internalType": "uint256",
          "name": "",
          "type": "uint256"
        },
        {
          "internalType": "uint256",
          "name": "",
          "type": "uint256"
        },
        {
          "internalType": "bytes32",
          "name": "",
          "type": "bytes32"
        },
        {
          "internalType": "uint256",
          "name": "",
          "type": "uint256"
        },
        {
          "internalType": "bool",
          "name": "",
          "type": "bool"
        }
      ],
      "stateMutability": "view",
      "type": "function"
    },
    {
      "inputs": [
        {
          "internalType": "bytes32",
          "name": "stateHash",
          "type": "bytes32"
        }
      ],
      "name": "getGameState",
      "outputs": [
        {
          "components": [
            {
              "internalType": "uint256",
              "name": "nonce",
              "type": "uint256"
            },
            {
              "internalType": "address",
              "name": "currentTurn",
              "type": "address"
            },
            {
              "internalType": "uint256",
              "name": "moveCount",
              "type": "uint256"
            },
            {
              "internalType": "bytes32",
              "name": "player1ShipCommitment",
              "type": "bytes32"
            },
            {
              "internalType": "bytes32",
              "name": "player2ShipCommitment",
              "type": "bytes32"
            },
            {
              "internalType": "uint8",
              "name": "player1Hits",
              "type": "uint8"
            },
            {
              "internalType": "uint8",
              "name": "player2Hits",
              "type": "uint8"
            },
            {
              "internalType": "bool",
              "name": "gameEnded",
              "type": "bool"
            },
            {
              "internalType": "address",
              "name": "winner",
              "type": "address"
            },
            {
              "internalType": "uint256",
              "name": "timestamp",
              "type": "uint256"
            },
            {
              "internalType": "uint256",
              "name": "lastMoveHash",
              "type": "uint256"
            }
          ],
          "internalType": "struct BattleshipStateChannel.GameState",
          "name": "",
          "type": "tuple"
        }
      ],
      "stateMutability": "view",
      "type": "function"
    },
    {
      "inputs": [
        {
          "internalType": "address",
          "name": "_shipPlacementVerifier",
          "type": "address"
        },
        {
          "internalType": "address",
          "name": "_moveVerifier",
          "type": "address"
        },
        {
          "internalType": "address",
          "name": "_winVerifier",
          "type": "address"
        }
      ],
      "name": "initialize",
      "outputs": [],
      "stateMutability": "nonpayable",
      "type": "function"
    },
    {
      "inputs": [
        {
          "internalType": "uint256",
          "name": "channelId",
          "type": "uint256"
        },
        {
          "internalType": "enum BattleshipStateChannel.DisputeType",
          "name": "disputeType",
          "type": "uint8"
        },
        {
          "components": [
            {
              "internalType": "uint256",
              "name": "nonce",
              "type": "uint256"
            },
            {
              "internalType": "address",
              "name": "currentTurn",
              "type": "address"
            },
            {
              "internalType": "uint256",
              "name": "moveCount",
              "type": "uint256"
            },
            {
              "internalType": "bytes32",
              "name": "player1ShipCommitment",
              "type": "bytes32"
            },
            {
              "internalType": "bytes32",
              "name": "player2ShipCommitment",
              "type": "bytes32"
            },
            {
              "internalType": "uint8",
              "name": "player1Hits",
              "type": "uint8"
            },
            {
              "internalType": "uint8",
              "name": "player2Hits",
              "type": "uint8"
            },
            {
              "internalType": "bool",
              "name": "gameEnded",
              "type": "bool"
            },
            {
              "internalType": "address",
              "name": "winner",
              "type": "address"
            },
            {
              "internalType": "uint256",
              "name": "timestamp",
              "type": "uint256"
            },
            {
              "internalType": "uint256",
              "name": "lastMoveHash",
              "type": "uint256"
            }
          ],
          "internalType": "struct BattleshipStateChannel.GameState",
          "name": "challengedState",
          "type": "tuple"
        },
        {
          "internalType": "bytes",
          "name": "signature1",
          "type": "bytes"
        },
        {
          "internalType": "bytes",
          "name": "signature2",
          "type": "bytes"
        },
        {
          "internalType": "bytes32",
          "name": "disputedMoveHash",
          "type": "bytes32"
        }
      ],
      "name": "initiateDispute",
      "outputs": [],
      "stateMutability": "nonpayable",
      "type": "function"
    },
    {
      "inputs": [],
      "name": "moveVerifier",
      "outputs": [
        {
          "internalType": "contract IMoveVerifier",
          "name": "",
          "type": "address"
        }
      ],
      "stateMutability": "view",
      "type": "function"
    },
    {
      "inputs": [],
      "name": "nextChannelId",
      "outputs": [
        {
          "internalType": "uint256",
          "name": "",
          "type": "uint256"
        }
      ],
      "stateMutability": "view",
      "type": "function"
    },
    {
      "inputs": [],
      "name": "nextDisputeId",
      "outputs": [
        {
          "internalType": "uint256",
          "name": "",
          "type": "uint256"
        }
      ],
      "stateMutability": "view",
      "type": "function"
    },
    {
      "inputs": [
        {
          "internalType": "address",
          "name": "player2",
          "type": "address"
        }
      ],
      "name": "openChannel",
      "outputs": [
        {
          "internalType": "uint256",
          "name": "channelId",
          "type": "uint256"
        }
      ],
      "stateMutability": "nonpayable",
      "type": "function"
    },
    {
      "inputs": [],
      "name": "owner",
      "outputs": [
        {
          "internalType": "address",
          "name": "",
          "type": "address"
        }
      ],
      "stateMutability": "view",
      "type": "function"
    },
    {
      "inputs": [],
      "name": "proxiableUUID",
      "outputs": [
        {
          "internalType": "bytes32",
          "name": "",
          "type": "bytes32"
        }
      ],
      "stateMutability": "view",
      "type": "function"
    },
    {
      "inputs": [],
      "name": "renounceOwnership",
      "outputs": [],
      "stateMutability": "nonpayable",
      "type": "function"
    },
    {
      "inputs": [
        {
          "internalType": "uint256",
          "name": "disputeId",
          "type": "uint256"
        }
      ],
      "name": "resolveDispute",
      "outputs": [],
      "stateMutability": "nonpayable",
      "type": "function"
    },
    {
      "inputs": [
        {
          "internalType": "uint256",
          "name": "disputeId",
          "type": "uint256"
        },
        {
          "components": [
            {
              "internalType": "uint256",
              "name": "nonce",
              "type": "uint256"
            },
            {
              "internalType": "address",
              "name": "currentTurn",
              "type": "address"
            },
            {
              "internalType": "uint256",
              "name": "moveCount",
              "type": "uint256"
            },
            {
              "internalType": "bytes32",
              "name": "player1ShipCommitment",
              "type": "bytes32"
            },
            {
              "internalType": "bytes32",
              "name": "player2ShipCommitment",
              "type": "bytes32"
            },
            {
              "internalType": "uint8",
              "name": "player1Hits",
              "type": "uint8"
            },
            {
              "internalType": "uint8",
              "name": "player2Hits",
              "type": "uint8"
            },
            {
              "internalType": "bool",
              "name": "gameEnded",
              "type": "bool"
            },
            {
              "internalType": "address",
              "name": "winner",
              "type": "address"
            },
            {
              "internalType": "uint256",
              "name": "timestamp",
              "type": "uint256"
            },
            {
              "internalType": "uint256",
              "name": "lastMoveHash",
              "type": "uint256"
            }
          ],
          "internalType": "struct BattleshipStateChannel.GameState",
          "name": "counterState",
          "type": "tuple"
        },
        {
          "internalType": "bytes",
          "name": "signature1",
          "type": "bytes"
        },
        {
          "internalType": "bytes",
          "name": "signature2",
          "type": "bytes"
        },
        {
          "components": [
            {
              "internalType": "uint256[2]",
              "name": "pA",
              "type": "uint256[2]"
            },
            {
              "internalType": "uint256[2][2]",
              "name": "pB",
              "type": "uint256[2][2]"
            },
            {
              "internalType": "uint256[2]",
              "name": "pC",
              "type": "uint256[2]"
            },
            {
              "internalType": "uint256[7]",
              "name": "pubSignals",
              "type": "uint256[7]"
            }
          ],
          "internalType": "struct BattleshipStateChannel.MoveProof",
          "name": "disputedStateMoveProof",
          "type": "tuple"
        },
        {
          "components": [
            {
              "internalType": "uint256",
              "name": "nonce",
              "type": "uint256"
            },
            {
              "internalType": "address",
              "name": "currentTurn",
              "type": "address"
            },
            {
              "internalType": "uint256",
              "name": "moveCount",
              "type": "uint256"
            },
            {
              "internalType": "bytes32",
              "name": "player1ShipCommitment",
              "type": "bytes32"
            },
            {
              "internalType": "bytes32",
              "name": "player2ShipCommitment",
              "type": "bytes32"
            },
            {
              "internalType": "uint8",
              "name": "player1Hits",
              "type": "uint8"
            },
            {
              "internalType": "uint8",
              "name": "player2Hits",
              "type": "uint8"
            },
            {
              "internalType": "bool",
              "name": "gameEnded",
              "type": "bool"
            },
            {
              "internalType": "address",
              "name": "winner",
              "type": "address"
            },
            {
              "internalType": "uint256",
              "name": "timestamp",
              "type": "uint256"
            },
            {
              "internalType": "uint256",
              "name": "lastMoveHash",
              "type": "uint256"
            }
          ],
          "internalType": "struct BattleshipStateChannel.GameState",
          "name": "preDisputedMoveState",
          "type": "tuple"
        }
      ],
      "name": "respondToDispute",
      "outputs": [],
      "stateMutability": "nonpayable",
      "type": "function"
    },
    {
      "inputs": [
        {
          "internalType": "uint256",
          "name": "channelId",
          "type": "uint256"
        },
        {
          "components": [
            {
              "internalType": "uint256",
              "name": "nonce",
              "type": "uint256"
            },
            {
              "internalType": "address",
              "name": "currentTurn",
              "type": "address"
            },
            {
              "internalType": "uint256",
              "name": "moveCount",
              "type": "uint256"
            },
            {
              "internalType": "bytes32",
              "name": "player1ShipCommitment",
              "type": "bytes32"
            },
            {
              "internalType": "bytes32",
              "name": "player2ShipCommitment",
              "type": "bytes32"
            },
            {
              "internalType": "uint8",
              "name": "player1Hits",
              "type": "uint8"
            },
            {
              "internalType": "uint8",
              "name": "player2Hits",
              "type": "uint8"
            },
            {
              "internalType": "bool",
              "name": "gameEnded",
              "type": "bool"
            },
            {
              "internalType": "address",
              "name": "winner",
              "type": "address"
            },
            {
              "internalType": "uint256",
              "name": "timestamp",
              "type": "uint256"
            },
            {
              "internalType": "uint256",
              "name": "lastMoveHash",
              "type": "uint256"
            }
          ],
          "internalType": "struct BattleshipStateChannel.GameState",
          "name": "finalState",
          "type": "tuple"
        },
        {
          "internalType": "bytes",
          "name": "signature1",
          "type": "bytes"
        },
        {
          "internalType": "bytes",
          "name": "signature2",
          "type": "bytes"
        },
        {
          "components": [
            {
              "internalType": "uint256[2]",
              "name": "pA",
              "type": "uint256[2]"
            },
            {
              "internalType": "uint256[2][2]",
              "name": "pB",
              "type": "uint256[2][2]"
            },
            {
              "internalType": "uint256[2]",
              "name": "pC",
              "type": "uint256[2]"
            },
            {
              "internalType": "uint256[3]",
              "name": "pubSignals",
              "type": "uint256[3]"
            }
          ],
          "internalType": "struct BattleshipStateChannel.WinProof",
          "name": "winProof",
          "type": "tuple"
        }
      ],
      "name": "settleChannel",
      "outputs": [],
      "stateMutability": "nonpayable",
      "type": "function"
    },
    {
      "inputs": [],
      "name": "shipPlacementVerifier",
      "outputs": [
        {
          "internalType": "contract IShipPlacementVerifier",
          "name": "",
          "type": "address"
        }
      ],
      "stateMutability": "view",
      "type": "function"
    },
    {
      "inputs": [
        {
          "internalType": "uint256",
          "name": "channelId",
          "type": "uint256"
        },
        {
          "components": [
            {
              "internalType": "uint256",
              "name": "nonce",
              "type": "uint256"
            },
            {
              "internalType": "address",
              "name": "currentTurn",
              "type": "address"
            },
            {
              "internalType": "uint256",
              "name": "moveCount",
              "type": "uint256"
            },
            {
              "internalType": "bytes32",
              "name": "player1ShipCommitment",
              "type": "bytes32"
            },
            {
              "internalType": "bytes32",
              "name": "player2ShipCommitment",
              "type": "bytes32"
            },
            {
              "internalType": "uint8",
              "name": "player1Hits",
              "type": "uint8"
            },
            {
              "internalType": "uint8",
              "name": "player2Hits",
              "type": "uint8"
            },
            {
              "internalType": "bool",
              "name": "gameEnded",
              "type": "bool"
            },
            {
              "internalType": "address",
              "name": "winner",
              "type": "address"
            },
            {
              "internalType": "uint256",
              "name": "timestamp",
              "type": "uint256"
            },
            {
              "internalType": "uint256",
              "name": "lastMoveHash",
              "type": "uint256"
            }
          ],
          "internalType": "struct BattleshipStateChannel.GameState",
          "name": "initialState",
          "type": "tuple"
        },
        {
          "internalType": "bytes",
          "name": "signature",
          "type": "bytes"
        },
        {
          "components": [
            {
              "internalType": "uint256[2]",
              "name": "pA",
              "type": "uint256[2]"
            },
            {
              "internalType": "uint256[2][2]",
              "name": "pB",
              "type": "uint256[2][2]"
            },
            {
              "internalType": "uint256[2]",
              "name": "pC",
              "type": "uint256[2]"
            },
            {
              "internalType": "uint256[2]",
              "name": "pubSignals",
              "type": "uint256[2]"
            }
          ],
          "internalType": "struct BattleshipStateChannel.ShipPlacementProof",
          "name": "shipProof",
          "type": "tuple"
        }
      ],
      "name": "submitInitialState",
      "outputs": [
        {
          "internalType": "bytes32",
          "name": "",
          "type": "bytes32"
        }
      ],
      "stateMutability": "nonpayable",
      "type": "function"
    },
    {
      "inputs": [
        {
          "internalType": "address",
          "name": "newOwner",
          "type": "address"
        }
      ],
      "name": "transferOwnership",
      "outputs": [],
      "stateMutability": "nonpayable",
      "type": "function"
    },
    {
      "inputs": [
        {
          "internalType": "address",
          "name": "newImplementation",
          "type": "address"
        },
        {
          "internalType": "bytes",
          "name": "data",
          "type": "bytes"
        }
      ],
      "name": "upgradeToAndCall",
      "outputs": [],
      "stateMutability": "payable",
      "type": "function"
    },
    {
      "inputs": [
        {
          "internalType": "uint256",
          "name": "",
          "type": "uint256"
        },
        {
          "internalType": "bytes32",
          "name": "",
          "type": "bytes32"
        }
      ],
      "name": "verifiedMoveHashes",
      "outputs": [
        {
          "internalType": "bool",
          "name": "",
          "type": "bool"
        }
      ],
      "stateMutability": "view",
      "type": "function"
    },
    {
      "inputs": [],
      "name": "winVerifier",
      "outputs": [
        {
          "internalType": "contract IWinVerifier",
          "name": "",
          "type": "address"
        }
      ],
      "stateMutability": "view",
      "type": "function"
    }
  ],
  "bytecode": "0x60a0604052306080523480156200001557600080fd5b506200002062000026565b620000da565b7ff0c57e16840df040f15088dc2f81fe391c3923bec73e23a9662efc9c229c6a00805468010000000000000000900460ff1615620000775760405163f92ee8a960e01b815260040160405180910390fd5b80546001600160401b0390811614620000d75780546001600160401b0319166001600160401b0390811782556040519081527fc7f505b2f371ae2175ee4913f4499e1f2633a7b5936321eed1cdaeb6115181d29060200160405180910390a15b50565b6080516146c862000104600039600081816126020152818161262b015261277101526146c86000f3fe6080604052600436106101ee5760003560e01c80638d2d99ee1161010d578063c3a079ed116100a0578063e5949b5d1161006f578063e5949b5d146109ba578063f2fde38b14610a31578063f4606f0014610a51578063f4c618cd14610a67578063f54aed2714610a7c57600080fd5b8063c3a079ed146107bf578063cd57c20c146107d5578063d173bf9c14610901578063e3a96cbd1461092157600080fd5b80639b5d0a18116100dc5780639b5d0a1814610721578063ad3cb1cc14610741578063c0c53b8b1461077f578063c2b7b8681461079f57600080fd5b80638d2d99ee146106595780638da5cb5b1461067957806397647983146106b657806398024e72146106d657600080fd5b806351982d6411610185578063578987671161015457806357898767146105d7578063594d6fdb146105f7578063715018a61461062457806386e773f11461063957600080fd5b806351982d641461043757806352d1902d1461046b578063552805b514610480578063564a565d146104a057600080fd5b80632fe7e41f116101c15780632fe7e41f146102e25780633644e515146103d4578063489d2220146103ea5780634f1ef2861461042257600080fd5b80630d77a785146101f35780630db399341461021b57806310df54a0146102315780632abb5e9d146102c2575b600080fd5b3480156101ff57600080fd5b50610208606481565b6040519081526020015b60405180910390f35b34801561022757600080fd5b50610208600a5481565b34801561023d57600080fd5b506102ad61024c366004613c01565b60009081526004602081905260409091208054600182015460028301546003840154948401546005850154600686015460079096015494976001600160a01b039485169785851697600160a01b90950460ff16969095939492939092169190565b60405161021299989796959493929190613c30565b3480156102ce57600080fd5b506102086102dd366004613cb3565b610a91565b3480156102ee57600080fd5b5061036e6102fd366004613c01565b60076020819052600091825260409091208054600182015460028301546003840154600485015460058601546006870154969097015494966001600160a01b039485169693959294919360ff808316946101008404821694620100008504909216936301000000900490911691908b565b604080519b8c526001600160a01b039a8b1660208d01528b019890985260608a0196909652608089019490945260ff92831660a0890152911660c0870152151560e086015290921661010084015261012083019190915261014082015261016001610212565b3480156103e057600080fd5b5061020860035481565b3480156103f657600080fd5b5060005461040a906001600160a01b031681565b6040516001600160a01b039091168152602001610212565b610435610430366004613d3f565b610be7565b005b34801561044357600080fd5b506102087f887df993491622053e8f03b5c7f04dfb051d1566ad1e108052f890883ca9e75181565b34801561047757600080fd5b50610208610c06565b34801561048c57600080fd5b5061043561049b366004613f0b565b610c23565b3480156104ac57600080fd5b506105bf6104bb366004613c01565b60056020818152600092835260409283902080546001820154600283015460038401546004850154968501546006860154895161016081018b526007880154815260088801546001600160a01b039081169982019990995260098801549a81019a909a52600a87015460608b0152600b87015460808b0152600c87015460ff81811660a08d0152610100808304821660c08e01526201000083048216151560e08e015263010000009092048a16918c0191909152600d8801546101208c0152600e8801546101408c0152600f880154601090980154969a9589169998851698600160a01b8604821698600160a81b909604821697949690959394929390929116908c565b6040516102129c9b9a99989796959493929190614082565b3480156105e357600080fd5b506104356105f23660046140fe565b6112ff565b34801561060357600080fd5b50610208610612366004613c01565b60066020526000908152604090205481565b34801561063057600080fd5b50610435611920565b34801561064557600080fd5b50610435610654366004613c01565b611934565b34801561066557600080fd5b5060025461040a906001600160a01b031681565b34801561068557600080fd5b507f9016d09d72d40fdae2fd8ceac6b6234c7706214fd39c1cd1e609a0528c199300546001600160a01b031661040a565b3480156106c257600080fd5b506102086106d13660046141bd565b611ad9565b3480156106e257600080fd5b506107116106f136600461423d565b600860209081526000928352604080842090915290825290205460ff1681565b6040519015158152602001610212565b34801561072d57600080fd5b5061043561073c36600461425f565b611f2b565b34801561074d57600080fd5b50610772604051806040016040528060058152602001640352e302e360dc1b81525081565b6040516102129190614330565b34801561078b57600080fd5b5061043561079a366004614363565b612189565b3480156107ab57600080fd5b506104356107ba366004613c01565b6123b0565b3480156107cb57600080fd5b5061020861012c81565b3480156107e157600080fd5b506108f46107f0366004613c01565b6040805161016081018252600080825260208201819052918101829052606081018290526080810182905260a0810182905260c0810182905260e0810182905261010081018290526101208101829052610140810191909152506000908152600760208181526040928390208351610160810185528154815260018201546001600160a01b03908116938201939093526002820154948101949094526003810154606085015260048101546080850152600581015460ff80821660a0870152610100808304821660c0880152620100008304909116151560e08701526301000000909104909216918401919091526006810154610120840152015461014082015290565b60405161021291906143a6565b34801561090d57600080fd5b5060015461040a906001600160a01b031681565b34801561092d57600080fd5b506109a461093c366004613c01565b600090815260056020819052604090912080546001820154600283015460038401546004850154958501546006860154600f9096015494976001600160a01b03948516979484169660ff600160a01b8604811697600160a81b90960481169694959192911690565b6040516102129a999897969594939291906143b5565b3480156109c657600080fd5b506102ad6109d5366004613c01565b60046020819052600091825260409091208054600182015460028301546003840154948401546005850154600686015460079096015494966001600160a01b039485169685851696600160a01b90950460ff1695919491169089565b348015610a3d57600080fd5b50610435610a4c366004613cb3565b6125b9565b348015610a5d57600080fd5b5061020860095481565b348015610a7357600080fd5b50610208600c81565b348015610a8857600080fd5b50610208607881565b60006001600160a01b038216610aee5760405162461bcd60e51b815260206004820152601860248201527f496e76616c696420706c6179657220616464726573736573000000000000000060448201526064015b60405180910390fd5b336001600160a01b03831603610b465760405162461bcd60e51b815260206004820152601c60248201527f43616e6e6f7420706c617920616761696e737420796f757273656c66000000006044820152606401610ae5565b60098054906000610b5683614434565b90915550600081815260046020526040808220838155600181018054336001600160a01b031990911681179091556002820180546001600160a81b0319166001600160a01b03891690811790915542600384015560058301859055925194955090939192909185917f55bc5cbdb280ba924235746821de33542a878e786d67a54fd0a95bd64019384491a450919050565b610bef6125f7565b610bf88261269c565b610c0282826126a4565b5050565b6000610c10612766565b5060008051602061465383398151915290565b610c2b6127af565b6000878152600460205260408120906002820154600160a01b900460ff166003811115610c5a57610c5a613c1a565b14610ca75760405162461bcd60e51b815260206004820152601f60248201527f4368616e6e656c206e6f74206f70656e20666f7220736574746c656d656e74006044820152606401610ae5565b60018101546001600160a01b0316331480610cce575060028101546001600160a01b031633145b610cea5760405162461bcd60e51b8152600401610ae59061444d565b60018101546001600160a01b0316600090815260088201602052604090205460ff168015610d36575060028101546001600160a01b0316600090815260088201602052604090205460ff165b610d915760405162461bcd60e51b815260206004820152602660248201527f426f746820706c6179657273206d757374207375626d697420696e697469616c60448201526520737461746560d01b6064820152608401610ae5565b60008881526006602052604090205415610dfd5760405162461bcd60e51b815260206004820152602760248201527f4368616e6e656c2068617320616e206163746976652064697370757465206f6e6044820152662d676f696e672160c81b6064820152608401610ae5565b6000610e08886127f9565b6001830154909150610e28908290899089906001600160a01b03166128f0565b610e745760405162461bcd60e51b815260206004820152601a60248201527f496e76616c696420506c617965722031207369676e61747572650000000000006044820152606401610ae5565b6002820154610e91908290879087906001600160a01b03166128f0565b610edd5760405162461bcd60e51b815260206004820152601a60248201527f496e76616c696420506c617965722032207369676e61747572650000000000006044820152606401610ae5565b600254604080516308a3cff560e11b81526000926001600160a01b0316916311479fea91610f1e9188919082019060c083019061010084019060040161449d565b602060405180830381865afa158015610f3b573d6000803e3d6000fd5b505050506040513d601f19601f82011682018060405250810190610f5f91906144ce565b905080610fa25760405162461bcd60e51b815260206004820152601160248201527024b73b30b634b2103bb4b710383937b7b360791b6044820152606401610ae5565b60e08901511515600114610fed5760405162461bcd60e51b815260206004820152601260248201527111d85b59481b5d5cdd08189948195b99195960721b6044820152606401610ae5565b6101008901516001600160a01b031661103d5760405162461bcd60e51b815260206004820152601260248201527115da5b9b995c881b5d5cdd081899481cd95d60721b6044820152606401610ae5565b60018301546101008a01516001600160a01b0390811691161480611076575060028301546101008a01516001600160a01b039081169116145b6110b35760405162461bcd60e51b815260206004820152600e60248201526d24b73b30b634b2103bb4b73732b960911b6044820152606401610ae5565b600c8960a0015160ff161015806110d25750600c8960c0015160ff1610155b6111165760405162461bcd60e51b8152602060048201526015602482015274139bc81c1b185e595c881a185cc81ddbdb881e595d605a1b6044820152606401610ae5565b6002838101805460ff60a01b1916600160a01b8302179055508861010001518360060160006101000a8154816001600160a01b0302191690836001600160a01b031602179055508183600401819055508860000151836005018190555042836007018190555088600760008481526020019081526020016000206000820151816000015560208201518160010160006101000a8154816001600160a01b0302191690836001600160a01b0316021790555060408201518160020155606082015181600301556080820151816004015560a08201518160050160006101000a81548160ff021916908360ff16021790555060c08201518160050160016101000a81548160ff021916908360ff16021790555060e08201518160050160026101000a81548160ff0219169083151502179055506101008201518160050160036101000a8154816001600160a01b0302191690836001600160a01b03160217905550610120820151816006015561014082015181600701559050508260060160009054906101000a90046001600160a01b03166001600160a01b03168a60008051602061467383398151915260405160405180910390a35050506112f660017f9b779b17422d0df92223018b32b4d1fa46e071723d6817e2486d003becc55f0055565b50505050505050565b600088815260056020526040812090600282810154600160a81b900460ff169081111561132e5761132e613c1a565b146113705760405162461bcd60e51b815260206004820152601260248201527144697370757465206e6f742061637469766560701b6044820152606401610ae5565b428160040154116113c35760405162461bcd60e51b815260206004820152601860248201527f526573706f6e736520646561646c696e652070617373656400000000000000006044820152606401610ae5565b60028101546001600160a01b031633146114145760405162461bcd60e51b8152602060048201526012602482015271139bdd081d1a19481c995cdc1bdb99195b9d60721b6044820152606401610ae5565b8054600090815260046020526040902060068201548951101561149f5760405162461bcd60e51b815260206004820152603c60248201527f4e6f6e636520746f6f206c6f772e20436f756e7465722d7374617465206d757360448201527f74206861766520686967686572206f7220657175616c206e6f6e6365000000006064820152608401610ae5565b60006114aa8a6127f9565b60018301549091506114ca9082908b908b906001600160a01b03166128f0565b6114e65760405162461bcd60e51b8152600401610ae5906144eb565b6002820154611503908290899089906001600160a01b03166128f0565b61151f5760405162461bcd60e51b8152600401610ae590614518565b600061152e8487878e8761293e565b905080156115b8576006830180546001600160a01b03191633908117909155600484018390558b516005850155835460009081526008602090815260408083206101c08b01358085529252808320805460ff1916600117905586549051919290917fdbd8535529ebb73d8587be8aed590a906923ce60619c098a2be15a86fb029f819190a46115f4565b6001840154600680850180546001600160a01b0319166001600160a01b0390931692909217909155600580860154600486015590850154908401555b4260078401556002808401805460ff60a01b1916600160a01b8302179055506002848101805460ff60a81b1916600160a81b830217905550600184600f0160006101000a81548160ff0219169083151502179055508184600501819055508a846007016000820151816000015560208201518160010160006101000a8154816001600160a01b0302191690836001600160a01b0316021790555060408201518160020155606082015181600301556080820151816004015560a08201518160050160006101000a81548160ff021916908360ff16021790555060c08201518160050160016101000a81548160ff021916908360ff16021790555060e08201518160050160026101000a81548160ff0219169083151502179055506101008201518160050160036101000a8154816001600160a01b0302191690836001600160a01b03160217905550610120820151816006015561014082015181600701559050508a60000151846006018190555060784261176f9190614545565b84600401819055508a600760008481526020019081526020016000206000820151816000015560208201518160010160006101000a8154816001600160a01b0302191690836001600160a01b0316021790555060408201518160020155606082015181600301556080820151816004015560a08201518160050160006101000a81548160ff021916908360ff16021790555060c08201518160050160016101000a81548160ff021916908360ff16021790555060e08201518160050160026101000a81548160ff0219169083151502179055506101008201518160050160036101000a8154816001600160a01b0302191690836001600160a01b03160217905550610120820151816006015561014082015181600701559050508260060160009054906101000a90046001600160a01b03166001600160a01b03168c7f1cf4fb7a0897dc3f9a1229a1b0a6c5243e5147f0ac591661ff0538932c8c2eb586600501546040516118e091815260200190565b60405180910390a3600683015484546040516001600160a01b039092169160008051602061467383398151915290600090a3505050505050505050505050565b6119286129fa565b6119326000612a55565b565b6000818152600460205260409020600280820154600160a01b900460ff16600381111561196357611963613c1a565b036119b05760405162461bcd60e51b815260206004820152601860248201527f4368616e6e656c20616c726561647920736574746c65642100000000000000006044820152606401610ae5565b60018101546001600160a01b03163314806119d7575060028101546001600160a01b031633145b6119f35760405162461bcd60e51b8152600401610ae59061444d565b611a0061012c6007614558565b8160030154611a0f9190614545565b4211611a5d5760405162461bcd60e51b815260206004820152601960248201527f4368616c6c656e676520706572696f64206e6f74206f766572000000000000006044820152606401610ae5565b60028101805460ff60a01b1916600160a11b1790556006810180546001600160a01b0319163390811790915542600783015560405183907f2506b4eed08805d7166c29cfd21dbb2c2b7f3009ca99b3cf919dd573ed05ad5190600090a36040513390839060008051602061467383398151915290600090a35050565b6000858152600460205260408120816002820154600160a01b900460ff166003811115611b0857611b08613c1a565b14611b485760405162461bcd60e51b815260206004820152601060248201526f21b430b73732b6103737ba1037b832b760811b6044820152606401610ae5565b60018101546001600160a01b0316331480611b6f575060028101546001600160a01b031633145b611b8b5760405162461bcd60e51b8152600401610ae59061444d565b33600090815260088201602052604090205460ff1615611bed5760405162461bcd60e51b815260206004820152601f60248201527f416c7265616479207375626d697474656420696e697469616c207374617465006044820152606401610ae5565b6000805460408051637ae4eb4f60e11b81526001600160a01b039092169163f5c9d69e91611c2d91889182019060c083019061010084019060040161456f565b602060405180830381865afa158015611c4a573d6000803e3d6000fd5b505050506040513d601f19601f82011682018060405250810190611c6e91906144ce565b905080611cbd5760405162461bcd60e51b815260206004820152601c60248201527f496e76616c6964207368697020706c6163656d656e742070726f6f66000000006044820152606401610ae5565b6000611cc8886127f9565b90506000611cd7828989612ac6565b90506001600160a01b0381163314611d225760405162461bcd60e51b815260206004820152600e60248201526d24b73b30b634b21039b4b3b732b960911b6044820152606401610ae5565b33600081815260088601602052604090819020805460ff19166001179055518b907fbee23f4bd91359c47ec4f5fec8b03a7205071aa4cd5300fab17846e22a8867b390611d729086815260200190565b60405180910390a360018401546001600160a01b0316600090815260088501602052604090205460ff168015611dc6575060028401546001600160a01b0316600090815260088501602052604090205460ff165b15611e0857600484018290556040518281528a907f31ff072785a17f31ee54e2c21b06372f633d3c9dae231e606c6078a8dd0832609060200160405180910390a25b88600760008481526020019081526020016000206000820151816000015560208201518160010160006101000a8154816001600160a01b0302191690836001600160a01b0316021790555060408201518160020155606082015181600301556080820151816004015560a08201518160050160006101000a81548160ff021916908360ff16021790555060c08201518160050160016101000a81548160ff021916908360ff16021790555060e08201518160050160026101000a81548160ff0219169083151502179055506101008201518160050160036101000a8154816001600160a01b0302191690836001600160a01b0316021790555061012082015181600601556101408201518160070155905050819450505050505b95945050505050565b6000888152600460205260408120906002820154600160a01b900460ff166003811115611f5a57611f5a613c1a565b14611f9c5760405162461bcd60e51b815260206004820152601260248201527110da185b9b995b081b9bdd081bdc195b995960721b6044820152606401610ae5565b60018101546001600160a01b0316331480611fc3575060028101546001600160a01b031633145b611fdf5760405162461bcd60e51b8152600401610ae59061444d565b6000898152600660205260409020541561203b5760405162461bcd60e51b815260206004820152601960248201527f4469737075746520616c726561647920696e69746961746564000000000000006044820152606401610ae5565b60018101546000906001600160a01b031633146120655760018201546001600160a01b0316612074565b60028201546001600160a01b03165b90506000612081896127f9565b905060008a600781111561209757612097613c1a565b14806120b4575060048a60078111156120b2576120b2613c1a565b145b156120d1576120cc8b8b8b8b8b8b8b8a8a8a8e612b95565b61217c565b60058a60078111156120e5576120e5613c1a565b036120fc576120cc8b8a8a8a8a8a8989898d612c8e565b60018301546121199082908a908a906001600160a01b03166128f0565b6121355760405162461bcd60e51b8152600401610ae5906144eb565b6002830154612152908290889088906001600160a01b03166128f0565b61216e5760405162461bcd60e51b8152600401610ae590614518565b61217c8b8b8b848689612d34565b5050505050505050505050565b60006121936130ba565b805490915060ff600160401b820416159067ffffffffffffffff166000811580156121bb5750825b905060008267ffffffffffffffff1660011480156121d85750303b155b9050811580156121e6575080155b156122045760405163f92ee8a960e01b815260040160405180910390fd5b845467ffffffffffffffff19166001178555831561222e57845460ff60401b1916600160401b1785555b612237336130e5565b61223f6130f6565b6122476130fe565b600080546001600160a01b038a81166001600160a01b031992831617909255600180548a841690831617815560028054938a16939092169290921790556009819055600a818155604080518082018252918252690426174746c65736869760b41b60209283015280518082018252928352603160f81b9282019290925281517f8b73c3c69bb8fe3d512ecc4cf759cc79239f7b179b0ffacaa9a75d522b39400f818301527fe9c89ef84d8548076ded2588c89dfecfa53e32b89b3fa93a04fb28612b20ef47818401527fc89efdaa54c0f20c7adf612882df0950f5a951637e0307cdcb4c672f298b8bc660608201524660808201523060a0808301919091528351808303909101815260c0909101909252815191012060035583156123a657845460ff60401b19168555604051600181527fc7f505b2f371ae2175ee4913f4499e1f2633a7b5936321eed1cdaeb6115181d29060200160405180910390a15b5050505050505050565b6000818152600560205260409020600f81015460ff16156124135760405162461bcd60e51b815260206004820152601860248201527f4469737075746520616c7265616479207265736f6c76656400000000000000006044820152606401610ae5565b6000600282810154600160a81b900460ff169081111561243557612435613c1a565b1480156124455750806004015442115b6124ac5760405162461bcd60e51b815260206004820152603260248201527f44697370757465206e6f7420616374697665206f7220726573706f6e736520646044820152711958591b1a5b99481b9bdd081c185cdcd95960721b6064820152608401610ae5565b805460009081526004602052604090206002808201805460ff60a01b1916600160a01b830217905550600180830154600680840180546001600160a01b0319166001600160a01b039093169290921790915560058085015460048501559084015490830155426007830155600f8301805460ff191690911790556002808301805460ff60a81b1916600160a81b830217905550600182015460058301546040519081526001600160a01b039091169084907f1cf4fb7a0897dc3f9a1229a1b0a6c5243e5147f0ac591661ff0538932c8c2eb59060200160405180910390a3600182015482546040516001600160a01b039092169160008051602061467383398151915290600090a3505050565b6125c16129fa565b6001600160a01b0381166125eb57604051631e4fbdf760e01b815260006004820152602401610ae5565b6125f481612a55565b50565b306001600160a01b037f000000000000000000000000000000000000000000000000000000000000000016148061267e57507f00000000000000000000000000000000000000000000000000000000000000006001600160a01b0316612672600080516020614653833981519152546001600160a01b031690565b6001600160a01b031614155b156119325760405163703e46dd60e11b815260040160405180910390fd5b6125f46129fa565b816001600160a01b03166352d1902d6040518163ffffffff1660e01b8152600401602060405180830381865afa9250505080156126fe575060408051601f3d908101601f191682019092526126fb918101906145a0565b60015b61272657604051634c9c8ce360e01b81526001600160a01b0383166004820152602401610ae5565b600080516020614653833981519152811461275757604051632a87526960e21b815260048101829052602401610ae5565b612761838361310e565b505050565b306001600160a01b037f000000000000000000000000000000000000000000000000000000000000000016146119325760405163703e46dd60e11b815260040160405180910390fd5b7f9b779b17422d0df92223018b32b4d1fa46e071723d6817e2486d003becc55f008054600119016127f357604051633ee5aeb560e01b815260040160405180910390fd5b60029055565b60007f887df993491622053e8f03b5c7f04dfb051d1566ad1e108052f890883ca9e751826000015183602001518460400151856060015186608001518760a001518860c001518960e001518a61010001518b61012001518c61014001516040516020016128d39c9b9a999897969594939291909b8c5260208c019a909a526001600160a01b0398891660408c015260608b019790975260808a019590955260a089019390935260ff91821660c08901521660e087015215156101008601529091166101208401526101408301526101608201526101800190565b604051602081830303815290604052805190602001209050919050565b6000806128fe868686612ac6565b6001600160a01b038481169116149150505b949350505050565b60017f9b779b17422d0df92223018b32b4d1fa46e071723d6817e2486d003becc55f0055565b60008061294c868486613164565b90508061295d576000915050611f22565b600061296a86868961345f565b90508061297c57600092505050611f22565b6010880154156129d35760108801546101c0880135146129d35760405162461bcd60e51b815260206004820152601260248201527109adeecca40d0c2e6d040dad2e6dac2e8c6d60731b6044820152606401610ae5565b60028801546129ee90600160a01b900460ff168888886138e7565b98975050505050505050565b33612a2c7f9016d09d72d40fdae2fd8ceac6b6234c7706214fd39c1cd1e609a0528c199300546001600160a01b031690565b6001600160a01b0316146119325760405163118cdaa760e01b8152336004820152602401610ae5565b7f9016d09d72d40fdae2fd8ceac6b6234c7706214fd39c1cd1e609a0528c19930080546001600160a01b031981166001600160a01b03848116918217845560405192169182907f8be0079c531659141344cd1fd0a4f28419497f9722a3daafe3b4186f6b6457e090600090a3505050565b60035460405161190160f01b602082015260228101919091526042810184905260009081906062016040516020818303038152906040528051906020012090506000806000612b1587876139d1565b925092509250600060018583868660405160008152602001604052604051612b59949392919093845260ff9290921660208401526040830152606082015260800190565b6020604051602081039080840390855afa158015612b7b573d6000803e3d6000fd5b5050604051601f19015196505050505050505b9392505050565b60018401546001600160a01b03163303612c17576001840154612bc69083908a908a906001600160a01b03166128f0565b612c125760405162461bcd60e51b815260206004820152601c60248201527f496e76616c6964206368616c6c656e676572207369676e6174757265000000006044820152606401610ae5565b612c80565b6002840154612c34908390889088906001600160a01b03166128f0565b612c805760405162461bcd60e51b815260206004820152601c60248201527f496e76616c6964206368616c6c656e676572207369676e6174757265000000006044820152606401610ae5565b61217c8b8b8b858786612d34565b60018401546001600160a01b03163303612ce0576001840154612cbf9083908a908a906001600160a01b03166128f0565b612cdb5760405162461bcd60e51b8152600401610ae5906144eb565b612d19565b6002840154612cfd908390889088906001600160a01b03166128f0565b612d195760405162461bcd60e51b8152600401610ae590614518565b612d288a60058b858786612d34565b50505050505050505050565b600a805460009182612d4583614434565b909155506000818152600560205260409020888155600181018054336001600160a01b0319918216179091556002820180549182166001600160a01b038816908117825593945091928992916001600160a81b03191617600160a01b836007811115612db357612db3613c1a565b021790555060028101805460ff60a81b191690554260038201819055612ddb90607890614545565b81600401819055508481600501819055508560000151816006018190555085816007016000820151816000015560208201518160010160006101000a8154816001600160a01b0302191690836001600160a01b0316021790555060408201518160020155606082015181600301556080820151816004015560a08201518160050160006101000a81548160ff021916908360ff16021790555060c08201518160050160016101000a81548160ff021916908360ff16021790555060e08201518160050160026101000a81548160ff0219169083151502179055506101008201518160050160036101000a8154816001600160a01b0302191690836001600160a01b031602179055506101208201518160060155610140820151816007015590505082816010018190555081600660008a8152602001908152602001600020819055506001600460008a815260200190815260200160002060020160146101000a81548160ff02191690836003811115612f5657612f56613c1a565b021790555085600760008781526020019081526020016000206000820151816000015560208201518160010160006101000a8154816001600160a01b0302191690836001600160a01b0316021790555060408201518160020155606082015181600301556080820151816004015560a08201518160050160006101000a81548160ff021916908360ff16021790555060c08201518160050160016101000a81548160ff021916908360ff16021790555060e08201518160050160026101000a81548160ff0219169083151502179055506101008201518160050160036101000a8154816001600160a01b0302191690836001600160a01b0316021790555061012082015181600601556101408201518160070155905050336001600160a01b031682897fb8880effb67dd7283293254619484f4eed363df2b042eb31b547420ec35da1698a6040516130a891906145b9565b60405180910390a45050505050505050565b6000807ff0c57e16840df040f15088dc2f81fe391c3923bec73e23a9662efc9c229c6a005b92915050565b6130ed613a3d565b6125f481613a62565b611932613a3d565b613106613a3d565b611932613a6a565b61311782613a72565b6040516001600160a01b038316907fbc7cd75a20ee27fd9adebab32041f755214dbc6bffa90cc0225b39da2e5c2d3b90600090a280511561315c576127618282613ad7565b610c02613b44565b6001546040805163c894e75760e01b815260009283926001600160a01b039091169163c894e757916131a891899182019060c08301906101008401906004016145c7565b602060405180830381865afa1580156131c5573d6000803e3d6000fd5b505050506040513d601f19601f820116820180604052508101906131e991906144ce565b9050806131fa576000915050612b8e565b8354610180860135146132425760405162461bcd60e51b815260206004820152601060248201526f08ec2daca40928840dad2e6dac2e8c6d60831b6044820152606401610ae5565b6101a0850135600081156132635760028601546001600160a01b0316613272565b60018601546001600160a01b03165b9050806001600160a01b031685602001516001600160a01b0316146132ce5760405162461bcd60e51b81526020600482015260126024820152710a0d8c2f2cae440928840dad2e6dac2e8c6d60731b6044820152606401610ae5565b610100870135600083156132e65786608001516132ec565b86606001515b905080821461333d5760405162461bcd60e51b815260206004820152601860248201527f5368697020436f6d6d69746d656e74206d69736d6174636800000000000000006044820152606401610ae5565b60408701516101408a01351461338b5760405162461bcd60e51b815260206004820152601360248201527209adeecca40c6deeadce840dad2e6dac2e8c6d606b1b6044820152606401610ae5565b6040870151156133e8576101408701516101208a0135146133e35760405162461bcd60e51b815260206004820152601260248201527109adeecca40d0c2e6d040dad2e6dac2e8c6d60731b6044820152606401610ae5565b613450565b610120890135156134505760405162461bcd60e51b815260206004820152602c60248201527f4669727374206d6f76652073686f756c642068617665207a65726f206173207060448201526b0e4caecd2deeae640d0c2e6d60a31b6064820152608401610ae5565b50600198975050505050505050565b82518251600091106134b35760405162461bcd60e51b815260206004820152601960248201527f496e76616c6964206e6f6e63652070726f6772657373696f6e000000000000006044820152606401610ae5565b60408401516134c3906001614545565b8360400151146135155760405162461bcd60e51b815260206004820152601e60248201527f496e76616c6964206d6f766520636f756e742070726f6772657373696f6e00006044820152606401610ae5565b6101408301516101c08301351461356e5760405162461bcd60e51b815260206004820152601f60248201527f4d6f76652068617368206e6f74207570646174656420636f72726563746c79006044820152606401610ae5565b6101608201356101a0830135600081900361364d57818660a0015160ff166135969190614545565b8560a0015160ff16146135eb5760405162461bcd60e51b815260206004820152601960248201527f496e76616c696420706c61796572312068697420636f756e74000000000000006044820152606401610ae5565b8560c0015160ff168560c0015160ff16146136485760405162461bcd60e51b815260206004820152601e60248201527f506c617965723220686974732073686f756c64206e6f74206368616e676500006044820152606401610ae5565b613712565b818660c0015160ff166136609190614545565b8560c0015160ff16146136b55760405162461bcd60e51b815260206004820152601960248201527f496e76616c696420706c61796572322068697420636f756e74000000000000006044820152606401610ae5565b8560a0015160ff168560a0015160ff16146137125760405162461bcd60e51b815260206004820152601e60248201527f506c617965723120686974732073686f756c64206e6f74206368616e676500006044820152606401610ae5565b85606001518560600151146137695760405162461bcd60e51b815260206004820152601f60248201527f506c6179657231207368697020636f6d6d69746d656e74206368616e676564006044820152606401610ae5565b85608001518560800151146137c05760405162461bcd60e51b815260206004820152601f60248201527f506c6179657232207368697020636f6d6d69746d656e74206368616e676564006044820152606401610ae5565b600c8560a0015160ff16106138505760e0850151151560011480156137ff575084602001516001600160a01b03168561010001516001600160a01b0316145b61384b5760405162461bcd60e51b815260206004820152601c60248201527f496e76616c69642067616d6520656e6420666f7220706c6179657231000000006044820152606401610ae5565b6138db565b600c8560c0015160ff16106138db5760e08501511515600114801561388f575084602001516001600160a01b03168561010001516001600160a01b0316145b6138db5760405162461bcd60e51b815260206004820152601c60248201527f496e76616c69642067616d6520656e6420666f7220706c6179657232000000006044820152606401610ae5565b50600195945050505050565b6000808560078111156138fc576138fc613c1a565b03613942576000613913600a61014087013561460e565b90506000613927600a610140880135614622565b9050600a821080156139395750600a81105b92505050612910565b600285600781111561395657613956613c1a565b0361396357506001612910565b600185600781111561397757613977613c1a565b0361398457506001612910565b600685600781111561399857613998613c1a565b036139a557506001612910565b60078560078111156139b9576139b9613c1a565b036139c657506001612910565b506001949350505050565b6000808060418414613a255760405162461bcd60e51b815260206004820152601860248201527f696e76616c6964207369676e6174757265206c656e67746800000000000000006044820152606401610ae5565b50508235936020840135936040013560001a92509050565b613a45613b63565b61193257604051631afcd79f60e31b815260040160405180910390fd5b6125c1613a3d565b612918613a3d565b806001600160a01b03163b600003613aa857604051634c9c8ce360e01b81526001600160a01b0382166004820152602401610ae5565b60008051602061465383398151915280546001600160a01b0319166001600160a01b0392909216919091179055565b6060600080846001600160a01b031684604051613af49190614636565b600060405180830381855af49150503d8060008114613b2f576040519150601f19603f3d011682016040523d82523d6000602084013e613b34565b606091505b5091509150611f22858383613b7d565b34156119325760405163b398979f60e01b815260040160405180910390fd5b6000613b6d6130ba565b54600160401b900460ff16919050565b606082613b9257613b8d82613bd9565b612b8e565b8151158015613ba957506001600160a01b0384163b155b15613bd257604051639996b31560e01b81526001600160a01b0385166004820152602401610ae5565b5080612b8e565b805115613be857805160208201fd5b60405163d6bda27560e01b815260040160405180910390fd5b600060208284031215613c1357600080fd5b5035919050565b634e487b7160e01b600052602160045260246000fd5b8981526001600160a01b038981166020830152888116604083015261012082019060048910613c6157613c61613c1a565b8860608401528760808401528660a08401528560c084015280851660e084015250826101008301529a9950505050505050505050565b80356001600160a01b0381168114613cae57600080fd5b919050565b600060208284031215613cc557600080fd5b612b8e82613c97565b634e487b7160e01b600052604160045260246000fd5b604051610160810167ffffffffffffffff81118282101715613d0857613d08613cce565b60405290565b604051601f8201601f1916810167ffffffffffffffff81118282101715613d3757613d37613cce565b604052919050565b60008060408385031215613d5257600080fd5b613d5b83613c97565b915060208084013567ffffffffffffffff80821115613d7957600080fd5b818601915086601f830112613d8d57600080fd5b813581811115613d9f57613d9f613cce565b613db1601f8201601f19168501613d0e565b91508082528784828501011115613dc757600080fd5b80848401858401376000848284010152508093505050509250929050565b803560ff81168114613cae57600080fd5b80151581146125f457600080fd5b8035613cae81613df6565b60006101608284031215613e2257600080fd5b613e2a613ce4565b905081358152613e3c60208301613c97565b6020820152604082013560408201526060820135606082015260808201356080820152613e6b60a08301613de5565b60a0820152613e7c60c08301613de5565b60c0820152613e8d60e08301613e04565b60e0820152610100613ea0818401613c97565b9082015261012082810135908201526101409182013591810191909152919050565b60008083601f840112613ed457600080fd5b50813567ffffffffffffffff811115613eec57600080fd5b602083019150836020828501011115613f0457600080fd5b9250929050565b6000806000806000806000878903610320811215613f2857600080fd5b88359750613f398a60208b01613e0f565b965061018089013567ffffffffffffffff80821115613f5757600080fd5b613f638c838d01613ec2565b90985096506101a08b0135915080821115613f7d57600080fd5b50613f8a8b828c01613ec2565b9095509350506101606101bf1982011215613fa457600080fd5b506101c08801905092959891949750929550565b60088110613fc857613fc8613c1a565b9052565b60038110613fc857613fc8613c1a565b805182526020810151613ffa60208401826001600160a01b03169052565b5060408101516040830152606081015160608301526080810151608083015260a081015161402d60a084018260ff169052565b5060c081015161404260c084018260ff169052565b5060e081015161405660e084018215159052565b50610100818101516001600160a01b031690830152610120808201519083015261014090810151910152565b8c81526001600160a01b038c811660208301528b1660408201526102c081016140ae606083018c613fb8565b6140bb608083018b613fcc565b8860a08301528760c08301528660e0830152856101008301526140e2610120830186613fdc565b9215156102808201526102a001529a9950505050505050505050565b600080600080600080600080888a0361050081121561411c57600080fd5b8935985061412d8b60208c01613e0f565b97506101808a013567ffffffffffffffff8082111561414b57600080fd5b6141578d838e01613ec2565b90995097506101a08c013591508082111561417157600080fd5b5061417e8c828d01613ec2565b9096509450506101e06101bf198201121561419857600080fd5b506101c0890191506141ae8a6103a08b01613e0f565b90509295985092959890939650565b60008060008060008587036102e08112156141d757600080fd5b863595506141e88860208901613e0f565b945061018087013567ffffffffffffffff81111561420557600080fd5b61421189828a01613ec2565b90955093505061014061019f198201121561422b57600080fd5b506101a0860190509295509295909350565b6000806040838503121561425057600080fd5b50508035926020909101359150565b600080600080600080600080610200898b03121561427c57600080fd5b8835975060208901356008811061429257600080fd5b96506142a18a60408b01613e0f565b95506101a089013567ffffffffffffffff808211156142bf57600080fd5b6142cb8c838d01613ec2565b90975095506101c08b01359150808211156142e557600080fd5b506142f28b828c01613ec2565b999c989b5096999598949794956101e00135949350505050565b60005b8381101561432757818101518382015260200161430f565b50506000910152565b602081526000825180602084015261434f81604085016020870161430c565b601f01601f19169190910160400192915050565b60008060006060848603121561437857600080fd5b61438184613c97565b925061438f60208501613c97565b915061439d60408501613c97565b90509250925092565b61016081016130df8284613fdc565b8a81526001600160a01b038a811660208301528916604082015261014081016143e1606083018a613fb8565b6143ee6080830189613fcc565b60a082019690965260c081019490945260e084019290925261010083015215156101209091015295945050505050565b634e487b7160e01b600052601160045260246000fd5b6000600182016144465761444661441e565b5060010190565b6020808252600c908201526b2737ba103090383630bcb2b960a11b604082015260600190565b8060005b600281101561449757604080838637938401939190910190600101614477565b50505050565b610160810160408683376144b46040830186614473565b60408460c084013760608361010084013795945050505050565b6000602082840312156144e057600080fd5b8151612b8e81613df6565b602080825260139082015272496e76616c6964207369676e6174757265203160681b604082015260600190565b60208082526013908201527224b73b30b634b21039b4b3b730ba3ab932901960691b604082015260600190565b808201808211156130df576130df61441e565b80820281158282048414176130df576130df61441e565b610140810160408683376145866040830186614473565b60408460c084013760408361010084013795945050505050565b6000602082840312156145b257600080fd5b5051919050565b602081016130df8284613fb8565b6101e0810160408683376145de6040830186614473565b60408460c084013760e08361010084013795945050505050565b634e487b7160e01b600052601260045260246000fd5b60008261461d5761461d6145f8565b500490565b600082614631576146316145f8565b500690565b6000825161464881846020870161430c565b919091019291505056fe360894a13ba1a3210667c828492db98dca3e2076cc3735a920a3ca505d382bbc92e7428626b1e8dc1430165cf6201218777fc57223037be71113251799bae1aba26469706673582212201912ad9f57d784d8408e3ff17207a7bf817cda5332807adfdf35af483e81debb64736f6c63430008160033",
  "linkReferences": {},
  "deployedLinkReferences": {}
}