{
  "_format": "hh-sol-artifact-1",
  "contractName": "MoveVerifier",
  "sourceName": "contracts/move_verification.sol",
  "abi": [
    {
      "inputs": [
        {
          "internalType": "uint256[2]",
          "name": "_pA",
          "type": "uint256[2]"
        },
        {
          "internalType": "uint256[2][2]",
          "name": "_pB",
          "type": "uint256[2][2]"
        },
        {
          "internalType": "uint256[2]",
          "name": "_pC",
          "type": "uint256[2]"
        },
        {
          "internalType": "uint256[7]",
          "name": "_pubSignals",
          "type": "uint256[7]"
        }
      ],
      "name": "verifyProof",
      "outputs": [
        {
          "internalType": "bool",
          "name": "",
          "type": "bool"
        }
      ],
      "stateMutability": "view",
      "type": "function"
    }
  ],
  "bytecode": "0x608060405234801561001057600080fd5b5061078c806100206000396000f3fe608060405234801561001057600080fd5b506004361061002b5760003560e01c8063c894e75714610030575b600080fd5b61004361003e3660046106f0565b610057565b604051901515815260200160405180910390f35b600061065a565b7f30644e72e131a029b85045b68181585d2833e84879b9709143e1f593f0000001811061008f576000805260206000f35b50565b600060405183815284602082015285604082015260408160608360076107d05a03fa9150816100c5576000805260206000f35b825160408201526020830151606082015260408360808360066107d05a03fa915050806100f6576000805260206000f35b5050505050565b7f2f8e2d5ac6a97ad38393c07f009598c240a675f972a18f7d63b35fc1adc20b9f85527f1c7fef7fea398774b1a8a7817ebf6246b8d19139cc195dbcec1e1e0d6458a61660208601526000608086018661019a87357f07df05971f3859f8ad43f866d538f61fea120869c374e78d1e80b8be8597bbb17f0f17fc5fca1d0567f8f35a7702e674c94c48d80c7d4971995414151b247bd46e84610092565b6101ea60208801357f10ed10ddbef7ebb2be8f2c4a1d8d5be6b04beedd43056b16182c4ccc3b94b6e57f1720c4bf5696b0aefdb66e0d287c4a0ebd6e47e63afaa0fd602ae1c9a9e460f784610092565b61023a60408801357f1e166817bd19c328d3a21dd8a0e833155356910e5458f56dfb57cab74fc18ec97f1c9b35bbd9abea3feede53c921c0508d4fd60f93ffee2ed1f574f6b84635c77e84610092565b61028a60608801357f279d0e861f4f696cf1442735318b1cfe201816bd81b0fc91f619e7cbd80e643a7f0f566b4580e74152d4620003dd00bbfb60b5cfd3399c5f7d82677d9391a8a18b84610092565b6102da60808801357f05d9de8e4ab0944d691212461e2c90232ef06586c0f4763985397533e95331577f0b7b26715828fa9059b78daca85629a6698895f8ae361092f22c0dfcf64a06fc84610092565b61032a60a08801357f1aabfd87fccc0e9fd89b9bf27ad49aa10127b4113f3f883d116b763867980f377f21834c7a8963d11c1a20e890182a36c733f9ef9627155e8fa776e648ef44296084610092565b61037a60c08801357f02fb45754f72c899a1cb225217735bb8637706b95dfd6e14c6551f8506558e3c7f2fe910552f607bfcb66bbfcbf984894c6712d1dc38e24945df8ff2374e3a074884610092565b50823581527f30644e72e131a029b85045b68181585d97816a916871ca8d3c208c16d87cfd4760208401357f30644e72e131a029b85045b68181585d97816a916871ca8d3c208c16d87cfd4703066020820152833560408201526020840135606082015260408401356080820152606084013560a08201527f083d29704470ffe3adce38bbe527b2d93748b06ea92f26a3bbd2a0094c106c9760c08201527f2b8dcc5f8825330a633c23777c4a4e7ffd828bb6cdf1446b7b9d8e1669fd259560e08201527f16c0c91e986035ed54398173ad268c5d84a44fa624e932aec4203d66bbae73376101008201527f2fdfa1f2ed34fc27984ebbf6600c60b6e8cf8e751ba8f13ee074e45455a264266101208201527f0eb985dbfcf19c0607e26b9cc9e04498052909f97bf16078ca670d5f65e4df406101408201527f15c35f29f04557eeb8c5903bac17c8663e3be6ad27b5075cacbf9b1000b7b708610160820152600087015161018082015260206000018701516101a08201527f198e9393920d483a7260bfb731fb5d25f1aa493335a9e71297e485b7aef312c26101c08201527f1800deef121f1e76426a00665e5c4479674322d4f75edadd46debd5cd992f6ed6101e08201527f090689d0585ff075ec9e99ad690c3395bc4b313370b38ef355acdadcd122975b6102008201527f12c85ea5db8c6deb4aab71808dcb408fe3d1e7690c43d37b4ce6cc0166fa7daa610220820152843561024082015260208501356102608201527f26e1874645e7dd64c2c48c9d21d2620a570fdc284864e1b1ff1074a45444600d6102808201527f09779c8f0064fb9cf78c913653acc2ca4b32c48eddd8f64fb5e3981dca30e03d6102a08201527f2b9734ee4c00f76c440e0e95210edd1e688f38868415905ecbcc0f86d03ec8016102c08201527f09d1cae5ade4cc0d31c2f2fbdd6c8c53aed8bd717bf2986b166534abc70eaf6a6102e08201526020816103008360086107d05a03fa9051169695505050505050565b6040516103808101604052610672600084013561005e565b61067f602084013561005e565b61068c604084013561005e565b610699606084013561005e565b6106a6608084013561005e565b6106b360a084013561005e565b6106c060c084013561005e565b6106cd818486888a6100fd565b90508060005260206000f35b80604081018310156106ea57600080fd5b92915050565b6000806000806101e080868803121561070857600080fd5b61071287876106d9565b945060c086018781111561072557600080fd5b60408701945061073588826106d9565b93505086818701111561074757600080fd5b5092959194509261010001915056fea2646970667358221220cdeaa5a37770f4e0adb34ed36adae193089de2de1c69d8e69e7fbf88d0b09c6d64736f6c63430008160033",
  "linkReferences": {},
  "deployedLinkReferences": {}
}