{
  "_format": "hh-sol-artifact-1",
  "contractName": "BattleshipStateChannel",
  "sourceName": "contracts/BattleshipStateChannel.sol",
  "abi": [
    {
      "inputs": [],
      "stateMutability": "nonpayable",
      "type": "constructor"
    },
    {
      "inputs": [
        {
          "internalType": "address",
          "name": "target",
          "type": "address"
        }
      ],
      "name": "AddressEmptyCode",
      "type": "error"
    },
    {
      "inputs": [
        {
          "internalType": "address",
          "name": "implementation",
          "type": "address"
        }
      ],
      "name": "ERC1967InvalidImplementation",
      "type": "error"
    },
    {
      "inputs": [],
      "name": "ERC1967NonPayable",
      "type": "error"
    },
    {
      "inputs": [],
      "name": "FailedCall",
      "type": "error"
    },
    {
      "inputs": [],
      "name": "InvalidInitialization",
      "type": "error"
    },
    {
      "inputs": [],
      "name": "NotInitializing",
      "type": "error"
    },
    {
      "inputs": [
        {
          "internalType": "address",
          "name": "owner",
          "type": "address"
        }
      ],
      "name": "OwnableInvalidOwner",
      "type": "error"
    },
    {
      "inputs": [
        {
          "internalType": "address",
          "name": "account",
          "type": "address"
        }
      ],
      "name": "OwnableUnauthorizedAccount",
      "type": "error"
    },
    {
      "inputs": [],
      "name": "ReentrancyGuardReentrantCall",
      "type": "error"
    },
    {
      "inputs": [],
      "name": "UUPSUnauthorizedCallContext",
      "type": "error"
    },
    {
      "inputs": [
        {
          "internalType": "bytes32",
          "name": "slot",
          "type": "bytes32"
        }
      ],
      "name": "UUPSUnsupportedProxiableUUID",
      "type": "error"
    },
    {
      "anonymous": false,
      "inputs": [
        {
          "indexed": true,
          "internalType": "uint256",
          "name": "channelId",
          "type": "uint256"
        }
      ],
      "name": "ChannelClosed",
      "type": "event"
    },
    {
      "anonymous": false,
      "inputs": [
        {
          "indexed": true,
          "internalType": "uint256",
          "name": "channelId",
          "type": "uint256"
        },
        {
          "indexed": true,
          "internalType": "address",
          "name": "player1",
          "type": "address"
        },
        {
          "indexed": true,
          "internalType": "address",
          "name": "player2",
          "type": "address"
        }
      ],
      "name": "ChannelOpened",
      "type": "event"
    },
    {
      "anonymous": false,
      "inputs": [
        {
          "indexed": true,
          "internalType": "uint256",
          "name": "channelId",
          "type": "uint256"
        },
        {
          "indexed": false,
          "internalType": "bytes32",
          "name": "initialStateHash",
          "type": "bytes32"
        }
      ],
      "name": "ChannelReady",
      "type": "event"
    },
    {
      "anonymous": false,
      "inputs": [
        {
          "indexed": true,
          "internalType": "uint256",
          "name": "channelId",
          "type": "uint256"
        },
        {
          "indexed": true,
          "internalType": "address",
          "name": "winner",
          "type": "address"
        }
      ],
      "name": "ChannelSettled",
      "type": "event"
    },
    {
      "anonymous": false,
      "inputs": [
        {
          "indexed": true,
          "internalType": "uint256",
          "name": "disputeId",
          "type": "uint256"
        },
        {
          "indexed": true,
          "internalType": "address",
          "name": "respondent",
          "type": "address"
        },
        {
          "indexed": false,
          "internalType": "bytes32",
          "name": "newStateHash",
          "type": "bytes32"
        }
      ],
      "name": "DisputeChallenged",
      "type": "event"
    },
    {
      "anonymous": false,
      "inputs": [
        {
          "indexed": true,
          "internalType": "uint256",
          "name": "channelId",
          "type": "uint256"
        },
        {
          "indexed": true,
          "internalType": "uint256",
          "name": "disputeId",
          "type": "uint256"
        },
        {
          "indexed": true,
          "internalType": "address",
          "name": "challenger",
          "type": "address"
        },
        {
          "indexed": false,
          "internalType": "enum BattleshipStateChannel.DisputeType",
          "name": "disputeType",
          "type": "uint8"
        }
      ],
      "name": "DisputeInitiated",
      "type": "event"
    },
    {
      "anonymous": false,
      "inputs": [
        {
          "indexed": true,
          "internalType": "uint256",
          "name": "disputeId",
          "type": "uint256"
        },
        {
          "indexed": true,
          "internalType": "address",
          "name": "winner",
          "type": "address"
        },
        {
          "indexed": false,
          "internalType": "bytes32",
          "name": "finalStateHash",
          "type": "bytes32"
        }
      ],
      "name": "DisputeResolved",
      "type": "event"
    },
    {
      "anonymous": false,
      "inputs": [
        {
          "indexed": true,
          "internalType": "uint256",
          "name": "channelId",
          "type": "uint256"
        },
        {
          "indexed": true,
          "internalType": "address",
          "name": "player",
          "type": "address"
        },
        {
          "indexed": false,
          "internalType": "bytes32",
          "name": "stateHash",
          "type": "bytes32"
        }
      ],
      "name": "InitialStateSubmitted",
      "type": "event"
    },
    {
      "anonymous": false,
      "inputs": [
        {
          "indexed": false,
          "internalType": "uint64",
          "name": "version",
          "type": "uint64"
        }
      ],
      "name": "Initialized",
      "type": "event"
    },
    {
      "anonymous": false,
      "inputs": [
        {
          "indexed": true,
          "internalType": "uint256",
          "name": "channelId",
          "type": "uint256"
        },
        {
          "indexed": true,
          "internalType": "bytes32",
          "name": "moveHash",
          "type": "bytes32"
        },
        {
          "indexed": true,
          "internalType": "address",
          "name": "player",
          "type": "address"
        }
      ],
      "name": "MoveHashVerified",
      "type": "event"
    },
    {
      "anonymous": false,
      "inputs": [
        {
          "indexed": true,
          "internalType": "address",
          "name": "previousOwner",
          "type": "address"
        },
        {
          "indexed": true,
          "internalType": "address",
          "name": "newOwner",
          "type": "address"
        }
      ],
      "name": "OwnershipTransferred",
      "type": "event"
    },
    {
      "anonymous": false,
      "inputs": [
        {
          "indexed": true,
          "internalType": "uint256",
          "name": "channelId",
          "type": "uint256"
        },
        {
          "indexed": true,
          "internalType": "address",
          "name": "claimer",
          "type": "address"
        }
      ],
      "name": "TimeoutClaimed",
      "type": "event"
    },
    {
      "anonymous": false,
      "inputs": [
        {
          "indexed": true,
          "internalType": "address",
          "name": "implementation",
          "type": "address"
        }
      ],
      "name": "Upgraded",
      "type": "event"
    },
    {
      "inputs": [],
      "name": "CHALLENGE_PERIOD",
      "outputs": [
        {
          "internalType": "uint256",
          "name": "",
          "type": "uint256"
        }
      ],
      "stateMutability": "view",
      "type": "function"
    },
    {
      "inputs": [],
      "name": "DOMAIN_SEPARATOR",
      "outputs": [
        {
          "internalType": "bytes32",
          "name": "",
          "type": "bytes32"
        }
      ],
      "stateMutability": "view",
      "type": "function"
    },
    {
      "inputs": [],
      "name": "GAMESTATE_TYPEHASH",
      "outputs": [
        {
          "internalType": "bytes32",
          "name": "",
          "type": "bytes32"
        }
      ],
      "stateMutability": "view",
      "type": "function"
    },
    {
      "inputs": [],
      "name": "MAX_MOVES",
      "outputs": [
        {
          "internalType": "uint256",
          "name": "",
          "type": "uint256"
        }
      ],
      "stateMutability": "view",
      "type": "function"
    },
    {
      "inputs": [],
      "name": "RESPONSE_PERIOD",
      "outputs": [
        {
          "internalType": "uint256",
          "name": "",
          "type": "uint256"
        }
      ],
      "stateMutability": "view",
      "type": "function"
    },
    {
      "inputs": [],
      "name": "TOTAL_SHIP_CELLS",
      "outputs": [
        {
          "internalType": "uint256",
          "name": "",
          "type": "uint256"
        }
      ],
      "stateMutability": "view",
      "type": "function"
    },
    {
      "inputs": [],
      "name": "UPGRADE_INTERFACE_VERSION",
      "outputs": [
        {
          "internalType": "string",
          "name": "",
          "type": "string"
        }
      ],
      "stateMutability": "view",
      "type": "function"
    },
    {
      "inputs": [
        {
          "internalType": "uint256",
          "name": "",
          "type": "uint256"
        }
      ],
      "name": "channelToDispute",
      "outputs": [
        {
          "internalType": "uint256",
          "name": "",
          "type": "uint256"
        }
      ],
      "stateMutability": "view",
      "type": "function"
    },
    {
      "inputs": [
        {
          "internalType": "uint256",
          "name": "",
          "type": "uint256"
        }
      ],
      "name": "channels",
      "outputs": [
        {
          "internalType": "uint256",
          "name": "channelId",
          "type": "uint256"
        },
        {
          "internalType": "address",
          "name": "player1",
          "type": "address"
        },
        {
          "internalType": "address",
          "name": "player2",
          "type": "address"
        },
        {
          "internalType": "enum BattleshipStateChannel.ChannelStatus",
          "name": "status",
          "type": "uint8"
        },
        {
          "internalType": "uint256",
          "name": "openedAt",
          "type": "uint256"
        },
        {
          "internalType": "bytes32",
          "name": "latestStateHash",
          "type": "bytes32"
        },
        {
          "internalType": "uint256",
          "name": "latestNonce",
          "type": "uint256"
        },
        {
          "internalType": "address",
          "name": "winner",
          "type": "address"
        },
        {
          "internalType": "uint256",
          "name": "settlementTime",
          "type": "uint256"
        }
      ],
      "stateMutability": "view",
      "type": "function"
    },
    {
      "inputs": [
        {
          "internalType": "uint256",
          "name": "channelId",
          "type": "uint256"
        }
      ],
      "name": "claimTimeout",
      "outputs": [],
      "stateMutability": "nonpayable",
      "type": "function"
    },
    {
      "inputs": [
        {
          "internalType": "uint256",
          "name": "",
          "type": "uint256"
        }
      ],
      "name": "disputes",
      "outputs": [
        {
          "internalType": "uint256",
          "name": "channelId",
          "type": "uint256"
        },
        {
          "internalType": "address",
          "name": "challenger",
          "type": "address"
        },
        {
          "internalType": "address",
          "name": "respondent",
          "type": "address"
        },
        {
          "internalType": "enum BattleshipStateChannel.DisputeType",
          "name": "disputeType",
          "type": "uint8"
        },
        {
          "internalType": "enum BattleshipStateChannel.DisputeStatus",
          "name": "status",
          "type": "uint8"
        },
        {
          "internalType": "uint256",
          "name": "challengeTime",
          "type": "uint256"
        },
        {
          "internalType": "uint256",
          "name": "responseDeadline",
          "type": "uint256"
        },
        {
          "internalType": "bytes32",
          "name": "challengedStateHash",
          "type": "bytes32"
        },
        {
          "internalType": "uint256",
          "name": "challengedNonce",
          "type": "uint256"
        },
        {
          "components": [
            {
              "internalType": "uint256",
              "name": "nonce",
              "type": "uint256"
            },
            {
              "internalType": "address",
              "name": "currentTurn",
              "type": "address"
            },
            {
              "internalType": "uint256",
              "name": "moveCount",
              "type": "uint256"
            },
            {
              "internalType": "bytes32",
              "name": "player1ShipCommitment",
              "type": "bytes32"
            },
            {
              "internalType": "bytes32",
              "name": "player2ShipCommitment",
              "type": "bytes32"
            },
            {
              "internalType": "uint8",
              "name": "player1Hits",
              "type": "uint8"
            },
            {
              "internalType": "uint8",
              "name": "player2Hits",
              "type": "uint8"
            },
            {
              "internalType": "bool",
              "name": "gameEnded",
              "type": "bool"
            },
            {
              "internalType": "address",
              "name": "winner",
              "type": "address"
            },
            {
              "internalType": "uint256",
              "name": "timestamp",
              "type": "uint256"
            },
            {
              "internalType": "uint256",
              "name": "lastMoveHash",
              "type": "uint256"
            }
          ],
          "internalType": "struct BattleshipStateChannel.GameState",
          "name": "challengedState",
          "type": "tuple"
        },
        {
          "internalType": "bool",
          "name": "resolved",
          "type": "bool"
        },
        {
          "internalType": "bytes32",
          "name": "disputedMoveHash",
          "type": "bytes32"
        }
      ],
      "stateMutability": "view",
      "type": "function"
    },
    {
      "inputs": [
        {
          "internalType": "bytes32",
          "name": "",
          "type": "bytes32"
        }
      ],
      "name": "gameStates",
      "outputs": [
        {
          "internalType": "uint256",
          "name": "nonce",
          "type": "uint256"
        },
        {
          "internalType": "address",
          "name": "currentTurn",
          "type": "address"
        },
        {
          "internalType": "uint256",
          "name": "moveCount",
          "type": "uint256"
        },
        {
          "internalType": "bytes32",
          "name": "player1ShipCommitment",
          "type": "bytes32"
        },
        {
          "internalType": "bytes32",
          "name": "player2ShipCommitment",
          "type": "bytes32"
        },
        {
          "internalType": "uint8",
          "name": "player1Hits",
          "type": "uint8"
        },
        {
          "internalType": "uint8",
          "name": "player2Hits",
          "type": "uint8"
        },
        {
          "internalType": "bool",
          "name": "gameEnded",
          "type": "bool"
        },
        {
          "internalType": "address",
          "name": "winner",
          "type": "address"
        },
        {
          "internalType": "uint256",
          "name": "timestamp",
          "type": "uint256"
        },
        {
          "internalType": "uint256",
          "name": "lastMoveHash",
          "type": "uint256"
        }
      ],
      "stateMutability": "view",
      "type": "function"
    },
    {
      "inputs": [
        {
          "internalType": "uint256",
          "name": "channelId",
          "type": "uint256"
        }
      ],
      "name": "getChannel",
      "outputs": [
        {
          "internalType": "uint256",
          "name": "",
          "type": "uint256"
        },
        {
          "internalType": "address",
          "name": "",
          "type": "address"
        },
        {
          "internalType": "address",
          "name": "",
          "type": "address"
        },
        {
          "internalType": "enum BattleshipStateChannel.ChannelStatus",
          "name": "",
          "type": "uint8"
        },
        {
          "internalType": "uint256",
          "name": "",
          "type": "uint256"
        },
        {
          "internalType": "bytes32",
          "name": "",
          "type": "bytes32"
        },
        {
          "internalType": "uint256",
          "name": "",
          "type": "uint256"
        },
        {
          "internalType": "address",
          "name": "",
          "type": "address"
        },
        {
          "internalType": "uint256",
          "name": "",
          "type": "uint256"
        }
      ],
      "stateMutability": "view",
      "type": "function"
    },
    {
      "inputs": [
        {
          "internalType": "uint256",
          "name": "disputeId",
          "type": "uint256"
        }
      ],
      "name": "getDispute",
      "outputs": [
        {
          "internalType": "uint256",
          "name": "",
          "type": "uint256"
        },
        {
          "internalType": "address",
          "name": "",
          "type": "address"
        },
        {
          "internalType": "address",
          "name": "",
          "type": "address"
        },
        {
          "internalType": "enum BattleshipStateChannel.DisputeType",
          "name": "",
          "type": "uint8"
        },
        {
          "internalType": "enum BattleshipStateChannel.DisputeStatus",
          "name": "",
          "type": "uint8"
        },
        {
          "internalType": "uint256",
          "name": "",
          "type": "uint256"
        },
        {
          "internalType": "uint256",
          "name": "",
          "type": "uint256"
        },
        {
          "internalType": "bytes32",
          "name": "",
          "type": "bytes32"
        },
        {
          "internalType": "uint256",
          "name": "",
          "type": "uint256"
        },
        {
          "internalType": "bool",
          "name": "",
          "type": "bool"
        }
      ],
      "stateMutability": "view",
      "type": "function"
    },
    {
      "inputs": [
        {
          "internalType": "bytes32",
          "name": "stateHash",
          "type": "bytes32"
        }
      ],
      "name": "getGameState",
      "outputs": [
        {
          "components": [
            {
              "internalType": "uint256",
              "name": "nonce",
              "type": "uint256"
            },
            {
              "internalType": "address",
              "name": "currentTurn",
              "type": "address"
            },
            {
              "internalType": "uint256",
              "name": "moveCount",
              "type": "uint256"
            },
            {
              "internalType": "bytes32",
              "name": "player1ShipCommitment",
              "type": "bytes32"
            },
            {
              "internalType": "bytes32",
              "name": "player2ShipCommitment",
              "type": "bytes32"
            },
            {
              "internalType": "uint8",
              "name": "player1Hits",
              "type": "uint8"
            },
            {
              "internalType": "uint8",
              "name": "player2Hits",
              "type": "uint8"
            },
            {
              "internalType": "bool",
              "name": "gameEnded",
              "type": "bool"
            },
            {
              "internalType": "address",
              "name": "winner",
              "type": "address"
            },
            {
              "internalType": "uint256",
              "name": "timestamp",
              "type": "uint256"
            },
            {
              "internalType": "uint256",
              "name": "lastMoveHash",
              "type": "uint256"
            }
          ],
          "internalType": "struct BattleshipStateChannel.GameState",
          "name": "",
          "type": "tuple"
        }
      ],
      "stateMutability": "view",
      "type": "function"
    },
    {
      "inputs": [
        {
          "internalType": "address",
          "name": "_shipPlacementVerifier",
          "type": "address"
        },
        {
          "internalType": "address",
          "name": "_moveVerifier",
          "type": "address"
        },
        {
          "internalType": "address",
          "name": "_winVerifier",
          "type": "address"
        }
      ],
      "name": "initialize",
      "outputs": [],
      "stateMutability": "nonpayable",
      "type": "function"
    },
    {
      "inputs": [
        {
          "internalType": "uint256",
          "name": "channelId",
          "type": "uint256"
        },
        {
          "internalType": "enum BattleshipStateChannel.DisputeType",
          "name": "disputeType",
          "type": "uint8"
        },
        {
          "components": [
            {
              "internalType": "uint256",
              "name": "nonce",
              "type": "uint256"
            },
            {
              "internalType": "address",
              "name": "currentTurn",
              "type": "address"
            },
            {
              "internalType": "uint256",
              "name": "moveCount",
              "type": "uint256"
            },
            {
              "internalType": "bytes32",
              "name": "player1ShipCommitment",
              "type": "bytes32"
            },
            {
              "internalType": "bytes32",
              "name": "player2ShipCommitment",
              "type": "bytes32"
            },
            {
              "internalType": "uint8",
              "name": "player1Hits",
              "type": "uint8"
            },
            {
              "internalType": "uint8",
              "name": "player2Hits",
              "type": "uint8"
            },
            {
              "internalType": "bool",
              "name": "gameEnded",
              "type": "bool"
            },
            {
              "internalType": "address",
              "name": "winner",
              "type": "address"
            },
            {
              "internalType": "uint256",
              "name": "timestamp",
              "type": "uint256"
            },
            {
              "internalType": "uint256",
              "name": "lastMoveHash",
              "type": "uint256"
            }
          ],
          "internalType": "struct BattleshipStateChannel.GameState",
          "name": "challengedState",
          "type": "tuple"
        },
        {
          "internalType": "bytes",
          "name": "signature1",
          "type": "bytes"
        },
        {
          "internalType": "bytes",
          "name": "signature2",
          "type": "bytes"
        },
        {
          "internalType": "bytes32",
          "name": "disputedMoveHash",
          "type": "bytes32"
        }
      ],
      "name": "initiateDispute",
      "outputs": [],
      "stateMutability": "nonpayable",
      "type": "function"
    },
    {
      "inputs": [],
      "name": "moveVerifier",
      "outputs": [
        {
          "internalType": "contract IMoveVerifier",
          "name": "",
          "type": "address"
        }
      ],
      "stateMutability": "view",
      "type": "function"
    },
    {
      "inputs": [],
      "name": "nextChannelId",
      "outputs": [
        {
          "internalType": "uint256",
          "name": "",
          "type": "uint256"
        }
      ],
      "stateMutability": "view",
      "type": "function"
    },
    {
      "inputs": [],
      "name": "nextDisputeId",
      "outputs": [
        {
          "internalType": "uint256",
          "name": "",
          "type": "uint256"
        }
      ],
      "stateMutability": "view",
      "type": "function"
    },
    {
      "inputs": [
        {
          "internalType": "address",
          "name": "player2",
          "type": "address"
        }
      ],
      "name": "openChannel",
      "outputs": [
        {
          "internalType": "uint256",
          "name": "channelId",
          "type": "uint256"
        }
      ],
      "stateMutability": "nonpayable",
      "type": "function"
    },
    {
      "inputs": [],
      "name": "owner",
      "outputs": [
        {
          "internalType": "address",
          "name": "",
          "type": "address"
        }
      ],
      "stateMutability": "view",
      "type": "function"
    },
    {
      "inputs": [],
      "name": "proxiableUUID",
      "outputs": [
        {
          "internalType": "bytes32",
          "name": "",
          "type": "bytes32"
        }
      ],
      "stateMutability": "view",
      "type": "function"
    },
    {
      "inputs": [],
      "name": "renounceOwnership",
      "outputs": [],
      "stateMutability": "nonpayable",
      "type": "function"
    },
    {
      "inputs": [
        {
          "internalType": "uint256",
          "name": "disputeId",
          "type": "uint256"
        }
      ],
      "name": "resolveDispute",
      "outputs": [],
      "stateMutability": "nonpayable",
      "type": "function"
    },
    {
      "inputs": [
        {
          "internalType": "uint256",
          "name": "disputeId",
          "type": "uint256"
        },
        {
          "components": [
            {
              "internalType": "uint256",
              "name": "nonce",
              "type": "uint256"
            },
            {
              "internalType": "address",
              "name": "currentTurn",
              "type": "address"
            },
            {
              "internalType": "uint256",
              "name": "moveCount",
              "type": "uint256"
            },
            {
              "internalType": "bytes32",
              "name": "player1ShipCommitment",
              "type": "bytes32"
            },
            {
              "internalType": "bytes32",
              "name": "player2ShipCommitment",
              "type": "bytes32"
            },
            {
              "internalType": "uint8",
              "name": "player1Hits",
              "type": "uint8"
            },
            {
              "internalType": "uint8",
              "name": "player2Hits",
              "type": "uint8"
            },
            {
              "internalType": "bool",
              "name": "gameEnded",
              "type": "bool"
            },
            {
              "internalType": "address",
              "name": "winner",
              "type": "address"
            },
            {
              "internalType": "uint256",
              "name": "timestamp",
              "type": "uint256"
            },
            {
              "internalType": "uint256",
              "name": "lastMoveHash",
              "type": "uint256"
            }
          ],
          "internalType": "struct BattleshipStateChannel.GameState",
          "name": "counterState",
          "type": "tuple"
        },
        {
          "internalType": "bytes",
          "name": "signature1",
          "type": "bytes"
        },
        {
          "internalType": "bytes",
          "name": "signature2",
          "type": "bytes"
        },
        {
          "components": [
            {
              "internalType": "uint256[2]",
              "name": "pA",
              "type": "uint256[2]"
            },
            {
              "internalType": "uint256[2][2]",
              "name": "pB",
              "type": "uint256[2][2]"
            },
            {
              "internalType": "uint256[2]",
              "name": "pC",
              "type": "uint256[2]"
            },
            {
              "internalType": "uint256[7]",
              "name": "pubSignals",
              "type": "uint256[7]"
            }
          ],
          "internalType": "struct BattleshipStateChannel.MoveProof",
          "name": "disputedStateMoveProof",
          "type": "tuple"
        },
        {
          "components": [
            {
              "internalType": "uint256",
              "name": "nonce",
              "type": "uint256"
            },
            {
              "internalType": "address",
              "name": "currentTurn",
              "type": "address"
            },
            {
              "internalType": "uint256",
              "name": "moveCount",
              "type": "uint256"
            },
            {
              "internalType": "bytes32",
              "name": "player1ShipCommitment",
              "type": "bytes32"
            },
            {
              "internalType": "bytes32",
              "name": "player2ShipCommitment",
              "type": "bytes32"
            },
            {
              "internalType": "uint8",
              "name": "player1Hits",
              "type": "uint8"
            },
            {
              "internalType": "uint8",
              "name": "player2Hits",
              "type": "uint8"
            },
            {
              "internalType": "bool",
              "name": "gameEnded",
              "type": "bool"
            },
            {
              "internalType": "address",
              "name": "winner",
              "type": "address"
            },
            {
              "internalType": "uint256",
              "name": "timestamp",
              "type": "uint256"
            },
            {
              "internalType": "uint256",
              "name": "lastMoveHash",
              "type": "uint256"
            }
          ],
          "internalType": "struct BattleshipStateChannel.GameState",
          "name": "preDisputedMoveState",
          "type": "tuple"
        }
      ],
      "name": "respondToDispute",
      "outputs": [],
      "stateMutability": "nonpayable",
      "type": "function"
    },
    {
      "inputs": [
        {
          "internalType": "uint256",
          "name": "channelId",
          "type": "uint256"
        },
        {
          "components": [
            {
              "internalType": "uint256",
              "name": "nonce",
              "type": "uint256"
            },
            {
              "internalType": "address",
              "name": "currentTurn",
              "type": "address"
            },
            {
              "internalType": "uint256",
              "name": "moveCount",
              "type": "uint256"
            },
            {
              "internalType": "bytes32",
              "name": "player1ShipCommitment",
              "type": "bytes32"
            },
            {
              "internalType": "bytes32",
              "name": "player2ShipCommitment",
              "type": "bytes32"
            },
            {
              "internalType": "uint8",
              "name": "player1Hits",
              "type": "uint8"
            },
            {
              "internalType": "uint8",
              "name": "player2Hits",
              "type": "uint8"
            },
            {
              "internalType": "bool",
              "name": "gameEnded",
              "type": "bool"
            },
            {
              "internalType": "address",
              "name": "winner",
              "type": "address"
            },
            {
              "internalType": "uint256",
              "name": "timestamp",
              "type": "uint256"
            },
            {
              "internalType": "uint256",
              "name": "lastMoveHash",
              "type": "uint256"
            }
          ],
          "internalType": "struct BattleshipStateChannel.GameState",
          "name": "finalState",
          "type": "tuple"
        },
        {
          "internalType": "bytes",
          "name": "signature1",
          "type": "bytes"
        },
        {
          "internalType": "bytes",
          "name": "signature2",
          "type": "bytes"
        },
        {
          "components": [
            {
              "internalType": "uint256[2]",
              "name": "pA",
              "type": "uint256[2]"
            },
            {
              "internalType": "uint256[2][2]",
              "name": "pB",
              "type": "uint256[2][2]"
            },
            {
              "internalType": "uint256[2]",
              "name": "pC",
              "type": "uint256[2]"
            },
            {
              "internalType": "uint256[3]",
              "name": "pubSignals",
              "type": "uint256[3]"
            }
          ],
          "internalType": "struct BattleshipStateChannel.WinProof",
          "name": "winProof",
          "type": "tuple"
        }
      ],
      "name": "settleChannel",
      "outputs": [],
      "stateMutability": "nonpayable",
      "type": "function"
    },
    {
      "inputs": [],
      "name": "shipPlacementVerifier",
      "outputs": [
        {
          "internalType": "contract IShipPlacementVerifier",
          "name": "",
          "type": "address"
        }
      ],
      "stateMutability": "view",
      "type": "function"
    },
    {
      "inputs": [
        {
          "internalType": "uint256",
          "name": "channelId",
          "type": "uint256"
        },
        {
          "components": [
            {
              "internalType": "uint256",
              "name": "nonce",
              "type": "uint256"
            },
            {
              "internalType": "address",
              "name": "currentTurn",
              "type": "address"
            },
            {
              "internalType": "uint256",
              "name": "moveCount",
              "type": "uint256"
            },
            {
              "internalType": "bytes32",
              "name": "player1ShipCommitment",
              "type": "bytes32"
            },
            {
              "internalType": "bytes32",
              "name": "player2ShipCommitment",
              "type": "bytes32"
            },
            {
              "internalType": "uint8",
              "name": "player1Hits",
              "type": "uint8"
            },
            {
              "internalType": "uint8",
              "name": "player2Hits",
              "type": "uint8"
            },
            {
              "internalType": "bool",
              "name": "gameEnded",
              "type": "bool"
            },
            {
              "internalType": "address",
              "name": "winner",
              "type": "address"
            },
            {
              "internalType": "uint256",
              "name": "timestamp",
              "type": "uint256"
            },
            {
              "internalType": "uint256",
              "name": "lastMoveHash",
              "type": "uint256"
            }
          ],
          "internalType": "struct BattleshipStateChannel.GameState",
          "name": "initialState",
          "type": "tuple"
        },
        {
          "internalType": "bytes",
          "name": "signature",
          "type": "bytes"
        },
        {
          "components": [
            {
              "internalType": "uint256[2]",
              "name": "pA",
              "type": "uint256[2]"
            },
            {
              "internalType": "uint256[2][2]",
              "name": "pB",
              "type": "uint256[2][2]"
            },
            {
              "internalType": "uint256[2]",
              "name": "pC",
              "type": "uint256[2]"
            },
            {
              "internalType": "uint256[2]",
              "name": "pubSignals",
              "type": "uint256[2]"
            }
          ],
          "internalType": "struct BattleshipStateChannel.ShipPlacementProof",
          "name": "shipProof",
          "type": "tuple"
        }
      ],
      "name": "submitInitialState",
      "outputs": [
        {
          "internalType": "bytes32",
          "name": "",
          "type": "bytes32"
        }
      ],
      "stateMutability": "nonpayable",
      "type": "function"
    },
    {
      "inputs": [
        {
          "internalType": "address",
          "name": "newOwner",
          "type": "address"
        }
      ],
      "name": "transferOwnership",
      "outputs": [],
      "stateMutability": "nonpayable",
      "type": "function"
    },
    {
      "inputs": [
        {
          "internalType": "address",
          "name": "newImplementation",
          "type": "address"
        },
        {
          "internalType": "bytes",
          "name": "data",
          "type": "bytes"
        }
      ],
      "name": "upgradeToAndCall",
      "outputs": [],
      "stateMutability": "payable",
      "type": "function"
    },
    {
      "inputs": [
        {
          "internalType": "uint256",
          "name": "",
          "type": "uint256"
        },
        {
          "internalType": "bytes32",
          "name": "",
          "type": "bytes32"
        }
      ],
      "name": "verifiedMoveHashes",
      "outputs": [
        {
          "internalType": "bool",
          "name": "",
          "type": "bool"
        }
      ],
      "stateMutability": "view",
      "type": "function"
    },
    {
      "inputs": [],
      "name": "winVerifier",
      "outputs": [
        {
          "internalType": "contract IWinVerifier",
          "name": "",
          "type": "address"
        }
      ],
      "stateMutability": "view",
      "type": "function"
    }
  ],
  "bytecode": "0x60a08060405234620000d157306080527ff0c57e16840df040f15088dc2f81fe391c3923bec73e23a9662efc9c229c6a009081549060ff8260401c16620000c257506001600160401b036002600160401b0319828216016200007c575b604051613abb9081620000d7823960805181818161234e015261246e0152f35b6001600160401b031990911681179091556040519081527fc7f505b2f371ae2175ee4913f4499e1f2633a7b5936321eed1cdaeb6115181d290602090a13880806200005c565b63f92ee8a960e01b8152600490fd5b600080fdfe608080604052600436101561001357600080fd5b60003560e01c9081630d77a78514612899575080630db399341461287b57806310df54a0146102105780632abb5e9d146127365780632fe7e41f146126895780633644e5151461266b578063489d2220146126425780634f1ef286146123f357806351982d64146123b857806352d1902d1461233b578063552805b514611cb1578063564a565d14611bd957806357898767146115ff578063594d6fdb146115d3578063715018a61461156957806386e773f1146113ec5780638d2d99ee146113c35780638da5cb5b1461138d5780639764798314610f5a57806398024e7214610f1b5780639b5d0a1814610906578063ad3cb1cc14610882578063c0c53b8b146105e7578063c2b7b86814610404578063c3a079ed146103e7578063cd57c20c1461035e578063d173bf9c14610335578063e3a96cbd14610283578063e5949b5d14610210578063f2fde38b146101e5578063f4606f00146101c7578063f4c618cd146101ab5763f54aed271461018a57600080fd5b346101a65760003660031901126101a657602060405160788152f35b600080fd5b346101a65760003660031901126101a6576020604051600c8152f35b346101a65760003660031901126101a6576020600954604051908152f35b346101a65760203660031901126101a65761020e610201612907565b6102096132ca565b612c87565b005b346101a65760203660031901126101a65760043560005260046020526040600020805461027f60018060a01b039182600185015416936002810154600382015460048301549060058401549260078860068701541695015495604051998a9960ff8460a01c169316918a6128b3565b0390f35b346101a65760203660031901126101a6576004356000526005602052610140604060002080549060018060a01b039081600182015416916002820154600383015461031660048501549260058601549460ff600f60068901549801541697604051998a5260208a0152811660408901526103066060890160ff8360a01c16612afa565b60ff608089019160a81c16612b07565b60a086015260c085015260e08401526101008301521515610120820152f35b346101a65760003660031901126101a6576001546040516001600160a01b039091168152602090f35b346101a65760203660031901126101a65760006101406040516103808161291d565b8281528260208201528260408201528260608201528260808201528260a08201528260c08201528260e08201528261010082015282610120820152015260043560005260076020526101606103d86040600020612a6d565b6103e56040518092612b14565bf35b346101a65760003660031901126101a657602060405161012c8152f35b346101a6576020806003193601126101a6576004358060005260058252604060002090600f82019060ff8254166105a257600283019160ff835460a81c16600381101561058c57158061057f575b1561051f577f1cf4fb7a0897dc3f9a1229a1b0a6c5243e5147f0ac591661ff0538932c8c2eb59084546000526004865260406000209360028501600160a11b60ff60a01b19825416179055600186019060018060a01b03928383541660068801906001600160601b0360a01b82541617905560058801968754600482015560068901546005820155600742910155600160ff19825416179055600160a91b60ff60a81b19825416179055541694859354604051908152a354600080516020613a66833981519152600080a3005b60405162461bcd60e51b815260048101869052603260248201527f44697370757465206e6f7420616374697665206f7220726573706f6e736520646044820152711958591b1a5b99481b9bdd081c185cdcd95960721b6064820152608490fd5b5060048401544211610452565b634e487b7160e01b600052602160045260246000fd5b60405162461bcd60e51b815260048101859052601860248201527f4469737075746520616c7265616479207265736f6c76656400000000000000006044820152606490fd5b346101a65760603660031901126101a657610600612907565b6024356001600160a01b03818116918290036101a657604435918183168093036101a6577ff0c57e16840df040f15088dc2f81fe391c3923bec73e23a9662efc9c229c6a009283549460ff8660401c1615926001600160401b03948588169788158061087b575b6001809a149081610871575b159081610868575b506108565767ffffffffffffffff1981168917885585610837575b5061069f613981565b6106a7613981565b6106b033612c87565b6106b8613981565b6106c0613981565b6106c8613981565b87600080516020613a46833981519152556001600160601b0360a01b92168260005416176000558187541617865560025416176002558360095583600a55690426174746c65736869760b41b602060405161072281612939565b600a81520152603160f81b602060405161073b81612939565b868152015260405160208101907f8b73c3c69bb8fe3d512ecc4cf759cc79239f7b179b0ffacaa9a75d522b39400f82527fe9c89ef84d8548076ded2588c89dfecfa53e32b89b3fa93a04fb28612b20ef4760408201527fc89efdaa54c0f20c7adf612882df0950f5a951637e0307cdcb4c672f298b8bc660608201524660808201523060a082015260a0815260c08101938185109085111761082157836040525190206003556107e757005b7fc7f505b2f371ae2175ee4913f4499e1f2633a7b5936321eed1cdaeb6115181d29260209268ff00000000000000001981541690558152a1005b634e487b7160e01b600052604160045260246000fd5b68ffffffffffffffffff19166801000000000000000117875588610696565b60405163f92ee8a960e01b8152600490fd5b9050158a61067b565b303b159150610673565b5085610667565b346101a65760003660031901126101a65760405161089f81612939565b60058152602090640352e302e360dc1b60208201526040518092602082528251908160208401526000935b8285106108ed575050604092506000838284010152601f80199101168101030190f35b84810182015186860160400152938101938593506108ca565b346101a6576102003660031901126101a657600860243510156101a6576101603660431901126101a65760405161093c8161291d565b60443581526064356001600160a01b03811681036101a6576020820152608435604082015260a435606082015260c435608082015260e43560ff811681036101a65760a08201526101043560ff811681036101a65760c082015261012435151561012435036101a6576101243560e0820152610144356001600160a01b03811690036101a6576101443561010082015261016435610120820152610184356101408201526101a4356001600160401b0381116101a657610a00903690600401612a40565b91906101c4356001600160401b0381116101a657610a22903690600401612a40565b9190600435600052600460205260406000209160028301549560ff8760a01c16600481101561058c57610ee15760018401546001600160a01b031694338614808015610ecf575b610a7290612ba3565b6004356000526006602052604060002054610e8a5715610e83576001600160a01b038816975b610aa188612cfb565b966000602435158015610e74575b15610b3557505050600185015461020e989695946001600160a01b0390911693929190338503610b0b5750610afb94506001600160a01b0392610af492915086613303565b1614613645565b6101e435926024356004356133db565b600290950154610b30956001600160a01b039182169550909350610af4925086613303565b610afb565b61058c57602435600503610e2b57505060018501546001600160a01b031693338503610dfa5750610b7d94506001600160a01b0392610b7692915086613303565b1614612bf6565b600a5492610b8a84612b94565b600a55600084815260056020526040902060043581556001810180546001600160a01b031916331790556002810180546001600160a81b0319166001600160a01b0390931692909217600560a01b1760ff60a81b191690915542600382018190556078810110610de457607842016004820155816005820155825180600683015560078201556008810160018060a01b036020850151166001600160601b0360a01b825416179055604083015160098201556060830151600a8201556080830151600b82015560ff60a084015116600c8201549062ff000061ff0060c087015160081b1660e08701511515926101008801516301000000600160b81b039060181b16946001600160481b0360b81b1617179160101b161717600c820155610120830151600d820155610140830151600e82015560106101e43591015560043560005260066020528260406000205560046020526002604060002001600160a01b60ff60a01b1982541617905560005260076020526007610140604060002092805184556001840160018060a01b036020830151166001600160601b0360a01b8254161790556040810151600285015560608101516003850155608081015160048501556005840160ff60a08301511681549061ff0060c085015160081b1662ff000060e0860151151560101b16916301000000600160b81b0361010087015160181b16936001600160481b0360b81b1617171717905561012081015160068501550151910155604051906005825233917fb8880effb67dd7283293254619484f4eed363df2b042eb31b547420ec35da169602060043592a4005b634e487b7160e01b600052601160045260246000fd5b600290950154610e26956001600160a01b039182169550909350610e1f925086613303565b1614612c38565b610b7d565b61020e99979650610e5290610e61939295610b76610afb989660018060a01b03928b613303565b6001600160a01b039286613303565b6001600160a01b03909216911614612c38565b50506000600460243514610aaf565b8597610a98565b60405162461bcd60e51b815260206004820152601960248201527f4469737075746520616c726561647920696e69746961746564000000000000006044820152606490fd5b50336001600160a01b038a1614610a69565b60405162461bcd60e51b815260206004820152601260248201527110da185b9b995b081b9bdd081bdc195b995960721b6044820152606490fd5b346101a65760403660031901126101a65760043560005260086020526040600020602435600052602052602060ff604060002054166040519015158152f35b346101a6576102e03660031901126101a657610f7536612990565b610184356001600160401b0381116101a657610f95903690600401612a40565b91610140366101a31901126101a6576004356000526004602052604060002092600284015460ff8160a01c16600481101561058c5761135557610fef9060018060a01b036001870154163314908115611342575b50612ba3565b336000526008840160205260ff604060002054166112fd5760005460408051637ae4eb4f60e11b8152916001600160a01b0316906101a46004840137816101e46000604483015b600282106112e35750505061014481602093604061026460c484013760406102a46101048401375afa9081156112d7576000916112a8575b50156112635761107d82612cfb565b9233916001600160a01b0391611094919086613303565b160361122d5781602093336000526008810185526040600020600160ff1982541617905560405182815233907fbee23f4bd91359c47ec4f5fec8b03a7205071aa4cd5300fab17846e22a8867b38760043592a360018101546001600160a01b03166000908152600882018652604090205460ff168061120c575b6111d4575b50600052600783526007610140604060002092805184556001840160018060a01b0387830151166001600160601b0360a01b8254161790556040810151600285015560608101516003850155608081015160048501556005840160ff60a08301511681549061ff0060c085015160081b1662ff000060e0860151151560101b16916301000000600160b81b0361010087015160181b16936001600160481b0360b81b1617171717905561012081015160068501550151910155604051908152f35b600401556040518281527f31ff072785a17f31ee54e2c21b06372f633d3c9dae231e606c6078a8dd0832608460043592a28184611113565b5060028101546001600160a01b03166000908152604090205460ff1661110e565b60405162461bcd60e51b815260206004820152600e60248201526d24b73b30b634b21039b4b3b732b960911b6044820152606490fd5b60405162461bcd60e51b815260206004820152601c60248201527f496e76616c6964207368697020706c6163656d656e742070726f6f66000000006044820152606490fd5b6112ca915060203d6020116112d0575b6112c28183612954565b810190612bde565b8561106e565b503d6112b8565b6040513d6000823e3d90fd5b829350604081816001949581943701930191018492611036565b60405162461bcd60e51b815260206004820152601f60248201527f416c7265616479207375626d697474656420696e697469616c207374617465006044820152606490fd5b6001600160a01b03163314905086610fe9565b60405162461bcd60e51b815260206004820152601060248201526f21b430b73732b6103737ba1037b832b760811b6044820152606490fd5b346101a65760003660031901126101a657600080516020613a26833981519152546040516001600160a01b039091168152602090f35b346101a65760003660031901126101a6576002546040516001600160a01b039091168152602090f35b346101a65760203660031901126101a657600435806000526004602052604060002060028101805460ff8160a01c16600481101561058c5760021461152457600183015461144e90336001600160a01b03918216149081156115185750612ba3565b60038301546108348101809111610de4574211156114d35760ff60a01b1916600160a11b1790556006810180546001600160a01b0319163390811790915542600790920191909155817f2506b4eed08805d7166c29cfd21dbb2c2b7f3009ca99b3cf919dd573ed05ad51600080a33390600080516020613a66833981519152600080a3005b60405162461bcd60e51b815260206004820152601960248201527f4368616c6c656e676520706572696f64206e6f74206f766572000000000000006044820152606490fd5b90508216331486610fe9565b60405162461bcd60e51b815260206004820152601860248201527f4368616e6e656c20616c726561647920736574746c65642100000000000000006044820152606490fd5b346101a65760003660031901126101a6576115826132ca565b600080516020613a2683398151915280546001600160a01b031981169091556000906001600160a01b03167f8be0079c531659141344cd1fd0a4f28419497f9722a3daafe3b4186f6b6457e08280a3005b346101a65760203660031901126101a65760043560005260066020526020604060002054604051908152f35b346101a6576105003660031901126101a65761161a36612990565b6001600160401b03610184358181116101a65761163b903690600401612a40565b9290916101a4359081116101a657611657903690600401612a40565b92906101e0366101c31901126101a657610160366103a31901126101a6576040516116818161291d565b6103a43581526103c4356001600160a01b03811681036101a65760208201526103e43560408201526104043560608201526104243560808201526104443560ff811681036101a65760a08201526104643560ff811681036101a65760c08201526104843580151581036101a65760e08201526104a4356001600160a01b03811681036101a6576101008201526104c4356101208201526104e4356101408201526004356000526005602052604060002095600287015460ff8160a81c16600381101561058c57611b9f576004880154421015611b5a576001600160a01b03163303611b2057865460005260046020526040600020958551600689015411611ab5576117da926117d487926117b68a9561179986612cfb565b6001880154909a6001600160a01b0391821692610b76918d613303565b60028501805490976001600160a01b0391821692610e1f918b613303565b88612e19565b15611a795760068401336001600160601b0360a01b825416179055816004850155825160058501558354600052600860205260406000206103843590816000526020526040600020600160ff19825416179055339085547fdbd8535529ebb73d8587be8aed590a906923ce60619c098a2be15a86fb029f81600080a45b426007850155600160a11b60ff60a01b19825416179055600160a91b60ff60a81b19600286015416176002850155600f8401600160ff1982541617905580600585015581518060078601556008850160018060a01b036020850151166001600160601b0360a01b825416179055604083015160098601556060830151600a8601556080830151600b86015560ff60a084015116600c8601549062ff000061ff0060c087015160081b1660e08701511515926101008801516301000000600160b81b039060181b16946001600160481b0360b81b1617179160101b161717600c860155610120830151600d860155610140830151600e8601556006850155607842014211610de45760784201600485015560005260076020526007610140604060002092805184556001840160018060a01b036020830151166001600160601b0360a01b8254161790556040810151600285015560608101516003850155608081015160048501556005840160ff60a08301511681549061ff0060c085015160081b1662ff000060e0860151151560101b16916301000000600160b81b0361010087015160181b16936001600160481b0360b81b1617171717905561012081015160068501550151910155600660018060a01b0391015416908160058201546040519081527f1cf4fb7a0897dc3f9a1229a1b0a6c5243e5147f0ac591661ff0538932c8c2eb5602060043592a354600080516020613a66833981519152600080a3005b60018060a01b0360018601541660068501906001600160601b0360a01b8254161790556005850154600485015560068501546005850155611857565b60405162461bcd60e51b815260206004820152603c60248201527f4e6f6e636520746f6f206c6f772e20436f756e7465722d7374617465206d757360448201527f74206861766520686967686572206f7220657175616c206e6f6e6365000000006064820152608490fd5b60405162461bcd60e51b8152602060048201526012602482015271139bdd081d1a19481c995cdc1bdb99195b9d60721b6044820152606490fd5b60405162461bcd60e51b815260206004820152601860248201527f526573706f6e736520646561646c696e652070617373656400000000000000006044820152606490fd5b60405162461bcd60e51b815260206004820152601260248201527144697370757465206e6f742061637469766560701b6044820152606490fd5b346101a65760203660031901126101a65760043560005260056020526102c0604060002080549060018060a01b0390611ca18260018301541692600283015460038401546004850154600586015491611c81600688015494611c3d60078a01612a6d565b96601060ff600f8c0154169a01549a6040519c8d5260208d0152811660408c0152611c7160608c0160ff8360a01c16612afa565b60ff60808c019160a81c16612b07565b60a089015260c088015260e0870152610100860152610120850190612b14565b15156102808301526102a0820152f35b346101a6576103203660031901126101a657611ccc36612990565b6001600160401b0390610184358281116101a657611cee903690600401612a40565b9190926101a4359081116101a657611d0a903690600401612a40565b9093610160366101c31901126101a6576002600080516020613a468339815191525414612329576002600080516020613a4683398151915255600435600052600460205260406000209460028601549260ff8460a01c16600481101561058c576122e45760018701546001600160a01b03169233841480156122d2575b611d9090612ba3565b836000526008880160205260ff60406000205416806122b5575b1561226157600435600052600660205260406000205461220c57611de0611dd087612cfb565b976001600160a01b039289613303565b1683036121c7576001600160a01b0391611dfb919087613303565b166001600160a01b0383160361218257600254604080516308a3cff560e11b8152916001600160a01b0316906101c46004840137816102046000604483015b600282106121685750505061016481602093604061028460c484013760606102c46101048401375afa9081156112d757600091612149575b501561211057600160e08401511515036120d6576101008301516001600160a01b03161561209c576101008301516001600160a01b0316908114908115612089575b501561205357600c60ff60a08401511610801590612041575b156120045760079161014091600160a11b9060ff60a01b191617600286015560018060a01b03610100820151169360068601956001600160601b0360a01b95868854161787558160048201558251600582015584429101556000528260205260406000209381518555600185019060018060a01b03602084015116908254161790556040810151600285015560608101516003850155608081015160048501556005840160ff60a08301511681549061ff0060c085015160081b1662ff000060e0860151151560101b16916301000000600160b81b0361010087015160181b16936001600160481b0360b81b161717171790556101208101516006850155015191015560018060a01b03905416600435600080516020613a66833981519152600080a36001600080516020613a4683398151915255005b60405162461bcd60e51b8152602060048201526015602482015274139bc81c1b185e595c881a185cc81ddbdb881e595d605a1b6044820152606490fd5b50600c60ff60c0840151161015611ecd565b60405162461bcd60e51b815260206004820152600e60248201526d24b73b30b634b2103bb4b73732b960911b6044820152606490fd5b6001600160a01b03831614905085611eb4565b60405162461bcd60e51b815260206004820152601260248201527115da5b9b995c881b5d5cdd081899481cd95d60721b6044820152606490fd5b60405162461bcd60e51b815260206004820152601260248201527111d85b59481b5d5cdd08189948195b99195960721b6044820152606490fd5b60405162461bcd60e51b815260206004820152601160248201527024b73b30b634b2103bb4b710383937b7b360791b6044820152606490fd5b612162915060203d6020116112d0576112c28183612954565b86611e72565b829350604081816001949581943701930191018492611e3a565b60405162461bcd60e51b815260206004820152601a60248201527f496e76616c696420506c617965722032207369676e61747572650000000000006044820152606490fd5b60405162461bcd60e51b815260206004820152601a60248201527f496e76616c696420506c617965722031207369676e61747572650000000000006044820152606490fd5b60405162461bcd60e51b815260206004820152602760248201527f4368616e6e656c2068617320616e206163746976652064697370757465206f6e6044820152662d676f696e672160c81b6064820152608490fd5b60405162461bcd60e51b815260206004820152602660248201527f426f746820706c6179657273206d757374207375626d697420696e697469616c60448201526520737461746560d01b6064820152608490fd5b506001600160a01b0385166000908152604090205460ff16611daa565b50336001600160a01b03861614611d87565b60405162461bcd60e51b815260206004820152601f60248201527f4368616e6e656c206e6f74206f70656e20666f7220736574746c656d656e74006044820152606490fd5b604051633ee5aeb560e01b8152600490fd5b346101a65760003660031901126101a6577f00000000000000000000000000000000000000000000000000000000000000006001600160a01b031630036123a65760206040517f360894a13ba1a3210667c828492db98dca3e2076cc3735a920a3ca505d382bbc8152f35b60405163703e46dd60e11b8152600490fd5b346101a65760003660031901126101a65760206040517f887df993491622053e8f03b5c7f04dfb051d1566ad1e108052f890883ca9e7518152f35b60403660031901126101a657612407612907565b60249081356001600160401b0381116101a657366023820112156101a657806004013561243381612975565b926124416040519485612954565b81845260209182850193368783830101116101a65781600092888693018737860101526001600160a01b037f00000000000000000000000000000000000000000000000000000000000000008116308114908115612614575b506123a6576124a76132ca565b8116936040516352d1902d60e01b81528381600481895afa600091816125e5575b506124e557604051634c9c8ce360e01b8152600481018790528790fd5b8590877f360894a13ba1a3210667c828492db98dca3e2076cc3735a920a3ca505d382bbc918281036125d05750843b156125ba575080546001600160a01b03191682179055604051907fbc7cd75a20ee27fd9adebab32041f755214dbc6bffa90cc0225b39da2e5c2d3b600080a281511561259f5750600061020e9481925190845af4903d15612596573d61257981612975565b906125876040519283612954565b8152600081943d92013e6139c2565b606092506139c2565b9350505050346125ab57005b63b398979f60e01b8152600490fd5b604051634c9c8ce360e01b815260048101849052fd5b60405190632a87526960e21b82526004820152fd5b9091508481813d831161260d575b6125fd8183612954565b810103126101a6575190886124c8565b503d6125f3565b9050817f360894a13ba1a3210667c828492db98dca3e2076cc3735a920a3ca505d382bbc541614158761249a565b346101a65760003660031901126101a6576000546040516001600160a01b039091168152602090f35b346101a65760003660031901126101a6576020600354604051908152f35b346101a65760203660031901126101a6576004356000526007602052610160604060002080549060018060a01b03908160018201541691600282015460038301546004840154906005850154926007600687015496015496604051988952602089015260408801526060870152608086015260ff811660a086015260ff8160081c1660c086015260ff8160101c16151560e086015260181c16610100840152610120830152610140820152f35b346101a65760203660031901126101a6576001600160a01b03612757612907565b168015612836573381146127f15760209060095461277481612b94565b6009558060005260048352600060056040822083815560018101336001600160601b0360a01b82541617905560028101856affffffffffffffffffffff60a81b82541617905542600382015501556040519133827f55bc5cbdb280ba924235746821de33542a878e786d67a54fd0a95bd640193844600080a48152f35b60405162461bcd60e51b815260206004820152601c60248201527f43616e6e6f7420706c617920616761696e737420796f757273656c66000000006044820152606490fd5b60405162461bcd60e51b815260206004820152601860248201527f496e76616c696420706c617965722061646472657373657300000000000000006044820152606490fd5b346101a65760003660031901126101a6576020600a54604051908152f35b346101a65760003660031901126101a65780606460209252f35b9081526001600160a01b03918216602082015291811660408301526101208201989796929591949093600487101561058c57610100966060870152608086015260a085015260c08401521660e08201520152565b600435906001600160a01b03821682036101a657565b61016081019081106001600160401b0382111761082157604052565b604081019081106001600160401b0382111761082157604052565b90601f801991011681019081106001600160401b0382111761082157604052565b6001600160401b03811161082157601f01601f191660200190565b6101609060231901126101a657604051906129aa8261291d565b6024358252816001600160a01b0360443581811681036101a65760208301526064356040830152608435606083015260a435608083015260c43560ff811681036101a65760a083015260e43560ff811681036101a65760c08301526101043580151581036101a65760e08301526101243590811681036101a6576101008201526101443561012082015261014061016435910152565b9181601f840112156101a6578235916001600160401b0383116101a657602083818601950101116101a657565b90604051612a7a8161291d565b610140600782948054845260018060a01b03806001830154166020860152600282015460408601526003820154606086015260048201546080860152600582015460ff811660a087015260ff8160081c1660c087015260ff8160101c16151560e087015260181c1661010085015260068101546101208501520154910152565b90600882101561058c5752565b90600382101561058c5752565b80518252602081015160018060a01b03809116602084015260408201516040840152606082015160608401526080820151608084015260ff60a08301511660a084015260ff60c08301511660c084015260e0820151151560e084015261010090818301511690830152610120808201519083015261014080910151910152565b6000198114610de45760010190565b15612baa57565b60405162461bcd60e51b815260206004820152600c60248201526b2737ba103090383630bcb2b960a11b6044820152606490fd5b908160209103126101a6575180151581036101a65790565b15612bfd57565b60405162461bcd60e51b8152602060048201526013602482015272496e76616c6964207369676e6174757265203160681b6044820152606490fd5b15612c3f57565b60405162461bcd60e51b815260206004820152601360248201527224b73b30b634b21039b4b3b730ba3ab932901960691b6044820152606490fd5b91908201809211610de457565b6001600160a01b03908116908115612ce257600080516020613a2683398151915280546001600160a01b031981168417909155167f8be0079c531659141344cd1fd0a4f28419497f9722a3daafe3b4186f6b6457e0600080a3565b604051631e4fbdf760e01b815260006004820152602490fd5b60409080519060018060a01b038060208301511690848301519160608401519160808501519060ff60a08701511660ff60c0880151169260e088015115159561010093848a0151169761012096610140888c01519b01519b8d519d8e7f887df993491622053e8f03b5c7f04dfb051d1566ad1e108052f890883ca9e7516020820152015260608d015260808c015260a08b015260c08a015260e0890152870152850152610140840152610160830152610180908183015281526101a081018181106001600160401b03821117610821576040526020815191012090565b15612ddf57565b60405162461bcd60e51b815260206004820152601260248201527109adeecca40d0c2e6d040dad2e6dac2e8c6d60731b6044820152606490fd5b9282612e2791939293613691565b156132c25780518251101561327d5760409081810151828401519060018201809211610de457036132395761014081015192610384358094036131f557610324356103643561313a57612e8960ff60a0850151169160ff60a085015116612c7a565b036130f65760ff60c08301511660ff60c083015116036130b2575b606082015160608201510361306e576080808301519101510361302a57600c60ff60a0830151161015600014612f8757600160e08201511515149081612f65575b5015612f2257506002612f0e9260ff925b601082015480612f11575b5050015460a01c16613928565b90565b612f1b9114612dd8565b3880612f01565b5162461bcd60e51b815260206004820152601c60248201527f496e76616c69642067616d6520656e6420666f7220706c6179657231000000006044820152606490fd5b6101008101516020909101516001600160a01b03908116911614905038612ee5565b600c60ff60c0830151161015612fa8575b50506002612f0e9260ff92612ef6565b600160e08201511515149081613008575b5015612fc55780612f98565b5162461bcd60e51b815260206004820152601c60248201527f496e76616c69642067616d6520656e6420666f7220706c6179657232000000006044820152606490fd5b6101008101516020909101516001600160a01b03908116911614905038612fb9565b815162461bcd60e51b815260206004820152601f60248201527f506c6179657232207368697020636f6d6d69746d656e74206368616e676564006044820152606490fd5b825162461bcd60e51b815260206004820152601f60248201527f506c6179657231207368697020636f6d6d69746d656e74206368616e676564006044820152606490fd5b825162461bcd60e51b815260206004820152601e60248201527f506c617965723220686974732073686f756c64206e6f74206368616e676500006044820152606490fd5b825162461bcd60e51b815260206004820152601960248201527f496e76616c696420706c61796572312068697420636f756e74000000000000006044820152606490fd5b61315360ff60c0850151169160ff60c085015116612c7a565b036131b15760ff60a08301511660ff60a08301511614612ea457825162461bcd60e51b815260206004820152601e60248201527f506c617965723120686974732073686f756c64206e6f74206368616e676500006044820152606490fd5b825162461bcd60e51b815260206004820152601960248201527f496e76616c696420706c61796572322068697420636f756e74000000000000006044820152606490fd5b825162461bcd60e51b815260206004820152601f60248201527f4d6f76652068617368206e6f74207570646174656420636f72726563746c79006044820152606490fd5b815162461bcd60e51b815260206004820152601e60248201527f496e76616c6964206d6f766520636f756e742070726f6772657373696f6e00006044820152606490fd5b60405162461bcd60e51b815260206004820152601960248201527f496e76616c6964206e6f6e63652070726f6772657373696f6e000000000000006044820152606490fd5b505050600090565b600080516020613a26833981519152546001600160a01b031633036132eb57565b60405163118cdaa760e01b8152336004820152602490fd5b92919060035491604092835195602087019161190160f01b8352602288015260428701526042865260808601908682106001600160401b03831117610821578185528651902091604019016133995750602093945090608084926000958693865192835286810135851a828401528035878401520135606082015282805260015afa1561338f57505190565b51903d90823e3d90fd5b62461bcd60e51b815260206084870152601860a48701527f696e76616c6964207369676e6174757265206c656e677468000000000000000060c4870152606490fd5b929094600a54946133eb86612b94565b600a5585600052600560205260406000209085825560018201336001600160601b0360a01b825416179055600282019081549060088a101561058c5760018060a01b03169069ffffffffffffffffffff60b01b161760ff60a01b8960a01b161790554260038201556078420190814211610de4576010916004820155836005820155845180600683015560078201556008810160018060a01b036020870151166001600160601b0360a01b825416179055604085015160098201556060850151600a8201556080850151600b82015560ff60a086015116600c8201549062ff000061ff0060c089015160081b1660e08901511515926101008a01516301000000600160b81b039060181b16946001600160481b0360b81b16171791851b161717600c820155610120850151600d820155610140850151600e82015501558260005260066020528360406000205560046020526002604060002001600160a01b60ff60a01b1982541617905560005260076020526007610140604060002092805184556001840160018060a01b036020830151166001600160601b0360a01b8254161790556040810151600285015560608101516003850155608081015160048501556005840160ff60a08301511681549061ff0060c085015160081b1662ff000060e0860151151560101b16916301000000600160b81b0361010087015160181b16936001600160481b0360b81b161717171790556101208101516006850155015191015561361d6040518094612afa565b7fb8880effb67dd7283293254619484f4eed363df2b042eb31b547420ec35da16960203394a4565b1561364c57565b60405162461bcd60e51b815260206004820152601c60248201527f496e76616c6964206368616c6c656e676572207369676e6174757265000000006044820152606490fd5b600180546040805163c894e75760e01b815260049490926001600160a01b039081169190836101c48887013760449561020460008789015b876002831061391557935050505061028460c4870137846102c49360e085610104840137816101e460209889935afa90811561390a576000916138ed575b50156138e057815461034435036138ab5780610364351592836000146138a0576001015416905b80868a015116911603613869571561385e576060860151905b350361381f57808501805161030435036137e757511561377d57505050506101406137789101516102e43514612dd8565b600190565b90919293506102e4356137935750505050600190565b5162461bcd60e51b815292830152602c60248301527f4669727374206d6f76652073686f756c642068617665207a65726f2061732070908201526b0e4caecd2deeae640d0c2e6d60a31b6064820152608490fd5b815162461bcd60e51b8152808601849052601360248201527209adeecca40c6deeadce840dad2e6dac2e8c6d606b1b81860152606490fd5b5162461bcd60e51b815292830152601860248301527f5368697020436f6d6d69746d656e74206d69736d61746368000000000000000090820152606490fd5b608086015190613747565b825162461bcd60e51b815280870185905260126024820152710a0d8c2f2cae440928840dad2e6dac2e8c6d60731b81870152606490fd5b60020154169061372e565b835162461bcd60e51b8152808801869052601060248201526f08ec2daca40928840dad2e6dac2e8c6d60831b81880152606490fd5b5050505050505050600090565b6139049150863d88116112d0576112c28183612954565b38613707565b85513d6000823e3d90fd5b80828186889537019301910190916136c9565b600881101561058c578015613961576002811461395b576001811461395b576006811461395b5760071461377857600190565b50600190565b5061030435600a808204109081613976575090565b600a91508190061090565b60ff7ff0c57e16840df040f15088dc2f81fe391c3923bec73e23a9662efc9c229c6a005460401c16156139b057565b604051631afcd79f60e31b8152600490fd5b906139e957508051156139d757602081519101fd5b60405163d6bda27560e01b8152600490fd5b81511580613a1c575b6139fa575090565b604051639996b31560e01b81526001600160a01b039091166004820152602490fd5b50803b156139f256fe9016d09d72d40fdae2fd8ceac6b6234c7706214fd39c1cd1e609a0528c1993009b779b17422d0df92223018b32b4d1fa46e071723d6817e2486d003becc55f0092e7428626b1e8dc1430165cf6201218777fc57223037be71113251799bae1aba26469706673582212205fcbaa9221f256c858d81ac09f0c742e06c79932f99390e48592cec284e41c5164736f6c63430008160033",
  "linkReferences": {},
  "deployedLinkReferences": {}
}