{
  "_format": "hh-sol-artifact-1",
  "contractName": "BattleshipWaku",
  "sourceName": "contracts/BattleshipWaku.sol",
  "abi": [
    {
      "inputs": [],
      "stateMutability": "nonpayable",
      "type": "constructor"
    },
    {
      "inputs": [
        {
          "internalType": "address",
          "name": "target",
          "type": "address"
        }
      ],
      "name": "AddressEmptyCode",
      "type": "error"
    },
    {
      "inputs": [
        {
          "internalType": "address",
          "name": "implementation",
          "type": "address"
        }
      ],
      "name": "ERC1967InvalidImplementation",
      "type": "error"
    },
    {
      "inputs": [],
      "name": "ERC1967NonPayable",
      "type": "error"
    },
    {
      "inputs": [],
      "name": "FailedCall",
      "type": "error"
    },
    {
      "inputs": [],
      "name": "InvalidInitialization",
      "type": "error"
    },
    {
      "inputs": [],
      "name": "NotInitializing",
      "type": "error"
    },
    {
      "inputs": [
        {
          "internalType": "address",
          "name": "owner",
          "type": "address"
        }
      ],
      "name": "OwnableInvalidOwner",
      "type": "error"
    },
    {
      "inputs": [
        {
          "internalType": "address",
          "name": "account",
          "type": "address"
        }
      ],
      "name": "OwnableUnauthorizedAccount",
      "type": "error"
    },
    {
      "inputs": [],
      "name": "UUPSUnauthorizedCallContext",
      "type": "error"
    },
    {
      "inputs": [
        {
          "internalType": "bytes32",
          "name": "slot",
          "type": "bytes32"
        }
      ],
      "name": "UUPSUnsupportedProxiableUUID",
      "type": "error"
    },
    {
      "anonymous": false,
      "inputs": [
        {
          "indexed": true,
          "internalType": "uint256",
          "name": "gameId",
          "type": "uint256"
        },
        {
          "indexed": false,
          "internalType": "address",
          "name": "player1",
          "type": "address"
        },
        {
          "indexed": false,
          "internalType": "uint256",
          "name": "player1BoardCommitment",
          "type": "uint256"
        },
        {
          "indexed": false,
          "internalType": "uint256",
          "name": "player1MerkleRoot",
          "type": "uint256"
        }
      ],
      "name": "GameCreated",
      "type": "event"
    },
    {
      "anonymous": false,
      "inputs": [
        {
          "indexed": true,
          "internalType": "uint256",
          "name": "gameId",
          "type": "uint256"
        },
        {
          "indexed": false,
          "internalType": "address",
          "name": "winner",
          "type": "address"
        }
      ],
      "name": "GameEnded",
      "type": "event"
    },
    {
      "anonymous": false,
      "inputs": [
        {
          "indexed": true,
          "internalType": "uint256",
          "name": "gameId",
          "type": "uint256"
        },
        {
          "indexed": false,
          "internalType": "address",
          "name": "player2",
          "type": "address"
        }
      ],
      "name": "GameJoined",
      "type": "event"
    },
    {
      "anonymous": false,
      "inputs": [
        {
          "indexed": true,
          "internalType": "uint256",
          "name": "gameId",
          "type": "uint256"
        }
      ],
      "name": "GameStarted",
      "type": "event"
    },
    {
      "anonymous": false,
      "inputs": [
        {
          "indexed": false,
          "internalType": "uint64",
          "name": "version",
          "type": "uint64"
        }
      ],
      "name": "Initialized",
      "type": "event"
    },
    {
      "anonymous": false,
      "inputs": [
        {
          "indexed": false,
          "internalType": "uint256",
          "name": "indexedgameId",
          "type": "uint256"
        },
        {
          "indexed": false,
          "internalType": "address",
          "name": "player",
          "type": "address"
        }
      ],
      "name": "MoveMade",
      "type": "event"
    },
    {
      "anonymous": false,
      "inputs": [
        {
          "indexed": true,
          "internalType": "address",
          "name": "previousOwner",
          "type": "address"
        },
        {
          "indexed": true,
          "internalType": "address",
          "name": "newOwner",
          "type": "address"
        }
      ],
      "name": "OwnershipTransferred",
      "type": "event"
    },
    {
      "anonymous": false,
      "inputs": [
        {
          "indexed": true,
          "internalType": "address",
          "name": "implementation",
          "type": "address"
        }
      ],
      "name": "Upgraded",
      "type": "event"
    },
    {
      "inputs": [
        {
          "internalType": "address",
          "name": "player2",
          "type": "address"
        },
        {
          "components": [
            {
              "internalType": "uint256[2]",
              "name": "pA",
              "type": "uint256[2]"
            },
            {
              "internalType": "uint256[2][2]",
              "name": "pB",
              "type": "uint256[2][2]"
            },
            {
              "internalType": "uint256[2]",
              "name": "pC",
              "type": "uint256[2]"
            },
            {
              "internalType": "uint256[2]",
              "name": "pubSignals",
              "type": "uint256[2]"
            }
          ],
          "internalType": "struct BattleshipWaku.ShipPlacementProof",
          "name": "shipPlacementProofPlayer2",
          "type": "tuple"
        },
        {
          "internalType": "uint256",
          "name": "gameId",
          "type": "uint256"
        }
      ],
      "name": "JoinGame",
      "outputs": [],
      "stateMutability": "nonpayable",
      "type": "function"
    },
    {
      "inputs": [],
      "name": "UPGRADE_INTERFACE_VERSION",
      "outputs": [
        {
          "internalType": "string",
          "name": "",
          "type": "string"
        }
      ],
      "stateMutability": "view",
      "type": "function"
    },
    {
      "inputs": [
        {
          "internalType": "address",
          "name": "player1",
          "type": "address"
        },
        {
          "components": [
            {
              "internalType": "uint256[2]",
              "name": "pA",
              "type": "uint256[2]"
            },
            {
              "internalType": "uint256[2][2]",
              "name": "pB",
              "type": "uint256[2][2]"
            },
            {
              "internalType": "uint256[2]",
              "name": "pC",
              "type": "uint256[2]"
            },
            {
              "internalType": "uint256[2]",
              "name": "pubSignals",
              "type": "uint256[2]"
            }
          ],
          "internalType": "struct BattleshipWaku.ShipPlacementProof",
          "name": "shipPlacementProofPlayer1",
          "type": "tuple"
        },
        {
          "internalType": "uint256",
          "name": "gameId",
          "type": "uint256"
        },
        {
          "internalType": "uint16",
          "name": "wakuRoomId",
          "type": "uint16"
        }
      ],
      "name": "createGame",
      "outputs": [],
      "stateMutability": "nonpayable",
      "type": "function"
    },
    {
      "inputs": [],
      "name": "gameCount",
      "outputs": [
        {
          "internalType": "uint256",
          "name": "",
          "type": "uint256"
        }
      ],
      "stateMutability": "view",
      "type": "function"
    },
    {
      "inputs": [
        {
          "internalType": "uint256",
          "name": "",
          "type": "uint256"
        }
      ],
      "name": "gameIds",
      "outputs": [
        {
          "internalType": "uint256",
          "name": "",
          "type": "uint256"
        }
      ],
      "stateMutability": "view",
      "type": "function"
    },
    {
      "inputs": [
        {
          "internalType": "uint256",
          "name": "",
          "type": "uint256"
        }
      ],
      "name": "games",
      "outputs": [
        {
          "internalType": "uint256",
          "name": "gameId",
          "type": "uint256"
        },
        {
          "internalType": "address",
          "name": "player1",
          "type": "address"
        },
        {
          "internalType": "address",
          "name": "player2",
          "type": "address"
        },
        {
          "internalType": "bool",
          "name": "isActive",
          "type": "bool"
        },
        {
          "internalType": "address",
          "name": "playerTurn",
          "type": "address"
        },
        {
          "internalType": "bytes32",
          "name": "player1_board_commitment",
          "type": "bytes32"
        },
        {
          "internalType": "bytes32",
          "name": "player1_merkle_root",
          "type": "bytes32"
        },
        {
          "internalType": "bytes32",
          "name": "player2_board_commitment",
          "type": "bytes32"
        },
        {
          "internalType": "bytes32",
          "name": "player2_merkle_root",
          "type": "bytes32"
        },
        {
          "components": [
            {
              "internalType": "uint256[2]",
              "name": "pA",
              "type": "uint256[2]"
            },
            {
              "internalType": "uint256[2][2]",
              "name": "pB",
              "type": "uint256[2][2]"
            },
            {
              "internalType": "uint256[2]",
              "name": "pC",
              "type": "uint256[2]"
            },
            {
              "internalType": "uint256[2]",
              "name": "pubSignals",
              "type": "uint256[2]"
            }
          ],
          "internalType": "struct BattleshipWaku.ShipPlacementProof",
          "name": "player1ShipPlacementProof",
          "type": "tuple"
        },
        {
          "components": [
            {
              "internalType": "uint256[2]",
              "name": "pA",
              "type": "uint256[2]"
            },
            {
              "internalType": "uint256[2][2]",
              "name": "pB",
              "type": "uint256[2][2]"
            },
            {
              "internalType": "uint256[2]",
              "name": "pC",
              "type": "uint256[2]"
            },
            {
              "internalType": "uint256[2]",
              "name": "pubSignals",
              "type": "uint256[2]"
            }
          ],
          "internalType": "struct BattleshipWaku.ShipPlacementProof",
          "name": "player2ShipPlacementProof",
          "type": "tuple"
        },
        {
          "internalType": "uint16",
          "name": "wakuRoomId",
          "type": "uint16"
        }
      ],
      "stateMutability": "view",
      "type": "function"
    },
    {
      "inputs": [],
      "name": "getAllGames",
      "outputs": [
        {
          "components": [
            {
              "internalType": "uint256",
              "name": "gameId",
              "type": "uint256"
            },
            {
              "internalType": "address",
              "name": "player1",
              "type": "address"
            },
            {
              "internalType": "address",
              "name": "player2",
              "type": "address"
            },
            {
              "internalType": "bool",
              "name": "isActive",
              "type": "bool"
            },
            {
              "internalType": "address",
              "name": "playerTurn",
              "type": "address"
            },
            {
              "internalType": "bytes32",
              "name": "player1_board_commitment",
              "type": "bytes32"
            },
            {
              "internalType": "bytes32",
              "name": "player1_merkle_root",
              "type": "bytes32"
            },
            {
              "internalType": "bytes32",
              "name": "player2_board_commitment",
              "type": "bytes32"
            },
            {
              "internalType": "bytes32",
              "name": "player2_merkle_root",
              "type": "bytes32"
            },
            {
              "components": [
                {
                  "internalType": "uint256[2]",
                  "name": "pA",
                  "type": "uint256[2]"
                },
                {
                  "internalType": "uint256[2][2]",
                  "name": "pB",
                  "type": "uint256[2][2]"
                },
                {
                  "internalType": "uint256[2]",
                  "name": "pC",
                  "type": "uint256[2]"
                },
                {
                  "internalType": "uint256[2]",
                  "name": "pubSignals",
                  "type": "uint256[2]"
                }
              ],
              "internalType": "struct BattleshipWaku.ShipPlacementProof",
              "name": "player1ShipPlacementProof",
              "type": "tuple"
            },
            {
              "components": [
                {
                  "internalType": "uint256[2]",
                  "name": "pA",
                  "type": "uint256[2]"
                },
                {
                  "internalType": "uint256[2][2]",
                  "name": "pB",
                  "type": "uint256[2][2]"
                },
                {
                  "internalType": "uint256[2]",
                  "name": "pC",
                  "type": "uint256[2]"
                },
                {
                  "internalType": "uint256[2]",
                  "name": "pubSignals",
                  "type": "uint256[2]"
                }
              ],
              "internalType": "struct BattleshipWaku.ShipPlacementProof",
              "name": "player2ShipPlacementProof",
              "type": "tuple"
            },
            {
              "internalType": "uint16",
              "name": "wakuRoomId",
              "type": "uint16"
            }
          ],
          "internalType": "struct BattleshipWaku.GameView[]",
          "name": "",
          "type": "tuple[]"
        }
      ],
      "stateMutability": "view",
      "type": "function"
    },
    {
      "inputs": [
        {
          "internalType": "uint256",
          "name": "gameId",
          "type": "uint256"
        }
      ],
      "name": "getGame",
      "outputs": [
        {
          "components": [
            {
              "internalType": "uint256",
              "name": "gameId",
              "type": "uint256"
            },
            {
              "internalType": "address",
              "name": "player1",
              "type": "address"
            },
            {
              "internalType": "address",
              "name": "player2",
              "type": "address"
            },
            {
              "internalType": "bool",
              "name": "isActive",
              "type": "bool"
            },
            {
              "internalType": "address",
              "name": "playerTurn",
              "type": "address"
            },
            {
              "internalType": "bytes32",
              "name": "player1_board_commitment",
              "type": "bytes32"
            },
            {
              "internalType": "bytes32",
              "name": "player1_merkle_root",
              "type": "bytes32"
            },
            {
              "internalType": "bytes32",
              "name": "player2_board_commitment",
              "type": "bytes32"
            },
            {
              "internalType": "bytes32",
              "name": "player2_merkle_root",
              "type": "bytes32"
            },
            {
              "components": [
                {
                  "internalType": "uint256[2]",
                  "name": "pA",
                  "type": "uint256[2]"
                },
                {
                  "internalType": "uint256[2][2]",
                  "name": "pB",
                  "type": "uint256[2][2]"
                },
                {
                  "internalType": "uint256[2]",
                  "name": "pC",
                  "type": "uint256[2]"
                },
                {
                  "internalType": "uint256[2]",
                  "name": "pubSignals",
                  "type": "uint256[2]"
                }
              ],
              "internalType": "struct BattleshipWaku.ShipPlacementProof",
              "name": "player1ShipPlacementProof",
              "type": "tuple"
            },
            {
              "components": [
                {
                  "internalType": "uint256[2]",
                  "name": "pA",
                  "type": "uint256[2]"
                },
                {
                  "internalType": "uint256[2][2]",
                  "name": "pB",
                  "type": "uint256[2][2]"
                },
                {
                  "internalType": "uint256[2]",
                  "name": "pC",
                  "type": "uint256[2]"
                },
                {
                  "internalType": "uint256[2]",
                  "name": "pubSignals",
                  "type": "uint256[2]"
                }
              ],
              "internalType": "struct BattleshipWaku.ShipPlacementProof",
              "name": "player2ShipPlacementProof",
              "type": "tuple"
            },
            {
              "internalType": "uint16",
              "name": "wakuRoomId",
              "type": "uint16"
            }
          ],
          "internalType": "struct BattleshipWaku.GameView",
          "name": "gameData",
          "type": "tuple"
        },
        {
          "internalType": "uint8",
          "name": "player1Hits",
          "type": "uint8"
        },
        {
          "internalType": "uint8",
          "name": "player2Hits",
          "type": "uint8"
        }
      ],
      "stateMutability": "view",
      "type": "function"
    },
    {
      "inputs": [
        {
          "internalType": "uint256",
          "name": "gameId",
          "type": "uint256"
        }
      ],
      "name": "getGameById",
      "outputs": [
        {
          "components": [
            {
              "internalType": "uint256",
              "name": "gameId",
              "type": "uint256"
            },
            {
              "internalType": "address",
              "name": "player1",
              "type": "address"
            },
            {
              "internalType": "address",
              "name": "player2",
              "type": "address"
            },
            {
              "internalType": "bool",
              "name": "isActive",
              "type": "bool"
            },
            {
              "internalType": "address",
              "name": "playerTurn",
              "type": "address"
            },
            {
              "internalType": "bytes32",
              "name": "player1_board_commitment",
              "type": "bytes32"
            },
            {
              "internalType": "bytes32",
              "name": "player1_merkle_root",
              "type": "bytes32"
            },
            {
              "internalType": "bytes32",
              "name": "player2_board_commitment",
              "type": "bytes32"
            },
            {
              "internalType": "bytes32",
              "name": "player2_merkle_root",
              "type": "bytes32"
            },
            {
              "components": [
                {
                  "internalType": "uint256[2]",
                  "name": "pA",
                  "type": "uint256[2]"
                },
                {
                  "internalType": "uint256[2][2]",
                  "name": "pB",
                  "type": "uint256[2][2]"
                },
                {
                  "internalType": "uint256[2]",
                  "name": "pC",
                  "type": "uint256[2]"
                },
                {
                  "internalType": "uint256[2]",
                  "name": "pubSignals",
                  "type": "uint256[2]"
                }
              ],
              "internalType": "struct BattleshipWaku.ShipPlacementProof",
              "name": "player1ShipPlacementProof",
              "type": "tuple"
            },
            {
              "components": [
                {
                  "internalType": "uint256[2]",
                  "name": "pA",
                  "type": "uint256[2]"
                },
                {
                  "internalType": "uint256[2][2]",
                  "name": "pB",
                  "type": "uint256[2][2]"
                },
                {
                  "internalType": "uint256[2]",
                  "name": "pC",
                  "type": "uint256[2]"
                },
                {
                  "internalType": "uint256[2]",
                  "name": "pubSignals",
                  "type": "uint256[2]"
                }
              ],
              "internalType": "struct BattleshipWaku.ShipPlacementProof",
              "name": "player2ShipPlacementProof",
              "type": "tuple"
            },
            {
              "internalType": "uint16",
              "name": "wakuRoomId",
              "type": "uint16"
            }
          ],
          "internalType": "struct BattleshipWaku.GameView",
          "name": "",
          "type": "tuple"
        }
      ],
      "stateMutability": "view",
      "type": "function"
    },
    {
      "inputs": [
        {
          "internalType": "uint256",
          "name": "gameId",
          "type": "uint256"
        }
      ],
      "name": "getGamePlayers",
      "outputs": [
        {
          "internalType": "address",
          "name": "",
          "type": "address"
        },
        {
          "internalType": "address",
          "name": "",
          "type": "address"
        }
      ],
      "stateMutability": "view",
      "type": "function"
    },
    {
      "inputs": [
        {
          "internalType": "uint256",
          "name": "gameId",
          "type": "uint256"
        }
      ],
      "name": "getGameStatus",
      "outputs": [
        {
          "internalType": "bool",
          "name": "",
          "type": "bool"
        }
      ],
      "stateMutability": "view",
      "type": "function"
    },
    {
      "inputs": [
        {
          "internalType": "address",
          "name": "_shipPlacementVerifier",
          "type": "address"
        },
        {
          "internalType": "address",
          "name": "_moveVerifier",
          "type": "address"
        },
        {
          "internalType": "address",
          "name": "_winVerifier",
          "type": "address"
        }
      ],
      "name": "initialize",
      "outputs": [],
      "stateMutability": "nonpayable",
      "type": "function"
    },
    {
      "inputs": [
        {
          "internalType": "uint256",
          "name": "gameId",
          "type": "uint256"
        },
        {
          "components": [
            {
              "internalType": "uint256[2]",
              "name": "pA",
              "type": "uint256[2]"
            },
            {
              "internalType": "uint256[2][2]",
              "name": "pB",
              "type": "uint256[2][2]"
            },
            {
              "internalType": "uint256[2]",
              "name": "pC",
              "type": "uint256[2]"
            },
            {
              "internalType": "uint256[3]",
              "name": "pubSignals",
              "type": "uint256[3]"
            }
          ],
          "internalType": "struct BattleshipWaku.MoveProof",
          "name": "moveProof",
          "type": "tuple"
        }
      ],
      "name": "makeMove",
      "outputs": [
        {
          "internalType": "bool",
          "name": "",
          "type": "bool"
        }
      ],
      "stateMutability": "nonpayable",
      "type": "function"
    },
    {
      "inputs": [],
      "name": "moveVerifier",
      "outputs": [
        {
          "internalType": "contract IMoveVerifier",
          "name": "",
          "type": "address"
        }
      ],
      "stateMutability": "view",
      "type": "function"
    },
    {
      "inputs": [],
      "name": "owner",
      "outputs": [
        {
          "internalType": "address",
          "name": "",
          "type": "address"
        }
      ],
      "stateMutability": "view",
      "type": "function"
    },
    {
      "inputs": [],
      "name": "proxiableUUID",
      "outputs": [
        {
          "internalType": "bytes32",
          "name": "",
          "type": "bytes32"
        }
      ],
      "stateMutability": "view",
      "type": "function"
    },
    {
      "inputs": [],
      "name": "renounceOwnership",
      "outputs": [],
      "stateMutability": "nonpayable",
      "type": "function"
    },
    {
      "inputs": [],
      "name": "shipPlacementVerifier",
      "outputs": [
        {
          "internalType": "contract IShipPlacementVerifier",
          "name": "",
          "type": "address"
        }
      ],
      "stateMutability": "view",
      "type": "function"
    },
    {
      "inputs": [
        {
          "internalType": "address",
          "name": "newOwner",
          "type": "address"
        }
      ],
      "name": "transferOwnership",
      "outputs": [],
      "stateMutability": "nonpayable",
      "type": "function"
    },
    {
      "inputs": [
        {
          "internalType": "address",
          "name": "newImplementation",
          "type": "address"
        },
        {
          "internalType": "bytes",
          "name": "data",
          "type": "bytes"
        }
      ],
      "name": "upgradeToAndCall",
      "outputs": [],
      "stateMutability": "payable",
      "type": "function"
    },
    {
      "inputs": [
        {
          "internalType": "uint256",
          "name": "gameId",
          "type": "uint256"
        },
        {
          "components": [
            {
              "internalType": "uint256[2]",
              "name": "pA",
              "type": "uint256[2]"
            },
            {
              "internalType": "uint256[2][2]",
              "name": "pB",
              "type": "uint256[2][2]"
            },
            {
              "internalType": "uint256[2]",
              "name": "pC",
              "type": "uint256[2]"
            },
            {
              "internalType": "uint256[3]",
              "name": "pubSignals",
              "type": "uint256[3]"
            }
          ],
          "internalType": "struct BattleshipWaku.WinProof",
          "name": "winProof",
          "type": "tuple"
        }
      ],
      "name": "winVerification",
      "outputs": [
        {
          "internalType": "bool",
          "name": "",
          "type": "bool"
        }
      ],
      "stateMutability": "nonpayable",
      "type": "function"
    },
    {
      "inputs": [],
      "name": "winVerifier",
      "outputs": [
        {
          "internalType": "contract IWinVerifier",
          "name": "",
          "type": "address"
        }
      ],
      "stateMutability": "view",
      "type": "function"
    }
  ],
  "bytecode": "0x60a0604052306080523480156200001557600080fd5b506200002062000026565b620000da565b7ff0c57e16840df040f15088dc2f81fe391c3923bec73e23a9662efc9c229c6a00805468010000000000000000900460ff1615620000775760405163f92ee8a960e01b815260040160405180910390fd5b80546001600160401b0390811614620000d75780546001600160401b0319166001600160401b0390811782556040519081527fc7f505b2f371ae2175ee4913f4499e1f2633a7b5936321eed1cdaeb6115181d29060200160405180910390a15b50565b608051613134620001046000396000818161211c01528181612145015261228b01526131346000f3fe6080604052600436106101345760003560e01c8063715018a6116100ab578063c0c53b8b1161006f578063c0c53b8b14610417578063c539684414610437578063d173bf9c14610457578063d82c13f014610477578063db1c45f914610497578063f2fde38b146104b957600080fd5b8063715018a6146103385780638d2d99ee1461034d5780638da5cb5b1461036d578063a2f77bcc146103aa578063ad3cb1cc146103d957600080fd5b80632159e870116100fd5780632159e8701461027257806329b3e3b614610294578063489d2220146102b45780634d1975b4146102ec5780634f1ef2861461031057806352d1902d1461032357600080fd5b806256faa214610139578063096605131461016e5780630f1bf4541461019b578063117a5b90146101d557806315a40f491461020d575b600080fd5b34801561014557600080fd5b506101596101543660046129a2565b6104d9565b60405190151581526020015b60405180910390f35b34801561017a57600080fd5b5061018e6101893660046129d0565b610750565b6040516101659190612b4a565b3480156101a757600080fd5b506101596101b63660046129d0565b600090815260036020526040902060020154600160a01b900460ff1690565b3480156101e157600080fd5b506101f56101f03660046129d0565b610a3f565b6040516101659c9b9a99989796959493929190612b59565b34801561021957600080fd5b506102526102283660046129d0565b600090815260036020526040902060018101546002909101546001600160a01b0391821692911690565b604080516001600160a01b03938416815292909116602083015201610165565b34801561027e57600080fd5b5061029261028d366004612c0c565b610cdd565b005b3480156102a057600080fd5b506101596102af3660046129a2565b6110aa565b3480156102c057600080fd5b506000546102d4906001600160a01b031681565b6040516001600160a01b039091168152602001610165565b3480156102f857600080fd5b5061030260045481565b604051908152602001610165565b61029261031e366004612c66565b6113a6565b34801561032f57600080fd5b506103026113c5565b34801561034457600080fd5b506102926113e2565b34801561035957600080fd5b506002546102d4906001600160a01b031681565b34801561037957600080fd5b507f9016d09d72d40fdae2fd8ceac6b6234c7706214fd39c1cd1e609a0528c199300546001600160a01b03166102d4565b3480156103b657600080fd5b506103ca6103c53660046129d0565b6113f6565b60405161016593929190612d0c565b3480156103e557600080fd5b5061040a604051806040016040528060058152602001640352e302e360dc1b81525081565b6040516101659190612d5b565b34801561042357600080fd5b50610292610432366004612d8e565b61171f565b34801561044357600080fd5b50610292610452366004612dd1565b611862565b34801561046357600080fd5b506001546102d4906001600160a01b031681565b34801561048357600080fd5b506103026104923660046129d0565b611ad5565b3480156104a357600080fd5b506104ac611af6565b6040516101659190612e10565b3480156104c557600080fd5b506102926104d4366004612e5f565b6120d3565b60008281526003602052604081206002810154600160a01b900460ff1661053c5760405162461bcd60e51b815260206004820152601260248201527147616d65206973206e6f742061637469766560701b60448201526064015b60405180910390fd5b60038101546001600160a01b031633146105885760405162461bcd60e51b815260206004820152600d60248201526c2737ba103cb7bab9103a3ab93760991b6044820152606401610533565b60015483516020850151604080870151606088015191516308a3cff560e11b81526000956001600160a01b0316946311479fea946105cf9491939092909190600401612e7a565b602060405180830381865afa1580156105ec573d6000803e3d6000fd5b505050506040513d601f19601f820116820180604052508101906106109190612efe565b9050806106575760405162461bcd60e51b8152602060048201526015602482015274135bdd99481c1c9bdbd9881a5cc81a5b9d985b1a59605a1b6044820152606401610533565b6060840151604001516001036106ae5760038201546001600160a01b031660009081526008830160205260408120805460ff169161069483612f4c565b91906101000a81548160ff021916908360ff160217905550505b600182015460038301546001600160a01b039081169116146106dd5760018201546001600160a01b03166106ec565b60028201546001600160a01b03165b6003830180546001600160a01b0319166001600160a01b0392909216919091179055604080518681523360208201527f5008547a534c07bdb1a5f781fbfc38d92af4d50429ccb847bcae5e7eb4915c2d910160405180910390a19150505b92915050565b6107586125f6565b6000828152600360208181526040928390208351610180810185528154815260018201546001600160a01b039081169382019390935260028083015480851683880152600160a01b900460ff161515606083015293820154909216608080840191909152600482015460a0840152600582015460c080850191909152600683015460e0850152600783015461010085015285519081019586905291949293610120850193600987019284929083019184919082845b81548152602001906001019080831161080d575050505050815260200160028201600280602002604051908101604052809291906000905b8282101561088b57604080518082019182905290600284810287019182845b81548152602001906001019080831161086457505050505081526020019060010190610845565b50505090825250604080518082019182905260209092019190600684019060029082845b8154815260200190600101908083116108af575050509183525050604080518082019182905260209092019190600884019060029082845b8154815260200190600101908083116108e7575050509190925250505081526040805160c081019091526020909101906013840181608081018260028282826020028201915b81548152602001906001019080831161092d575050505050815260200160028201600280602002604051908101604052809291906000905b828210156109ab57604080518082019182905290600284810287019182845b81548152602001906001019080831161098457505050505081526020019060010190610965565b50505090825250604080518082019182905260209092019190600684019060029082845b8154815260200190600101908083116109cf575050509183525050604080518082019182905260209092019190600884019060029082845b815481526020019060010190808311610a0757505050919092525050508152601d9092015461ffff1660209092019190915292915050565b600360208190526000918252604091829020805460018201546002808401549484015460048501546005860154600687015460078801548a5160c081019b8c9052979a6001600160a01b039788169a8881169a600160a01b90910460ff16999890961697949693959294919360098401918391608083019184919082845b815481526020019060010190808311610abd575050505050815260200160028201600280602002604051908101604052809291906000905b82821015610b3b57604080518082019182905290600284810287019182845b815481526020019060010190808311610b1457505050505081526020019060010190610af5565b50505090825250604080518082019182905260209092019190600684019060029082845b815481526020019060010190808311610b5f575050509183525050604080518082019182905260209092019190600884019060029082845b815481526020019060010190808311610b97575050509190925250506040805160c0810190915291929190506013820181608081018260028282826020028201915b815481526020019060010190808311610bd9575050505050815260200160028201600280602002604051908101604052809291906000905b82821015610c5757604080518082019182905290600284810287019182845b815481526020019060010190808311610c3057505050505081526020019060010190610c11565b50505090825250604080518082019182905260209092019190600684019060029082845b815481526020019060010190808311610c7b575050509183525050604080518082019182905260209092019190600884019060029082845b815481526020019060010190808311610cb35750505091909252505050601d9091015461ffff168c565b6001600160a01b038416610d2e5760405162461bcd60e51b8152602060048201526018602482015277496e76616c696420706c617965722061646472657373657360401b6044820152606401610533565b600082815260036020526040902060020154600160a01b900460ff1615610d8d5760405162461bcd60e51b815260206004820152601360248201527247616d6520616c72656164792065786973747360681b6044820152606401610533565b6000805460408051637ae4eb4f60e11b81526001600160a01b039092169163f5c9d69e91610dcd91889182019060c0830190610100840190600401612f6b565b602060405180830381865afa158015610dea573d6000803e3d6000fd5b505050506040513d601f19601f82011682018060405250810190610e0e9190612efe565b905080610e6e5760405162461bcd60e51b815260206004820152602860248201527f506c617965722031207368697020706c6163656d656e742070726f6f66206973604482015267081a5b9d985b1a5960c21b6064820152608401610533565b60008381526003602081905260408220858155601d8101805461ffff191661ffff87161790556001810180546001600160a01b03199081166001600160a01b038b169081179092556002830180546001600160a81b0319169055928201805490931617909155610100860135600482015561012086013560058201556006810182905560078101919091558460098201610f088282612fd7565b50506040805160c0810182526000608080830182815260a0840183905283528351908101845280840182815260608083018490529082528451808601865283815260208181018590528381019190915280850192909252845180860186528381528083018490528486015284518086019095528285529084019190915281019190915280516013830190610f9f9082906002612666565b506020820151610fb590600280840191906126a4565b506040820151610fcb9060068301906002612666565b506060820151610fe19060088301906002612666565b5050506001600160a01b03861660009081526008820160205260408120805460ff19169055600480549161101483613050565b9091555050600580546001810182556000919091527f036b6384b5eca791c62761152d0c79bb0604c104a5fb6f4eb0703f3154bb3db001849055604080516001600160a01b0388168152610100870135602082015261012087013581830152905185917f7ed9b48d83e08a25a1572b27a365dfb386da7860c996e684e541e3433b792147919081900360600190a2505050505050565b60008281526003602052604081206002810154600160a01b900460ff166111085760405162461bcd60e51b815260206004820152601260248201527147616d65206973206e6f742061637469766560701b6044820152606401610533565b60018101546001600160a01b0316600090815260088201602052604081205460ff16600c03611145575060018101546001600160a01b03166111bd565b60028201546001600160a01b0316600090815260088301602052604090205460ff16600c03611182575060028101546001600160a01b03166111bd565b60405162461bcd60e51b815260206004820152601060248201526f23b0b6b29034b9903737ba1037bb32b960811b6044820152606401610533565b60025484516020860151604080880151606089015191516308a3cff560e11b81526000956001600160a01b0316946311479fea946112049491939092909190600401612e7a565b602060405180830381865afa158015611221573d6000803e3d6000fd5b505050506040513d601f19601f820116820180604052508101906112459190612efe565b90508061128b5760405162461bcd60e51b815260206004820152601460248201527315da5b881c1c9bdbd9881a5cc81a5b9d985b1a5960621b6044820152606401610533565b60028301805460ff60a01b19169055600480549060006112aa83613069565b919050555060005b60055481101561135e5786600582815481106112d0576112d0612f20565b90600052602060002001540361135657600580546112f090600190613080565b8154811061130057611300612f20565b90600052602060002001546005828154811061131e5761131e612f20565b600091825260209091200155600580548061133b5761133b613093565b6001900381819060005260206000200160009055905561135e565b6001016112b2565b506040516001600160a01b038316815286907f3d5fcd8fa3235aeb3897f25c8ea49989174981afcb01b9d03189d1056a16775b9060200160405180910390a295945050505050565b6113ae612111565b6113b7826121b6565b6113c182826121be565b5050565b60006113cf612280565b506000805160206130df83398151915290565b6113ea6122c9565b6113f46000612324565b565b6113fe6125f6565b60008281526003602081815260408084208151610180810183528154815260018201546001600160a01b039081169482019490945260028083015480861683860152600160a01b900460ff161515606083015294820154909316608080850191909152600482015460a0850152600582015460c080860191909152600683015460e0860152600783015461010086015283519081019384905286959294936101208501939192600987019284929183019184919082845b8154815260200190600101908083116114b5575050505050815260200160028201600280602002604051908101604052809291906000905b8282101561153357604080518082019182905290600284810287019182845b81548152602001906001019080831161150c575050505050815260200190600101906114ed565b50505090825250604080518082019182905260209092019190600684019060029082845b815481526020019060010190808311611557575050509183525050604080518082019182905260209092019190600884019060029082845b81548152602001906001019080831161158f575050509190925250505081526040805160c081019091526020909101906013840181608081018260028282826020028201915b8154815260200190600101908083116115d5575050505050815260200160028201600280602002604051908101604052809291906000905b8282101561165357604080518082019182905290600284810287019182845b81548152602001906001019080831161162c5750505050508152602001906001019061160d565b50505090825250604080518082019182905260209092019190600684019060029082845b815481526020019060010190808311611677575050509183525050604080518082019182905260209092019190600884019060029082845b8154815260200190600101908083116116af57505050919092525050508152601d83015461ffff1660209182015260018301546001600160a01b039081166000908152600885019092526040808320546002909501549091168252902054909660ff928316965091169350915050565b6000611729612395565b805490915060ff600160401b820416159067ffffffffffffffff166000811580156117515750825b905060008267ffffffffffffffff16600114801561176e5750303b155b90508115801561177c575080155b1561179a5760405163f92ee8a960e01b815260040160405180910390fd5b845467ffffffffffffffff1916600117855583156117c457845460ff60401b1916600160401b1785555b6117cd336123be565b6117d56123cf565b600080546001600160a01b03808b166001600160a01b031992831617909255600180548a84169083161790556002805492891692909116919091179055831561185857845460ff60401b19168555604051600181527fc7f505b2f371ae2175ee4913f4499e1f2633a7b5936321eed1cdaeb6115181d29060200160405180910390a15b5050505050505050565b6001600160a01b0383166118b35760405162461bcd60e51b8152602060048201526018602482015277496e76616c696420706c617965722061646472657373657360401b6044820152606401610533565b6000818152600360205260409020600201546001600160a01b0316156119125760405162461bcd60e51b815260206004820152601460248201527311d85b5948185b1c9958591e481cdd185c9d195960621b6044820152606401610533565b6000805460408051637ae4eb4f60e11b81526001600160a01b039092169163f5c9d69e9161195291879182019060c0830190610100840190600401612f6b565b602060405180830381865afa15801561196f573d6000803e3d6000fd5b505050506040513d601f19601f820116820180604052508101906119939190612efe565b9050806119f35760405162461bcd60e51b815260206004820152602860248201527f506c617965722032207368697020706c6163656d656e742070726f6f66206973604482015267081a5b9d985b1a5960c21b6064820152608401610533565b60008281526003602052604090206002810180546001600160a81b0319166001600160a01b03871617600160a01b179055610100840135600682015561012084013560078201558360138201611a498282612fd7565b50506001600160a01b0385166000818152600883016020908152604091829020805460ff19169055905191825284917f45c4f9cbafe186141862608c493f28b823fde4c2142bedc3f5169961a73fdd22910160405180910390a260405183907f50ad08f58a27f2851d7e3a1b3a6a46b290f2ce677e99642d30ff639721e7779090600090a25050505050565b60058181548110611ae557600080fd5b600091825260209091200154905081565b6060600060045467ffffffffffffffff811115611b1557611b156127a4565b604051908082528060200260200182016040528015611b4e57816020015b611b3b6125f6565b815260200190600190039081611b335790505b50905060005b6004548110156120cd576040518061018001604052806003600060058581548110611b8157611b81612f20565b906000526020600020015481526020019081526020016000206000015481526020016003600060058581548110611bba57611bba612f20565b9060005260206000200154815260200190815260200160002060010160009054906101000a90046001600160a01b03166001600160a01b031681526020016003600060058581548110611c0f57611c0f612f20565b9060005260206000200154815260200190815260200160002060020160009054906101000a90046001600160a01b03166001600160a01b031681526020016003600060058581548110611c6457611c64612f20565b9060005260206000200154815260200190815260200160002060020160149054906101000a900460ff16151581526020016003600060058581548110611cac57611cac612f20565b9060005260206000200154815260200190815260200160002060030160009054906101000a90046001600160a01b03166001600160a01b031681526020016003600060058581548110611d0157611d01612f20565b906000526020600020015481526020019081526020016000206004015481526020016003600060058581548110611d3a57611d3a612f20565b906000526020600020015481526020019081526020016000206005015481526020016003600060058581548110611d7357611d73612f20565b906000526020600020015481526020019081526020016000206006015481526020016003600060058581548110611dac57611dac612f20565b906000526020600020015481526020019081526020016000206007015481526020016003600060058581548110611de557611de5612f20565b600091825260208083209091015483528201929092526040908101909120815160c0810190925260090181608081018260028282826020028201915b815481526020019060010190808311611e21575050505050815260200160028201600280602002604051908101604052809291906000905b82821015611e9f57604080518082019182905290600284810287019182845b815481526020019060010190808311611e7857505050505081526020019060010190611e59565b50505090825250604080518082019182905260209092019190600684019060029082845b815481526020019060010190808311611ec3575050509183525050604080518082019182905260209092019190600884019060029082845b815481526020019060010190808311611efb5750505050508152505081526020016003600060058581548110611f3357611f33612f20565b600091825260208083209091015483528201929092526040908101909120815160c0810190925260130181608081018260028282826020028201915b815481526020019060010190808311611f6f575050505050815260200160028201600280602002604051908101604052809291906000905b82821015611fed57604080518082019182905290600284810287019182845b815481526020019060010190808311611fc657505050505081526020019060010190611fa7565b50505090825250604080518082019182905260209092019190600684019060029082845b815481526020019060010190808311612011575050509183525050604080518082019182905260209092019190600884019060029082845b815481526020019060010190808311612049575050505050815250508152602001600360006005858154811061208157612081612f20565b600091825260208083209091015483528201929092526040019020601d015461ffff16905282518390839081106120ba576120ba612f20565b6020908102919091010152600101611b54565b50919050565b6120db6122c9565b6001600160a01b03811661210557604051631e4fbdf760e01b815260006004820152602401610533565b61210e81612324565b50565b306001600160a01b037f000000000000000000000000000000000000000000000000000000000000000016148061219857507f00000000000000000000000000000000000000000000000000000000000000006001600160a01b031661218c6000805160206130df833981519152546001600160a01b031690565b6001600160a01b031614155b156113f45760405163703e46dd60e11b815260040160405180910390fd5b61210e6122c9565b816001600160a01b03166352d1902d6040518163ffffffff1660e01b8152600401602060405180830381865afa925050508015612218575060408051601f3d908101601f19168201909252612215918101906130a9565b60015b61224057604051634c9c8ce360e01b81526001600160a01b0383166004820152602401610533565b6000805160206130df833981519152811461227157604051632a87526960e21b815260048101829052602401610533565b61227b83836123d7565b505050565b306001600160a01b037f000000000000000000000000000000000000000000000000000000000000000016146113f45760405163703e46dd60e11b815260040160405180910390fd5b336122fb7f9016d09d72d40fdae2fd8ceac6b6234c7706214fd39c1cd1e609a0528c199300546001600160a01b031690565b6001600160a01b0316146113f45760405163118cdaa760e01b8152336004820152602401610533565b7f9016d09d72d40fdae2fd8ceac6b6234c7706214fd39c1cd1e609a0528c19930080546001600160a01b031981166001600160a01b03848116918217845560405192169182907f8be0079c531659141344cd1fd0a4f28419497f9722a3daafe3b4186f6b6457e090600090a3505050565b6000807ff0c57e16840df040f15088dc2f81fe391c3923bec73e23a9662efc9c229c6a0061074a565b6123c661242d565b61210e81612452565b6113f461242d565b6123e08261245a565b6040516001600160a01b038316907fbc7cd75a20ee27fd9adebab32041f755214dbc6bffa90cc0225b39da2e5c2d3b90600090a28051156124255761227b82826124bf565b6113c1612535565b612435612554565b6113f457604051631afcd79f60e31b815260040160405180910390fd5b6120db61242d565b806001600160a01b03163b60000361249057604051634c9c8ce360e01b81526001600160a01b0382166004820152602401610533565b6000805160206130df83398151915280546001600160a01b0319166001600160a01b0392909216919091179055565b6060600080846001600160a01b0316846040516124dc91906130c2565b600060405180830381855af49150503d8060008114612517576040519150601f19603f3d011682016040523d82523d6000602084013e61251c565b606091505b509150915061252c85838361256e565b95945050505050565b34156113f45760405163b398979f60e01b815260040160405180910390fd5b600061255e612395565b54600160401b900460ff16919050565b6060826125835761257e826125cd565b6125c6565b815115801561259a57506001600160a01b0384163b155b156125c357604051639996b31560e01b81526001600160a01b0385166004820152602401610533565b50805b9392505050565b8051156125dd5780518082602001fd5b60405163d6bda27560e01b815260040160405180910390fd5b6040805161018081018252600080825260208201819052918101829052606081018290526080810182905260a0810182905260c0810182905260e08101829052610100810191909152610120810161264c6126eb565b81526020016126596126eb565b8152600060209091015290565b8260028101928215612694579160200282015b82811115612694578251825591602001919060010190612679565b506126a092915061272a565b5090565b6004830191839082156126df579160200282015b828111156126df5782516126cf9083906002612666565b50916020019190600201906126b8565b506126a092915061273f565b60405180608001604052806126fe612759565b815260200161270b612777565b8152602001612718612759565b8152602001612725612759565b905290565b5b808211156126a0576000815560010161272b565b808211156126a0576000808255600182015560020161273f565b60405180604001604052806002906020820280368337509192915050565b60405180604001604052806002905b61278e612759565b8152602001906001900390816127865790505090565b634e487b7160e01b600052604160045260246000fd5b6040516080810167ffffffffffffffff811182821017156127dd576127dd6127a4565b60405290565b6040805190810167ffffffffffffffff811182821017156127dd576127dd6127a4565b604051601f8201601f1916810167ffffffffffffffff8111828210171561282f5761282f6127a4565b604052919050565b600082601f83011261284857600080fd5b6128506127e3565b80604084018581111561286257600080fd5b845b8181101561287c578035845260209384019301612864565b509095945050505050565b600082601f83011261289857600080fd5b6040516060810181811067ffffffffffffffff821117156128bb576128bb6127a4565b6040528060608401858111156128d057600080fd5b845b818110156128ea5780358352602092830192016128d2565b509195945050505050565b6000610160828403121561290857600080fd5b6129106127ba565b905061291c8383612837565b8152604083605f84011261292f57600080fd5b6129376127e3565b8060c085018681111561294957600080fd5b604086015b8181101561296f576129608882612837565b8452602090930192840161294e565b508160208601526129808782612837565b604086015250505050612997836101008401612887565b606082015292915050565b60008061018083850312156129b657600080fd5b823591506129c784602085016128f5565b90509250929050565b6000602082840312156129e257600080fd5b5035919050565b8060005b6002811015612a0c5781518452602093840193909101906001016129ed565b50505050565b612a1d8282516129e9565b602080820151604080850160005b6002811015612a4f57612a3f8285516129e9565b9284019290820190600101612a2b565b50505050506040810151612a6660c08401826129e9565b50606081015161227b6101008401826129e9565b805182526020810151612a9860208401826001600160a01b03169052565b506040810151612ab360408401826001600160a01b03169052565b506060810151612ac7606084018215159052565b506080810151612ae260808401826001600160a01b03169052565b5060a081015160a083015260c081015160c083015260e081015160e083015261010080820151818401525061012080820151612b2082850182612a12565b5050610140810151612b36610260840182612a12565b50610160015161ffff166103a09190910152565b6103c0810161074a8284612a7a565b8c81526001600160a01b038c811660208301528b811660408301528a151560608301528916608082015260a0810188905260c0810187905260e0810186905261010081018590526103c08101612bb3610120830186612a12565b612bc1610260830185612a12565b61ffff83166103a08301529d9c50505050505050505050505050565b80356001600160a01b0381168114612bf457600080fd5b919050565b600061014082840312156120cd57600080fd5b6000806000806101a08587031215612c2357600080fd5b612c2c85612bdd565b9350612c3b8660208701612bf9565b9250610160850135915061018085013561ffff81168114612c5b57600080fd5b939692955090935050565b60008060408385031215612c7957600080fd5b612c8283612bdd565b915060208084013567ffffffffffffffff80821115612ca057600080fd5b818601915086601f830112612cb457600080fd5b813581811115612cc657612cc66127a4565b612cd8601f8201601f19168501612806565b91508082528784828501011115612cee57600080fd5b80848401858401376000848284010152508093505050509250929050565b6104008101612d1b8286612a7a565b60ff84166103c083015260ff83166103e0830152949350505050565b60005b83811015612d52578181015183820152602001612d3a565b50506000910152565b6020815260008251806020840152612d7a816040850160208701612d37565b601f01601f19169190910160400192915050565b600080600060608486031215612da357600080fd5b612dac84612bdd565b9250612dba60208501612bdd565b9150612dc860408501612bdd565b90509250925092565b60008060006101808486031215612de757600080fd5b612df084612bdd565b9250612dff8560208601612bf9565b915061016084013590509250925092565b6020808252825182820181905260009190848201906040850190845b81811015612e5357612e3f838551612a7a565b928401926103c09290920191600101612e2c565b50909695505050505050565b600060208284031215612e7157600080fd5b6125c682612bdd565b6101608101612e8982876129e9565b60408083018660005b6002811015612eb957612ea68383516129e9565b9183019160209190910190600101612e92565b50505050612eca60c08301856129e9565b61010082018360005b6003811015612ef2578151835260209283019290910190600101612ed3565b50505095945050505050565b600060208284031215612f1057600080fd5b815180151581146125c657600080fd5b634e487b7160e01b600052603260045260246000fd5b634e487b7160e01b600052601160045260246000fd5b600060ff821660ff8103612f6257612f62612f36565b60010192915050565b61014081016040808784378083018660005b6002811015612f9a57838284379183019190830190600101612f7d565b505050808560c085013780846101008501375095945050505050565b8160005b6002811015612a0c57813583820155602090910190600101612fba565b8160005b6002811015612ff857813583820155602090910190600101612fdb565b5050600260408084016002840160005b8481101561302a5761301a8383612fb6565b9183019190840190600101613008565b505050505061303f60c0830160068301612fb6565b6113c1610100830160088301612fb6565b60006001820161306257613062612f36565b5060010190565b60008161307857613078612f36565b506000190190565b8181038181111561074a5761074a612f36565b634e487b7160e01b600052603160045260246000fd5b6000602082840312156130bb57600080fd5b5051919050565b600082516130d4818460208701612d37565b919091019291505056fe360894a13ba1a3210667c828492db98dca3e2076cc3735a920a3ca505d382bbca264697066735822122058090c06ff339d6cc63ed126a0ee9cc8cd927f59582abdd40b87da032d38258a64736f6c63430008160033",
  "linkReferences": {},
  "deployedLinkReferences": {}
}