{
  "_format": "hh-sol-artifact-1",
  "contractName": "BattleshipWaku",
  "sourceName": "contracts/BattleshipWaku.sol",
  "abi": [
    {
      "inputs": [],
      "stateMutability": "nonpayable",
      "type": "constructor"
    },
    {
      "inputs": [
        {
          "internalType": "address",
          "name": "target",
          "type": "address"
        }
      ],
      "name": "AddressEmptyCode",
      "type": "error"
    },
    {
      "inputs": [
        {
          "internalType": "address",
          "name": "implementation",
          "type": "address"
        }
      ],
      "name": "ERC1967InvalidImplementation",
      "type": "error"
    },
    {
      "inputs": [],
      "name": "ERC1967NonPayable",
      "type": "error"
    },
    {
      "inputs": [],
      "name": "FailedCall",
      "type": "error"
    },
    {
      "inputs": [],
      "name": "InvalidInitialization",
      "type": "error"
    },
    {
      "inputs": [],
      "name": "NotInitializing",
      "type": "error"
    },
    {
      "inputs": [
        {
          "internalType": "address",
          "name": "owner",
          "type": "address"
        }
      ],
      "name": "OwnableInvalidOwner",
      "type": "error"
    },
    {
      "inputs": [
        {
          "internalType": "address",
          "name": "account",
          "type": "address"
        }
      ],
      "name": "OwnableUnauthorizedAccount",
      "type": "error"
    },
    {
      "inputs": [],
      "name": "UUPSUnauthorizedCallContext",
      "type": "error"
    },
    {
      "inputs": [
        {
          "internalType": "bytes32",
          "name": "slot",
          "type": "bytes32"
        }
      ],
      "name": "UUPSUnsupportedProxiableUUID",
      "type": "error"
    },
    {
      "anonymous": false,
      "inputs": [
        {
          "indexed": true,
          "internalType": "uint256",
          "name": "gameId",
          "type": "uint256"
        },
        {
          "indexed": false,
          "internalType": "address",
          "name": "player1",
          "type": "address"
        },
        {
          "indexed": false,
          "internalType": "uint256",
          "name": "player1BoardCommitment",
          "type": "uint256"
        },
        {
          "indexed": false,
          "internalType": "uint256",
          "name": "player1MerkleRoot",
          "type": "uint256"
        }
      ],
      "name": "GameCreated",
      "type": "event"
    },
    {
      "anonymous": false,
      "inputs": [
        {
          "indexed": true,
          "internalType": "uint256",
          "name": "gameId",
          "type": "uint256"
        },
        {
          "indexed": false,
          "internalType": "address",
          "name": "winner",
          "type": "address"
        }
      ],
      "name": "GameEnded",
      "type": "event"
    },
    {
      "anonymous": false,
      "inputs": [
        {
          "indexed": true,
          "internalType": "uint256",
          "name": "gameId",
          "type": "uint256"
        },
        {
          "indexed": false,
          "internalType": "address",
          "name": "player2",
          "type": "address"
        }
      ],
      "name": "GameJoined",
      "type": "event"
    },
    {
      "anonymous": false,
      "inputs": [
        {
          "indexed": true,
          "internalType": "uint256",
          "name": "gameId",
          "type": "uint256"
        }
      ],
      "name": "GameStarted",
      "type": "event"
    },
    {
      "anonymous": false,
      "inputs": [
        {
          "indexed": false,
          "internalType": "uint64",
          "name": "version",
          "type": "uint64"
        }
      ],
      "name": "Initialized",
      "type": "event"
    },
    {
      "anonymous": false,
      "inputs": [
        {
          "indexed": false,
          "internalType": "uint256",
          "name": "indexedgameId",
          "type": "uint256"
        },
        {
          "indexed": false,
          "internalType": "address",
          "name": "player",
          "type": "address"
        }
      ],
      "name": "MoveMade",
      "type": "event"
    },
    {
      "anonymous": false,
      "inputs": [
        {
          "indexed": true,
          "internalType": "address",
          "name": "previousOwner",
          "type": "address"
        },
        {
          "indexed": true,
          "internalType": "address",
          "name": "newOwner",
          "type": "address"
        }
      ],
      "name": "OwnershipTransferred",
      "type": "event"
    },
    {
      "anonymous": false,
      "inputs": [
        {
          "indexed": true,
          "internalType": "address",
          "name": "implementation",
          "type": "address"
        }
      ],
      "name": "Upgraded",
      "type": "event"
    },
    {
      "inputs": [
        {
          "internalType": "address",
          "name": "player2",
          "type": "address"
        },
        {
          "components": [
            {
              "internalType": "uint256[2]",
              "name": "pA",
              "type": "uint256[2]"
            },
            {
              "internalType": "uint256[2][2]",
              "name": "pB",
              "type": "uint256[2][2]"
            },
            {
              "internalType": "uint256[2]",
              "name": "pC",
              "type": "uint256[2]"
            },
            {
              "internalType": "uint256[2]",
              "name": "pubSignals",
              "type": "uint256[2]"
            }
          ],
          "internalType": "struct BattleshipWaku.ShipPlacementProof",
          "name": "shipPlacementProofPlayer2",
          "type": "tuple"
        },
        {
          "internalType": "uint256",
          "name": "gameId",
          "type": "uint256"
        }
      ],
      "name": "JoinGame",
      "outputs": [],
      "stateMutability": "nonpayable",
      "type": "function"
    },
    {
      "inputs": [],
      "name": "UPGRADE_INTERFACE_VERSION",
      "outputs": [
        {
          "internalType": "string",
          "name": "",
          "type": "string"
        }
      ],
      "stateMutability": "view",
      "type": "function"
    },
    {
      "inputs": [
        {
          "internalType": "address",
          "name": "player1",
          "type": "address"
        },
        {
          "components": [
            {
              "internalType": "uint256[2]",
              "name": "pA",
              "type": "uint256[2]"
            },
            {
              "internalType": "uint256[2][2]",
              "name": "pB",
              "type": "uint256[2][2]"
            },
            {
              "internalType": "uint256[2]",
              "name": "pC",
              "type": "uint256[2]"
            },
            {
              "internalType": "uint256[2]",
              "name": "pubSignals",
              "type": "uint256[2]"
            }
          ],
          "internalType": "struct BattleshipWaku.ShipPlacementProof",
          "name": "shipPlacementProofPlayer1",
          "type": "tuple"
        },
        {
          "internalType": "uint256",
          "name": "gameId",
          "type": "uint256"
        },
        {
          "internalType": "uint16",
          "name": "wakuRoomId",
          "type": "uint16"
        }
      ],
      "name": "createGame",
      "outputs": [],
      "stateMutability": "nonpayable",
      "type": "function"
    },
    {
      "inputs": [],
      "name": "gameCount",
      "outputs": [
        {
          "internalType": "uint256",
          "name": "",
          "type": "uint256"
        }
      ],
      "stateMutability": "view",
      "type": "function"
    },
    {
      "inputs": [
        {
          "internalType": "uint256",
          "name": "",
          "type": "uint256"
        }
      ],
      "name": "games",
      "outputs": [
        {
          "internalType": "uint256",
          "name": "gameId",
          "type": "uint256"
        },
        {
          "internalType": "address",
          "name": "player1",
          "type": "address"
        },
        {
          "internalType": "address",
          "name": "player2",
          "type": "address"
        },
        {
          "internalType": "bool",
          "name": "isActive",
          "type": "bool"
        },
        {
          "internalType": "address",
          "name": "playerTurn",
          "type": "address"
        },
        {
          "internalType": "bytes32",
          "name": "player1_board_commitment",
          "type": "bytes32"
        },
        {
          "internalType": "bytes32",
          "name": "player1_merkle_root",
          "type": "bytes32"
        },
        {
          "internalType": "bytes32",
          "name": "player2_board_commitment",
          "type": "bytes32"
        },
        {
          "internalType": "bytes32",
          "name": "player2_merkle_root",
          "type": "bytes32"
        },
        {
          "components": [
            {
              "internalType": "uint256[2]",
              "name": "pA",
              "type": "uint256[2]"
            },
            {
              "internalType": "uint256[2][2]",
              "name": "pB",
              "type": "uint256[2][2]"
            },
            {
              "internalType": "uint256[2]",
              "name": "pC",
              "type": "uint256[2]"
            },
            {
              "internalType": "uint256[2]",
              "name": "pubSignals",
              "type": "uint256[2]"
            }
          ],
          "internalType": "struct BattleshipWaku.ShipPlacementProof",
          "name": "player1ShipPlacementProof",
          "type": "tuple"
        },
        {
          "components": [
            {
              "internalType": "uint256[2]",
              "name": "pA",
              "type": "uint256[2]"
            },
            {
              "internalType": "uint256[2][2]",
              "name": "pB",
              "type": "uint256[2][2]"
            },
            {
              "internalType": "uint256[2]",
              "name": "pC",
              "type": "uint256[2]"
            },
            {
              "internalType": "uint256[2]",
              "name": "pubSignals",
              "type": "uint256[2]"
            }
          ],
          "internalType": "struct BattleshipWaku.ShipPlacementProof",
          "name": "player2ShipPlacementProof",
          "type": "tuple"
        },
        {
          "internalType": "uint16",
          "name": "wakuRoomId",
          "type": "uint16"
        }
      ],
      "stateMutability": "view",
      "type": "function"
    },
    {
      "inputs": [],
      "name": "getAllGames",
      "outputs": [
        {
          "components": [
            {
              "internalType": "uint256",
              "name": "gameId",
              "type": "uint256"
            },
            {
              "internalType": "address",
              "name": "player1",
              "type": "address"
            },
            {
              "internalType": "address",
              "name": "player2",
              "type": "address"
            },
            {
              "internalType": "bool",
              "name": "isActive",
              "type": "bool"
            },
            {
              "internalType": "address",
              "name": "playerTurn",
              "type": "address"
            },
            {
              "internalType": "bytes32",
              "name": "player1_board_commitment",
              "type": "bytes32"
            },
            {
              "internalType": "bytes32",
              "name": "player1_merkle_root",
              "type": "bytes32"
            },
            {
              "internalType": "bytes32",
              "name": "player2_board_commitment",
              "type": "bytes32"
            },
            {
              "internalType": "bytes32",
              "name": "player2_merkle_root",
              "type": "bytes32"
            },
            {
              "components": [
                {
                  "internalType": "uint256[2]",
                  "name": "pA",
                  "type": "uint256[2]"
                },
                {
                  "internalType": "uint256[2][2]",
                  "name": "pB",
                  "type": "uint256[2][2]"
                },
                {
                  "internalType": "uint256[2]",
                  "name": "pC",
                  "type": "uint256[2]"
                },
                {
                  "internalType": "uint256[2]",
                  "name": "pubSignals",
                  "type": "uint256[2]"
                }
              ],
              "internalType": "struct BattleshipWaku.ShipPlacementProof",
              "name": "player1ShipPlacementProof",
              "type": "tuple"
            },
            {
              "components": [
                {
                  "internalType": "uint256[2]",
                  "name": "pA",
                  "type": "uint256[2]"
                },
                {
                  "internalType": "uint256[2][2]",
                  "name": "pB",
                  "type": "uint256[2][2]"
                },
                {
                  "internalType": "uint256[2]",
                  "name": "pC",
                  "type": "uint256[2]"
                },
                {
                  "internalType": "uint256[2]",
                  "name": "pubSignals",
                  "type": "uint256[2]"
                }
              ],
              "internalType": "struct BattleshipWaku.ShipPlacementProof",
              "name": "player2ShipPlacementProof",
              "type": "tuple"
            },
            {
              "internalType": "uint16",
              "name": "wakuRoomId",
              "type": "uint16"
            }
          ],
          "internalType": "struct BattleshipWaku.GameView[]",
          "name": "",
          "type": "tuple[]"
        }
      ],
      "stateMutability": "view",
      "type": "function"
    },
    {
      "inputs": [
        {
          "internalType": "uint256",
          "name": "gameId",
          "type": "uint256"
        }
      ],
      "name": "getGame",
      "outputs": [
        {
          "components": [
            {
              "internalType": "uint256",
              "name": "gameId",
              "type": "uint256"
            },
            {
              "internalType": "address",
              "name": "player1",
              "type": "address"
            },
            {
              "internalType": "address",
              "name": "player2",
              "type": "address"
            },
            {
              "internalType": "bool",
              "name": "isActive",
              "type": "bool"
            },
            {
              "internalType": "address",
              "name": "playerTurn",
              "type": "address"
            },
            {
              "internalType": "bytes32",
              "name": "player1_board_commitment",
              "type": "bytes32"
            },
            {
              "internalType": "bytes32",
              "name": "player1_merkle_root",
              "type": "bytes32"
            },
            {
              "internalType": "bytes32",
              "name": "player2_board_commitment",
              "type": "bytes32"
            },
            {
              "internalType": "bytes32",
              "name": "player2_merkle_root",
              "type": "bytes32"
            },
            {
              "components": [
                {
                  "internalType": "uint256[2]",
                  "name": "pA",
                  "type": "uint256[2]"
                },
                {
                  "internalType": "uint256[2][2]",
                  "name": "pB",
                  "type": "uint256[2][2]"
                },
                {
                  "internalType": "uint256[2]",
                  "name": "pC",
                  "type": "uint256[2]"
                },
                {
                  "internalType": "uint256[2]",
                  "name": "pubSignals",
                  "type": "uint256[2]"
                }
              ],
              "internalType": "struct BattleshipWaku.ShipPlacementProof",
              "name": "player1ShipPlacementProof",
              "type": "tuple"
            },
            {
              "components": [
                {
                  "internalType": "uint256[2]",
                  "name": "pA",
                  "type": "uint256[2]"
                },
                {
                  "internalType": "uint256[2][2]",
                  "name": "pB",
                  "type": "uint256[2][2]"
                },
                {
                  "internalType": "uint256[2]",
                  "name": "pC",
                  "type": "uint256[2]"
                },
                {
                  "internalType": "uint256[2]",
                  "name": "pubSignals",
                  "type": "uint256[2]"
                }
              ],
              "internalType": "struct BattleshipWaku.ShipPlacementProof",
              "name": "player2ShipPlacementProof",
              "type": "tuple"
            },
            {
              "internalType": "uint16",
              "name": "wakuRoomId",
              "type": "uint16"
            }
          ],
          "internalType": "struct BattleshipWaku.GameView",
          "name": "gameData",
          "type": "tuple"
        },
        {
          "internalType": "uint8",
          "name": "player1Hits",
          "type": "uint8"
        },
        {
          "internalType": "uint8",
          "name": "player2Hits",
          "type": "uint8"
        }
      ],
      "stateMutability": "view",
      "type": "function"
    },
    {
      "inputs": [
        {
          "internalType": "uint256",
          "name": "gameId",
          "type": "uint256"
        }
      ],
      "name": "getGamePlayers",
      "outputs": [
        {
          "internalType": "address",
          "name": "",
          "type": "address"
        },
        {
          "internalType": "address",
          "name": "",
          "type": "address"
        }
      ],
      "stateMutability": "view",
      "type": "function"
    },
    {
      "inputs": [
        {
          "internalType": "uint256",
          "name": "gameId",
          "type": "uint256"
        }
      ],
      "name": "getGameStatus",
      "outputs": [
        {
          "internalType": "bool",
          "name": "",
          "type": "bool"
        }
      ],
      "stateMutability": "view",
      "type": "function"
    },
    {
      "inputs": [
        {
          "internalType": "address",
          "name": "_shipPlacementVerifier",
          "type": "address"
        },
        {
          "internalType": "address",
          "name": "_moveVerifier",
          "type": "address"
        },
        {
          "internalType": "address",
          "name": "_winVerifier",
          "type": "address"
        }
      ],
      "name": "initialize",
      "outputs": [],
      "stateMutability": "nonpayable",
      "type": "function"
    },
    {
      "inputs": [
        {
          "internalType": "uint256",
          "name": "gameId",
          "type": "uint256"
        },
        {
          "components": [
            {
              "internalType": "uint256[2]",
              "name": "pA",
              "type": "uint256[2]"
            },
            {
              "internalType": "uint256[2][2]",
              "name": "pB",
              "type": "uint256[2][2]"
            },
            {
              "internalType": "uint256[2]",
              "name": "pC",
              "type": "uint256[2]"
            },
            {
              "internalType": "uint256[3]",
              "name": "pubSignals",
              "type": "uint256[3]"
            }
          ],
          "internalType": "struct BattleshipWaku.MoveProof",
          "name": "moveProof",
          "type": "tuple"
        }
      ],
      "name": "makeMove",
      "outputs": [
        {
          "internalType": "bool",
          "name": "",
          "type": "bool"
        }
      ],
      "stateMutability": "nonpayable",
      "type": "function"
    },
    {
      "inputs": [],
      "name": "moveVerifier",
      "outputs": [
        {
          "internalType": "contract IMoveVerifier",
          "name": "",
          "type": "address"
        }
      ],
      "stateMutability": "view",
      "type": "function"
    },
    {
      "inputs": [],
      "name": "owner",
      "outputs": [
        {
          "internalType": "address",
          "name": "",
          "type": "address"
        }
      ],
      "stateMutability": "view",
      "type": "function"
    },
    {
      "inputs": [],
      "name": "proxiableUUID",
      "outputs": [
        {
          "internalType": "bytes32",
          "name": "",
          "type": "bytes32"
        }
      ],
      "stateMutability": "view",
      "type": "function"
    },
    {
      "inputs": [],
      "name": "renounceOwnership",
      "outputs": [],
      "stateMutability": "nonpayable",
      "type": "function"
    },
    {
      "inputs": [],
      "name": "shipPlacementVerifier",
      "outputs": [
        {
          "internalType": "contract IShipPlacementVerifier",
          "name": "",
          "type": "address"
        }
      ],
      "stateMutability": "view",
      "type": "function"
    },
    {
      "inputs": [
        {
          "internalType": "address",
          "name": "newOwner",
          "type": "address"
        }
      ],
      "name": "transferOwnership",
      "outputs": [],
      "stateMutability": "nonpayable",
      "type": "function"
    },
    {
      "inputs": [
        {
          "internalType": "address",
          "name": "newImplementation",
          "type": "address"
        },
        {
          "internalType": "bytes",
          "name": "data",
          "type": "bytes"
        }
      ],
      "name": "upgradeToAndCall",
      "outputs": [],
      "stateMutability": "payable",
      "type": "function"
    },
    {
      "inputs": [
        {
          "internalType": "uint256",
          "name": "gameId",
          "type": "uint256"
        },
        {
          "components": [
            {
              "internalType": "uint256[2]",
              "name": "pA",
              "type": "uint256[2]"
            },
            {
              "internalType": "uint256[2][2]",
              "name": "pB",
              "type": "uint256[2][2]"
            },
            {
              "internalType": "uint256[2]",
              "name": "pC",
              "type": "uint256[2]"
            },
            {
              "internalType": "uint256[3]",
              "name": "pubSignals",
              "type": "uint256[3]"
            }
          ],
          "internalType": "struct BattleshipWaku.WinProof",
          "name": "winProof",
          "type": "tuple"
        }
      ],
      "name": "winVerification",
      "outputs": [
        {
          "internalType": "bool",
          "name": "",
          "type": "bool"
        }
      ],
      "stateMutability": "nonpayable",
      "type": "function"
    },
    {
      "inputs": [],
      "name": "winVerifier",
      "outputs": [
        {
          "internalType": "contract IWinVerifier",
          "name": "",
          "type": "address"
        }
      ],
      "stateMutability": "view",
      "type": "function"
    }
  ],
  "bytecode": "0x60a0604052306080523480156200001557600080fd5b506200002062000026565b620000da565b7ff0c57e16840df040f15088dc2f81fe391c3923bec73e23a9662efc9c229c6a00805468010000000000000000900460ff1615620000775760405163f92ee8a960e01b815260040160405180910390fd5b80546001600160401b0390811614620000d75780546001600160401b0319166001600160401b0390811782556040519081527fc7f505b2f371ae2175ee4913f4499e1f2633a7b5936321eed1cdaeb6115181d29060200160405180910390a15b50565b608051612a466200010460003960008181611a8501528181611aae0152611bf40152612a466000f3fe60806040526004361061011e5760003560e01c8063715018a6116100a0578063c0c53b8b11610064578063c0c53b8b146103d4578063c5396844146103f4578063d173bf9c14610414578063db1c45f914610434578063f2fde38b1461045657600080fd5b8063715018a6146102f55780638d2d99ee1461030a5780638da5cb5b1461032a578063a2f77bcc14610367578063ad3cb1cc1461039657600080fd5b806329b3e3b6116100e757806329b3e3b614610251578063489d2220146102715780634d1975b4146102a95780634f1ef286146102cd57806352d1902d146102e057600080fd5b806256faa2146101235780630f1bf45414610158578063117a5b901461019257806315a40f49146101ca5780632159e8701461022f575b600080fd5b34801561012f57600080fd5b5061014361013e3660046122ec565b610476565b60405190151581526020015b60405180910390f35b34801561016457600080fd5b5061014361017336600461231a565b600090815260036020526040902060020154600160a01b900460ff1690565b34801561019e57600080fd5b506101b26101ad36600461231a565b6106eb565b60405161014f9c9b9a999897969594939291906123c4565b3480156101d657600080fd5b5061020f6101e536600461231a565b600090815260036020526040902060018101546002909101546001600160a01b0391821692911690565b604080516001600160a01b0393841681529290911660208301520161014f565b34801561023b57600080fd5b5061024f61024a366004612477565b610989565b005b34801561025d57600080fd5b5061014361026c3660046122ec565b610d21565b34801561027d57600080fd5b50600054610291906001600160a01b031681565b6040516001600160a01b03909116815260200161014f565b3480156102b557600080fd5b506102bf60045481565b60405190815260200161014f565b61024f6102db3660046124d1565b610f6d565b3480156102ec57600080fd5b506102bf610f8c565b34801561030157600080fd5b5061024f610fa9565b34801561031657600080fd5b50600254610291906001600160a01b031681565b34801561033657600080fd5b507f9016d09d72d40fdae2fd8ceac6b6234c7706214fd39c1cd1e609a0528c199300546001600160a01b0316610291565b34801561037357600080fd5b5061038761038236600461231a565b610fbd565b60405161014f93929190612647565b3480156103a257600080fd5b506103c7604051806040016040528060058152602001640352e302e360dc1b81525081565b60405161014f9190612696565b3480156103e057600080fd5b5061024f6103ef3660046126c9565b6112e6565b34801561040057600080fd5b5061024f61040f36600461270c565b61143d565b34801561042057600080fd5b50600154610291906001600160a01b031681565b34801561044057600080fd5b506104496116b0565b60405161014f919061274b565b34801561046257600080fd5b5061024f61047136600461279a565b611a3c565b60008281526003602052604081206002810154600160a01b900460ff166104d95760405162461bcd60e51b815260206004820152601260248201527147616d65206973206e6f742061637469766560701b60448201526064015b60405180910390fd5b60038101546001600160a01b031633146105255760405162461bcd60e51b815260206004820152600d60248201526c2737ba103cb7bab9103a3ab93760991b60448201526064016104d0565b60015483516020850151604080870151606088015191516308a3cff560e11b81526000956001600160a01b0316946311479fea9461056c94919390929091906004016127b5565b602060405180830381865afa158015610589573d6000803e3d6000fd5b505050506040513d601f19601f820116820180604052508101906105ad9190612839565b9050806105f45760405162461bcd60e51b8152602060048201526015602482015274135bdd99481c1c9bdbd9881a5cc81a5b9d985b1a59605a1b60448201526064016104d0565b60608401516040015160010361064b5760038201546001600160a01b031660009081526008830160205260408120805460ff169161063183612887565b91906101000a81548160ff021916908360ff160217905550505b600182015460038301546001600160a01b0390811691161461067a5760018201546001600160a01b0316610689565b60028201546001600160a01b03165b6003830180546001600160a01b0319166001600160a01b0392909216919091179055604080518681523360208201527f5008547a534c07bdb1a5f781fbfc38d92af4d50429ccb847bcae5e7eb4915c2d910160405180910390a1949350505050565b600360208190526000918252604091829020805460018201546002808401549484015460048501546005860154600687015460078801548a5160c081019b8c9052979a6001600160a01b039788169a8881169a600160a01b90910460ff16999890961697949693959294919360098401918391608083019184919082845b815481526020019060010190808311610769575050505050815260200160028201600280602002604051908101604052809291906000905b828210156107e757604080518082019182905290600284810287019182845b8154815260200190600101908083116107c0575050505050815260200190600101906107a1565b50505090825250604080518082019182905260209092019190600684019060029082845b81548152602001906001019080831161080b575050509183525050604080518082019182905260209092019190600884019060029082845b815481526020019060010190808311610843575050509190925250506040805160c0810190915291929190506013820181608081018260028282826020028201915b815481526020019060010190808311610885575050505050815260200160028201600280602002604051908101604052809291906000905b8282101561090357604080518082019182905290600284810287019182845b8154815260200190600101908083116108dc575050505050815260200190600101906108bd565b50505090825250604080518082019182905260209092019190600684019060029082845b815481526020019060010190808311610927575050509183525050604080518082019182905260209092019190600884019060029082845b81548152602001906001019080831161095f5750505091909252505050601d9091015461ffff168c565b6001600160a01b0384166109da5760405162461bcd60e51b8152602060048201526018602482015277496e76616c696420706c617965722061646472657373657360401b60448201526064016104d0565b600082815260036020526040902060020154600160a01b900460ff1615610a395760405162461bcd60e51b815260206004820152601360248201527247616d6520616c72656164792065786973747360681b60448201526064016104d0565b6000805460408051637ae4eb4f60e11b81526001600160a01b039092169163f5c9d69e91610a7991889182019060c08301906101008401906004016128a6565b602060405180830381865afa158015610a96573d6000803e3d6000fd5b505050506040513d601f19601f82011682018060405250810190610aba9190612839565b905080610b1a5760405162461bcd60e51b815260206004820152602860248201527f506c617965722031207368697020706c6163656d656e742070726f6f66206973604482015267081a5b9d985b1a5960c21b60648201526084016104d0565b60008381526003602081905260408220858155601d8101805461ffff191661ffff87161790556001810180546001600160a01b03199081166001600160a01b038b169081179092556002830180546001600160a81b0319169055928201805490931617909155610100860135600482015561012086013560058201556006810182905560078101919091558460098201610bb48282612912565b50506040805160c0810182526000608080830182815260a0840183905283528351908101845280840182815260608083018490529082528451808601865283815260208181018590528381019190915280850192909252845180860186528381528083018490528486015284518086019095528285529084019190915281019190915280516013830190610c4b9082906002611f40565b506020820151610c619060028084019190611f7e565b506040820151610c779060068301906002611f40565b506060820151610c8d9060088301906002611f40565b5050506001600160a01b03861660009081526008820160205260408120805460ff191690556004805491610cc08361298b565b9091555050604080516001600160a01b0388168152610100870135602082015261012087013581830152905185917f7ed9b48d83e08a25a1572b27a365dfb386da7860c996e684e541e3433b792147919081900360600190a2505050505050565b60008281526003602052604081206002810154600160a01b900460ff16610d7f5760405162461bcd60e51b815260206004820152601260248201527147616d65206973206e6f742061637469766560701b60448201526064016104d0565b60018101546001600160a01b0316600090815260088201602052604081205460ff16600c03610dbc575060018101546001600160a01b0316610e34565b60028201546001600160a01b0316600090815260088301602052604090205460ff16600c03610df9575060028101546001600160a01b0316610e34565b60405162461bcd60e51b815260206004820152601060248201526f23b0b6b29034b9903737ba1037bb32b960811b60448201526064016104d0565b60025484516020860151604080880151606089015191516308a3cff560e11b81526000956001600160a01b0316946311479fea94610e7b94919390929091906004016127b5565b602060405180830381865afa158015610e98573d6000803e3d6000fd5b505050506040513d601f19601f82011682018060405250810190610ebc9190612839565b905080610f025760405162461bcd60e51b815260206004820152601460248201527315da5b881c1c9bdbd9881a5cc81a5b9d985b1a5960621b60448201526064016104d0565b60028301805460ff60a01b1916905560048054906000610f21836129a4565b90915550506040516001600160a01b038316815286907f3d5fcd8fa3235aeb3897f25c8ea49989174981afcb01b9d03189d1056a16775b9060200160405180910390a295945050505050565b610f75611a7a565b610f7e82611b1f565b610f888282611b27565b5050565b6000610f96611be9565b506000805160206129f183398151915290565b610fb1611c32565b610fbb6000611c8d565b565b610fc5611fc5565b60008281526003602081815260408084208151610180810183528154815260018201546001600160a01b039081169482019490945260028083015480861683860152600160a01b900460ff161515606083015294820154909316608080850191909152600482015460a0850152600582015460c080860191909152600683015460e0860152600783015461010086015283519081019384905286959294936101208501939192600987019284929183019184919082845b81548152602001906001019080831161107c575050505050815260200160028201600280602002604051908101604052809291906000905b828210156110fa57604080518082019182905290600284810287019182845b8154815260200190600101908083116110d3575050505050815260200190600101906110b4565b50505090825250604080518082019182905260209092019190600684019060029082845b81548152602001906001019080831161111e575050509183525050604080518082019182905260209092019190600884019060029082845b815481526020019060010190808311611156575050509190925250505081526040805160c081019091526020909101906013840181608081018260028282826020028201915b81548152602001906001019080831161119c575050505050815260200160028201600280602002604051908101604052809291906000905b8282101561121a57604080518082019182905290600284810287019182845b8154815260200190600101908083116111f3575050505050815260200190600101906111d4565b50505090825250604080518082019182905260209092019190600684019060029082845b81548152602001906001019080831161123e575050509183525050604080518082019182905260209092019190600884019060029082845b81548152602001906001019080831161127657505050919092525050508152601d83015461ffff1660209182015260018301546001600160a01b039081166000908152600885019092526040808320546002909501549091168252902054909660ff928316965091169350915050565b7ff0c57e16840df040f15088dc2f81fe391c3923bec73e23a9662efc9c229c6a008054600160401b810460ff16159067ffffffffffffffff1660008115801561132c5750825b905060008267ffffffffffffffff1660011480156113495750303b155b905081158015611357575080155b156113755760405163f92ee8a960e01b815260040160405180910390fd5b845467ffffffffffffffff19166001178555831561139f57845460ff60401b1916600160401b1785555b6113a833611cfe565b6113b0611d0f565b600080546001600160a01b03808b166001600160a01b031992831617909255600180548a84169083161790556002805492891692909116919091179055831561143357845460ff60401b19168555604051600181527fc7f505b2f371ae2175ee4913f4499e1f2633a7b5936321eed1cdaeb6115181d29060200160405180910390a15b5050505050505050565b6001600160a01b03831661148e5760405162461bcd60e51b8152602060048201526018602482015277496e76616c696420706c617965722061646472657373657360401b60448201526064016104d0565b6000818152600360205260409020600201546001600160a01b0316156114ed5760405162461bcd60e51b815260206004820152601460248201527311d85b5948185b1c9958591e481cdd185c9d195960621b60448201526064016104d0565b6000805460408051637ae4eb4f60e11b81526001600160a01b039092169163f5c9d69e9161152d91879182019060c08301906101008401906004016128a6565b602060405180830381865afa15801561154a573d6000803e3d6000fd5b505050506040513d601f19601f8201168201806040525081019061156e9190612839565b9050806115ce5760405162461bcd60e51b815260206004820152602860248201527f506c617965722032207368697020706c6163656d656e742070726f6f66206973604482015267081a5b9d985b1a5960c21b60648201526084016104d0565b60008281526003602052604090206002810180546001600160a81b0319166001600160a01b03871617600160a01b1790556101008401356006820155610120840135600782015583601382016116248282612912565b50506001600160a01b0385166000818152600883016020908152604091829020805460ff19169055905191825284917f45c4f9cbafe186141862608c493f28b823fde4c2142bedc3f5169961a73fdd22910160405180910390a260405183907f50ad08f58a27f2851d7e3a1b3a6a46b290f2ce677e99642d30ff639721e7779090600090a25050505050565b6060600060045467ffffffffffffffff8111156116cf576116cf6120ee565b60405190808252806020026020018201604052801561170857816020015b6116f5611fc5565b8152602001906001900390816116ed5790505b50905060005b600454811015611a365760408051610180810182526000838152600360208181528483208054855260018101546001600160a01b0390811683870152600280830154808316888a0152600160a01b900460ff161515606088015282850154909116608080880191909152600483015460a0880152600583015460c080890191909152600684015460e08901526007840154610100890152958990529390925285519384019586905293946101208601946009019284929083019184919082845b8154815260200190600101908083116117ce575050505050815260200160028201600280602002604051908101604052809291906000905b8282101561184c57604080518082019182905290600284810287019182845b81548152602001906001019080831161182557505050505081526020019060010190611806565b50505090825250604080518082019182905260209092019190600684019060029082845b815481526020019060010190808311611870575050509183525050604080518082019182905260209092019190600884019060029082845b8154815260200190600101908083116118a857505050919092525050508152600083815260036020908152604091829020825160c0810190935292019160130181608081018260028282826020028201915b8154815260200190600101908083116118fa575050505050815260200160028201600280602002604051908101604052809291906000905b8282101561197857604080518082019182905290600284810287019182845b81548152602001906001019080831161195157505050505081526020019060010190611932565b50505090825250604080518082019182905260209092019190600684019060029082845b81548152602001906001019080831161199c575050509183525050604080518082019182905260209092019190600884019060029082845b8154815260200190600101908083116119d4575050509190925250505081526000838152600360209081526040909120601d015461ffff169101528251839083908110611a2357611a2361285b565b602090810291909101015260010161170e565b50919050565b611a44611c32565b6001600160a01b038116611a6e57604051631e4fbdf760e01b8152600060048201526024016104d0565b611a7781611c8d565b50565b306001600160a01b037f0000000000000000000000000000000000000000000000000000000000000000161480611b0157507f00000000000000000000000000000000000000000000000000000000000000006001600160a01b0316611af56000805160206129f1833981519152546001600160a01b031690565b6001600160a01b031614155b15610fbb5760405163703e46dd60e11b815260040160405180910390fd5b611a77611c32565b816001600160a01b03166352d1902d6040518163ffffffff1660e01b8152600401602060405180830381865afa925050508015611b81575060408051601f3d908101601f19168201909252611b7e918101906129bb565b60015b611ba957604051634c9c8ce360e01b81526001600160a01b03831660048201526024016104d0565b6000805160206129f18339815191528114611bda57604051632a87526960e21b8152600481018290526024016104d0565b611be48383611d17565b505050565b306001600160a01b037f00000000000000000000000000000000000000000000000000000000000000001614610fbb5760405163703e46dd60e11b815260040160405180910390fd5b33611c647f9016d09d72d40fdae2fd8ceac6b6234c7706214fd39c1cd1e609a0528c199300546001600160a01b031690565b6001600160a01b031614610fbb5760405163118cdaa760e01b81523360048201526024016104d0565b7f9016d09d72d40fdae2fd8ceac6b6234c7706214fd39c1cd1e609a0528c19930080546001600160a01b031981166001600160a01b03848116918217845560405192169182907f8be0079c531659141344cd1fd0a4f28419497f9722a3daafe3b4186f6b6457e090600090a3505050565b611d06611d6d565b611a7781611db6565b610fbb611d6d565b611d2082611dbe565b6040516001600160a01b038316907fbc7cd75a20ee27fd9adebab32041f755214dbc6bffa90cc0225b39da2e5c2d3b90600090a2805115611d6557611be48282611e23565b610f88611e99565b7ff0c57e16840df040f15088dc2f81fe391c3923bec73e23a9662efc9c229c6a0054600160401b900460ff16610fbb57604051631afcd79f60e31b815260040160405180910390fd5b611a44611d6d565b806001600160a01b03163b600003611df457604051634c9c8ce360e01b81526001600160a01b03821660048201526024016104d0565b6000805160206129f183398151915280546001600160a01b0319166001600160a01b0392909216919091179055565b6060600080846001600160a01b031684604051611e4091906129d4565b600060405180830381855af49150503d8060008114611e7b576040519150601f19603f3d011682016040523d82523d6000602084013e611e80565b606091505b5091509150611e90858383611eb8565b95945050505050565b3415610fbb5760405163b398979f60e01b815260040160405180910390fd5b606082611ecd57611ec882611f17565b611f10565b8151158015611ee457506001600160a01b0384163b155b15611f0d57604051639996b31560e01b81526001600160a01b03851660048201526024016104d0565b50805b9392505050565b805115611f275780518082602001fd5b60405163d6bda27560e01b815260040160405180910390fd5b8260028101928215611f6e579160200282015b82811115611f6e578251825591602001919060010190611f53565b50611f7a929150612035565b5090565b600483019183908215611fb9579160200282015b82811115611fb9578251611fa99083906002611f40565b5091602001919060020190611f92565b50611f7a92915061204a565b6040805161018081018252600080825260208201819052918101829052606081018290526080810182905260a0810182905260c0810182905260e08101829052610100810191909152610120810161201b612064565b8152602001612028612064565b8152600060209091015290565b5b80821115611f7a5760008155600101612036565b80821115611f7a576000808255600182015560020161204a565b60405180608001604052806120776120a3565b81526020016120846120c1565b81526020016120916120a3565b815260200161209e6120a3565b905290565b60405180604001604052806002906020820280368337509192915050565b60405180604001604052806002905b6120d86120a3565b8152602001906001900390816120d05790505090565b634e487b7160e01b600052604160045260246000fd5b6040516080810167ffffffffffffffff81118282101715612127576121276120ee565b60405290565b6040805190810167ffffffffffffffff81118282101715612127576121276120ee565b604051601f8201601f1916810167ffffffffffffffff81118282101715612179576121796120ee565b604052919050565b600082601f83011261219257600080fd5b61219a61212d565b8060408401858111156121ac57600080fd5b845b818110156121c65780358452602093840193016121ae565b509095945050505050565b600082601f8301126121e257600080fd5b6040516060810181811067ffffffffffffffff82111715612205576122056120ee565b60405280606084018581111561221a57600080fd5b845b8181101561223457803583526020928301920161221c565b509195945050505050565b6000610160828403121561225257600080fd5b61225a612104565b90506122668383612181565b8152604083605f84011261227957600080fd5b61228161212d565b8060c085018681111561229357600080fd5b604086015b818110156122b9576122aa8882612181565b84526020909301928401612298565b508160208601526122ca8782612181565b6040860152505050506122e18361010084016121d1565b606082015292915050565b600080610180838503121561230057600080fd5b82359150612311846020850161223f565b90509250929050565b60006020828403121561232c57600080fd5b5035919050565b8060005b6002811015612356578151845260209384019390910190600101612337565b50505050565b612367828251612333565b602080820151604080850160005b600281101561239957612389828551612333565b9284019290820190600101612375565b505050505060408101516123b060c0840182612333565b506060810151611be4610100840182612333565b8c81526001600160a01b038c811660208301528b811660408301528a151560608301528916608082015260a0810188905260c0810187905260e0810186905261010081018590526103c0810161241e61012083018661235c565b61242c61026083018561235c565b61ffff83166103a08301529d9c50505050505050505050505050565b80356001600160a01b038116811461245f57600080fd5b919050565b60006101408284031215611a3657600080fd5b6000806000806101a0858703121561248e57600080fd5b61249785612448565b93506124a68660208701612464565b9250610160850135915061018085013561ffff811681146124c657600080fd5b939692955090935050565b600080604083850312156124e457600080fd5b6124ed83612448565b915060208084013567ffffffffffffffff8082111561250b57600080fd5b818601915086601f83011261251f57600080fd5b813581811115612531576125316120ee565b612543601f8201601f19168501612150565b9150808252878482850101111561255957600080fd5b80848401858401376000848284010152508093505050509250929050565b80518252602081015161259560208401826001600160a01b03169052565b5060408101516125b060408401826001600160a01b03169052565b5060608101516125c4606084018215159052565b5060808101516125df60808401826001600160a01b03169052565b5060a081015160a083015260c081015160c083015260e081015160e08301526101008082015181840152506101208082015161261d8285018261235c565b505061014081015161263361026084018261235c565b50610160015161ffff166103a09190910152565b61040081016126568286612577565b60ff84166103c083015260ff83166103e0830152949350505050565b60005b8381101561268d578181015183820152602001612675565b50506000910152565b60208152600082518060208401526126b5816040850160208701612672565b601f01601f19169190910160400192915050565b6000806000606084860312156126de57600080fd5b6126e784612448565b92506126f560208501612448565b915061270360408501612448565b90509250925092565b6000806000610180848603121561272257600080fd5b61272b84612448565b925061273a8560208601612464565b915061016084013590509250925092565b6020808252825182820181905260009190848201906040850190845b8181101561278e5761277a838551612577565b928401926103c09290920191600101612767565b50909695505050505050565b6000602082840312156127ac57600080fd5b611f1082612448565b61016081016127c48287612333565b60408083018660005b60028110156127f4576127e1838351612333565b91830191602091909101906001016127cd565b5050505061280560c0830185612333565b61010082018360005b600381101561282d57815183526020928301929091019060010161280e565b50505095945050505050565b60006020828403121561284b57600080fd5b81518015158114611f1057600080fd5b634e487b7160e01b600052603260045260246000fd5b634e487b7160e01b600052601160045260246000fd5b600060ff821660ff810361289d5761289d612871565b60010192915050565b61014081016040808784378083018660005b60028110156128d5578382843791830191908301906001016128b8565b505050808560c085013780846101008501375095945050505050565b8160005b6002811015612356578135838201556020909101906001016128f5565b8160005b600281101561293357813583820155602090910190600101612916565b5050600260408084016002840160005b848110156129655761295583836128f1565b9183019190840190600101612943565b505050505061297a60c08301600683016128f1565b610f886101008301600883016128f1565b60006001820161299d5761299d612871565b5060010190565b6000816129b3576129b3612871565b506000190190565b6000602082840312156129cd57600080fd5b5051919050565b600082516129e6818460208701612672565b919091019291505056fe360894a13ba1a3210667c828492db98dca3e2076cc3735a920a3ca505d382bbca2646970667358221220c564fa06056b538b01284aee229b4a2e692606615cc15eb7a856abb56fa2762964736f6c63430008160033",
  "linkReferences": {},
  "deployedLinkReferences": {}
}