{
  "_format": "hh-sol-artifact-1",
  "contractName": "MoveVerifier",
  "sourceName": "contracts/move_verification.sol",
  "abi": [
    {
      "inputs": [
        {
          "internalType": "uint256[2]",
          "name": "_pA",
          "type": "uint256[2]"
        },
        {
          "internalType": "uint256[2][2]",
          "name": "_pB",
          "type": "uint256[2][2]"
        },
        {
          "internalType": "uint256[2]",
          "name": "_pC",
          "type": "uint256[2]"
        },
        {
          "internalType": "uint256[7]",
          "name": "_pubSignals",
          "type": "uint256[7]"
        }
      ],
      "name": "verifyProof",
      "outputs": [
        {
          "internalType": "bool",
          "name": "",
          "type": "bool"
        }
      ],
      "stateMutability": "view",
      "type": "function"
    }
  ],
  "bytecode": "0x6080806040523461001657610826908161001c8239f35b600080fdfe6080604052600436101561001257600080fd5b6000803560e01c63c894e7571461002857600080fd5b346103d4576101e090816003193601126103d457610045366103d7565b913660c4116103d057610057366103e9565b366101e4116103cc5760209384916104006040526101496101043561007b816103f7565b6101446101243561008b816103f7565b61013f6101443561009b816103f7565b61013a610164356100ab816103f7565b61013561018435936100bc856103f7565b6101306101a435976100cd896103f7565b61012b6101c4359b6100de8d6103f7565b7f2f8e2d5ac6a97ad38393c07f009598c240a675f972a18f7d63b35fc1adc20b9f6080527f1c7fef7fea398774b1a8a7817ebf6246b8d19139cc195dbcec1e1e0d6458a61660a05261042a565b6104b4565b61053e565b6105c8565b610652565b6106dc565b610766565b7f2b8dcc5f8825330a633c23777c4a4e7ffd828bb6cdf1446b7b9d8e1669fd259561010094838694358552857f30644e72e131a029b85045b68181585d97816a916871ca8d3c208c16d87cfd479101358103066101205260443561014052606435610160526084356101805260a4356101a0527f083d29704470ffe3adce38bbe527b2d93748b06ea92f26a3bbd2a0094c106c976101c052527f16c0c91e986035ed54398173ad268c5d84a44fa624e932aec4203d66bbae7337610200527f2fdfa1f2ed34fc27984ebbf6600c60b6e8cf8e751ba8f13ee074e45455a26426610220527f0eb985dbfcf19c0607e26b9cc9e04498052909f97bf16078ca670d5f65e4df40610240527f15c35f29f04557eeb8c5903bac17c8663e3be6ad27b5075cacbf9b1000b7b708610260526080516102805260a0516102a0527f198e9393920d483a7260bfb731fb5d25f1aa493335a9e71297e485b7aef312c26102c0527f1800deef121f1e76426a00665e5c4479674322d4f75edadd46debd5cd992f6ed6102e05282610300917f090689d0585ff075ec9e99ad690c3395bc4b313370b38ef355acdadcd122975b83527f12c85ea5db8c6deb4aab71808dcb408fe3d1e7690c43d37b4ce6cc0166fa7daa610320528035610340520135610360527f26e1874645e7dd64c2c48c9d21d2620a570fdc284864e1b1ff1074a45444600d610380527f09779c8f0064fb9cf78c913653acc2ca4b32c48eddd8f64fb5e3981dca30e03d6103a0527f2b9734ee4c00f76c440e0e95210edd1e688f38868415905ecbcc0f86d03ec8016103c0527f09d1cae5ade4cc0d31c2f2fbdd6c8c53aed8bd717bf2986b166534abc70eaf6a6103e0528160086107cf195a01fa9051168152f35b8280fd5b5080fd5b80fd5b906004916044116103e457565b600080fd5b9060c491610104116103e457565b7f30644e72e131a029b85045b68181585d2833e84879b9709143e1f593f0000001111561042057565b6000805260206000f35b604051907f0f17fc5fca1d0567f8f35a7702e674c94c48d80c7d4971995414151b247bd46e82527f07df05971f3859f8ad43f866d538f61fea120869c374e78d1e80b8be8597bbb16020830152604082019081526107cf196040836060816007855a01fa156104205760409260066080939284938451905260a05160608401525a01fa1561042057565b604051907f1720c4bf5696b0aefdb66e0d287c4a0ebd6e47e63afaa0fd602ae1c9a9e460f782527f10ed10ddbef7ebb2be8f2c4a1d8d5be6b04beedd43056b16182c4ccc3b94b6e56020830152604082019081526107cf196040836060816007855a01fa156104205760409260066080939284938451905260a05160608401525a01fa1561042057565b604051907f1c9b35bbd9abea3feede53c921c0508d4fd60f93ffee2ed1f574f6b84635c77e82527f1e166817bd19c328d3a21dd8a0e833155356910e5458f56dfb57cab74fc18ec96020830152604082019081526107cf196040836060816007855a01fa156104205760409260066080939284938451905260a05160608401525a01fa1561042057565b604051907f0f566b4580e74152d4620003dd00bbfb60b5cfd3399c5f7d82677d9391a8a18b82527f279d0e861f4f696cf1442735318b1cfe201816bd81b0fc91f619e7cbd80e643a6020830152604082019081526107cf196040836060816007855a01fa156104205760409260066080939284938451905260a05160608401525a01fa1561042057565b604051907f0b7b26715828fa9059b78daca85629a6698895f8ae361092f22c0dfcf64a06fc82527f05d9de8e4ab0944d691212461e2c90232ef06586c0f4763985397533e95331576020830152604082019081526107cf196040836060816007855a01fa156104205760409260066080939284938451905260a05160608401525a01fa1561042057565b604051907f21834c7a8963d11c1a20e890182a36c733f9ef9627155e8fa776e648ef44296082527f1aabfd87fccc0e9fd89b9bf27ad49aa10127b4113f3f883d116b763867980f376020830152604082019081526107cf196040836060816007855a01fa156104205760409260066080939284938451905260a05160608401525a01fa1561042057565b604051907f2fe910552f607bfcb66bbfcbf984894c6712d1dc38e24945df8ff2374e3a074882527f02fb45754f72c899a1cb225217735bb8637706b95dfd6e14c6551f8506558e3c6020830152604082019081526107cf196040836060816007855a01fa156104205760409260066080939284938451905260a05160608401525a01fa156104205756fea26469706673582212204dc89b1beb6d28112153b3da06af95e00292ab0c49fe5253e0baf309436dfe9a64736f6c63430008160033",
  "linkReferences": {},
  "deployedLinkReferences": {}
}