{
  "_format": "hh-sol-artifact-1",
  "contractName": "BattleshipWaku",
  "sourceName": "contracts/BattleshipWaku.sol",
  "abi": [
    {
      "inputs": [],
      "stateMutability": "nonpayable",
      "type": "constructor"
    },
    {
      "inputs": [
        {
          "internalType": "address",
          "name": "target",
          "type": "address"
        }
      ],
      "name": "AddressEmptyCode",
      "type": "error"
    },
    {
      "inputs": [
        {
          "internalType": "address",
          "name": "implementation",
          "type": "address"
        }
      ],
      "name": "ERC1967InvalidImplementation",
      "type": "error"
    },
    {
      "inputs": [],
      "name": "ERC1967NonPayable",
      "type": "error"
    },
    {
      "inputs": [],
      "name": "FailedCall",
      "type": "error"
    },
    {
      "inputs": [],
      "name": "InvalidInitialization",
      "type": "error"
    },
    {
      "inputs": [],
      "name": "NotInitializing",
      "type": "error"
    },
    {
      "inputs": [
        {
          "internalType": "address",
          "name": "owner",
          "type": "address"
        }
      ],
      "name": "OwnableInvalidOwner",
      "type": "error"
    },
    {
      "inputs": [
        {
          "internalType": "address",
          "name": "account",
          "type": "address"
        }
      ],
      "name": "OwnableUnauthorizedAccount",
      "type": "error"
    },
    {
      "inputs": [],
      "name": "UUPSUnauthorizedCallContext",
      "type": "error"
    },
    {
      "inputs": [
        {
          "internalType": "bytes32",
          "name": "slot",
          "type": "bytes32"
        }
      ],
      "name": "UUPSUnsupportedProxiableUUID",
      "type": "error"
    },
    {
      "anonymous": false,
      "inputs": [
        {
          "indexed": true,
          "internalType": "uint256",
          "name": "gameId",
          "type": "uint256"
        },
        {
          "indexed": false,
          "internalType": "address",
          "name": "player1",
          "type": "address"
        },
        {
          "indexed": false,
          "internalType": "address",
          "name": "player2",
          "type": "address"
        },
        {
          "indexed": false,
          "internalType": "uint256",
          "name": "player1BoardCommitment",
          "type": "uint256"
        },
        {
          "indexed": false,
          "internalType": "uint256",
          "name": "player1MerkleRoot",
          "type": "uint256"
        },
        {
          "indexed": false,
          "internalType": "uint256",
          "name": "player2BoardCommitment",
          "type": "uint256"
        },
        {
          "indexed": false,
          "internalType": "uint256",
          "name": "player2MerkleRoot",
          "type": "uint256"
        }
      ],
      "name": "GameCreated",
      "type": "event"
    },
    {
      "anonymous": false,
      "inputs": [
        {
          "indexed": true,
          "internalType": "uint256",
          "name": "gameId",
          "type": "uint256"
        },
        {
          "indexed": false,
          "internalType": "address",
          "name": "winner",
          "type": "address"
        }
      ],
      "name": "GameEnded",
      "type": "event"
    },
    {
      "anonymous": false,
      "inputs": [
        {
          "indexed": false,
          "internalType": "uint64",
          "name": "version",
          "type": "uint64"
        }
      ],
      "name": "Initialized",
      "type": "event"
    },
    {
      "anonymous": false,
      "inputs": [
        {
          "indexed": false,
          "internalType": "uint256",
          "name": "indexedgameId",
          "type": "uint256"
        },
        {
          "indexed": false,
          "internalType": "address",
          "name": "player",
          "type": "address"
        }
      ],
      "name": "MoveMade",
      "type": "event"
    },
    {
      "anonymous": false,
      "inputs": [
        {
          "indexed": true,
          "internalType": "address",
          "name": "previousOwner",
          "type": "address"
        },
        {
          "indexed": true,
          "internalType": "address",
          "name": "newOwner",
          "type": "address"
        }
      ],
      "name": "OwnershipTransferred",
      "type": "event"
    },
    {
      "anonymous": false,
      "inputs": [
        {
          "indexed": true,
          "internalType": "address",
          "name": "implementation",
          "type": "address"
        }
      ],
      "name": "Upgraded",
      "type": "event"
    },
    {
      "inputs": [],
      "name": "UPGRADE_INTERFACE_VERSION",
      "outputs": [
        {
          "internalType": "string",
          "name": "",
          "type": "string"
        }
      ],
      "stateMutability": "view",
      "type": "function"
    },
    {
      "inputs": [
        {
          "internalType": "address",
          "name": "player1",
          "type": "address"
        },
        {
          "internalType": "address",
          "name": "player2",
          "type": "address"
        },
        {
          "components": [
            {
              "internalType": "uint256[2]",
              "name": "pA",
              "type": "uint256[2]"
            },
            {
              "internalType": "uint256[2][2]",
              "name": "pB",
              "type": "uint256[2][2]"
            },
            {
              "internalType": "uint256[2]",
              "name": "pC",
              "type": "uint256[2]"
            },
            {
              "internalType": "uint256[2]",
              "name": "pubSignals",
              "type": "uint256[2]"
            }
          ],
          "internalType": "struct BattleshipWaku.ShipPlacementProof",
          "name": "shipPlacementProofPlayer1",
          "type": "tuple"
        },
        {
          "components": [
            {
              "internalType": "uint256[2]",
              "name": "pA",
              "type": "uint256[2]"
            },
            {
              "internalType": "uint256[2][2]",
              "name": "pB",
              "type": "uint256[2][2]"
            },
            {
              "internalType": "uint256[2]",
              "name": "pC",
              "type": "uint256[2]"
            },
            {
              "internalType": "uint256[2]",
              "name": "pubSignals",
              "type": "uint256[2]"
            }
          ],
          "internalType": "struct BattleshipWaku.ShipPlacementProof",
          "name": "shipPlacementProofPlayer2",
          "type": "tuple"
        },
        {
          "internalType": "uint256",
          "name": "gameId",
          "type": "uint256"
        }
      ],
      "name": "createGame",
      "outputs": [],
      "stateMutability": "nonpayable",
      "type": "function"
    },
    {
      "inputs": [
        {
          "internalType": "uint256",
          "name": "",
          "type": "uint256"
        }
      ],
      "name": "games",
      "outputs": [
        {
          "internalType": "uint256",
          "name": "gameId",
          "type": "uint256"
        },
        {
          "internalType": "address",
          "name": "player1",
          "type": "address"
        },
        {
          "internalType": "address",
          "name": "player2",
          "type": "address"
        },
        {
          "internalType": "bool",
          "name": "isActive",
          "type": "bool"
        },
        {
          "internalType": "address",
          "name": "playerTurn",
          "type": "address"
        },
        {
          "internalType": "bytes32",
          "name": "player1_board_commitment",
          "type": "bytes32"
        },
        {
          "internalType": "bytes32",
          "name": "player1_merkle_root",
          "type": "bytes32"
        },
        {
          "internalType": "bytes32",
          "name": "player2_board_commitment",
          "type": "bytes32"
        },
        {
          "internalType": "bytes32",
          "name": "player2_merkle_root",
          "type": "bytes32"
        },
        {
          "components": [
            {
              "internalType": "uint256[2]",
              "name": "pA",
              "type": "uint256[2]"
            },
            {
              "internalType": "uint256[2][2]",
              "name": "pB",
              "type": "uint256[2][2]"
            },
            {
              "internalType": "uint256[2]",
              "name": "pC",
              "type": "uint256[2]"
            },
            {
              "internalType": "uint256[2]",
              "name": "pubSignals",
              "type": "uint256[2]"
            }
          ],
          "internalType": "struct BattleshipWaku.ShipPlacementProof",
          "name": "player1ShipPlacementProof",
          "type": "tuple"
        },
        {
          "components": [
            {
              "internalType": "uint256[2]",
              "name": "pA",
              "type": "uint256[2]"
            },
            {
              "internalType": "uint256[2][2]",
              "name": "pB",
              "type": "uint256[2][2]"
            },
            {
              "internalType": "uint256[2]",
              "name": "pC",
              "type": "uint256[2]"
            },
            {
              "internalType": "uint256[2]",
              "name": "pubSignals",
              "type": "uint256[2]"
            }
          ],
          "internalType": "struct BattleshipWaku.ShipPlacementProof",
          "name": "player2ShipPlacementProof",
          "type": "tuple"
        }
      ],
      "stateMutability": "view",
      "type": "function"
    },
    {
      "inputs": [
        {
          "internalType": "uint256",
          "name": "gameId",
          "type": "uint256"
        }
      ],
      "name": "getGame",
      "outputs": [
        {
          "components": [
            {
              "internalType": "uint256",
              "name": "gameId",
              "type": "uint256"
            },
            {
              "internalType": "address",
              "name": "player1",
              "type": "address"
            },
            {
              "internalType": "address",
              "name": "player2",
              "type": "address"
            },
            {
              "internalType": "bool",
              "name": "isActive",
              "type": "bool"
            },
            {
              "internalType": "address",
              "name": "playerTurn",
              "type": "address"
            },
            {
              "internalType": "bytes32",
              "name": "player1_board_commitment",
              "type": "bytes32"
            },
            {
              "internalType": "bytes32",
              "name": "player1_merkle_root",
              "type": "bytes32"
            },
            {
              "internalType": "bytes32",
              "name": "player2_board_commitment",
              "type": "bytes32"
            },
            {
              "internalType": "bytes32",
              "name": "player2_merkle_root",
              "type": "bytes32"
            },
            {
              "components": [
                {
                  "internalType": "uint256[2]",
                  "name": "pA",
                  "type": "uint256[2]"
                },
                {
                  "internalType": "uint256[2][2]",
                  "name": "pB",
                  "type": "uint256[2][2]"
                },
                {
                  "internalType": "uint256[2]",
                  "name": "pC",
                  "type": "uint256[2]"
                },
                {
                  "internalType": "uint256[2]",
                  "name": "pubSignals",
                  "type": "uint256[2]"
                }
              ],
              "internalType": "struct BattleshipWaku.ShipPlacementProof",
              "name": "player1ShipPlacementProof",
              "type": "tuple"
            },
            {
              "components": [
                {
                  "internalType": "uint256[2]",
                  "name": "pA",
                  "type": "uint256[2]"
                },
                {
                  "internalType": "uint256[2][2]",
                  "name": "pB",
                  "type": "uint256[2][2]"
                },
                {
                  "internalType": "uint256[2]",
                  "name": "pC",
                  "type": "uint256[2]"
                },
                {
                  "internalType": "uint256[2]",
                  "name": "pubSignals",
                  "type": "uint256[2]"
                }
              ],
              "internalType": "struct BattleshipWaku.ShipPlacementProof",
              "name": "player2ShipPlacementProof",
              "type": "tuple"
            }
          ],
          "internalType": "struct BattleshipWaku.GameView",
          "name": "gameData",
          "type": "tuple"
        },
        {
          "internalType": "uint8",
          "name": "player1Hits",
          "type": "uint8"
        },
        {
          "internalType": "uint8",
          "name": "player2Hits",
          "type": "uint8"
        }
      ],
      "stateMutability": "view",
      "type": "function"
    },
    {
      "inputs": [
        {
          "internalType": "uint256",
          "name": "gameId",
          "type": "uint256"
        }
      ],
      "name": "getGamePlayers",
      "outputs": [
        {
          "internalType": "address",
          "name": "",
          "type": "address"
        },
        {
          "internalType": "address",
          "name": "",
          "type": "address"
        }
      ],
      "stateMutability": "view",
      "type": "function"
    },
    {
      "inputs": [
        {
          "internalType": "uint256",
          "name": "gameId",
          "type": "uint256"
        }
      ],
      "name": "getGameStatus",
      "outputs": [
        {
          "internalType": "bool",
          "name": "",
          "type": "bool"
        }
      ],
      "stateMutability": "view",
      "type": "function"
    },
    {
      "inputs": [
        {
          "internalType": "address",
          "name": "_shipPlacementVerifier",
          "type": "address"
        },
        {
          "internalType": "address",
          "name": "_moveVerifier",
          "type": "address"
        },
        {
          "internalType": "address",
          "name": "_winVerifier",
          "type": "address"
        }
      ],
      "name": "initialize",
      "outputs": [],
      "stateMutability": "nonpayable",
      "type": "function"
    },
    {
      "inputs": [
        {
          "internalType": "uint256",
          "name": "gameId",
          "type": "uint256"
        },
        {
          "components": [
            {
              "internalType": "uint256[2]",
              "name": "pA",
              "type": "uint256[2]"
            },
            {
              "internalType": "uint256[2][2]",
              "name": "pB",
              "type": "uint256[2][2]"
            },
            {
              "internalType": "uint256[2]",
              "name": "pC",
              "type": "uint256[2]"
            },
            {
              "internalType": "uint256[3]",
              "name": "pubSignals",
              "type": "uint256[3]"
            }
          ],
          "internalType": "struct BattleshipWaku.MoveProof",
          "name": "moveProof",
          "type": "tuple"
        }
      ],
      "name": "makeMove",
      "outputs": [
        {
          "internalType": "bool",
          "name": "",
          "type": "bool"
        }
      ],
      "stateMutability": "nonpayable",
      "type": "function"
    },
    {
      "inputs": [],
      "name": "moveVerifier",
      "outputs": [
        {
          "internalType": "contract IMoveVerifier",
          "name": "",
          "type": "address"
        }
      ],
      "stateMutability": "view",
      "type": "function"
    },
    {
      "inputs": [],
      "name": "owner",
      "outputs": [
        {
          "internalType": "address",
          "name": "",
          "type": "address"
        }
      ],
      "stateMutability": "view",
      "type": "function"
    },
    {
      "inputs": [],
      "name": "proxiableUUID",
      "outputs": [
        {
          "internalType": "bytes32",
          "name": "",
          "type": "bytes32"
        }
      ],
      "stateMutability": "view",
      "type": "function"
    },
    {
      "inputs": [],
      "name": "renounceOwnership",
      "outputs": [],
      "stateMutability": "nonpayable",
      "type": "function"
    },
    {
      "inputs": [],
      "name": "shipPlacementVerifier",
      "outputs": [
        {
          "internalType": "contract IShipPlacementVerifier",
          "name": "",
          "type": "address"
        }
      ],
      "stateMutability": "view",
      "type": "function"
    },
    {
      "inputs": [
        {
          "internalType": "address",
          "name": "newOwner",
          "type": "address"
        }
      ],
      "name": "transferOwnership",
      "outputs": [],
      "stateMutability": "nonpayable",
      "type": "function"
    },
    {
      "inputs": [
        {
          "internalType": "address",
          "name": "newImplementation",
          "type": "address"
        },
        {
          "internalType": "bytes",
          "name": "data",
          "type": "bytes"
        }
      ],
      "name": "upgradeToAndCall",
      "outputs": [],
      "stateMutability": "payable",
      "type": "function"
    },
    {
      "inputs": [
        {
          "internalType": "uint256",
          "name": "gameId",
          "type": "uint256"
        },
        {
          "components": [
            {
              "internalType": "uint256[2]",
              "name": "pA",
              "type": "uint256[2]"
            },
            {
              "internalType": "uint256[2][2]",
              "name": "pB",
              "type": "uint256[2][2]"
            },
            {
              "internalType": "uint256[2]",
              "name": "pC",
              "type": "uint256[2]"
            },
            {
              "internalType": "uint256[3]",
              "name": "pubSignals",
              "type": "uint256[3]"
            }
          ],
          "internalType": "struct BattleshipWaku.WinProof",
          "name": "winProof",
          "type": "tuple"
        }
      ],
      "name": "winVerification",
      "outputs": [
        {
          "internalType": "bool",
          "name": "",
          "type": "bool"
        }
      ],
      "stateMutability": "nonpayable",
      "type": "function"
    },
    {
      "inputs": [],
      "name": "winVerifier",
      "outputs": [
        {
          "internalType": "contract IWinVerifier",
          "name": "",
          "type": "address"
        }
      ],
      "stateMutability": "view",
      "type": "function"
    }
  ],
  "bytecode": "0x60a06040523060805234801561001457600080fd5b5061001d610022565b6100d4565b7ff0c57e16840df040f15088dc2f81fe391c3923bec73e23a9662efc9c229c6a00805468010000000000000000900460ff16156100725760405163f92ee8a960e01b815260040160405180910390fd5b80546001600160401b03908116146100d15780546001600160401b0319166001600160401b0390811782556040519081527fc7f505b2f371ae2175ee4913f4499e1f2633a7b5936321eed1cdaeb6115181d29060200160405180910390a15b50565b608051612292620000fe6000396000818161148d015281816114b601526115fc01526122926000f3fe6080604052600436106100fd5760003560e01c8063715018a611610095578063ad3cb1cc11610064578063ad3cb1cc1461033e578063c0c53b8b1461037c578063d173bf9c1461039c578063d6c21974146103bc578063f2fde38b146103dc57600080fd5b8063715018a61461029d5780638d2d99ee146102b25780638da5cb5b146102d2578063a2f77bcc1461030f57600080fd5b806329b3e3b6116100d157806329b3e3b61461020d578063489d22201461022d5780634f1ef2861461026557806352d1902d1461027a57600080fd5b806256faa2146101025780630f1bf45414610137578063117a5b901461017157806315a40f49146101a8575b600080fd5b34801561010e57600080fd5b5061012261011d366004611c2f565b6103fc565b60405190151581526020015b60405180910390f35b34801561014357600080fd5b50610122610152366004611c5d565b600090815260036020526040902060020154600160a01b900460ff1690565b34801561017d57600080fd5b5061019161018c366004611c5d565b610671565b60405161012e9b9a99989796959493929190611d07565b3480156101b457600080fd5b506101ed6101c3366004611c5d565b600090815260036020526040902060018101546002909101546001600160a01b0391821692911690565b604080516001600160a01b0393841681529290911660208301520161012e565b34801561021957600080fd5b50610122610228366004611c2f565b610906565b34801561023957600080fd5b5060005461024d906001600160a01b031681565b6040516001600160a01b03909116815260200161012e565b610278610273366004611d9b565b610b3d565b005b34801561028657600080fd5b5061028f610b5c565b60405190815260200161012e565b3480156102a957600080fd5b50610278610b79565b3480156102be57600080fd5b5060025461024d906001600160a01b031681565b3480156102de57600080fd5b507f9016d09d72d40fdae2fd8ceac6b6234c7706214fd39c1cd1e609a0528c199300546001600160a01b031661024d565b34801561031b57600080fd5b5061032f61032a366004611c5d565b610b8d565b60405161012e93929190611e41565b34801561034a57600080fd5b5061036f604051806040016040528060058152602001640352e302e360dc1b81525081565b60405161012e9190611f44565b34801561038857600080fd5b50610278610397366004611f77565b610ea6565b3480156103a857600080fd5b5060015461024d906001600160a01b031681565b3480156103c857600080fd5b506102786103d7366004611fd3565b610ffd565b3480156103e857600080fd5b506102786103f7366004612034565b611444565b60008281526003602052604081206002810154600160a01b900460ff1661045f5760405162461bcd60e51b815260206004820152601260248201527147616d65206973206e6f742061637469766560701b60448201526064015b60405180910390fd5b60038101546001600160a01b031633146104ab5760405162461bcd60e51b815260206004820152600d60248201526c2737ba103cb7bab9103a3ab93760991b6044820152606401610456565b60015483516020850151604080870151606088015191516308a3cff560e11b81526000956001600160a01b0316946311479fea946104f2949193909290919060040161204f565b602060405180830381865afa15801561050f573d6000803e3d6000fd5b505050506040513d601f19601f8201168201806040525081019061053391906120d3565b90508061057a5760405162461bcd60e51b8152602060048201526015602482015274135bdd99481c1c9bdbd9881a5cc81a5b9d985b1a59605a1b6044820152606401610456565b6060840151604001516001036105d15760038201546001600160a01b031660009081526008830160205260408120805460ff16916105b7836120f5565b91906101000a81548160ff021916908360ff160217905550505b600182015460038301546001600160a01b039081169116146106005760018201546001600160a01b031661060f565b60028201546001600160a01b03165b6003830180546001600160a01b0319166001600160a01b0392909216919091179055604080518681523360208201527f5008547a534c07bdb1a5f781fbfc38d92af4d50429ccb847bcae5e7eb4915c2d910160405180910390a1949350505050565b600360208190526000918252604091829020805460018201546002808401549484015460048501546005860154600687015460078801548a5160c081019b8c9052979a6001600160a01b039788169a8881169a600160a01b90910460ff16999890961697949693959294919360098401918391608083019184919082845b8154815260200190600101908083116106ef575050505050815260200160028201600280602002604051908101604052809291906000905b8282101561076d57604080518082019182905290600284810287019182845b81548152602001906001019080831161074657505050505081526020019060010190610727565b50505090825250604080518082019182905260209092019190600684019060029082845b815481526020019060010190808311610791575050509183525050604080518082019182905260209092019190600884019060029082845b8154815260200190600101908083116107c9575050509190925250506040805160c0810190915291929190506013820181608081018260028282826020028201915b81548152602001906001019080831161080b575050505050815260200160028201600280602002604051908101604052809291906000905b8282101561088957604080518082019182905290600284810287019182845b81548152602001906001019080831161086257505050505081526020019060010190610843565b50505090825250604080518082019182905260209092019190600684019060029082845b8154815260200190600101908083116108ad575050509183525050604080518082019182905260209092019190600884019060029082845b8154815260200190600101908083116108e55750505050508152505090508b565b60008281526003602052604081206002810154600160a01b900460ff166109645760405162461bcd60e51b815260206004820152601260248201527147616d65206973206e6f742061637469766560701b6044820152606401610456565b60018101546001600160a01b0316600090815260088201602052604081205460ff16600c036109a1575060018101546001600160a01b0316610a19565b60028201546001600160a01b0316600090815260088301602052604090205460ff16600c036109de575060028101546001600160a01b0316610a19565b60405162461bcd60e51b815260206004820152601060248201526f23b0b6b29034b9903737ba1037bb32b960811b6044820152606401610456565b60025484516020860151604080880151606089015191516308a3cff560e11b81526000956001600160a01b0316946311479fea94610a60949193909290919060040161204f565b602060405180830381865afa158015610a7d573d6000803e3d6000fd5b505050506040513d601f19601f82011682018060405250810190610aa191906120d3565b905080610ae75760405162461bcd60e51b815260206004820152601460248201527315da5b881c1c9bdbd9881a5cc81a5b9d985b1a5960621b6044820152606401610456565b60028301805460ff60a01b191690556040516001600160a01b038316815286907f3d5fcd8fa3235aeb3897f25c8ea49989174981afcb01b9d03189d1056a16775b9060200160405180910390a295945050505050565b610b45611482565b610b4e82611527565b610b58828261152f565b5050565b6000610b666115f1565b5060008051602061223d83398151915290565b610b8161163a565b610b8b6000611695565b565b610b95611948565b60008281526003602081815260408084208151610160810183528154815260018201546001600160a01b039081169482019490945260028083015480861683860152600160a01b900460ff161515606083015294820154909316608080850191909152600482015460a0850152600582015460c080860191909152600683015460e0860152600783015461010086015283519081019384905286959294936101208501939192600987019284929183019184919082845b815481526020019060010190808311610c4c575050505050815260200160028201600280602002604051908101604052809291906000905b82821015610cca57604080518082019182905290600284810287019182845b815481526020019060010190808311610ca357505050505081526020019060010190610c84565b50505090825250604080518082019182905260209092019190600684019060029082845b815481526020019060010190808311610cee575050509183525050604080518082019182905260209092019190600884019060029082845b815481526020019060010190808311610d26575050509190925250505081526040805160c081019091526020909101906013840181608081018260028282826020028201915b815481526020019060010190808311610d6c575050505050815260200160028201600280602002604051908101604052809291906000905b82821015610dea57604080518082019182905290600284810287019182845b815481526020019060010190808311610dc357505050505081526020019060010190610da4565b50505090825250604080518082019182905260209092019190600684019060029082845b815481526020019060010190808311610e0e575050509183525050604080518082019182905260209092019190600884019060029082845b815481526020019060010190808311610e465750505091909252505050905260018201546001600160a01b0390811660009081526008840160205260408082205460029095015490921681522054909660ff928316965091169350915050565b7ff0c57e16840df040f15088dc2f81fe391c3923bec73e23a9662efc9c229c6a008054600160401b810460ff16159067ffffffffffffffff16600081158015610eec5750825b905060008267ffffffffffffffff166001148015610f095750303b155b905081158015610f17575080155b15610f355760405163f92ee8a960e01b815260040160405180910390fd5b845467ffffffffffffffff191660011785558315610f5f57845460ff60401b1916600160401b1785555b610f6833611706565b610f70611717565b600080546001600160a01b03808b166001600160a01b031992831617909255600180548a841690831617905560028054928916929091169190911790558315610ff357845460ff60401b19168555604051600181527fc7f505b2f371ae2175ee4913f4499e1f2633a7b5936321eed1cdaeb6115181d29060200160405180910390a15b5050505050505050565b61100561163a565b6001600160a01b0385161580159061102557506001600160a01b03841615155b6110715760405162461bcd60e51b815260206004820152601860248201527f496e76616c696420706c617965722061646472657373657300000000000000006044820152606401610456565b836001600160a01b0316856001600160a01b0316036110d25760405162461bcd60e51b815260206004820152601a60248201527f506c61796572732063616e6e6f74206265207468652073616d650000000000006044820152606401610456565b600081815260036020526040902060020154600160a01b900460ff16156111315760405162461bcd60e51b815260206004820152601360248201527247616d6520616c72656164792065786973747360681b6044820152606401610456565b6000805460408051637ae4eb4f60e11b81526001600160a01b039092169163f5c9d69e9161117191889182019060c0830190610100840190600401612122565b602060405180830381865afa15801561118e573d6000803e3d6000fd5b505050506040513d601f19601f820116820180604052508101906111b291906120d3565b9050806112125760405162461bcd60e51b815260206004820152602860248201527f506c617965722031207368697020706c6163656d656e742070726f6f66206973604482015267081a5b9d985b1a5960c21b6064820152608401610456565b6000805460408051637ae4eb4f60e11b81526001600160a01b039092169163f5c9d69e9161125291889182019060c0830190610100840190600401612122565b602060405180830381865afa15801561126f573d6000803e3d6000fd5b505050506040513d601f19601f8201168201806040525081019061129391906120d3565b9050806112f35760405162461bcd60e51b815260206004820152602860248201527f506c617965722032207368697020706c6163656d656e742070726f6f66206973604482015267081a5b9d985b1a5960c21b6064820152608401610456565b60008381526003602081905260409091208481556001810180546001600160a01b038b81166001600160a01b031992831681179093556002840180546001600160a81b031916918c1691909117600160a01b1790559282018054909316179091556101008681013560048301556101208088013560058401559086013560068301558501356007820155856009820161138c828261218e565b508590506013820161139e828261218e565b50506001600160a01b0388811660008181526008840160209081526040808320805460ff19908116909155948c1680845292819020805490951690945583519283528201526101008881013582840152610120808a0135606084015290880135608083015287013560a0820152905185917fec376e4952e7263b4e41bfefbcab1e6e6b6cf7477a1cbedf31b7ed4d36450c2a919081900360c00190a25050505050505050565b61144c61163a565b6001600160a01b03811661147657604051631e4fbdf760e01b815260006004820152602401610456565b61147f81611695565b50565b306001600160a01b037f000000000000000000000000000000000000000000000000000000000000000016148061150957507f00000000000000000000000000000000000000000000000000000000000000006001600160a01b03166114fd60008051602061223d833981519152546001600160a01b031690565b6001600160a01b031614155b15610b8b5760405163703e46dd60e11b815260040160405180910390fd5b61147f61163a565b816001600160a01b03166352d1902d6040518163ffffffff1660e01b8152600401602060405180830381865afa925050508015611589575060408051601f3d908101601f1916820190925261158691810190612207565b60015b6115b157604051634c9c8ce360e01b81526001600160a01b0383166004820152602401610456565b60008051602061223d83398151915281146115e257604051632a87526960e21b815260048101829052602401610456565b6115ec838361171f565b505050565b306001600160a01b037f00000000000000000000000000000000000000000000000000000000000000001614610b8b5760405163703e46dd60e11b815260040160405180910390fd5b3361166c7f9016d09d72d40fdae2fd8ceac6b6234c7706214fd39c1cd1e609a0528c199300546001600160a01b031690565b6001600160a01b031614610b8b5760405163118cdaa760e01b8152336004820152602401610456565b7f9016d09d72d40fdae2fd8ceac6b6234c7706214fd39c1cd1e609a0528c19930080546001600160a01b031981166001600160a01b03848116918217845560405192169182907f8be0079c531659141344cd1fd0a4f28419497f9722a3daafe3b4186f6b6457e090600090a3505050565b61170e611775565b61147f816117be565b610b8b611775565b611728826117c6565b6040516001600160a01b038316907fbc7cd75a20ee27fd9adebab32041f755214dbc6bffa90cc0225b39da2e5c2d3b90600090a280511561176d576115ec828261182b565b610b586118a1565b7ff0c57e16840df040f15088dc2f81fe391c3923bec73e23a9662efc9c229c6a0054600160401b900460ff16610b8b57604051631afcd79f60e31b815260040160405180910390fd5b61144c611775565b806001600160a01b03163b6000036117fc57604051634c9c8ce360e01b81526001600160a01b0382166004820152602401610456565b60008051602061223d83398151915280546001600160a01b0319166001600160a01b0392909216919091179055565b6060600080846001600160a01b0316846040516118489190612220565b600060405180830381855af49150503d8060008114611883576040519150601f19603f3d011682016040523d82523d6000602084013e611888565b606091505b50915091506118988583836118c0565b95945050505050565b3415610b8b5760405163b398979f60e01b815260040160405180910390fd5b6060826118d5576118d08261191f565b611918565b81511580156118ec57506001600160a01b0384163b155b1561191557604051639996b31560e01b81526001600160a01b0385166004820152602401610456565b50805b9392505050565b80511561192f5780518082602001fd5b60405163d6bda27560e01b815260040160405180910390fd5b6040805161016081018252600080825260208201819052918101829052606081018290526080810182905260a0810182905260c0810182905260e08101829052610100810191909152610120810161199e6119b0565b81526020016119ab6119b0565b905290565b60405180608001604052806119c36119e6565b81526020016119d0611a04565b81526020016119dd6119e6565b81526020016119ab5b60405180604001604052806002906020820280368337509192915050565b60405180604001604052806002905b611a1b6119e6565b815260200190600190039081611a135790505090565b634e487b7160e01b600052604160045260246000fd5b6040516080810167ffffffffffffffff81118282101715611a6a57611a6a611a31565b60405290565b6040805190810167ffffffffffffffff81118282101715611a6a57611a6a611a31565b604051601f8201601f1916810167ffffffffffffffff81118282101715611abc57611abc611a31565b604052919050565b600082601f830112611ad557600080fd5b611add611a70565b806040840185811115611aef57600080fd5b845b81811015611b09578035845260209384019301611af1565b509095945050505050565b600082601f830112611b2557600080fd5b6040516060810181811067ffffffffffffffff82111715611b4857611b48611a31565b604052806060840185811115611b5d57600080fd5b845b81811015611b77578035835260209283019201611b5f565b509195945050505050565b60006101608284031215611b9557600080fd5b611b9d611a47565b9050611ba98383611ac4565b8152604083605f840112611bbc57600080fd5b611bc4611a70565b8060c0850186811115611bd657600080fd5b604086015b81811015611bfc57611bed8882611ac4565b84526020909301928401611bdb565b50816020860152611c0d8782611ac4565b604086015250505050611c24836101008401611b14565b606082015292915050565b6000806101808385031215611c4357600080fd5b82359150611c548460208501611b82565b90509250929050565b600060208284031215611c6f57600080fd5b5035919050565b8060005b6002811015611c99578151845260209384019390910190600101611c7a565b50505050565b611caa828251611c76565b602080820151604080850160005b6002811015611cdc57611ccc828551611c76565b9284019290820190600101611cb8565b50505050506040810151611cf360c0840182611c76565b5060608101516115ec610100840182611c76565b8b81526001600160a01b038b811660208301528a8116604083015289151560608301528816608082015260a0810187905260c0810186905260e0810185905261010081018490526103a08101611d61610120830185611c9f565b611d6f610260830184611c9f565b9c9b505050505050505050505050565b80356001600160a01b0381168114611d9657600080fd5b919050565b60008060408385031215611dae57600080fd5b611db783611d7f565b915060208084013567ffffffffffffffff80821115611dd557600080fd5b818601915086601f830112611de957600080fd5b813581811115611dfb57611dfb611a31565b611e0d601f8201601f19168501611a93565b91508082528784828501011115611e2357600080fd5b80848401858401376000848284010152508093505050509250929050565b835181526020808501516103e0830191611e65908401826001600160a01b03169052565b506040850151611e8060408401826001600160a01b03169052565b506060850151611e94606084018215159052565b506080850151611eaf60808401826001600160a01b03169052565b5060a085015160a083015260c085015160c083015260e085015160e083015261010080860151818401525061012080860151611eed82850182611c9f565b5050610140850151611f03610260840182611c9f565b5060ff84166103a083015260ff83166103c0830152949350505050565b60005b83811015611f3b578181015183820152602001611f23565b50506000910152565b6020815260008251806020840152611f63816040850160208701611f20565b601f01601f19169190910160400192915050565b600080600060608486031215611f8c57600080fd5b611f9584611d7f565b9250611fa360208501611d7f565b9150611fb160408501611d7f565b90509250925092565b60006101408284031215611fcd57600080fd5b50919050565b60008060008060006102e08688031215611fec57600080fd5b611ff586611d7f565b945061200360208701611d7f565b93506120128760408801611fba565b9250612022876101808801611fba565b949793965091946102c0013592915050565b60006020828403121561204657600080fd5b61191882611d7f565b610160810161205e8287611c76565b60408083018660005b600281101561208e5761207b838351611c76565b9183019160209190910190600101612067565b5050505061209f60c0830185611c76565b61010082018360005b60038110156120c75781518352602092830192909101906001016120a8565b50505095945050505050565b6000602082840312156120e557600080fd5b8151801515811461191857600080fd5b600060ff821660ff810361211957634e487b7160e01b600052601160045260246000fd5b60010192915050565b61014081016040808784378083018660005b600281101561215157838284379183019190830190600101612134565b505050808560c085013780846101008501375095945050505050565b8160005b6002811015611c9957813583820155602090910190600101612171565b8160005b60028110156121af57813583820155602090910190600101612192565b5050600260408084016002840160005b848110156121e1576121d1838361216d565b91830191908401906001016121bf565b50505050506121f660c083016006830161216d565b610b5861010083016008830161216d565b60006020828403121561221957600080fd5b5051919050565b60008251612232818460208701611f20565b919091019291505056fe360894a13ba1a3210667c828492db98dca3e2076cc3735a920a3ca505d382bbca2646970667358221220897c5de730cea6b318bc4bc7271a8b161abc8044765204dc17f1c200160cf62964736f6c63430008160033",
  "linkReferences": {},
  "deployedLinkReferences": {}
}