{
  "_format": "hh-sol-artifact-1",
  "contractName": "BattleshipWaku",
  "sourceName": "contracts/BattleshipWaku.sol",
  "abi": [
    {
      "inputs": [],
      "stateMutability": "nonpayable",
      "type": "constructor"
    },
    {
      "inputs": [
        {
          "internalType": "address",
          "name": "target",
          "type": "address"
        }
      ],
      "name": "AddressEmptyCode",
      "type": "error"
    },
    {
      "inputs": [
        {
          "internalType": "address",
          "name": "implementation",
          "type": "address"
        }
      ],
      "name": "ERC1967InvalidImplementation",
      "type": "error"
    },
    {
      "inputs": [],
      "name": "ERC1967NonPayable",
      "type": "error"
    },
    {
      "inputs": [],
      "name": "FailedCall",
      "type": "error"
    },
    {
      "inputs": [],
      "name": "InvalidInitialization",
      "type": "error"
    },
    {
      "inputs": [],
      "name": "NotInitializing",
      "type": "error"
    },
    {
      "inputs": [
        {
          "internalType": "address",
          "name": "owner",
          "type": "address"
        }
      ],
      "name": "OwnableInvalidOwner",
      "type": "error"
    },
    {
      "inputs": [
        {
          "internalType": "address",
          "name": "account",
          "type": "address"
        }
      ],
      "name": "OwnableUnauthorizedAccount",
      "type": "error"
    },
    {
      "inputs": [],
      "name": "UUPSUnauthorizedCallContext",
      "type": "error"
    },
    {
      "inputs": [
        {
          "internalType": "bytes32",
          "name": "slot",
          "type": "bytes32"
        }
      ],
      "name": "UUPSUnsupportedProxiableUUID",
      "type": "error"
    },
    {
      "anonymous": false,
      "inputs": [
        {
          "indexed": true,
          "internalType": "uint256",
          "name": "gameId",
          "type": "uint256"
        },
        {
          "indexed": false,
          "internalType": "address",
          "name": "player1",
          "type": "address"
        },
        {
          "indexed": false,
          "internalType": "uint256",
          "name": "player1BoardCommitment",
          "type": "uint256"
        },
        {
          "indexed": false,
          "internalType": "uint256",
          "name": "player1MerkleRoot",
          "type": "uint256"
        }
      ],
      "name": "GameCreated",
      "type": "event"
    },
    {
      "anonymous": false,
      "inputs": [
        {
          "indexed": true,
          "internalType": "uint256",
          "name": "gameId",
          "type": "uint256"
        },
        {
          "indexed": false,
          "internalType": "address",
          "name": "winner",
          "type": "address"
        }
      ],
      "name": "GameEnded",
      "type": "event"
    },
    {
      "anonymous": false,
      "inputs": [
        {
          "indexed": true,
          "internalType": "uint256",
          "name": "gameId",
          "type": "uint256"
        },
        {
          "indexed": false,
          "internalType": "address",
          "name": "player2",
          "type": "address"
        }
      ],
      "name": "GameJoined",
      "type": "event"
    },
    {
      "anonymous": false,
      "inputs": [
        {
          "indexed": true,
          "internalType": "uint256",
          "name": "gameId",
          "type": "uint256"
        }
      ],
      "name": "GameStarted",
      "type": "event"
    },
    {
      "anonymous": false,
      "inputs": [
        {
          "indexed": false,
          "internalType": "uint64",
          "name": "version",
          "type": "uint64"
        }
      ],
      "name": "Initialized",
      "type": "event"
    },
    {
      "anonymous": false,
      "inputs": [
        {
          "indexed": false,
          "internalType": "uint256",
          "name": "indexedgameId",
          "type": "uint256"
        },
        {
          "indexed": false,
          "internalType": "address",
          "name": "player",
          "type": "address"
        }
      ],
      "name": "MoveMade",
      "type": "event"
    },
    {
      "anonymous": false,
      "inputs": [
        {
          "indexed": true,
          "internalType": "address",
          "name": "previousOwner",
          "type": "address"
        },
        {
          "indexed": true,
          "internalType": "address",
          "name": "newOwner",
          "type": "address"
        }
      ],
      "name": "OwnershipTransferred",
      "type": "event"
    },
    {
      "anonymous": false,
      "inputs": [
        {
          "indexed": true,
          "internalType": "address",
          "name": "implementation",
          "type": "address"
        }
      ],
      "name": "Upgraded",
      "type": "event"
    },
    {
      "inputs": [
        {
          "internalType": "address",
          "name": "player2",
          "type": "address"
        },
        {
          "components": [
            {
              "internalType": "uint256[2]",
              "name": "pA",
              "type": "uint256[2]"
            },
            {
              "internalType": "uint256[2][2]",
              "name": "pB",
              "type": "uint256[2][2]"
            },
            {
              "internalType": "uint256[2]",
              "name": "pC",
              "type": "uint256[2]"
            },
            {
              "internalType": "uint256[2]",
              "name": "pubSignals",
              "type": "uint256[2]"
            }
          ],
          "internalType": "struct BattleshipWaku.ShipPlacementProof",
          "name": "shipPlacementProofPlayer2",
          "type": "tuple"
        },
        {
          "internalType": "uint256",
          "name": "gameId",
          "type": "uint256"
        }
      ],
      "name": "JoinGame",
      "outputs": [],
      "stateMutability": "nonpayable",
      "type": "function"
    },
    {
      "inputs": [],
      "name": "UPGRADE_INTERFACE_VERSION",
      "outputs": [
        {
          "internalType": "string",
          "name": "",
          "type": "string"
        }
      ],
      "stateMutability": "view",
      "type": "function"
    },
    {
      "inputs": [
        {
          "internalType": "address",
          "name": "player1",
          "type": "address"
        },
        {
          "components": [
            {
              "internalType": "uint256[2]",
              "name": "pA",
              "type": "uint256[2]"
            },
            {
              "internalType": "uint256[2][2]",
              "name": "pB",
              "type": "uint256[2][2]"
            },
            {
              "internalType": "uint256[2]",
              "name": "pC",
              "type": "uint256[2]"
            },
            {
              "internalType": "uint256[2]",
              "name": "pubSignals",
              "type": "uint256[2]"
            }
          ],
          "internalType": "struct BattleshipWaku.ShipPlacementProof",
          "name": "shipPlacementProofPlayer1",
          "type": "tuple"
        },
        {
          "internalType": "uint256",
          "name": "gameId",
          "type": "uint256"
        }
      ],
      "name": "createGame",
      "outputs": [],
      "stateMutability": "nonpayable",
      "type": "function"
    },
    {
      "inputs": [
        {
          "internalType": "uint256",
          "name": "",
          "type": "uint256"
        }
      ],
      "name": "games",
      "outputs": [
        {
          "internalType": "uint256",
          "name": "gameId",
          "type": "uint256"
        },
        {
          "internalType": "address",
          "name": "player1",
          "type": "address"
        },
        {
          "internalType": "address",
          "name": "player2",
          "type": "address"
        },
        {
          "internalType": "bool",
          "name": "isActive",
          "type": "bool"
        },
        {
          "internalType": "address",
          "name": "playerTurn",
          "type": "address"
        },
        {
          "internalType": "bytes32",
          "name": "player1_board_commitment",
          "type": "bytes32"
        },
        {
          "internalType": "bytes32",
          "name": "player1_merkle_root",
          "type": "bytes32"
        },
        {
          "internalType": "bytes32",
          "name": "player2_board_commitment",
          "type": "bytes32"
        },
        {
          "internalType": "bytes32",
          "name": "player2_merkle_root",
          "type": "bytes32"
        },
        {
          "components": [
            {
              "internalType": "uint256[2]",
              "name": "pA",
              "type": "uint256[2]"
            },
            {
              "internalType": "uint256[2][2]",
              "name": "pB",
              "type": "uint256[2][2]"
            },
            {
              "internalType": "uint256[2]",
              "name": "pC",
              "type": "uint256[2]"
            },
            {
              "internalType": "uint256[2]",
              "name": "pubSignals",
              "type": "uint256[2]"
            }
          ],
          "internalType": "struct BattleshipWaku.ShipPlacementProof",
          "name": "player1ShipPlacementProof",
          "type": "tuple"
        },
        {
          "components": [
            {
              "internalType": "uint256[2]",
              "name": "pA",
              "type": "uint256[2]"
            },
            {
              "internalType": "uint256[2][2]",
              "name": "pB",
              "type": "uint256[2][2]"
            },
            {
              "internalType": "uint256[2]",
              "name": "pC",
              "type": "uint256[2]"
            },
            {
              "internalType": "uint256[2]",
              "name": "pubSignals",
              "type": "uint256[2]"
            }
          ],
          "internalType": "struct BattleshipWaku.ShipPlacementProof",
          "name": "player2ShipPlacementProof",
          "type": "tuple"
        }
      ],
      "stateMutability": "view",
      "type": "function"
    },
    {
      "inputs": [
        {
          "internalType": "uint256",
          "name": "gameId",
          "type": "uint256"
        }
      ],
      "name": "getGame",
      "outputs": [
        {
          "components": [
            {
              "internalType": "uint256",
              "name": "gameId",
              "type": "uint256"
            },
            {
              "internalType": "address",
              "name": "player1",
              "type": "address"
            },
            {
              "internalType": "address",
              "name": "player2",
              "type": "address"
            },
            {
              "internalType": "bool",
              "name": "isActive",
              "type": "bool"
            },
            {
              "internalType": "address",
              "name": "playerTurn",
              "type": "address"
            },
            {
              "internalType": "bytes32",
              "name": "player1_board_commitment",
              "type": "bytes32"
            },
            {
              "internalType": "bytes32",
              "name": "player1_merkle_root",
              "type": "bytes32"
            },
            {
              "internalType": "bytes32",
              "name": "player2_board_commitment",
              "type": "bytes32"
            },
            {
              "internalType": "bytes32",
              "name": "player2_merkle_root",
              "type": "bytes32"
            },
            {
              "components": [
                {
                  "internalType": "uint256[2]",
                  "name": "pA",
                  "type": "uint256[2]"
                },
                {
                  "internalType": "uint256[2][2]",
                  "name": "pB",
                  "type": "uint256[2][2]"
                },
                {
                  "internalType": "uint256[2]",
                  "name": "pC",
                  "type": "uint256[2]"
                },
                {
                  "internalType": "uint256[2]",
                  "name": "pubSignals",
                  "type": "uint256[2]"
                }
              ],
              "internalType": "struct BattleshipWaku.ShipPlacementProof",
              "name": "player1ShipPlacementProof",
              "type": "tuple"
            },
            {
              "components": [
                {
                  "internalType": "uint256[2]",
                  "name": "pA",
                  "type": "uint256[2]"
                },
                {
                  "internalType": "uint256[2][2]",
                  "name": "pB",
                  "type": "uint256[2][2]"
                },
                {
                  "internalType": "uint256[2]",
                  "name": "pC",
                  "type": "uint256[2]"
                },
                {
                  "internalType": "uint256[2]",
                  "name": "pubSignals",
                  "type": "uint256[2]"
                }
              ],
              "internalType": "struct BattleshipWaku.ShipPlacementProof",
              "name": "player2ShipPlacementProof",
              "type": "tuple"
            }
          ],
          "internalType": "struct BattleshipWaku.GameView",
          "name": "gameData",
          "type": "tuple"
        },
        {
          "internalType": "uint8",
          "name": "player1Hits",
          "type": "uint8"
        },
        {
          "internalType": "uint8",
          "name": "player2Hits",
          "type": "uint8"
        }
      ],
      "stateMutability": "view",
      "type": "function"
    },
    {
      "inputs": [
        {
          "internalType": "uint256",
          "name": "gameId",
          "type": "uint256"
        }
      ],
      "name": "getGamePlayers",
      "outputs": [
        {
          "internalType": "address",
          "name": "",
          "type": "address"
        },
        {
          "internalType": "address",
          "name": "",
          "type": "address"
        }
      ],
      "stateMutability": "view",
      "type": "function"
    },
    {
      "inputs": [
        {
          "internalType": "uint256",
          "name": "gameId",
          "type": "uint256"
        }
      ],
      "name": "getGameStatus",
      "outputs": [
        {
          "internalType": "bool",
          "name": "",
          "type": "bool"
        }
      ],
      "stateMutability": "view",
      "type": "function"
    },
    {
      "inputs": [
        {
          "internalType": "address",
          "name": "_shipPlacementVerifier",
          "type": "address"
        },
        {
          "internalType": "address",
          "name": "_moveVerifier",
          "type": "address"
        },
        {
          "internalType": "address",
          "name": "_winVerifier",
          "type": "address"
        }
      ],
      "name": "initialize",
      "outputs": [],
      "stateMutability": "nonpayable",
      "type": "function"
    },
    {
      "inputs": [
        {
          "internalType": "uint256",
          "name": "gameId",
          "type": "uint256"
        },
        {
          "components": [
            {
              "internalType": "uint256[2]",
              "name": "pA",
              "type": "uint256[2]"
            },
            {
              "internalType": "uint256[2][2]",
              "name": "pB",
              "type": "uint256[2][2]"
            },
            {
              "internalType": "uint256[2]",
              "name": "pC",
              "type": "uint256[2]"
            },
            {
              "internalType": "uint256[3]",
              "name": "pubSignals",
              "type": "uint256[3]"
            }
          ],
          "internalType": "struct BattleshipWaku.MoveProof",
          "name": "moveProof",
          "type": "tuple"
        }
      ],
      "name": "makeMove",
      "outputs": [
        {
          "internalType": "bool",
          "name": "",
          "type": "bool"
        }
      ],
      "stateMutability": "nonpayable",
      "type": "function"
    },
    {
      "inputs": [],
      "name": "moveVerifier",
      "outputs": [
        {
          "internalType": "contract IMoveVerifier",
          "name": "",
          "type": "address"
        }
      ],
      "stateMutability": "view",
      "type": "function"
    },
    {
      "inputs": [],
      "name": "owner",
      "outputs": [
        {
          "internalType": "address",
          "name": "",
          "type": "address"
        }
      ],
      "stateMutability": "view",
      "type": "function"
    },
    {
      "inputs": [],
      "name": "proxiableUUID",
      "outputs": [
        {
          "internalType": "bytes32",
          "name": "",
          "type": "bytes32"
        }
      ],
      "stateMutability": "view",
      "type": "function"
    },
    {
      "inputs": [],
      "name": "renounceOwnership",
      "outputs": [],
      "stateMutability": "nonpayable",
      "type": "function"
    },
    {
      "inputs": [],
      "name": "shipPlacementVerifier",
      "outputs": [
        {
          "internalType": "contract IShipPlacementVerifier",
          "name": "",
          "type": "address"
        }
      ],
      "stateMutability": "view",
      "type": "function"
    },
    {
      "inputs": [
        {
          "internalType": "address",
          "name": "newOwner",
          "type": "address"
        }
      ],
      "name": "transferOwnership",
      "outputs": [],
      "stateMutability": "nonpayable",
      "type": "function"
    },
    {
      "inputs": [
        {
          "internalType": "address",
          "name": "newImplementation",
          "type": "address"
        },
        {
          "internalType": "bytes",
          "name": "data",
          "type": "bytes"
        }
      ],
      "name": "upgradeToAndCall",
      "outputs": [],
      "stateMutability": "payable",
      "type": "function"
    },
    {
      "inputs": [
        {
          "internalType": "uint256",
          "name": "gameId",
          "type": "uint256"
        },
        {
          "components": [
            {
              "internalType": "uint256[2]",
              "name": "pA",
              "type": "uint256[2]"
            },
            {
              "internalType": "uint256[2][2]",
              "name": "pB",
              "type": "uint256[2][2]"
            },
            {
              "internalType": "uint256[2]",
              "name": "pC",
              "type": "uint256[2]"
            },
            {
              "internalType": "uint256[3]",
              "name": "pubSignals",
              "type": "uint256[3]"
            }
          ],
          "internalType": "struct BattleshipWaku.WinProof",
          "name": "winProof",
          "type": "tuple"
        }
      ],
      "name": "winVerification",
      "outputs": [
        {
          "internalType": "bool",
          "name": "",
          "type": "bool"
        }
      ],
      "stateMutability": "nonpayable",
      "type": "function"
    },
    {
      "inputs": [],
      "name": "winVerifier",
      "outputs": [
        {
          "internalType": "contract IWinVerifier",
          "name": "",
          "type": "address"
        }
      ],
      "stateMutability": "view",
      "type": "function"
    }
  ],
  "bytecode": "0x60a0604052306080523480156200001557600080fd5b506200002062000026565b620000da565b7ff0c57e16840df040f15088dc2f81fe391c3923bec73e23a9662efc9c229c6a00805468010000000000000000900460ff1615620000775760405163f92ee8a960e01b815260040160405180910390fd5b80546001600160401b0390811614620000d75780546001600160401b0319166001600160401b0390811782556040519081527fc7f505b2f371ae2175ee4913f4499e1f2633a7b5936321eed1cdaeb6115181d29060200160405180910390a15b50565b6080516124d6620001046000396000818161164c0152818161167501526117bb01526124d66000f3fe6080604052600436106101085760003560e01c8063715018a611610095578063ad3cb1cc11610064578063ad3cb1cc14610369578063c0c53b8b146103a7578063c5396844146103c7578063d173bf9c146103e7578063f2fde38b1461040757600080fd5b8063715018a6146102c85780638d2d99ee146102dd5780638da5cb5b146102fd578063a2f77bcc1461033a57600080fd5b806319635b0a116100dc57806319635b0a1461021857806329b3e3b61461023a578063489d22201461025a5780634f1ef2861461029257806352d1902d146102a557600080fd5b806256faa21461010d5780630f1bf45414610142578063117a5b901461017c57806315a40f49146101b3575b600080fd5b34801561011957600080fd5b5061012d610128366004611ea2565b610427565b60405190151581526020015b60405180910390f35b34801561014e57600080fd5b5061012d61015d366004611ed0565b600090815260036020526040902060020154600160a01b900460ff1690565b34801561018857600080fd5b5061019c610197366004611ed0565b61069c565b6040516101399b9a99989796959493929190611f7a565b3480156101bf57600080fd5b506101f86101ce366004611ed0565b600090815260036020526040902060018101546002909101546001600160a01b0391821692911690565b604080516001600160a01b03938416815292909116602083015201610139565b34801561022457600080fd5b5061023861023336600461200e565b610931565b005b34801561024657600080fd5b5061012d610255366004611ea2565b610c99565b34801561026657600080fd5b5060005461027a906001600160a01b031681565b6040516001600160a01b039091168152602001610139565b6102386102a0366004612059565b610ed0565b3480156102b157600080fd5b506102ba610eef565b604051908152602001610139565b3480156102d457600080fd5b50610238610f0c565b3480156102e957600080fd5b5060025461027a906001600160a01b031681565b34801561030957600080fd5b507f9016d09d72d40fdae2fd8ceac6b6234c7706214fd39c1cd1e609a0528c199300546001600160a01b031661027a565b34801561034657600080fd5b5061035a610355366004611ed0565b610f20565b604051610139939291906120ff565b34801561037557600080fd5b5061039a604051806040016040528060058152602001640352e302e360dc1b81525081565b6040516101399190612202565b3480156103b357600080fd5b506102386103c2366004612235565b611239565b3480156103d357600080fd5b506102386103e236600461200e565b611390565b3480156103f357600080fd5b5060015461027a906001600160a01b031681565b34801561041357600080fd5b50610238610422366004612278565b611603565b60008281526003602052604081206002810154600160a01b900460ff1661048a5760405162461bcd60e51b815260206004820152601260248201527147616d65206973206e6f742061637469766560701b60448201526064015b60405180910390fd5b60038101546001600160a01b031633146104d65760405162461bcd60e51b815260206004820152600d60248201526c2737ba103cb7bab9103a3ab93760991b6044820152606401610481565b60015483516020850151604080870151606088015191516308a3cff560e11b81526000956001600160a01b0316946311479fea9461051d9491939092909190600401612293565b602060405180830381865afa15801561053a573d6000803e3d6000fd5b505050506040513d601f19601f8201168201806040525081019061055e9190612317565b9050806105a55760405162461bcd60e51b8152602060048201526015602482015274135bdd99481c1c9bdbd9881a5cc81a5b9d985b1a59605a1b6044820152606401610481565b6060840151604001516001036105fc5760038201546001600160a01b031660009081526008830160205260408120805460ff16916105e283612339565b91906101000a81548160ff021916908360ff160217905550505b600182015460038301546001600160a01b0390811691161461062b5760018201546001600160a01b031661063a565b60028201546001600160a01b03165b6003830180546001600160a01b0319166001600160a01b0392909216919091179055604080518681523360208201527f5008547a534c07bdb1a5f781fbfc38d92af4d50429ccb847bcae5e7eb4915c2d910160405180910390a1949350505050565b600360208190526000918252604091829020805460018201546002808401549484015460048501546005860154600687015460078801548a5160c081019b8c9052979a6001600160a01b039788169a8881169a600160a01b90910460ff16999890961697949693959294919360098401918391608083019184919082845b81548152602001906001019080831161071a575050505050815260200160028201600280602002604051908101604052809291906000905b8282101561079857604080518082019182905290600284810287019182845b81548152602001906001019080831161077157505050505081526020019060010190610752565b50505090825250604080518082019182905260209092019190600684019060029082845b8154815260200190600101908083116107bc575050509183525050604080518082019182905260209092019190600884019060029082845b8154815260200190600101908083116107f4575050509190925250506040805160c0810190915291929190506013820181608081018260028282826020028201915b815481526020019060010190808311610836575050505050815260200160028201600280602002604051908101604052809291906000905b828210156108b457604080518082019182905290600284810287019182845b81548152602001906001019080831161088d5750505050508152602001906001019061086e565b50505090825250604080518082019182905260209092019190600684019060029082845b8154815260200190600101908083116108d8575050509183525050604080518082019182905260209092019190600884019060029082845b8154815260200190600101908083116109105750505050508152505090508b565b6001600160a01b0383166109825760405162461bcd60e51b8152602060048201526018602482015277496e76616c696420706c617965722061646472657373657360401b6044820152606401610481565b600081815260036020526040902060020154600160a01b900460ff16156109e15760405162461bcd60e51b815260206004820152601360248201527247616d6520616c72656164792065786973747360681b6044820152606401610481565b6000805460408051637ae4eb4f60e11b81526001600160a01b039092169163f5c9d69e91610a2191879182019060c0830190610100840190600401612366565b602060405180830381865afa158015610a3e573d6000803e3d6000fd5b505050506040513d601f19601f82011682018060405250810190610a629190612317565b905080610ac25760405162461bcd60e51b815260206004820152602860248201527f506c617965722031207368697020706c6163656d656e742070726f6f66206973604482015267081a5b9d985b1a5960c21b6064820152608401610481565b600082815260036020819052604082208481556001810180546001600160a01b0389166001600160a01b031991821681179092556002830180546001600160a81b0319169055928201805490931617909155610100850135600482015561012085013560058201556006810182905560078101919091558360098201610b4882826123d2565b50506040805160c0810182526000608080830182815260a0840183905283528351908101845280840182815260608083018490529082528451808601865283815260208181018590528381019190915280850192909252845180860186528381528083018490528486015284518086019095528285529084019190915281019190915280516013830190610bdf9082906002611b07565b506020820151610bf59060028084019190611b45565b506040820151610c0b9060068301906002611b07565b506060820151610c219060088301906002611b07565b5050506001600160a01b0385166000818152600883016020908152604091829020805460ff191690558151928352610100870135908301526101208601359082015283907f7ed9b48d83e08a25a1572b27a365dfb386da7860c996e684e541e3433b7921479060600160405180910390a25050505050565b60008281526003602052604081206002810154600160a01b900460ff16610cf75760405162461bcd60e51b815260206004820152601260248201527147616d65206973206e6f742061637469766560701b6044820152606401610481565b60018101546001600160a01b0316600090815260088201602052604081205460ff16600c03610d34575060018101546001600160a01b0316610dac565b60028201546001600160a01b0316600090815260088301602052604090205460ff16600c03610d71575060028101546001600160a01b0316610dac565b60405162461bcd60e51b815260206004820152601060248201526f23b0b6b29034b9903737ba1037bb32b960811b6044820152606401610481565b60025484516020860151604080880151606089015191516308a3cff560e11b81526000956001600160a01b0316946311479fea94610df39491939092909190600401612293565b602060405180830381865afa158015610e10573d6000803e3d6000fd5b505050506040513d601f19601f82011682018060405250810190610e349190612317565b905080610e7a5760405162461bcd60e51b815260206004820152601460248201527315da5b881c1c9bdbd9881a5cc81a5b9d985b1a5960621b6044820152606401610481565b60028301805460ff60a01b191690556040516001600160a01b038316815286907f3d5fcd8fa3235aeb3897f25c8ea49989174981afcb01b9d03189d1056a16775b9060200160405180910390a295945050505050565b610ed8611641565b610ee1826116e6565b610eeb82826116ee565b5050565b6000610ef96117b0565b5060008051602061248183398151915290565b610f146117f9565b610f1e6000611854565b565b610f28611b8c565b60008281526003602081815260408084208151610160810183528154815260018201546001600160a01b039081169482019490945260028083015480861683860152600160a01b900460ff161515606083015294820154909316608080850191909152600482015460a0850152600582015460c080860191909152600683015460e0860152600783015461010086015283519081019384905286959294936101208501939192600987019284929183019184919082845b815481526020019060010190808311610fdf575050505050815260200160028201600280602002604051908101604052809291906000905b8282101561105d57604080518082019182905290600284810287019182845b81548152602001906001019080831161103657505050505081526020019060010190611017565b50505090825250604080518082019182905260209092019190600684019060029082845b815481526020019060010190808311611081575050509183525050604080518082019182905260209092019190600884019060029082845b8154815260200190600101908083116110b9575050509190925250505081526040805160c081019091526020909101906013840181608081018260028282826020028201915b8154815260200190600101908083116110ff575050505050815260200160028201600280602002604051908101604052809291906000905b8282101561117d57604080518082019182905290600284810287019182845b81548152602001906001019080831161115657505050505081526020019060010190611137565b50505090825250604080518082019182905260209092019190600684019060029082845b8154815260200190600101908083116111a1575050509183525050604080518082019182905260209092019190600884019060029082845b8154815260200190600101908083116111d95750505091909252505050905260018201546001600160a01b0390811660009081526008840160205260408082205460029095015490921681522054909660ff928316965091169350915050565b7ff0c57e16840df040f15088dc2f81fe391c3923bec73e23a9662efc9c229c6a008054600160401b810460ff16159067ffffffffffffffff1660008115801561127f5750825b905060008267ffffffffffffffff16600114801561129c5750303b155b9050811580156112aa575080155b156112c85760405163f92ee8a960e01b815260040160405180910390fd5b845467ffffffffffffffff1916600117855583156112f257845460ff60401b1916600160401b1785555b6112fb336118c5565b6113036118d6565b600080546001600160a01b03808b166001600160a01b031992831617909255600180548a84169083161790556002805492891692909116919091179055831561138657845460ff60401b19168555604051600181527fc7f505b2f371ae2175ee4913f4499e1f2633a7b5936321eed1cdaeb6115181d29060200160405180910390a15b5050505050505050565b6001600160a01b0383166113e15760405162461bcd60e51b8152602060048201526018602482015277496e76616c696420706c617965722061646472657373657360401b6044820152606401610481565b6000818152600360205260409020600201546001600160a01b0316156114405760405162461bcd60e51b815260206004820152601460248201527311d85b5948185b1c9958591e481cdd185c9d195960621b6044820152606401610481565b6000805460408051637ae4eb4f60e11b81526001600160a01b039092169163f5c9d69e9161148091879182019060c0830190610100840190600401612366565b602060405180830381865afa15801561149d573d6000803e3d6000fd5b505050506040513d601f19601f820116820180604052508101906114c19190612317565b9050806115215760405162461bcd60e51b815260206004820152602860248201527f506c617965722032207368697020706c6163656d656e742070726f6f66206973604482015267081a5b9d985b1a5960c21b6064820152608401610481565b60008281526003602052604090206002810180546001600160a81b0319166001600160a01b03871617600160a01b17905561010084013560068201556101208401356007820155836013820161157782826123d2565b50506001600160a01b0385166000818152600883016020908152604091829020805460ff19169055905191825284917f45c4f9cbafe186141862608c493f28b823fde4c2142bedc3f5169961a73fdd22910160405180910390a260405183907f50ad08f58a27f2851d7e3a1b3a6a46b290f2ce677e99642d30ff639721e7779090600090a25050505050565b61160b6117f9565b6001600160a01b03811661163557604051631e4fbdf760e01b815260006004820152602401610481565b61163e81611854565b50565b306001600160a01b037f00000000000000000000000000000000000000000000000000000000000000001614806116c857507f00000000000000000000000000000000000000000000000000000000000000006001600160a01b03166116bc600080516020612481833981519152546001600160a01b031690565b6001600160a01b031614155b15610f1e5760405163703e46dd60e11b815260040160405180910390fd5b61163e6117f9565b816001600160a01b03166352d1902d6040518163ffffffff1660e01b8152600401602060405180830381865afa925050508015611748575060408051601f3d908101601f191682019092526117459181019061244b565b60015b61177057604051634c9c8ce360e01b81526001600160a01b0383166004820152602401610481565b60008051602061248183398151915281146117a157604051632a87526960e21b815260048101829052602401610481565b6117ab83836118de565b505050565b306001600160a01b037f00000000000000000000000000000000000000000000000000000000000000001614610f1e5760405163703e46dd60e11b815260040160405180910390fd5b3361182b7f9016d09d72d40fdae2fd8ceac6b6234c7706214fd39c1cd1e609a0528c199300546001600160a01b031690565b6001600160a01b031614610f1e5760405163118cdaa760e01b8152336004820152602401610481565b7f9016d09d72d40fdae2fd8ceac6b6234c7706214fd39c1cd1e609a0528c19930080546001600160a01b031981166001600160a01b03848116918217845560405192169182907f8be0079c531659141344cd1fd0a4f28419497f9722a3daafe3b4186f6b6457e090600090a3505050565b6118cd611934565b61163e8161197d565b610f1e611934565b6118e782611985565b6040516001600160a01b038316907fbc7cd75a20ee27fd9adebab32041f755214dbc6bffa90cc0225b39da2e5c2d3b90600090a280511561192c576117ab82826119ea565b610eeb611a60565b7ff0c57e16840df040f15088dc2f81fe391c3923bec73e23a9662efc9c229c6a0054600160401b900460ff16610f1e57604051631afcd79f60e31b815260040160405180910390fd5b61160b611934565b806001600160a01b03163b6000036119bb57604051634c9c8ce360e01b81526001600160a01b0382166004820152602401610481565b60008051602061248183398151915280546001600160a01b0319166001600160a01b0392909216919091179055565b6060600080846001600160a01b031684604051611a079190612464565b600060405180830381855af49150503d8060008114611a42576040519150601f19603f3d011682016040523d82523d6000602084013e611a47565b606091505b5091509150611a57858383611a7f565b95945050505050565b3415610f1e5760405163b398979f60e01b815260040160405180910390fd5b606082611a9457611a8f82611ade565b611ad7565b8151158015611aab57506001600160a01b0384163b155b15611ad457604051639996b31560e01b81526001600160a01b0385166004820152602401610481565b50805b9392505050565b805115611aee5780518082602001fd5b60405163d6bda27560e01b815260040160405180910390fd5b8260028101928215611b35579160200282015b82811115611b35578251825591602001919060010190611b1a565b50611b41929150611bf4565b5090565b600483019183908215611b80579160200282015b82811115611b80578251611b709083906002611b07565b5091602001919060020190611b59565b50611b41929150611c09565b6040805161016081018252600080825260208201819052918101829052606081018290526080810182905260a0810182905260c0810182905260e081018290526101008101919091526101208101611be2611c23565b8152602001611bef611c23565b905290565b5b80821115611b415760008155600101611bf5565b80821115611b415760008082556001820155600201611c09565b6040518060800160405280611c36611c59565b8152602001611c43611c77565b8152602001611c50611c59565b8152602001611bef5b60405180604001604052806002906020820280368337509192915050565b60405180604001604052806002905b611c8e611c59565b815260200190600190039081611c865790505090565b634e487b7160e01b600052604160045260246000fd5b6040516080810167ffffffffffffffff81118282101715611cdd57611cdd611ca4565b60405290565b6040805190810167ffffffffffffffff81118282101715611cdd57611cdd611ca4565b604051601f8201601f1916810167ffffffffffffffff81118282101715611d2f57611d2f611ca4565b604052919050565b600082601f830112611d4857600080fd5b611d50611ce3565b806040840185811115611d6257600080fd5b845b81811015611d7c578035845260209384019301611d64565b509095945050505050565b600082601f830112611d9857600080fd5b6040516060810181811067ffffffffffffffff82111715611dbb57611dbb611ca4565b604052806060840185811115611dd057600080fd5b845b81811015611dea578035835260209283019201611dd2565b509195945050505050565b60006101608284031215611e0857600080fd5b611e10611cba565b9050611e1c8383611d37565b8152604083605f840112611e2f57600080fd5b611e37611ce3565b8060c0850186811115611e4957600080fd5b604086015b81811015611e6f57611e608882611d37565b84526020909301928401611e4e565b50816020860152611e808782611d37565b604086015250505050611e97836101008401611d87565b606082015292915050565b6000806101808385031215611eb657600080fd5b82359150611ec78460208501611df5565b90509250929050565b600060208284031215611ee257600080fd5b5035919050565b8060005b6002811015611f0c578151845260209384019390910190600101611eed565b50505050565b611f1d828251611ee9565b602080820151604080850160005b6002811015611f4f57611f3f828551611ee9565b9284019290820190600101611f2b565b50505050506040810151611f6660c0840182611ee9565b5060608101516117ab610100840182611ee9565b8b81526001600160a01b038b811660208301528a8116604083015289151560608301528816608082015260a0810187905260c0810186905260e0810185905261010081018490526103a08101611fd4610120830185611f12565b611fe2610260830184611f12565b9c9b505050505050505050505050565b80356001600160a01b038116811461200957600080fd5b919050565b600080600083850361018081121561202557600080fd5b61202e85611ff2565b9350610140601f198201121561204357600080fd5b5060208401915061016084013590509250925092565b6000806040838503121561206c57600080fd5b61207583611ff2565b915060208084013567ffffffffffffffff8082111561209357600080fd5b818601915086601f8301126120a757600080fd5b8135818111156120b9576120b9611ca4565b6120cb601f8201601f19168501611d06565b915080825287848285010111156120e157600080fd5b80848401858401376000848284010152508093505050509250929050565b835181526020808501516103e0830191612123908401826001600160a01b03169052565b50604085015161213e60408401826001600160a01b03169052565b506060850151612152606084018215159052565b50608085015161216d60808401826001600160a01b03169052565b5060a085015160a083015260c085015160c083015260e085015160e0830152610100808601518184015250610120808601516121ab82850182611f12565b50506101408501516121c1610260840182611f12565b5060ff84166103a083015260ff83166103c0830152949350505050565b60005b838110156121f95781810151838201526020016121e1565b50506000910152565b60208152600082518060208401526122218160408501602087016121de565b601f01601f19169190910160400192915050565b60008060006060848603121561224a57600080fd5b61225384611ff2565b925061226160208501611ff2565b915061226f60408501611ff2565b90509250925092565b60006020828403121561228a57600080fd5b611ad782611ff2565b61016081016122a28287611ee9565b60408083018660005b60028110156122d2576122bf838351611ee9565b91830191602091909101906001016122ab565b505050506122e360c0830185611ee9565b61010082018360005b600381101561230b5781518352602092830192909101906001016122ec565b50505095945050505050565b60006020828403121561232957600080fd5b81518015158114611ad757600080fd5b600060ff821660ff810361235d57634e487b7160e01b600052601160045260246000fd5b60010192915050565b61014081016040808784378083018660005b600281101561239557838284379183019190830190600101612378565b505050808560c085013780846101008501375095945050505050565b8160005b6002811015611f0c578135838201556020909101906001016123b5565b8160005b60028110156123f3578135838201556020909101906001016123d6565b5050600260408084016002840160005b848110156124255761241583836123b1565b9183019190840190600101612403565b505050505061243a60c08301600683016123b1565b610eeb6101008301600883016123b1565b60006020828403121561245d57600080fd5b5051919050565b600082516124768184602087016121de565b919091019291505056fe360894a13ba1a3210667c828492db98dca3e2076cc3735a920a3ca505d382bbca26469706673582212204b8a6d399e101a5c3c994f2a80ff1de6a412970fb71a6de296c5da7c82849ec464736f6c63430008160033",
  "linkReferences": {},
  "deployedLinkReferences": {}
}