{
  "_format": "hh-sol-artifact-1",
  "contractName": "BattleshipWaku",
  "sourceName": "contracts/BattleshipWaku.sol",
  "abi": [
    {
      "inputs": [
        {
          "internalType": "address",
          "name": "_shipPlacementVerifier",
          "type": "address"
        },
        {
          "internalType": "address",
          "name": "_moveVerifier",
          "type": "address"
        },
        {
          "internalType": "address",
          "name": "_winVerifier",
          "type": "address"
        }
      ],
      "stateMutability": "nonpayable",
      "type": "constructor"
    },
    {
      "inputs": [
        {
          "internalType": "address",
          "name": "owner",
          "type": "address"
        }
      ],
      "name": "OwnableInvalidOwner",
      "type": "error"
    },
    {
      "inputs": [
        {
          "internalType": "address",
          "name": "account",
          "type": "address"
        }
      ],
      "name": "OwnableUnauthorizedAccount",
      "type": "error"
    },
    {
      "anonymous": false,
      "inputs": [
        {
          "indexed": true,
          "internalType": "uint256",
          "name": "gameId",
          "type": "uint256"
        },
        {
          "indexed": false,
          "internalType": "address",
          "name": "player1",
          "type": "address"
        },
        {
          "indexed": false,
          "internalType": "address",
          "name": "player2",
          "type": "address"
        },
        {
          "indexed": false,
          "internalType": "uint256",
          "name": "player1BoardCommitment",
          "type": "uint256"
        },
        {
          "indexed": false,
          "internalType": "uint256",
          "name": "player1MerkleRoot",
          "type": "uint256"
        },
        {
          "indexed": false,
          "internalType": "uint256",
          "name": "player2BoardCommitment",
          "type": "uint256"
        },
        {
          "indexed": false,
          "internalType": "uint256",
          "name": "player2MerkleRoot",
          "type": "uint256"
        }
      ],
      "name": "GameCreated",
      "type": "event"
    },
    {
      "anonymous": false,
      "inputs": [
        {
          "indexed": false,
          "internalType": "uint256",
          "name": "gameId",
          "type": "uint256"
        },
        {
          "indexed": false,
          "internalType": "address",
          "name": "player",
          "type": "address"
        }
      ],
      "name": "MoveMade",
      "type": "event"
    },
    {
      "anonymous": false,
      "inputs": [
        {
          "indexed": true,
          "internalType": "address",
          "name": "previousOwner",
          "type": "address"
        },
        {
          "indexed": true,
          "internalType": "address",
          "name": "newOwner",
          "type": "address"
        }
      ],
      "name": "OwnershipTransferred",
      "type": "event"
    },
    {
      "inputs": [
        {
          "internalType": "address",
          "name": "player1",
          "type": "address"
        },
        {
          "internalType": "address",
          "name": "player2",
          "type": "address"
        },
        {
          "components": [
            {
              "internalType": "uint256[2]",
              "name": "pA",
              "type": "uint256[2]"
            },
            {
              "internalType": "uint256[2][2]",
              "name": "pB",
              "type": "uint256[2][2]"
            },
            {
              "internalType": "uint256[2]",
              "name": "pC",
              "type": "uint256[2]"
            },
            {
              "internalType": "uint256[2]",
              "name": "pubSignals",
              "type": "uint256[2]"
            }
          ],
          "internalType": "struct BattleshipWaku.ShipPlacementProof",
          "name": "shipPlacementProofPlayer1",
          "type": "tuple"
        },
        {
          "components": [
            {
              "internalType": "uint256[2]",
              "name": "pA",
              "type": "uint256[2]"
            },
            {
              "internalType": "uint256[2][2]",
              "name": "pB",
              "type": "uint256[2][2]"
            },
            {
              "internalType": "uint256[2]",
              "name": "pC",
              "type": "uint256[2]"
            },
            {
              "internalType": "uint256[2]",
              "name": "pubSignals",
              "type": "uint256[2]"
            }
          ],
          "internalType": "struct BattleshipWaku.ShipPlacementProof",
          "name": "shipPlacementProofPlayer2",
          "type": "tuple"
        },
        {
          "internalType": "uint256",
          "name": "gameId",
          "type": "uint256"
        }
      ],
      "name": "createGame",
      "outputs": [],
      "stateMutability": "nonpayable",
      "type": "function"
    },
    {
      "inputs": [
        {
          "internalType": "uint256",
          "name": "",
          "type": "uint256"
        }
      ],
      "name": "games",
      "outputs": [
        {
          "internalType": "uint256",
          "name": "gameId",
          "type": "uint256"
        },
        {
          "internalType": "address",
          "name": "player1",
          "type": "address"
        },
        {
          "internalType": "address",
          "name": "player2",
          "type": "address"
        },
        {
          "internalType": "bool",
          "name": "isActive",
          "type": "bool"
        },
        {
          "internalType": "address",
          "name": "playerTurn",
          "type": "address"
        },
        {
          "internalType": "bytes32",
          "name": "player1_board_commitment",
          "type": "bytes32"
        },
        {
          "internalType": "bytes32",
          "name": "player1_merkle_root",
          "type": "bytes32"
        },
        {
          "internalType": "bytes32",
          "name": "player2_board_commitment",
          "type": "bytes32"
        },
        {
          "internalType": "bytes32",
          "name": "player2_merkle_root",
          "type": "bytes32"
        },
        {
          "components": [
            {
              "internalType": "uint256[2]",
              "name": "pA",
              "type": "uint256[2]"
            },
            {
              "internalType": "uint256[2][2]",
              "name": "pB",
              "type": "uint256[2][2]"
            },
            {
              "internalType": "uint256[2]",
              "name": "pC",
              "type": "uint256[2]"
            },
            {
              "internalType": "uint256[2]",
              "name": "pubSignals",
              "type": "uint256[2]"
            }
          ],
          "internalType": "struct BattleshipWaku.ShipPlacementProof",
          "name": "player1ShipPlacementProof",
          "type": "tuple"
        },
        {
          "components": [
            {
              "internalType": "uint256[2]",
              "name": "pA",
              "type": "uint256[2]"
            },
            {
              "internalType": "uint256[2][2]",
              "name": "pB",
              "type": "uint256[2][2]"
            },
            {
              "internalType": "uint256[2]",
              "name": "pC",
              "type": "uint256[2]"
            },
            {
              "internalType": "uint256[2]",
              "name": "pubSignals",
              "type": "uint256[2]"
            }
          ],
          "internalType": "struct BattleshipWaku.ShipPlacementProof",
          "name": "player2ShipPlacementProof",
          "type": "tuple"
        }
      ],
      "stateMutability": "view",
      "type": "function"
    },
    {
      "inputs": [
        {
          "internalType": "uint256",
          "name": "gameId",
          "type": "uint256"
        }
      ],
      "name": "getGame",
      "outputs": [
        {
          "components": [
            {
              "internalType": "uint256",
              "name": "gameId",
              "type": "uint256"
            },
            {
              "internalType": "address",
              "name": "player1",
              "type": "address"
            },
            {
              "internalType": "address",
              "name": "player2",
              "type": "address"
            },
            {
              "internalType": "bool",
              "name": "isActive",
              "type": "bool"
            },
            {
              "internalType": "address",
              "name": "playerTurn",
              "type": "address"
            },
            {
              "internalType": "bytes32",
              "name": "player1_board_commitment",
              "type": "bytes32"
            },
            {
              "internalType": "bytes32",
              "name": "player1_merkle_root",
              "type": "bytes32"
            },
            {
              "internalType": "bytes32",
              "name": "player2_board_commitment",
              "type": "bytes32"
            },
            {
              "internalType": "bytes32",
              "name": "player2_merkle_root",
              "type": "bytes32"
            },
            {
              "components": [
                {
                  "internalType": "uint256[2]",
                  "name": "pA",
                  "type": "uint256[2]"
                },
                {
                  "internalType": "uint256[2][2]",
                  "name": "pB",
                  "type": "uint256[2][2]"
                },
                {
                  "internalType": "uint256[2]",
                  "name": "pC",
                  "type": "uint256[2]"
                },
                {
                  "internalType": "uint256[2]",
                  "name": "pubSignals",
                  "type": "uint256[2]"
                }
              ],
              "internalType": "struct BattleshipWaku.ShipPlacementProof",
              "name": "player1ShipPlacementProof",
              "type": "tuple"
            },
            {
              "components": [
                {
                  "internalType": "uint256[2]",
                  "name": "pA",
                  "type": "uint256[2]"
                },
                {
                  "internalType": "uint256[2][2]",
                  "name": "pB",
                  "type": "uint256[2][2]"
                },
                {
                  "internalType": "uint256[2]",
                  "name": "pC",
                  "type": "uint256[2]"
                },
                {
                  "internalType": "uint256[2]",
                  "name": "pubSignals",
                  "type": "uint256[2]"
                }
              ],
              "internalType": "struct BattleshipWaku.ShipPlacementProof",
              "name": "player2ShipPlacementProof",
              "type": "tuple"
            }
          ],
          "internalType": "struct BattleshipWaku.Game",
          "name": "",
          "type": "tuple"
        }
      ],
      "stateMutability": "view",
      "type": "function"
    },
    {
      "inputs": [
        {
          "internalType": "uint256",
          "name": "gameId",
          "type": "uint256"
        }
      ],
      "name": "getGamePlayers",
      "outputs": [
        {
          "internalType": "address",
          "name": "",
          "type": "address"
        },
        {
          "internalType": "address",
          "name": "",
          "type": "address"
        }
      ],
      "stateMutability": "view",
      "type": "function"
    },
    {
      "inputs": [
        {
          "internalType": "uint256",
          "name": "gameId",
          "type": "uint256"
        }
      ],
      "name": "getGameStatus",
      "outputs": [
        {
          "internalType": "bool",
          "name": "",
          "type": "bool"
        }
      ],
      "stateMutability": "view",
      "type": "function"
    },
    {
      "inputs": [
        {
          "internalType": "uint256",
          "name": "gameId",
          "type": "uint256"
        },
        {
          "components": [
            {
              "internalType": "uint256[2]",
              "name": "pA",
              "type": "uint256[2]"
            },
            {
              "internalType": "uint256[2][2]",
              "name": "pB",
              "type": "uint256[2][2]"
            },
            {
              "internalType": "uint256[2]",
              "name": "pC",
              "type": "uint256[2]"
            },
            {
              "internalType": "uint256[3]",
              "name": "pubSignals",
              "type": "uint256[3]"
            }
          ],
          "internalType": "struct BattleshipWaku.MoveProof",
          "name": "moveProof",
          "type": "tuple"
        }
      ],
      "name": "makeMove",
      "outputs": [
        {
          "internalType": "bool",
          "name": "",
          "type": "bool"
        }
      ],
      "stateMutability": "view",
      "type": "function"
    },
    {
      "inputs": [],
      "name": "moveVerifier",
      "outputs": [
        {
          "internalType": "contract IMoveVerifier",
          "name": "",
          "type": "address"
        }
      ],
      "stateMutability": "view",
      "type": "function"
    },
    {
      "inputs": [],
      "name": "owner",
      "outputs": [
        {
          "internalType": "address",
          "name": "",
          "type": "address"
        }
      ],
      "stateMutability": "view",
      "type": "function"
    },
    {
      "inputs": [],
      "name": "renounceOwnership",
      "outputs": [],
      "stateMutability": "nonpayable",
      "type": "function"
    },
    {
      "inputs": [],
      "name": "shipPlacementVerifier",
      "outputs": [
        {
          "internalType": "contract IShipPlacementVerifier",
          "name": "",
          "type": "address"
        }
      ],
      "stateMutability": "view",
      "type": "function"
    },
    {
      "inputs": [
        {
          "internalType": "address",
          "name": "newOwner",
          "type": "address"
        }
      ],
      "name": "transferOwnership",
      "outputs": [],
      "stateMutability": "nonpayable",
      "type": "function"
    },
    {
      "inputs": [
        {
          "internalType": "uint256",
          "name": "gameId",
          "type": "uint256"
        },
        {
          "components": [
            {
              "internalType": "uint256[2]",
              "name": "pA",
              "type": "uint256[2]"
            },
            {
              "internalType": "uint256[2][2]",
              "name": "pB",
              "type": "uint256[2][2]"
            },
            {
              "internalType": "uint256[2]",
              "name": "pC",
              "type": "uint256[2]"
            },
            {
              "internalType": "uint256[3]",
              "name": "pubSignals",
              "type": "uint256[3]"
            }
          ],
          "internalType": "struct BattleshipWaku.WinProof",
          "name": "winProof",
          "type": "tuple"
        }
      ],
      "name": "winVerification",
      "outputs": [
        {
          "internalType": "bool",
          "name": "",
          "type": "bool"
        }
      ],
      "stateMutability": "view",
      "type": "function"
    },
    {
      "inputs": [],
      "name": "winVerifier",
      "outputs": [
        {
          "internalType": "contract IWinVerifier",
          "name": "",
          "type": "address"
        }
      ],
      "stateMutability": "view",
      "type": "function"
    }
  ],
  "bytecode": "0x60e06040523480156200001157600080fd5b5060405162001b6038038062001b608339810160408190526200003491620000f2565b33806200005b57604051631e4fbdf760e01b81526000600482015260240160405180910390fd5b620000668162000085565b506001600160a01b0392831660805290821660a0521660c0526200013c565b600080546001600160a01b038381166001600160a01b0319831681178455604051919092169283917f8be0079c531659141344cd1fd0a4f28419497f9722a3daafe3b4186f6b6457e09190a35050565b80516001600160a01b0381168114620000ed57600080fd5b919050565b6000806000606084860312156200010857600080fd5b6200011384620000d5565b92506200012360208501620000d5565b91506200013360408501620000d5565b90509250925092565b60805160a05160c0516119d8620001886000396000818161020d015261077801526000818161026501526103930152600081816101c401528181610c890152610d8d01526119d86000f3fe608060405234801561001057600080fd5b50600436106100ce5760003560e01c8063715018a61161008c578063a2f77bcc11610066578063a2f77bcc14610240578063d173bf9c14610260578063d6c2197414610287578063f2fde38b1461029a57600080fd5b8063715018a6146101fe5780638d2d99ee146102085780638da5cb5b1461022f57600080fd5b806256faa2146100d35780630f1bf454146100fb578063117a5b901461012857806315a40f491461015257806329b3e3b6146101ac578063489d2220146101bf575b600080fd5b6100e66100e1366004611584565b6102ad565b60405190151581526020015b60405180910390f35b6100e66101093660046115b2565b600090815260016020526040902060020154600160a01b900460ff1690565b61013b6101363660046115b2565b61045a565b6040516100f29b9a99989796959493929190611660565b61018c6101603660046115b2565b6000908152600160208190526040909120908101546002909101546001600160a01b0391821692911690565b604080516001600160a01b039384168152929091166020830152016100f2565b6100e66101ba366004611584565b6106f0565b6101e67f000000000000000000000000000000000000000000000000000000000000000081565b6040516001600160a01b0390911681526020016100f2565b610206610837565b005b6101e67f000000000000000000000000000000000000000000000000000000000000000081565b6000546001600160a01b03166101e6565b61025361024e3660046115b2565b61084b565b6040516100f291906116d8565b6101e67f000000000000000000000000000000000000000000000000000000000000000081565b610206610295366004611823565b610b2a565b6102066102a8366004611884565b61115b565b600082815260016020526040812060020154600160a01b900460ff1661030f5760405162461bcd60e51b815260206004820152601260248201527147616d65206973206e6f742061637469766560701b60448201526064015b60405180910390fd5b6000838152600160205260409020600301546001600160a01b031633146103685760405162461bcd60e51b815260206004820152600d60248201526c2737ba103cb7bab9103a3ab93760991b6044820152606401610306565b81516020830151604080850151606086015191516308a3cff560e11b81526000946001600160a01b037f000000000000000000000000000000000000000000000000000000000000000016946311479fea946103cb9492939192916004016118cd565b602060405180830381865afa1580156103e8573d6000803e3d6000fd5b505050506040513d601f19601f8201168201806040525081019061040c919061192a565b9050806104535760405162461bcd60e51b8152602060048201526015602482015274135bdd99481c1c9bdbd9881a5cc81a5b9d985b1a59605a1b6044820152606401610306565b9392505050565b600160208190526000918252604091829020805491810154600280830154600384015460048501546005860154600687015460078801548a5160c081019b8c9052999a6001600160a01b039889169a8988169a600160a01b90980460ff1699909616979496939592949193929160088401918391608083019184919082845b8154815260200190600101908083116104d9575050505050815260200160028201600280602002604051908101604052809291906000905b8282101561055757604080518082019182905290600284810287019182845b81548152602001906001019080831161053057505050505081526020019060010190610511565b50505090825250604080518082019182905260209092019190600684019060029082845b81548152602001906001019080831161057b575050509183525050604080518082019182905260209092019190600884019060029082845b8154815260200190600101908083116105b3575050509190925250506040805160c0810190915291929190506012820181608081018260028282826020028201915b8154815260200190600101908083116105f5575050505050815260200160028201600280602002604051908101604052809291906000905b8282101561067357604080518082019182905290600284810287019182845b81548152602001906001019080831161064c5750505050508152602001906001019061062d565b50505090825250604080518082019182905260209092019190600684019060029082845b815481526020019060010190808311610697575050509183525050604080518082019182905260209092019190600884019060029082845b8154815260200190600101908083116106cf5750505050508152505090508b565b600082815260016020526040812060020154600160a01b900460ff1661074d5760405162461bcd60e51b815260206004820152601260248201527147616d65206973206e6f742061637469766560701b6044820152606401610306565b81516020830151604080850151606086015191516308a3cff560e11b81526000946001600160a01b037f000000000000000000000000000000000000000000000000000000000000000016946311479fea946107b09492939192916004016118cd565b602060405180830381865afa1580156107cd573d6000803e3d6000fd5b505050506040513d601f19601f820116820180604052508101906107f1919061192a565b9050806104535760405162461bcd60e51b815260206004820152601460248201527315da5b881c1c9bdbd9881a5cc81a5b9d985b1a5960621b6044820152606401610306565b61083f611199565b61084960006111c6565b565b610853611216565b60008281526001602081815260409283902083516101608101855281548152928101546001600160a01b039081169284019290925260028082015480841685870152600160a01b900460ff16151560608501526003820154909216608080850191909152600482015460a0850152600582015460c080860191909152600683015460e08601526007830154610100860152855190810195869052939491936101208601939092600886019284929083019184919082845b81548152602001906001019080831161090a575050505050815260200160028201600280602002604051908101604052809291906000905b8282101561098857604080518082019182905290600284810287019182845b81548152602001906001019080831161096157505050505081526020019060010190610942565b50505090825250604080518082019182905260209092019190600684019060029082845b8154815260200190600101908083116109ac575050509183525050604080518082019182905260209092019190600884019060029082845b8154815260200190600101908083116109e4575050509190925250505081526040805160c081019091526020909101906012830181608081018260028282826020028201915b815481526020019060010190808311610a2a575050505050815260200160028201600280602002604051908101604052809291906000905b82821015610aa857604080518082019182905290600284810287019182845b815481526020019060010190808311610a8157505050505081526020019060010190610a62565b50505090825250604080518082019182905260209092019190600684019060029082845b815481526020019060010190808311610acc575050509183525050604080518082019182905260209092019190600884019060029082845b815481526020019060010190808311610b04575050509190925250505090525092915050565b610b32611199565b6001600160a01b03851615801590610b5257506001600160a01b03841615155b610b9e5760405162461bcd60e51b815260206004820152601860248201527f496e76616c696420706c617965722061646472657373657300000000000000006044820152606401610306565b836001600160a01b0316856001600160a01b031603610bff5760405162461bcd60e51b815260206004820152601a60248201527f506c61796572732063616e6e6f74206265207468652073616d650000000000006044820152606401610306565b600081815260016020526040902060020154600160a01b900460ff1615610c5e5760405162461bcd60e51b815260206004820152601360248201527247616d6520616c72656164792065786973747360681b6044820152606401610306565b8251602084015160408086015160608701519151637ae4eb4f60e11b81526000946001600160a01b037f0000000000000000000000000000000000000000000000000000000000000000169463f5c9d69e94610cc194929391929160040161194c565b602060405180830381865afa158015610cde573d6000803e3d6000fd5b505050506040513d601f19601f82011682018060405250810190610d02919061192a565b905080610d625760405162461bcd60e51b815260206004820152602860248201527f506c617965722031207368697020706c6163656d656e742070726f6f66206973604482015267081a5b9d985b1a5960c21b6064820152608401610306565b8251602084015160408086015160608701519151637ae4eb4f60e11b81526000946001600160a01b037f0000000000000000000000000000000000000000000000000000000000000000169463f5c9d69e94610dc594929391929160040161194c565b602060405180830381865afa158015610de2573d6000803e3d6000fd5b505050506040513d601f19601f82011682018060405250810190610e06919061192a565b905080610e665760405162461bcd60e51b815260206004820152602860248201527f506c617965722032207368697020706c6163656d656e742070726f6f66206973604482015267081a5b9d985b1a5960c21b6064820152608401610306565b6000604051806101600160405280858152602001896001600160a01b03168152602001886001600160a01b03168152602001600115158152602001896001600160a01b031681526020018760600151600060028110610ec757610ec761198c565b602002015160001b81526020018760600151600160028110610eeb57610eeb61198c565b602002015160001b81526020018660600151600060028110610f0f57610f0f61198c565b602002015160001b81526020018660600151600160028110610f3357610f3361198c565b60209081029190910151825281810189905260409182018890526000878152600180835290839020845181559184015190820180546001600160a01b039283166001600160a01b031991821617909155928401516002808401805460608801511515600160a01b026001600160a81b03199091169385169390931792909217909155608085015160038401805491909316941693909317905560a0830151600482015560c0830151600582015560e0830151600682015561010083015160078201556101208301518051939450849391929091600884019161101691839161127e565b50602082015161102c90600280840191906112bc565b506040820151611042906006830190600261127e565b506060820151611058906008830190600261127e565b50505061014082015180516012830190611075908290600261127e565b50602082015161108b90600280840191906112bc565b5060408201516110a1906006830190600261127e565b5060608201516110b7906008830190600261127e565b505050905050837fec376e4952e7263b4e41bfefbcab1e6e6b6cf7477a1cbedf31b7ed4d36450c2a898989606001516000600281106110f8576110f861198c565b6020908102919091015160608c8101518301518c820151805190850151604080516001600160a01b03998a16815297909816958701959095528587019390935290840152608083015260a082015290519081900360c00190a25050505050505050565b611163611199565b6001600160a01b03811661118d57604051631e4fbdf760e01b815260006004820152602401610306565b611196816111c6565b50565b6000546001600160a01b031633146108495760405163118cdaa760e01b8152336004820152602401610306565b600080546001600160a01b038381166001600160a01b0319831681178455604051919092169283917f8be0079c531659141344cd1fd0a4f28419497f9722a3daafe3b4186f6b6457e09190a35050565b6040805161016081018252600080825260208201819052918101829052606081018290526080810182905260a0810182905260c0810182905260e08101829052610100810191909152610120810161126c611303565b8152602001611279611303565b905290565b82600281019282156112ac579160200282015b828111156112ac578251825591602001919060010190611291565b506112b892915061133d565b5090565b6004830191839082156112f7579160200282015b828111156112f75782516112e7908390600261127e565b50916020019190600201906112d0565b506112b8929150611352565b604051806080016040528061131661136c565b815260200161132361138a565b815260200161133061136c565b815260200161127961136c565b5b808211156112b8576000815560010161133e565b808211156112b85760008082556001820155600201611352565b60405180604001604052806002906020820280368337509192915050565b60405180604001604052806002905b6113a161136c565b8152602001906001900390816113995790505090565b634e487b7160e01b600052604160045260246000fd5b6040516080810167ffffffffffffffff811182821017156113f0576113f06113b7565b60405290565b6040805190810167ffffffffffffffff811182821017156113f0576113f06113b7565b6040516060810167ffffffffffffffff811182821017156113f0576113f06113b7565b600082601f83011261144d57600080fd5b6114556113f6565b80604084018581111561146757600080fd5b845b81811015611481578035845260209384019301611469565b509095945050505050565b600082601f83011261149d57600080fd5b6114a56113f6565b8060808401858111156114b757600080fd5b845b81811015611481576114cb878261143c565b84526020909301926040016114b9565b60006101608083850312156114ef57600080fd5b6114f76113cd565b9150611503848461143c565b8252611512846040850161148c565b602081818501526115268660c0870161143c565b60408501528561011f86011261153b57600080fd5b611543611419565b928501929150818684111561155757600080fd5b61010086015b84811015611574578035845292820192820161155d565b5060608501525091949350505050565b600080610180838503121561159857600080fd5b823591506115a984602085016114db565b90509250929050565b6000602082840312156115c457600080fd5b5035919050565b8060005b60028110156115ee5781518452602093840193909101906001016115cf565b50505050565b6115ff8282516115cb565b602080820151604080850160005b6002811015611631576116218285516115cb565b928401929082019060010161160d565b50508301519150611647905060c08401826115cb565b50606081015161165b6101008401826115cb565b505050565b8b81526001600160a01b038b811660208301528a8116604083015289151560608301528816608082015260a0810187905260c0810186905260e0810185905261010081018490526103a081016116ba6101208301856115f4565b6116c86102608301846115f4565b9c9b505050505050505050505050565b815181526020808301516103a08301916116fc908401826001600160a01b03169052565b50604083015161171760408401826001600160a01b03169052565b50606083015161172b606084018215159052565b50608083015161174660808401826001600160a01b03169052565b5060a083015160a083015260c083015160c083015260e083015160e083015261010080840151818401525061012080840151611784828501826115f4565b505061014083015161179a6102608401826115f4565b5092915050565b80356001600160a01b03811681146117b857600080fd5b919050565b600061014082840312156117d057600080fd5b6117d86113cd565b90506117e4838361143c565b81526117f3836040840161148c565b60208201526118058360c0840161143c565b604082015261181883610100840161143c565b606082015292915050565b60008060008060006102e0868803121561183c57600080fd5b611845866117a1565b9450611853602087016117a1565b935061186287604088016117bd565b92506118728761018088016117bd565b949793965091946102c0013592915050565b60006020828403121561189657600080fd5b610453826117a1565b8060005b60028110156115ee576118b78483516115cb565b60409390930192602091909101906001016118a3565b61016081016118dc82876115cb565b6118e9604083018661189f565b6118f660c08301856115cb565b61010082018360005b600381101561191e5781518352602092830192909101906001016118ff565b50505095945050505050565b60006020828403121561193c57600080fd5b8151801515811461045357600080fd5b610140810161195b82876115cb565b611968604083018661189f565b61197560c08301856115cb565b6119836101008301846115cb565b95945050505050565b634e487b7160e01b600052603260045260246000fdfea264697066735822122026392f916908fff6d9d176099e7ed36aad7e023ecdd7a4fb1277d4bd612a2cb164736f6c63430008140033",
  "linkReferences": {},
  "deployedLinkReferences": {}
}