{
  "_format": "hh-sol-artifact-1",
  "contractName": "BattleshipWaku",
  "sourceName": "contracts/BattleshipWaku.sol",
  "abi": [
    {
      "inputs": [],
      "stateMutability": "nonpayable",
      "type": "constructor"
    },
    {
      "inputs": [],
      "name": "InvalidInitialization",
      "type": "error"
    },
    {
      "inputs": [],
      "name": "NotInitializing",
      "type": "error"
    },
    {
      "inputs": [
        {
          "internalType": "address",
          "name": "owner",
          "type": "address"
        }
      ],
      "name": "OwnableInvalidOwner",
      "type": "error"
    },
    {
      "inputs": [
        {
          "internalType": "address",
          "name": "account",
          "type": "address"
        }
      ],
      "name": "OwnableUnauthorizedAccount",
      "type": "error"
    },
    {
      "anonymous": false,
      "inputs": [
        {
          "indexed": true,
          "internalType": "uint256",
          "name": "gameId",
          "type": "uint256"
        },
        {
          "indexed": false,
          "internalType": "address",
          "name": "player1",
          "type": "address"
        },
        {
          "indexed": false,
          "internalType": "address",
          "name": "player2",
          "type": "address"
        },
        {
          "indexed": false,
          "internalType": "uint256",
          "name": "player1BoardCommitment",
          "type": "uint256"
        },
        {
          "indexed": false,
          "internalType": "uint256",
          "name": "player1MerkleRoot",
          "type": "uint256"
        },
        {
          "indexed": false,
          "internalType": "uint256",
          "name": "player2BoardCommitment",
          "type": "uint256"
        },
        {
          "indexed": false,
          "internalType": "uint256",
          "name": "player2MerkleRoot",
          "type": "uint256"
        }
      ],
      "name": "GameCreated",
      "type": "event"
    },
    {
      "anonymous": false,
      "inputs": [
        {
          "indexed": true,
          "internalType": "uint256",
          "name": "gameId",
          "type": "uint256"
        },
        {
          "indexed": false,
          "internalType": "address",
          "name": "winner",
          "type": "address"
        }
      ],
      "name": "GameEnded",
      "type": "event"
    },
    {
      "anonymous": false,
      "inputs": [
        {
          "indexed": false,
          "internalType": "uint64",
          "name": "version",
          "type": "uint64"
        }
      ],
      "name": "Initialized",
      "type": "event"
    },
    {
      "anonymous": false,
      "inputs": [
        {
          "indexed": false,
          "internalType": "uint256",
          "name": "indexedgameId",
          "type": "uint256"
        },
        {
          "indexed": false,
          "internalType": "address",
          "name": "player",
          "type": "address"
        }
      ],
      "name": "MoveMade",
      "type": "event"
    },
    {
      "anonymous": false,
      "inputs": [
        {
          "indexed": true,
          "internalType": "address",
          "name": "previousOwner",
          "type": "address"
        },
        {
          "indexed": true,
          "internalType": "address",
          "name": "newOwner",
          "type": "address"
        }
      ],
      "name": "OwnershipTransferred",
      "type": "event"
    },
    {
      "inputs": [
        {
          "internalType": "address",
          "name": "player1",
          "type": "address"
        },
        {
          "internalType": "address",
          "name": "player2",
          "type": "address"
        },
        {
          "components": [
            {
              "internalType": "uint256[2]",
              "name": "pA",
              "type": "uint256[2]"
            },
            {
              "internalType": "uint256[2][2]",
              "name": "pB",
              "type": "uint256[2][2]"
            },
            {
              "internalType": "uint256[2]",
              "name": "pC",
              "type": "uint256[2]"
            },
            {
              "internalType": "uint256[2]",
              "name": "pubSignals",
              "type": "uint256[2]"
            }
          ],
          "internalType": "struct BattleshipWaku.ShipPlacementProof",
          "name": "shipPlacementProofPlayer1",
          "type": "tuple"
        },
        {
          "components": [
            {
              "internalType": "uint256[2]",
              "name": "pA",
              "type": "uint256[2]"
            },
            {
              "internalType": "uint256[2][2]",
              "name": "pB",
              "type": "uint256[2][2]"
            },
            {
              "internalType": "uint256[2]",
              "name": "pC",
              "type": "uint256[2]"
            },
            {
              "internalType": "uint256[2]",
              "name": "pubSignals",
              "type": "uint256[2]"
            }
          ],
          "internalType": "struct BattleshipWaku.ShipPlacementProof",
          "name": "shipPlacementProofPlayer2",
          "type": "tuple"
        },
        {
          "internalType": "uint256",
          "name": "gameId",
          "type": "uint256"
        }
      ],
      "name": "createGame",
      "outputs": [],
      "stateMutability": "nonpayable",
      "type": "function"
    },
    {
      "inputs": [
        {
          "internalType": "uint256",
          "name": "",
          "type": "uint256"
        }
      ],
      "name": "games",
      "outputs": [
        {
          "internalType": "uint256",
          "name": "gameId",
          "type": "uint256"
        },
        {
          "internalType": "address",
          "name": "player1",
          "type": "address"
        },
        {
          "internalType": "address",
          "name": "player2",
          "type": "address"
        },
        {
          "internalType": "bool",
          "name": "isActive",
          "type": "bool"
        },
        {
          "internalType": "address",
          "name": "playerTurn",
          "type": "address"
        },
        {
          "internalType": "bytes32",
          "name": "player1_board_commitment",
          "type": "bytes32"
        },
        {
          "internalType": "bytes32",
          "name": "player1_merkle_root",
          "type": "bytes32"
        },
        {
          "internalType": "bytes32",
          "name": "player2_board_commitment",
          "type": "bytes32"
        },
        {
          "internalType": "bytes32",
          "name": "player2_merkle_root",
          "type": "bytes32"
        },
        {
          "components": [
            {
              "internalType": "uint256[2]",
              "name": "pA",
              "type": "uint256[2]"
            },
            {
              "internalType": "uint256[2][2]",
              "name": "pB",
              "type": "uint256[2][2]"
            },
            {
              "internalType": "uint256[2]",
              "name": "pC",
              "type": "uint256[2]"
            },
            {
              "internalType": "uint256[2]",
              "name": "pubSignals",
              "type": "uint256[2]"
            }
          ],
          "internalType": "struct BattleshipWaku.ShipPlacementProof",
          "name": "player1ShipPlacementProof",
          "type": "tuple"
        },
        {
          "components": [
            {
              "internalType": "uint256[2]",
              "name": "pA",
              "type": "uint256[2]"
            },
            {
              "internalType": "uint256[2][2]",
              "name": "pB",
              "type": "uint256[2][2]"
            },
            {
              "internalType": "uint256[2]",
              "name": "pC",
              "type": "uint256[2]"
            },
            {
              "internalType": "uint256[2]",
              "name": "pubSignals",
              "type": "uint256[2]"
            }
          ],
          "internalType": "struct BattleshipWaku.ShipPlacementProof",
          "name": "player2ShipPlacementProof",
          "type": "tuple"
        }
      ],
      "stateMutability": "view",
      "type": "function"
    },
    {
      "inputs": [
        {
          "internalType": "uint256",
          "name": "gameId",
          "type": "uint256"
        }
      ],
      "name": "getGame",
      "outputs": [
        {
          "components": [
            {
              "internalType": "uint256",
              "name": "gameId",
              "type": "uint256"
            },
            {
              "internalType": "address",
              "name": "player1",
              "type": "address"
            },
            {
              "internalType": "address",
              "name": "player2",
              "type": "address"
            },
            {
              "internalType": "bool",
              "name": "isActive",
              "type": "bool"
            },
            {
              "internalType": "address",
              "name": "playerTurn",
              "type": "address"
            },
            {
              "internalType": "bytes32",
              "name": "player1_board_commitment",
              "type": "bytes32"
            },
            {
              "internalType": "bytes32",
              "name": "player1_merkle_root",
              "type": "bytes32"
            },
            {
              "internalType": "bytes32",
              "name": "player2_board_commitment",
              "type": "bytes32"
            },
            {
              "internalType": "bytes32",
              "name": "player2_merkle_root",
              "type": "bytes32"
            },
            {
              "components": [
                {
                  "internalType": "uint256[2]",
                  "name": "pA",
                  "type": "uint256[2]"
                },
                {
                  "internalType": "uint256[2][2]",
                  "name": "pB",
                  "type": "uint256[2][2]"
                },
                {
                  "internalType": "uint256[2]",
                  "name": "pC",
                  "type": "uint256[2]"
                },
                {
                  "internalType": "uint256[2]",
                  "name": "pubSignals",
                  "type": "uint256[2]"
                }
              ],
              "internalType": "struct BattleshipWaku.ShipPlacementProof",
              "name": "player1ShipPlacementProof",
              "type": "tuple"
            },
            {
              "components": [
                {
                  "internalType": "uint256[2]",
                  "name": "pA",
                  "type": "uint256[2]"
                },
                {
                  "internalType": "uint256[2][2]",
                  "name": "pB",
                  "type": "uint256[2][2]"
                },
                {
                  "internalType": "uint256[2]",
                  "name": "pC",
                  "type": "uint256[2]"
                },
                {
                  "internalType": "uint256[2]",
                  "name": "pubSignals",
                  "type": "uint256[2]"
                }
              ],
              "internalType": "struct BattleshipWaku.ShipPlacementProof",
              "name": "player2ShipPlacementProof",
              "type": "tuple"
            }
          ],
          "internalType": "struct BattleshipWaku.GameView",
          "name": "gameData",
          "type": "tuple"
        },
        {
          "internalType": "uint8",
          "name": "player1Hits",
          "type": "uint8"
        },
        {
          "internalType": "uint8",
          "name": "player2Hits",
          "type": "uint8"
        }
      ],
      "stateMutability": "view",
      "type": "function"
    },
    {
      "inputs": [
        {
          "internalType": "uint256",
          "name": "gameId",
          "type": "uint256"
        }
      ],
      "name": "getGamePlayers",
      "outputs": [
        {
          "internalType": "address",
          "name": "",
          "type": "address"
        },
        {
          "internalType": "address",
          "name": "",
          "type": "address"
        }
      ],
      "stateMutability": "view",
      "type": "function"
    },
    {
      "inputs": [
        {
          "internalType": "uint256",
          "name": "gameId",
          "type": "uint256"
        }
      ],
      "name": "getGameStatus",
      "outputs": [
        {
          "internalType": "bool",
          "name": "",
          "type": "bool"
        }
      ],
      "stateMutability": "view",
      "type": "function"
    },
    {
      "inputs": [
        {
          "internalType": "address",
          "name": "_shipPlacementVerifier",
          "type": "address"
        },
        {
          "internalType": "address",
          "name": "_moveVerifier",
          "type": "address"
        },
        {
          "internalType": "address",
          "name": "_winVerifier",
          "type": "address"
        }
      ],
      "name": "initialize",
      "outputs": [],
      "stateMutability": "nonpayable",
      "type": "function"
    },
    {
      "inputs": [
        {
          "internalType": "uint256",
          "name": "gameId",
          "type": "uint256"
        },
        {
          "components": [
            {
              "internalType": "uint256[2]",
              "name": "pA",
              "type": "uint256[2]"
            },
            {
              "internalType": "uint256[2][2]",
              "name": "pB",
              "type": "uint256[2][2]"
            },
            {
              "internalType": "uint256[2]",
              "name": "pC",
              "type": "uint256[2]"
            },
            {
              "internalType": "uint256[3]",
              "name": "pubSignals",
              "type": "uint256[3]"
            }
          ],
          "internalType": "struct BattleshipWaku.MoveProof",
          "name": "moveProof",
          "type": "tuple"
        }
      ],
      "name": "makeMove",
      "outputs": [
        {
          "internalType": "bool",
          "name": "",
          "type": "bool"
        }
      ],
      "stateMutability": "nonpayable",
      "type": "function"
    },
    {
      "inputs": [],
      "name": "moveVerifier",
      "outputs": [
        {
          "internalType": "contract IMoveVerifier",
          "name": "",
          "type": "address"
        }
      ],
      "stateMutability": "view",
      "type": "function"
    },
    {
      "inputs": [],
      "name": "owner",
      "outputs": [
        {
          "internalType": "address",
          "name": "",
          "type": "address"
        }
      ],
      "stateMutability": "view",
      "type": "function"
    },
    {
      "inputs": [],
      "name": "renounceOwnership",
      "outputs": [],
      "stateMutability": "nonpayable",
      "type": "function"
    },
    {
      "inputs": [],
      "name": "shipPlacementVerifier",
      "outputs": [
        {
          "internalType": "contract IShipPlacementVerifier",
          "name": "",
          "type": "address"
        }
      ],
      "stateMutability": "view",
      "type": "function"
    },
    {
      "inputs": [
        {
          "internalType": "address",
          "name": "newOwner",
          "type": "address"
        }
      ],
      "name": "transferOwnership",
      "outputs": [],
      "stateMutability": "nonpayable",
      "type": "function"
    },
    {
      "inputs": [
        {
          "internalType": "uint256",
          "name": "gameId",
          "type": "uint256"
        },
        {
          "components": [
            {
              "internalType": "uint256[2]",
              "name": "pA",
              "type": "uint256[2]"
            },
            {
              "internalType": "uint256[2][2]",
              "name": "pB",
              "type": "uint256[2][2]"
            },
            {
              "internalType": "uint256[2]",
              "name": "pC",
              "type": "uint256[2]"
            },
            {
              "internalType": "uint256[3]",
              "name": "pubSignals",
              "type": "uint256[3]"
            }
          ],
          "internalType": "struct BattleshipWaku.WinProof",
          "name": "winProof",
          "type": "tuple"
        }
      ],
      "name": "winVerification",
      "outputs": [
        {
          "internalType": "bool",
          "name": "",
          "type": "bool"
        }
      ],
      "stateMutability": "nonpayable",
      "type": "function"
    },
    {
      "inputs": [],
      "name": "winVerifier",
      "outputs": [
        {
          "internalType": "contract IWinVerifier",
          "name": "",
          "type": "address"
        }
      ],
      "stateMutability": "view",
      "type": "function"
    }
  ],
  "bytecode": "0x608060405234801561001057600080fd5b5061001961001e565b6100d0565b7ff0c57e16840df040f15088dc2f81fe391c3923bec73e23a9662efc9c229c6a00805468010000000000000000900460ff161561006e5760405163f92ee8a960e01b815260040160405180910390fd5b80546001600160401b03908116146100cd5780546001600160401b0319166001600160401b0390811782556040519081527fc7f505b2f371ae2175ee4913f4499e1f2633a7b5936321eed1cdaeb6115181d29060200160405180910390a15b50565b611c01806100df6000396000f3fe608060405234801561001057600080fd5b50600436106100e95760003560e01c80638d2d99ee1161008c578063c0c53b8b11610066578063c0c53b8b14610272578063d173bf9c14610285578063d6c2197414610298578063f2fde38b146102ab57600080fd5b80638d2d99ee1461020d5780638da5cb5b14610220578063a2f77bcc1461025057600080fd5b806315a40f49116100c857806315a40f491461016d57806329b3e3b6146101c5578063489d2220146101d8578063715018a61461020357600080fd5b806256faa2146100ee5780630f1bf45414610116578063117a5b9014610143575b600080fd5b6101016100fc3660046116e2565b6102be565b60405190151581526020015b60405180910390f35b610101610124366004611710565b600090815260036020526040902060020154600160a01b900460ff1690565b610156610151366004611710565b610533565b60405161010d9b9a999897969594939291906117be565b6101a561017b366004611710565b600090815260036020526040902060018101546002909101546001600160a01b0391821692911690565b604080516001600160a01b0393841681529290911660208301520161010d565b6101016101d33660046116e2565b6107c8565b6000546101eb906001600160a01b031681565b6040516001600160a01b03909116815260200161010d565b61020b6109ff565b005b6002546101eb906001600160a01b031681565b7f9016d09d72d40fdae2fd8ceac6b6234c7706214fd39c1cd1e609a0528c199300546001600160a01b03166101eb565b61026361025e366004611710565b610a13565b60405161010d93929190611836565b61020b610280366004611931565b610d2c565b6001546101eb906001600160a01b031681565b61020b6102a636600461198d565b610e7b565b61020b6102b93660046119ee565b6112c2565b60008281526003602052604081206002810154600160a01b900460ff166103215760405162461bcd60e51b815260206004820152601260248201527147616d65206973206e6f742061637469766560701b60448201526064015b60405180910390fd5b60038101546001600160a01b0316331461036d5760405162461bcd60e51b815260206004820152600d60248201526c2737ba103cb7bab9103a3ab93760991b6044820152606401610318565b60015483516020850151604080870151606088015191516308a3cff560e11b81526000956001600160a01b0316946311479fea946103b49491939092909190600401611a10565b602060405180830381865afa1580156103d1573d6000803e3d6000fd5b505050506040513d601f19601f820116820180604052508101906103f59190611a94565b90508061043c5760405162461bcd60e51b8152602060048201526015602482015274135bdd99481c1c9bdbd9881a5cc81a5b9d985b1a59605a1b6044820152606401610318565b6060840151604001516001036104935760038201546001600160a01b031660009081526008830160205260408120805460ff169161047983611ab6565b91906101000a81548160ff021916908360ff160217905550505b600182015460038301546001600160a01b039081169116146104c25760018201546001600160a01b03166104d1565b60028201546001600160a01b03165b6003830180546001600160a01b0319166001600160a01b0392909216919091179055604080518681523360208201527f5008547a534c07bdb1a5f781fbfc38d92af4d50429ccb847bcae5e7eb4915c2d910160405180910390a1949350505050565b600360208190526000918252604091829020805460018201546002808401549484015460048501546005860154600687015460078801548a5160c081019b8c9052979a6001600160a01b039788169a8881169a600160a01b90910460ff16999890961697949693959294919360098401918391608083019184919082845b8154815260200190600101908083116105b1575050505050815260200160028201600280602002604051908101604052809291906000905b8282101561062f57604080518082019182905290600284810287019182845b815481526020019060010190808311610608575050505050815260200190600101906105e9565b50505090825250604080518082019182905260209092019190600684019060029082845b815481526020019060010190808311610653575050509183525050604080518082019182905260209092019190600884019060029082845b81548152602001906001019080831161068b575050509190925250506040805160c0810190915291929190506013820181608081018260028282826020028201915b8154815260200190600101908083116106cd575050505050815260200160028201600280602002604051908101604052809291906000905b8282101561074b57604080518082019182905290600284810287019182845b81548152602001906001019080831161072457505050505081526020019060010190610705565b50505090825250604080518082019182905260209092019190600684019060029082845b81548152602001906001019080831161076f575050509183525050604080518082019182905260209092019190600884019060029082845b8154815260200190600101908083116107a75750505050508152505090508b565b60008281526003602052604081206002810154600160a01b900460ff166108265760405162461bcd60e51b815260206004820152601260248201527147616d65206973206e6f742061637469766560701b6044820152606401610318565b60018101546001600160a01b0316600090815260088201602052604081205460ff16600c03610863575060018101546001600160a01b03166108db565b60028201546001600160a01b0316600090815260088301602052604090205460ff16600c036108a0575060028101546001600160a01b03166108db565b60405162461bcd60e51b815260206004820152601060248201526f23b0b6b29034b9903737ba1037bb32b960811b6044820152606401610318565b60025484516020860151604080880151606089015191516308a3cff560e11b81526000956001600160a01b0316946311479fea946109229491939092909190600401611a10565b602060405180830381865afa15801561093f573d6000803e3d6000fd5b505050506040513d601f19601f820116820180604052508101906109639190611a94565b9050806109a95760405162461bcd60e51b815260206004820152601460248201527315da5b881c1c9bdbd9881a5cc81a5b9d985b1a5960621b6044820152606401610318565b60028301805460ff60a01b191690556040516001600160a01b038316815286907f3d5fcd8fa3235aeb3897f25c8ea49989174981afcb01b9d03189d1056a16775b9060200160405180910390a295945050505050565b610a07611300565b610a11600061135b565b565b610a1b61142e565b60008281526003602081815260408084208151610160810183528154815260018201546001600160a01b039081169482019490945260028083015480861683860152600160a01b900460ff161515606083015294820154909316608080850191909152600482015460a0850152600582015460c080860191909152600683015460e0860152600783015461010086015283519081019384905286959294936101208501939192600987019284929183019184919082845b815481526020019060010190808311610ad2575050505050815260200160028201600280602002604051908101604052809291906000905b82821015610b5057604080518082019182905290600284810287019182845b815481526020019060010190808311610b2957505050505081526020019060010190610b0a565b50505090825250604080518082019182905260209092019190600684019060029082845b815481526020019060010190808311610b74575050509183525050604080518082019182905260209092019190600884019060029082845b815481526020019060010190808311610bac575050509190925250505081526040805160c081019091526020909101906013840181608081018260028282826020028201915b815481526020019060010190808311610bf2575050505050815260200160028201600280602002604051908101604052809291906000905b82821015610c7057604080518082019182905290600284810287019182845b815481526020019060010190808311610c4957505050505081526020019060010190610c2a565b50505090825250604080518082019182905260209092019190600684019060029082845b815481526020019060010190808311610c94575050509183525050604080518082019182905260209092019190600884019060029082845b815481526020019060010190808311610ccc5750505091909252505050905260018201546001600160a01b0390811660009081526008840160205260408082205460029095015490921681522054909660ff928316965091169350915050565b7ff0c57e16840df040f15088dc2f81fe391c3923bec73e23a9662efc9c229c6a008054600160401b810460ff16159067ffffffffffffffff16600081158015610d725750825b905060008267ffffffffffffffff166001148015610d8f5750303b155b905081158015610d9d575080155b15610dbb5760405163f92ee8a960e01b815260040160405180910390fd5b845467ffffffffffffffff191660011785558315610de557845460ff60401b1916600160401b1785555b610dee336113cc565b600080546001600160a01b03808b166001600160a01b031992831617909255600180548a841690831617905560028054928916929091169190911790558315610e7157845460ff60401b19168555604051600181527fc7f505b2f371ae2175ee4913f4499e1f2633a7b5936321eed1cdaeb6115181d29060200160405180910390a15b5050505050505050565b610e83611300565b6001600160a01b03851615801590610ea357506001600160a01b03841615155b610eef5760405162461bcd60e51b815260206004820152601860248201527f496e76616c696420706c617965722061646472657373657300000000000000006044820152606401610318565b836001600160a01b0316856001600160a01b031603610f505760405162461bcd60e51b815260206004820152601a60248201527f506c61796572732063616e6e6f74206265207468652073616d650000000000006044820152606401610318565b600081815260036020526040902060020154600160a01b900460ff1615610faf5760405162461bcd60e51b815260206004820152601360248201527247616d6520616c72656164792065786973747360681b6044820152606401610318565b6000805460408051637ae4eb4f60e11b81526001600160a01b039092169163f5c9d69e91610fef91889182019060c0830190610100840190600401611ae3565b602060405180830381865afa15801561100c573d6000803e3d6000fd5b505050506040513d601f19601f820116820180604052508101906110309190611a94565b9050806110905760405162461bcd60e51b815260206004820152602860248201527f506c617965722031207368697020706c6163656d656e742070726f6f66206973604482015267081a5b9d985b1a5960c21b6064820152608401610318565b6000805460408051637ae4eb4f60e11b81526001600160a01b039092169163f5c9d69e916110d091889182019060c0830190610100840190600401611ae3565b602060405180830381865afa1580156110ed573d6000803e3d6000fd5b505050506040513d601f19601f820116820180604052508101906111119190611a94565b9050806111715760405162461bcd60e51b815260206004820152602860248201527f506c617965722032207368697020706c6163656d656e742070726f6f66206973604482015267081a5b9d985b1a5960c21b6064820152608401610318565b60008381526003602081905260409091208481556001810180546001600160a01b038b81166001600160a01b031992831681179093556002840180546001600160a81b031916918c1691909117600160a01b1790559282018054909316179091556101008681013560048301556101208088013560058401559086013560068301558501356007820155856009820161120a8282611b4f565b508590506013820161121c8282611b4f565b50506001600160a01b0388811660008181526008840160209081526040808320805460ff19908116909155948c1680845292819020805490951690945583519283528201526101008881013582840152610120808a0135606084015290880135608083015287013560a0820152905185917fec376e4952e7263b4e41bfefbcab1e6e6b6cf7477a1cbedf31b7ed4d36450c2a919081900360c00190a25050505050505050565b6112ca611300565b6001600160a01b0381166112f457604051631e4fbdf760e01b815260006004820152602401610318565b6112fd8161135b565b50565b336113327f9016d09d72d40fdae2fd8ceac6b6234c7706214fd39c1cd1e609a0528c199300546001600160a01b031690565b6001600160a01b031614610a115760405163118cdaa760e01b8152336004820152602401610318565b7f9016d09d72d40fdae2fd8ceac6b6234c7706214fd39c1cd1e609a0528c19930080546001600160a01b031981166001600160a01b03848116918217845560405192169182907f8be0079c531659141344cd1fd0a4f28419497f9722a3daafe3b4186f6b6457e090600090a3505050565b6113d46113dd565b6112fd81611426565b7ff0c57e16840df040f15088dc2f81fe391c3923bec73e23a9662efc9c229c6a0054600160401b900460ff16610a1157604051631afcd79f60e31b815260040160405180910390fd5b6112ca6113dd565b6040805161016081018252600080825260208201819052918101829052606081018290526080810182905260a0810182905260c0810182905260e081018290526101008101919091526101208101611484611496565b8152602001611491611496565b905290565b60405180608001604052806114a96114cc565b81526020016114b66114ea565b81526020016114c36114cc565b81526020016114915b60405180604001604052806002906020820280368337509192915050565b60405180604001604052806002905b6115016114cc565b8152602001906001900390816114f95790505090565b634e487b7160e01b600052604160045260246000fd5b6040516080810167ffffffffffffffff8111828210171561155057611550611517565b60405290565b6040805190810167ffffffffffffffff8111828210171561155057611550611517565b600082601f83011261158a57600080fd5b611592611556565b8060408401858111156115a457600080fd5b845b818110156115be5780358452602093840193016115a6565b509095945050505050565b600082601f8301126115da57600080fd5b6040516060810181811067ffffffffffffffff821117156115fd576115fd611517565b60405280606084018581111561161257600080fd5b845b8181101561162c578035835260209283019201611614565b509195945050505050565b6000610160828403121561164a57600080fd5b61165261152d565b905061165e8383611579565b8152604083605f84011261167157600080fd5b611679611556565b8060c085018681111561168b57600080fd5b8386015b818110156116b0576116a18882611579565b8452602090930192840161168f565b508160208601526116c18782611579565b84860152505050506116d78361010084016115c9565b606082015292915050565b60008061018083850312156116f657600080fd5b823591506117078460208501611637565b90509250929050565b60006020828403121561172257600080fd5b5035919050565b8060005b600281101561174c57815184526020938401939091019060010161172d565b50505050565b61175d828251611729565b602080820151604080850160005b600281101561178f5761177f828551611729565b928401929082019060010161176b565b505083015191506117a5905060c0840182611729565b5060608101516117b9610100840182611729565b505050565b8b81526001600160a01b038b811660208301528a8116604083015289151560608301528816608082015260a0810187905260c0810186905260e0810185905261010081018490526103a08101611818610120830185611752565b611826610260830184611752565b9c9b505050505050505050505050565b835181526020808501516103e083019161185a908401826001600160a01b03169052565b50604085015161187560408401826001600160a01b03169052565b506060850151611889606084018215159052565b5060808501516118a460808401826001600160a01b03169052565b5060a085015160a083015260c085015160c083015260e085015160e0830152610100808601518184015250610120808601516118e282850182611752565b50506101408501516118f8610260840182611752565b5060ff84166103a083015260ff83166103c0830152949350505050565b80356001600160a01b038116811461192c57600080fd5b919050565b60008060006060848603121561194657600080fd5b61194f84611915565b925061195d60208501611915565b915061196b60408501611915565b90509250925092565b6000610140828403121561198757600080fd5b50919050565b60008060008060006102e086880312156119a657600080fd5b6119af86611915565b94506119bd60208701611915565b93506119cc8760408801611974565b92506119dc876101808801611974565b949793965091946102c0013592915050565b600060208284031215611a0057600080fd5b611a0982611915565b9392505050565b6101608101611a1f8287611729565b60408083018660005b6002811015611a4f57611a3c838351611729565b9183019160209190910190600101611a28565b50505050611a6060c0830185611729565b61010082018360005b6003811015611a88578151835260209283019290910190600101611a69565b50505095945050505050565b600060208284031215611aa657600080fd5b81518015158114611a0957600080fd5b600060ff821660ff8103611ada57634e487b7160e01b600052601160045260246000fd5b60010192915050565b61014081016040808784378083018660005b6002811015611b1257838284379183019190830190600101611af5565b505050808560c085013780846101008501375095945050505050565b8160005b600281101561174c57813583820155602090910190600101611b32565b8160005b6002811015611b7057813583820155602090910190600101611b53565b50506002604080840182840160005b84811015611ba157611b918383611b2e565b9183019190840190600101611b7f565b5050505050611bb660c0830160068301611b2e565b611bc7610100830160088301611b2e565b505056fea2646970667358221220c96ce0c6ad1bad66e3456a2de59255f76bb5234e90a21cf037d1674cdcfa799864736f6c63430008140033",
  "linkReferences": {},
  "deployedLinkReferences": {}
}