{
  "_format": "hh-sol-artifact-1",
  "contractName": "BattleshipWaku",
  "sourceName": "contracts/BattleshipWaku.sol",
  "abi": [
    {
      "inputs": [
        {
          "internalType": "address",
          "name": "_shipPlacementVerifier",
          "type": "address"
        },
        {
          "internalType": "address",
          "name": "_moveVerifier",
          "type": "address"
        },
        {
          "internalType": "address",
          "name": "_winVerifier",
          "type": "address"
        }
      ],
      "stateMutability": "nonpayable",
      "type": "constructor"
    },
    {
      "inputs": [
        {
          "internalType": "address",
          "name": "owner",
          "type": "address"
        }
      ],
      "name": "OwnableInvalidOwner",
      "type": "error"
    },
    {
      "inputs": [
        {
          "internalType": "address",
          "name": "account",
          "type": "address"
        }
      ],
      "name": "OwnableUnauthorizedAccount",
      "type": "error"
    },
    {
      "anonymous": false,
      "inputs": [
        {
          "indexed": true,
          "internalType": "uint256",
          "name": "gameId",
          "type": "uint256"
        },
        {
          "indexed": false,
          "internalType": "address",
          "name": "player1",
          "type": "address"
        },
        {
          "indexed": false,
          "internalType": "address",
          "name": "player2",
          "type": "address"
        },
        {
          "indexed": false,
          "internalType": "uint256",
          "name": "player1BoardCommitment",
          "type": "uint256"
        },
        {
          "indexed": false,
          "internalType": "uint256",
          "name": "player1MerkleRoot",
          "type": "uint256"
        },
        {
          "indexed": false,
          "internalType": "uint256",
          "name": "player2BoardCommitment",
          "type": "uint256"
        },
        {
          "indexed": false,
          "internalType": "uint256",
          "name": "player2MerkleRoot",
          "type": "uint256"
        }
      ],
      "name": "GameCreated",
      "type": "event"
    },
    {
      "anonymous": false,
      "inputs": [
        {
          "indexed": false,
          "internalType": "uint256",
          "name": "gameId",
          "type": "uint256"
        },
        {
          "indexed": false,
          "internalType": "address",
          "name": "player",
          "type": "address"
        }
      ],
      "name": "MoveMade",
      "type": "event"
    },
    {
      "anonymous": false,
      "inputs": [
        {
          "indexed": true,
          "internalType": "address",
          "name": "previousOwner",
          "type": "address"
        },
        {
          "indexed": true,
          "internalType": "address",
          "name": "newOwner",
          "type": "address"
        }
      ],
      "name": "OwnershipTransferred",
      "type": "event"
    },
    {
      "inputs": [
        {
          "internalType": "address",
          "name": "player1",
          "type": "address"
        },
        {
          "internalType": "address",
          "name": "player2",
          "type": "address"
        },
        {
          "components": [
            {
              "internalType": "uint256[2]",
              "name": "pA",
              "type": "uint256[2]"
            },
            {
              "internalType": "uint256[2][2]",
              "name": "pB",
              "type": "uint256[2][2]"
            },
            {
              "internalType": "uint256[2]",
              "name": "pC",
              "type": "uint256[2]"
            },
            {
              "internalType": "uint256[2]",
              "name": "pubSignals",
              "type": "uint256[2]"
            }
          ],
          "internalType": "struct BattleshipWaku.ShipPlacementProof",
          "name": "shipPlacementProofPlayer1",
          "type": "tuple"
        },
        {
          "components": [
            {
              "internalType": "uint256[2]",
              "name": "pA",
              "type": "uint256[2]"
            },
            {
              "internalType": "uint256[2][2]",
              "name": "pB",
              "type": "uint256[2][2]"
            },
            {
              "internalType": "uint256[2]",
              "name": "pC",
              "type": "uint256[2]"
            },
            {
              "internalType": "uint256[2]",
              "name": "pubSignals",
              "type": "uint256[2]"
            }
          ],
          "internalType": "struct BattleshipWaku.ShipPlacementProof",
          "name": "shipPlacementProofPlayer2",
          "type": "tuple"
        },
        {
          "internalType": "uint256",
          "name": "gameId",
          "type": "uint256"
        }
      ],
      "name": "createGame",
      "outputs": [],
      "stateMutability": "nonpayable",
      "type": "function"
    },
    {
      "inputs": [
        {
          "internalType": "uint256",
          "name": "",
          "type": "uint256"
        }
      ],
      "name": "games",
      "outputs": [
        {
          "internalType": "uint256",
          "name": "gameId",
          "type": "uint256"
        },
        {
          "internalType": "address",
          "name": "player1",
          "type": "address"
        },
        {
          "internalType": "address",
          "name": "player2",
          "type": "address"
        },
        {
          "internalType": "bool",
          "name": "isActive",
          "type": "bool"
        },
        {
          "internalType": "address",
          "name": "playerTurn",
          "type": "address"
        },
        {
          "components": [
            {
              "internalType": "uint256[2]",
              "name": "pA",
              "type": "uint256[2]"
            },
            {
              "internalType": "uint256[2][2]",
              "name": "pB",
              "type": "uint256[2][2]"
            },
            {
              "internalType": "uint256[2]",
              "name": "pC",
              "type": "uint256[2]"
            },
            {
              "internalType": "uint256[2]",
              "name": "pubSignals",
              "type": "uint256[2]"
            }
          ],
          "internalType": "struct BattleshipWaku.ShipPlacementProof",
          "name": "player1ShipPlacementProof",
          "type": "tuple"
        },
        {
          "components": [
            {
              "internalType": "uint256[2]",
              "name": "pA",
              "type": "uint256[2]"
            },
            {
              "internalType": "uint256[2][2]",
              "name": "pB",
              "type": "uint256[2][2]"
            },
            {
              "internalType": "uint256[2]",
              "name": "pC",
              "type": "uint256[2]"
            },
            {
              "internalType": "uint256[2]",
              "name": "pubSignals",
              "type": "uint256[2]"
            }
          ],
          "internalType": "struct BattleshipWaku.ShipPlacementProof",
          "name": "player2ShipPlacementProof",
          "type": "tuple"
        }
      ],
      "stateMutability": "view",
      "type": "function"
    },
    {
      "inputs": [
        {
          "internalType": "uint256",
          "name": "gameId",
          "type": "uint256"
        }
      ],
      "name": "getGame",
      "outputs": [
        {
          "components": [
            {
              "internalType": "uint256",
              "name": "gameId",
              "type": "uint256"
            },
            {
              "internalType": "address",
              "name": "player1",
              "type": "address"
            },
            {
              "internalType": "address",
              "name": "player2",
              "type": "address"
            },
            {
              "internalType": "bool",
              "name": "isActive",
              "type": "bool"
            },
            {
              "internalType": "address",
              "name": "playerTurn",
              "type": "address"
            },
            {
              "components": [
                {
                  "internalType": "uint256[2]",
                  "name": "pA",
                  "type": "uint256[2]"
                },
                {
                  "internalType": "uint256[2][2]",
                  "name": "pB",
                  "type": "uint256[2][2]"
                },
                {
                  "internalType": "uint256[2]",
                  "name": "pC",
                  "type": "uint256[2]"
                },
                {
                  "internalType": "uint256[2]",
                  "name": "pubSignals",
                  "type": "uint256[2]"
                }
              ],
              "internalType": "struct BattleshipWaku.ShipPlacementProof",
              "name": "player1ShipPlacementProof",
              "type": "tuple"
            },
            {
              "components": [
                {
                  "internalType": "uint256[2]",
                  "name": "pA",
                  "type": "uint256[2]"
                },
                {
                  "internalType": "uint256[2][2]",
                  "name": "pB",
                  "type": "uint256[2][2]"
                },
                {
                  "internalType": "uint256[2]",
                  "name": "pC",
                  "type": "uint256[2]"
                },
                {
                  "internalType": "uint256[2]",
                  "name": "pubSignals",
                  "type": "uint256[2]"
                }
              ],
              "internalType": "struct BattleshipWaku.ShipPlacementProof",
              "name": "player2ShipPlacementProof",
              "type": "tuple"
            }
          ],
          "internalType": "struct BattleshipWaku.Game",
          "name": "",
          "type": "tuple"
        }
      ],
      "stateMutability": "view",
      "type": "function"
    },
    {
      "inputs": [
        {
          "internalType": "uint256",
          "name": "gameId",
          "type": "uint256"
        }
      ],
      "name": "getGamePlayers",
      "outputs": [
        {
          "internalType": "address",
          "name": "",
          "type": "address"
        },
        {
          "internalType": "address",
          "name": "",
          "type": "address"
        }
      ],
      "stateMutability": "view",
      "type": "function"
    },
    {
      "inputs": [
        {
          "internalType": "uint256",
          "name": "gameId",
          "type": "uint256"
        }
      ],
      "name": "getGameStatus",
      "outputs": [
        {
          "internalType": "bool",
          "name": "",
          "type": "bool"
        }
      ],
      "stateMutability": "view",
      "type": "function"
    },
    {
      "inputs": [
        {
          "internalType": "uint256",
          "name": "gameId",
          "type": "uint256"
        },
        {
          "components": [
            {
              "internalType": "uint256[2]",
              "name": "pA",
              "type": "uint256[2]"
            },
            {
              "internalType": "uint256[2][2]",
              "name": "pB",
              "type": "uint256[2][2]"
            },
            {
              "internalType": "uint256[2]",
              "name": "pC",
              "type": "uint256[2]"
            },
            {
              "internalType": "uint256[3]",
              "name": "pubSignals",
              "type": "uint256[3]"
            }
          ],
          "internalType": "struct BattleshipWaku.MoveProof",
          "name": "moveProof",
          "type": "tuple"
        }
      ],
      "name": "makeMove",
      "outputs": [
        {
          "internalType": "bool",
          "name": "",
          "type": "bool"
        }
      ],
      "stateMutability": "view",
      "type": "function"
    },
    {
      "inputs": [],
      "name": "moveVerifier",
      "outputs": [
        {
          "internalType": "contract IMoveVerifier",
          "name": "",
          "type": "address"
        }
      ],
      "stateMutability": "view",
      "type": "function"
    },
    {
      "inputs": [],
      "name": "owner",
      "outputs": [
        {
          "internalType": "address",
          "name": "",
          "type": "address"
        }
      ],
      "stateMutability": "view",
      "type": "function"
    },
    {
      "inputs": [],
      "name": "renounceOwnership",
      "outputs": [],
      "stateMutability": "nonpayable",
      "type": "function"
    },
    {
      "inputs": [],
      "name": "shipPlacementVerifier",
      "outputs": [
        {
          "internalType": "contract IShipPlacementVerifier",
          "name": "",
          "type": "address"
        }
      ],
      "stateMutability": "view",
      "type": "function"
    },
    {
      "inputs": [
        {
          "internalType": "address",
          "name": "newOwner",
          "type": "address"
        }
      ],
      "name": "transferOwnership",
      "outputs": [],
      "stateMutability": "nonpayable",
      "type": "function"
    },
    {
      "inputs": [
        {
          "internalType": "uint256",
          "name": "gameId",
          "type": "uint256"
        },
        {
          "components": [
            {
              "internalType": "uint256[2]",
              "name": "pA",
              "type": "uint256[2]"
            },
            {
              "internalType": "uint256[2][2]",
              "name": "pB",
              "type": "uint256[2][2]"
            },
            {
              "internalType": "uint256[2]",
              "name": "pC",
              "type": "uint256[2]"
            },
            {
              "internalType": "uint256[3]",
              "name": "pubSignals",
              "type": "uint256[3]"
            }
          ],
          "internalType": "struct BattleshipWaku.WinProof",
          "name": "winProof",
          "type": "tuple"
        }
      ],
      "name": "winVerification",
      "outputs": [
        {
          "internalType": "bool",
          "name": "",
          "type": "bool"
        }
      ],
      "stateMutability": "view",
      "type": "function"
    },
    {
      "inputs": [],
      "name": "winVerifier",
      "outputs": [
        {
          "internalType": "contract IWinVerifier",
          "name": "",
          "type": "address"
        }
      ],
      "stateMutability": "view",
      "type": "function"
    }
  ],
  "bytecode": "0x60e06040523480156200001157600080fd5b5060405162001993380380620019938339810160408190526200003491620000f2565b33806200005b57604051631e4fbdf760e01b81526000600482015260240160405180910390fd5b620000668162000085565b506001600160a01b0392831660805290821660a0521660c0526200013c565b600080546001600160a01b038381166001600160a01b0319831681178455604051919092169283917f8be0079c531659141344cd1fd0a4f28419497f9722a3daafe3b4186f6b6457e09190a35050565b80516001600160a01b0381168114620000ed57600080fd5b919050565b6000806000606084860312156200010857600080fd5b6200011384620000d5565b92506200012360208501620000d5565b91506200013360408501620000d5565b90509250925092565b60805160a05160c05161180b62000188600039600081816102090152610756015260008181610261015261038f0152600081816101c001528181610da90152610ead015261180b6000f3fe608060405234801561001057600080fd5b50600436106100ce5760003560e01c8063715018a61161008c578063a2f77bcc11610066578063a2f77bcc1461023c578063d173bf9c1461025c578063d6c2197414610283578063f2fde38b1461029657600080fd5b8063715018a6146101fa5780638d2d99ee146102045780638da5cb5b1461022b57600080fd5b806256faa2146100d35780630f1bf454146100fb578063117a5b901461012857806315a40f491461014e57806329b3e3b6146101a8578063489d2220146101bb575b600080fd5b6100e66100e136600461142e565b6102a9565b60405190151581526020015b60405180910390f35b6100e661010936600461145c565b600090815260016020526040902060020154600160a01b900460ff1690565b61013b61013636600461145c565b610456565b6040516100f2979695949392919061150a565b61018861015c36600461145c565b6000908152600160208190526040909120908101546002909101546001600160a01b0391821692911690565b604080516001600160a01b039384168152929091166020830152016100f2565b6100e66101b636600461142e565b6106ce565b6101e27f000000000000000000000000000000000000000000000000000000000000000081565b6040516001600160a01b0390911681526020016100f2565b610202610815565b005b6101e27f000000000000000000000000000000000000000000000000000000000000000081565b6000546001600160a01b03166101e2565b61024f61024a36600461145c565b610829565b6040516100f29190611560565b6101e27f000000000000000000000000000000000000000000000000000000000000000081565b610202610291366004611656565b610ada565b6102026102a43660046116b7565b611024565b600082815260016020526040812060020154600160a01b900460ff1661030b5760405162461bcd60e51b815260206004820152601260248201527147616d65206973206e6f742061637469766560701b60448201526064015b60405180910390fd5b6000838152600160205260409020600301546001600160a01b031633146103645760405162461bcd60e51b815260206004820152600d60248201526c2737ba103cb7bab9103a3ab93760991b6044820152606401610302565b81516020830151604080850151606086015191516308a3cff560e11b81526000946001600160a01b037f000000000000000000000000000000000000000000000000000000000000000016946311479fea946103c7949293919291600401611700565b602060405180830381865afa1580156103e4573d6000803e3d6000fd5b505050506040513d601f19601f82011682018060405250810190610408919061175d565b90508061044f5760405162461bcd60e51b8152602060048201526015602482015274135bdd99481c1c9bdbd9881a5cc81a5b9d985b1a59605a1b6044820152606401610302565b9392505050565b6001602081905260009182526040918290208054918101546002808301546003840154865160c081019788905295966001600160a01b039485169685841696600160a01b90940460ff16959092169360048401918391608083019184919082845b8154815260200190600101908083116104b7575050505050815260200160028201600280602002604051908101604052809291906000905b8282101561053557604080518082019182905290600284810287019182845b81548152602001906001019080831161050e575050505050815260200190600101906104ef565b50505090825250604080518082019182905260209092019190600684019060029082845b815481526020019060010190808311610559575050509183525050604080518082019182905260209092019190600884019060029082845b815481526020019060010190808311610591575050509190925250506040805160c081019091529192919050600e820181608081018260028282826020028201915b8154815260200190600101908083116105d3575050505050815260200160028201600280602002604051908101604052809291906000905b8282101561065157604080518082019182905290600284810287019182845b81548152602001906001019080831161062a5750505050508152602001906001019061060b565b50505090825250604080518082019182905260209092019190600684019060029082845b815481526020019060010190808311610675575050509183525050604080518082019182905260209092019190600884019060029082845b8154815260200190600101908083116106ad57505050505081525050905087565b600082815260016020526040812060020154600160a01b900460ff1661072b5760405162461bcd60e51b815260206004820152601260248201527147616d65206973206e6f742061637469766560701b6044820152606401610302565b81516020830151604080850151606086015191516308a3cff560e11b81526000946001600160a01b037f000000000000000000000000000000000000000000000000000000000000000016946311479fea9461078e949293919291600401611700565b602060405180830381865afa1580156107ab573d6000803e3d6000fd5b505050506040513d601f19601f820116820180604052508101906107cf919061175d565b90508061044f5760405162461bcd60e51b815260206004820152601460248201527315da5b881c1c9bdbd9881a5cc81a5b9d985b1a5960621b6044820152606401610302565b61081d611062565b610827600061108f565b565b6108316110df565b600082815260016020818152604092839020835160e08101855281548152928101546001600160a01b039081169284019290925260028082015480841685870152600160a01b900460ff16151560608501526003820154909216608080850191909152845160c08101958690529394919360a08601939092600486019284929083019184919082845b8154815260200190600101908083116108ba575050505050815260200160028201600280602002604051908101604052809291906000905b8282101561093857604080518082019182905290600284810287019182845b815481526020019060010190808311610911575050505050815260200190600101906108f2565b50505090825250604080518082019182905260209092019190600684019060029082845b81548152602001906001019080831161095c575050509183525050604080518082019182905260209092019190600884019060029082845b815481526020019060010190808311610994575050509190925250505081526040805160c08101909152602090910190600e830181608081018260028282826020028201915b8154815260200190600101908083116109da575050505050815260200160028201600280602002604051908101604052809291906000905b82821015610a5857604080518082019182905290600284810287019182845b815481526020019060010190808311610a3157505050505081526020019060010190610a12565b50505090825250604080518082019182905260209092019190600684019060029082845b815481526020019060010190808311610a7c575050509183525050604080518082019182905260209092019190600884019060029082845b815481526020019060010190808311610ab4575050509190925250505090525092915050565b610ae2611062565b6001600160a01b03851615801590610b0257506001600160a01b03841615155b610b4e5760405162461bcd60e51b815260206004820152601860248201527f496e76616c696420706c617965722061646472657373657300000000000000006044820152606401610302565b836001600160a01b0316856001600160a01b031603610baf5760405162461bcd60e51b815260206004820152601a60248201527f506c61796572732063616e6e6f74206265207468652073616d650000000000006044820152606401610302565b600081815260016020526040902060020154600160a01b900460ff1615610c0e5760405162461bcd60e51b815260206004820152601360248201527247616d6520616c72656164792065786973747360681b6044820152606401610302565b6040805160e0810182528281526001600160a01b0380881660208084018281528984168587019081526001606087018181526080880195865260a088018c815260c089018c905260008b8152958390529890942087518155925190830180549187166001600160a01b031992831617905590516002808401805495511515600160a01b026001600160a81b031990961692881692909217949094179055925160038201805491909516931692909217909255925180519293849390926004840191610cdb91839190611128565b506020820151610cf19060028084019190611166565b506040820151610d079060068301906002611128565b506060820151610d1d9060088301906002611128565b50505060c08201518051600e830190610d399082906002611128565b506020820151610d4f9060028084019190611166565b506040820151610d659060068301906002611128565b506060820151610d7b9060088301906002611128565b5050865160208801516040808a015160608b01519151637ae4eb4f60e11b8152600097506001600160a01b037f000000000000000000000000000000000000000000000000000000000000000016965063f5c9d69e9550610de19493929060040161177f565b602060405180830381865afa158015610dfe573d6000803e3d6000fd5b505050506040513d601f19601f82011682018060405250810190610e22919061175d565b905080610e825760405162461bcd60e51b815260206004820152602860248201527f506c617965722031207368697020706c6163656d656e742070726f6f66206973604482015267081a5b9d985b1a5960c21b6064820152608401610302565b8351602085015160408087015160608801519151637ae4eb4f60e11b81526000946001600160a01b037f0000000000000000000000000000000000000000000000000000000000000000169463f5c9d69e94610ee594929391929160040161177f565b602060405180830381865afa158015610f02573d6000803e3d6000fd5b505050506040513d601f19601f82011682018060405250810190610f26919061175d565b905080610f865760405162461bcd60e51b815260206004820152602860248201527f506c617965722032207368697020706c6163656d656e742070726f6f66206973604482015267081a5b9d985b1a5960c21b6064820152608401610302565b837fec376e4952e7263b4e41bfefbcab1e6e6b6cf7477a1cbedf31b7ed4d36450c2a89898960600151600060028110610fc157610fc16117bf565b6020908102919091015160608c8101518301518c820151805190850151604080516001600160a01b03998a16815297909816958701959095528587019390935290840152608083015260a082015290519081900360c00190a25050505050505050565b61102c611062565b6001600160a01b03811661105657604051631e4fbdf760e01b815260006004820152602401610302565b61105f8161108f565b50565b6000546001600160a01b031633146108275760405163118cdaa760e01b8152336004820152602401610302565b600080546001600160a01b038381166001600160a01b0319831681178455604051919092169283917f8be0079c531659141344cd1fd0a4f28419497f9722a3daafe3b4186f6b6457e09190a35050565b6040805160e08101825260008082526020820181905291810182905260608101829052608081019190915260a081016111166111ad565b81526020016111236111ad565b905290565b8260028101928215611156579160200282015b8281111561115657825182559160200191906001019061113b565b506111629291506111e7565b5090565b6004830191839082156111a1579160200282015b828111156111a15782516111919083906002611128565b509160200191906002019061117a565b506111629291506111fc565b60405180608001604052806111c0611216565b81526020016111cd611234565b81526020016111da611216565b8152602001611123611216565b5b8082111561116257600081556001016111e8565b8082111561116257600080825560018201556002016111fc565b60405180604001604052806002906020820280368337509192915050565b60405180604001604052806002905b61124b611216565b8152602001906001900390816112435790505090565b634e487b7160e01b600052604160045260246000fd5b6040516080810167ffffffffffffffff8111828210171561129a5761129a611261565b60405290565b6040805190810167ffffffffffffffff8111828210171561129a5761129a611261565b6040516060810167ffffffffffffffff8111828210171561129a5761129a611261565b600082601f8301126112f757600080fd5b6112ff6112a0565b80604084018581111561131157600080fd5b845b8181101561132b578035845260209384019301611313565b509095945050505050565b600082601f83011261134757600080fd5b61134f6112a0565b80608084018581111561136157600080fd5b845b8181101561132b5761137587826112e6565b8452602090930192604001611363565b600061016080838503121561139957600080fd5b6113a1611277565b91506113ad84846112e6565b82526113bc8460408501611336565b602081818501526113d08660c087016112e6565b60408501528561011f8601126113e557600080fd5b6113ed6112c3565b928501929150818684111561140157600080fd5b61010086015b8481101561141e5780358452928201928201611407565b5060608501525091949350505050565b600080610180838503121561144257600080fd5b823591506114538460208501611385565b90509250929050565b60006020828403121561146e57600080fd5b5035919050565b8060005b6002811015611498578151845260209384019390910190600101611479565b50505050565b6114a9828251611475565b602080820151604080850160005b60028110156114db576114cb828551611475565b92840192908201906001016114b7565b505083015191506114f1905060c0840182611475565b506060810151611505610100840182611475565b505050565b8781526001600160a01b0387811660208301528681166040830152851515606083015284166080820152610320810161154660a083018561149e565b6115546101e083018461149e565b98975050505050505050565b60006103208201905082518252602083015160018060a01b038082166020850152806040860151166040850152606085015115156060850152806080860151166080850152505060a08301516115b960a084018261149e565b5060c08301516115cd6101e084018261149e565b5092915050565b80356001600160a01b03811681146115eb57600080fd5b919050565b6000610140828403121561160357600080fd5b61160b611277565b905061161783836112e6565b81526116268360408401611336565b60208201526116388360c084016112e6565b604082015261164b8361010084016112e6565b606082015292915050565b60008060008060006102e0868803121561166f57600080fd5b611678866115d4565b9450611686602087016115d4565b935061169587604088016115f0565b92506116a58761018088016115f0565b949793965091946102c0013592915050565b6000602082840312156116c957600080fd5b61044f826115d4565b8060005b6002811015611498576116ea848351611475565b60409390930192602091909101906001016116d6565b610160810161170f8287611475565b61171c60408301866116d2565b61172960c0830185611475565b61010082018360005b6003811015611751578151835260209283019290910190600101611732565b50505095945050505050565b60006020828403121561176f57600080fd5b8151801515811461044f57600080fd5b610140810161178e8287611475565b61179b60408301866116d2565b6117a860c0830185611475565b6117b6610100830184611475565b95945050505050565b634e487b7160e01b600052603260045260246000fdfea2646970667358221220c99214cfa7de0a59fd3216bde3dca45e5adb850ea5b61024970f8e8f5572392c64736f6c63430008140033",
  "linkReferences": {},
  "deployedLinkReferences": {}
}