{
  "_format": "hh-sol-artifact-1",
  "contractName": "BattleshipWaku",
  "sourceName": "contracts/BattleshipWaku.sol",
  "abi": [
    {
      "inputs": [],
      "stateMutability": "nonpayable",
      "type": "constructor"
    },
    {
      "inputs": [
        {
          "internalType": "address",
          "name": "target",
          "type": "address"
        }
      ],
      "name": "AddressEmptyCode",
      "type": "error"
    },
    {
      "inputs": [
        {
          "internalType": "address",
          "name": "implementation",
          "type": "address"
        }
      ],
      "name": "ERC1967InvalidImplementation",
      "type": "error"
    },
    {
      "inputs": [],
      "name": "ERC1967NonPayable",
      "type": "error"
    },
    {
      "inputs": [],
      "name": "FailedCall",
      "type": "error"
    },
    {
      "inputs": [],
      "name": "InvalidInitialization",
      "type": "error"
    },
    {
      "inputs": [],
      "name": "NotInitializing",
      "type": "error"
    },
    {
      "inputs": [
        {
          "internalType": "address",
          "name": "owner",
          "type": "address"
        }
      ],
      "name": "OwnableInvalidOwner",
      "type": "error"
    },
    {
      "inputs": [
        {
          "internalType": "address",
          "name": "account",
          "type": "address"
        }
      ],
      "name": "OwnableUnauthorizedAccount",
      "type": "error"
    },
    {
      "inputs": [],
      "name": "UUPSUnauthorizedCallContext",
      "type": "error"
    },
    {
      "inputs": [
        {
          "internalType": "bytes32",
          "name": "slot",
          "type": "bytes32"
        }
      ],
      "name": "UUPSUnsupportedProxiableUUID",
      "type": "error"
    },
    {
      "anonymous": false,
      "inputs": [
        {
          "indexed": true,
          "internalType": "uint256",
          "name": "gameId",
          "type": "uint256"
        },
        {
          "indexed": false,
          "internalType": "address",
          "name": "player1",
          "type": "address"
        },
        {
          "indexed": false,
          "internalType": "uint256",
          "name": "player1BoardCommitment",
          "type": "uint256"
        },
        {
          "indexed": false,
          "internalType": "uint256",
          "name": "player1MerkleRoot",
          "type": "uint256"
        }
      ],
      "name": "GameCreated",
      "type": "event"
    },
    {
      "anonymous": false,
      "inputs": [
        {
          "indexed": true,
          "internalType": "uint256",
          "name": "gameId",
          "type": "uint256"
        },
        {
          "indexed": false,
          "internalType": "address",
          "name": "winner",
          "type": "address"
        }
      ],
      "name": "GameEnded",
      "type": "event"
    },
    {
      "anonymous": false,
      "inputs": [
        {
          "indexed": true,
          "internalType": "uint256",
          "name": "gameId",
          "type": "uint256"
        },
        {
          "indexed": false,
          "internalType": "address",
          "name": "player2",
          "type": "address"
        }
      ],
      "name": "GameJoined",
      "type": "event"
    },
    {
      "anonymous": false,
      "inputs": [
        {
          "indexed": true,
          "internalType": "uint256",
          "name": "gameId",
          "type": "uint256"
        }
      ],
      "name": "GameStarted",
      "type": "event"
    },
    {
      "anonymous": false,
      "inputs": [
        {
          "indexed": false,
          "internalType": "uint64",
          "name": "version",
          "type": "uint64"
        }
      ],
      "name": "Initialized",
      "type": "event"
    },
    {
      "anonymous": false,
      "inputs": [
        {
          "indexed": false,
          "internalType": "uint256",
          "name": "indexedgameId",
          "type": "uint256"
        },
        {
          "indexed": false,
          "internalType": "address",
          "name": "player",
          "type": "address"
        }
      ],
      "name": "MoveMade",
      "type": "event"
    },
    {
      "anonymous": false,
      "inputs": [
        {
          "indexed": true,
          "internalType": "address",
          "name": "previousOwner",
          "type": "address"
        },
        {
          "indexed": true,
          "internalType": "address",
          "name": "newOwner",
          "type": "address"
        }
      ],
      "name": "OwnershipTransferred",
      "type": "event"
    },
    {
      "anonymous": false,
      "inputs": [
        {
          "indexed": true,
          "internalType": "address",
          "name": "implementation",
          "type": "address"
        }
      ],
      "name": "Upgraded",
      "type": "event"
    },
    {
      "inputs": [
        {
          "internalType": "address",
          "name": "player2",
          "type": "address"
        },
        {
          "components": [
            {
              "internalType": "uint256[2]",
              "name": "pA",
              "type": "uint256[2]"
            },
            {
              "internalType": "uint256[2][2]",
              "name": "pB",
              "type": "uint256[2][2]"
            },
            {
              "internalType": "uint256[2]",
              "name": "pC",
              "type": "uint256[2]"
            },
            {
              "internalType": "uint256[2]",
              "name": "pubSignals",
              "type": "uint256[2]"
            }
          ],
          "internalType": "struct BattleshipWaku.ShipPlacementProof",
          "name": "shipPlacementProofPlayer2",
          "type": "tuple"
        },
        {
          "internalType": "uint256",
          "name": "gameId",
          "type": "uint256"
        }
      ],
      "name": "JoinGame",
      "outputs": [],
      "stateMutability": "nonpayable",
      "type": "function"
    },
    {
      "inputs": [],
      "name": "UPGRADE_INTERFACE_VERSION",
      "outputs": [
        {
          "internalType": "string",
          "name": "",
          "type": "string"
        }
      ],
      "stateMutability": "view",
      "type": "function"
    },
    {
      "inputs": [
        {
          "internalType": "address",
          "name": "player1",
          "type": "address"
        },
        {
          "components": [
            {
              "internalType": "uint256[2]",
              "name": "pA",
              "type": "uint256[2]"
            },
            {
              "internalType": "uint256[2][2]",
              "name": "pB",
              "type": "uint256[2][2]"
            },
            {
              "internalType": "uint256[2]",
              "name": "pC",
              "type": "uint256[2]"
            },
            {
              "internalType": "uint256[2]",
              "name": "pubSignals",
              "type": "uint256[2]"
            }
          ],
          "internalType": "struct BattleshipWaku.ShipPlacementProof",
          "name": "shipPlacementProofPlayer1",
          "type": "tuple"
        },
        {
          "internalType": "uint256",
          "name": "gameId",
          "type": "uint256"
        },
        {
          "internalType": "uint16",
          "name": "wakuRoomId",
          "type": "uint16"
        }
      ],
      "name": "createGame",
      "outputs": [],
      "stateMutability": "nonpayable",
      "type": "function"
    },
    {
      "inputs": [
        {
          "internalType": "uint256",
          "name": "",
          "type": "uint256"
        }
      ],
      "name": "gameIds",
      "outputs": [
        {
          "internalType": "uint256",
          "name": "",
          "type": "uint256"
        }
      ],
      "stateMutability": "view",
      "type": "function"
    },
    {
      "inputs": [
        {
          "internalType": "uint256",
          "name": "",
          "type": "uint256"
        }
      ],
      "name": "games",
      "outputs": [
        {
          "internalType": "uint256",
          "name": "gameId",
          "type": "uint256"
        },
        {
          "internalType": "address",
          "name": "player1",
          "type": "address"
        },
        {
          "internalType": "address",
          "name": "player2",
          "type": "address"
        },
        {
          "internalType": "bool",
          "name": "isActive",
          "type": "bool"
        },
        {
          "internalType": "address",
          "name": "playerTurn",
          "type": "address"
        },
        {
          "internalType": "bytes32",
          "name": "player1_board_commitment",
          "type": "bytes32"
        },
        {
          "internalType": "bytes32",
          "name": "player1_merkle_root",
          "type": "bytes32"
        },
        {
          "internalType": "bytes32",
          "name": "player2_board_commitment",
          "type": "bytes32"
        },
        {
          "internalType": "bytes32",
          "name": "player2_merkle_root",
          "type": "bytes32"
        },
        {
          "components": [
            {
              "internalType": "uint256[2]",
              "name": "pA",
              "type": "uint256[2]"
            },
            {
              "internalType": "uint256[2][2]",
              "name": "pB",
              "type": "uint256[2][2]"
            },
            {
              "internalType": "uint256[2]",
              "name": "pC",
              "type": "uint256[2]"
            },
            {
              "internalType": "uint256[2]",
              "name": "pubSignals",
              "type": "uint256[2]"
            }
          ],
          "internalType": "struct BattleshipWaku.ShipPlacementProof",
          "name": "player1ShipPlacementProof",
          "type": "tuple"
        },
        {
          "components": [
            {
              "internalType": "uint256[2]",
              "name": "pA",
              "type": "uint256[2]"
            },
            {
              "internalType": "uint256[2][2]",
              "name": "pB",
              "type": "uint256[2][2]"
            },
            {
              "internalType": "uint256[2]",
              "name": "pC",
              "type": "uint256[2]"
            },
            {
              "internalType": "uint256[2]",
              "name": "pubSignals",
              "type": "uint256[2]"
            }
          ],
          "internalType": "struct BattleshipWaku.ShipPlacementProof",
          "name": "player2ShipPlacementProof",
          "type": "tuple"
        },
        {
          "internalType": "uint16",
          "name": "wakuRoomId",
          "type": "uint16"
        }
      ],
      "stateMutability": "view",
      "type": "function"
    },
    {
      "inputs": [],
      "name": "getAllGames",
      "outputs": [
        {
          "components": [
            {
              "internalType": "uint256",
              "name": "gameId",
              "type": "uint256"
            },
            {
              "internalType": "address",
              "name": "player1",
              "type": "address"
            },
            {
              "internalType": "address",
              "name": "player2",
              "type": "address"
            },
            {
              "internalType": "bool",
              "name": "isActive",
              "type": "bool"
            },
            {
              "internalType": "address",
              "name": "playerTurn",
              "type": "address"
            },
            {
              "internalType": "bytes32",
              "name": "player1_board_commitment",
              "type": "bytes32"
            },
            {
              "internalType": "bytes32",
              "name": "player1_merkle_root",
              "type": "bytes32"
            },
            {
              "internalType": "bytes32",
              "name": "player2_board_commitment",
              "type": "bytes32"
            },
            {
              "internalType": "bytes32",
              "name": "player2_merkle_root",
              "type": "bytes32"
            },
            {
              "components": [
                {
                  "internalType": "uint256[2]",
                  "name": "pA",
                  "type": "uint256[2]"
                },
                {
                  "internalType": "uint256[2][2]",
                  "name": "pB",
                  "type": "uint256[2][2]"
                },
                {
                  "internalType": "uint256[2]",
                  "name": "pC",
                  "type": "uint256[2]"
                },
                {
                  "internalType": "uint256[2]",
                  "name": "pubSignals",
                  "type": "uint256[2]"
                }
              ],
              "internalType": "struct BattleshipWaku.ShipPlacementProof",
              "name": "player1ShipPlacementProof",
              "type": "tuple"
            },
            {
              "components": [
                {
                  "internalType": "uint256[2]",
                  "name": "pA",
                  "type": "uint256[2]"
                },
                {
                  "internalType": "uint256[2][2]",
                  "name": "pB",
                  "type": "uint256[2][2]"
                },
                {
                  "internalType": "uint256[2]",
                  "name": "pC",
                  "type": "uint256[2]"
                },
                {
                  "internalType": "uint256[2]",
                  "name": "pubSignals",
                  "type": "uint256[2]"
                }
              ],
              "internalType": "struct BattleshipWaku.ShipPlacementProof",
              "name": "player2ShipPlacementProof",
              "type": "tuple"
            },
            {
              "internalType": "uint16",
              "name": "wakuRoomId",
              "type": "uint16"
            }
          ],
          "internalType": "struct BattleshipWaku.GameView[]",
          "name": "",
          "type": "tuple[]"
        }
      ],
      "stateMutability": "view",
      "type": "function"
    },
    {
      "inputs": [
        {
          "internalType": "uint256",
          "name": "gameId",
          "type": "uint256"
        }
      ],
      "name": "getGame",
      "outputs": [
        {
          "components": [
            {
              "internalType": "uint256",
              "name": "gameId",
              "type": "uint256"
            },
            {
              "internalType": "address",
              "name": "player1",
              "type": "address"
            },
            {
              "internalType": "address",
              "name": "player2",
              "type": "address"
            },
            {
              "internalType": "bool",
              "name": "isActive",
              "type": "bool"
            },
            {
              "internalType": "address",
              "name": "playerTurn",
              "type": "address"
            },
            {
              "internalType": "bytes32",
              "name": "player1_board_commitment",
              "type": "bytes32"
            },
            {
              "internalType": "bytes32",
              "name": "player1_merkle_root",
              "type": "bytes32"
            },
            {
              "internalType": "bytes32",
              "name": "player2_board_commitment",
              "type": "bytes32"
            },
            {
              "internalType": "bytes32",
              "name": "player2_merkle_root",
              "type": "bytes32"
            },
            {
              "components": [
                {
                  "internalType": "uint256[2]",
                  "name": "pA",
                  "type": "uint256[2]"
                },
                {
                  "internalType": "uint256[2][2]",
                  "name": "pB",
                  "type": "uint256[2][2]"
                },
                {
                  "internalType": "uint256[2]",
                  "name": "pC",
                  "type": "uint256[2]"
                },
                {
                  "internalType": "uint256[2]",
                  "name": "pubSignals",
                  "type": "uint256[2]"
                }
              ],
              "internalType": "struct BattleshipWaku.ShipPlacementProof",
              "name": "player1ShipPlacementProof",
              "type": "tuple"
            },
            {
              "components": [
                {
                  "internalType": "uint256[2]",
                  "name": "pA",
                  "type": "uint256[2]"
                },
                {
                  "internalType": "uint256[2][2]",
                  "name": "pB",
                  "type": "uint256[2][2]"
                },
                {
                  "internalType": "uint256[2]",
                  "name": "pC",
                  "type": "uint256[2]"
                },
                {
                  "internalType": "uint256[2]",
                  "name": "pubSignals",
                  "type": "uint256[2]"
                }
              ],
              "internalType": "struct BattleshipWaku.ShipPlacementProof",
              "name": "player2ShipPlacementProof",
              "type": "tuple"
            },
            {
              "internalType": "uint16",
              "name": "wakuRoomId",
              "type": "uint16"
            }
          ],
          "internalType": "struct BattleshipWaku.GameView",
          "name": "gameData",
          "type": "tuple"
        },
        {
          "internalType": "uint8",
          "name": "player1Hits",
          "type": "uint8"
        },
        {
          "internalType": "uint8",
          "name": "player2Hits",
          "type": "uint8"
        }
      ],
      "stateMutability": "view",
      "type": "function"
    },
    {
      "inputs": [
        {
          "internalType": "uint256",
          "name": "gameId",
          "type": "uint256"
        }
      ],
      "name": "getGameById",
      "outputs": [
        {
          "components": [
            {
              "internalType": "uint256",
              "name": "gameId",
              "type": "uint256"
            },
            {
              "internalType": "address",
              "name": "player1",
              "type": "address"
            },
            {
              "internalType": "address",
              "name": "player2",
              "type": "address"
            },
            {
              "internalType": "bool",
              "name": "isActive",
              "type": "bool"
            },
            {
              "internalType": "address",
              "name": "playerTurn",
              "type": "address"
            },
            {
              "internalType": "bytes32",
              "name": "player1_board_commitment",
              "type": "bytes32"
            },
            {
              "internalType": "bytes32",
              "name": "player1_merkle_root",
              "type": "bytes32"
            },
            {
              "internalType": "bytes32",
              "name": "player2_board_commitment",
              "type": "bytes32"
            },
            {
              "internalType": "bytes32",
              "name": "player2_merkle_root",
              "type": "bytes32"
            },
            {
              "components": [
                {
                  "internalType": "uint256[2]",
                  "name": "pA",
                  "type": "uint256[2]"
                },
                {
                  "internalType": "uint256[2][2]",
                  "name": "pB",
                  "type": "uint256[2][2]"
                },
                {
                  "internalType": "uint256[2]",
                  "name": "pC",
                  "type": "uint256[2]"
                },
                {
                  "internalType": "uint256[2]",
                  "name": "pubSignals",
                  "type": "uint256[2]"
                }
              ],
              "internalType": "struct BattleshipWaku.ShipPlacementProof",
              "name": "player1ShipPlacementProof",
              "type": "tuple"
            },
            {
              "components": [
                {
                  "internalType": "uint256[2]",
                  "name": "pA",
                  "type": "uint256[2]"
                },
                {
                  "internalType": "uint256[2][2]",
                  "name": "pB",
                  "type": "uint256[2][2]"
                },
                {
                  "internalType": "uint256[2]",
                  "name": "pC",
                  "type": "uint256[2]"
                },
                {
                  "internalType": "uint256[2]",
                  "name": "pubSignals",
                  "type": "uint256[2]"
                }
              ],
              "internalType": "struct BattleshipWaku.ShipPlacementProof",
              "name": "player2ShipPlacementProof",
              "type": "tuple"
            },
            {
              "internalType": "uint16",
              "name": "wakuRoomId",
              "type": "uint16"
            }
          ],
          "internalType": "struct BattleshipWaku.GameView",
          "name": "",
          "type": "tuple"
        }
      ],
      "stateMutability": "view",
      "type": "function"
    },
    {
      "inputs": [
        {
          "internalType": "uint256",
          "name": "gameId",
          "type": "uint256"
        }
      ],
      "name": "getGamePlayers",
      "outputs": [
        {
          "internalType": "address",
          "name": "",
          "type": "address"
        },
        {
          "internalType": "address",
          "name": "",
          "type": "address"
        }
      ],
      "stateMutability": "view",
      "type": "function"
    },
    {
      "inputs": [
        {
          "internalType": "uint256",
          "name": "gameId",
          "type": "uint256"
        }
      ],
      "name": "getGameStatus",
      "outputs": [
        {
          "internalType": "bool",
          "name": "",
          "type": "bool"
        }
      ],
      "stateMutability": "view",
      "type": "function"
    },
    {
      "inputs": [
        {
          "internalType": "address",
          "name": "_shipPlacementVerifier",
          "type": "address"
        },
        {
          "internalType": "address",
          "name": "_moveVerifier",
          "type": "address"
        },
        {
          "internalType": "address",
          "name": "_winVerifier",
          "type": "address"
        }
      ],
      "name": "initialize",
      "outputs": [],
      "stateMutability": "nonpayable",
      "type": "function"
    },
    {
      "inputs": [],
      "name": "moveVerifier",
      "outputs": [
        {
          "internalType": "contract IMoveVerifier",
          "name": "",
          "type": "address"
        }
      ],
      "stateMutability": "view",
      "type": "function"
    },
    {
      "inputs": [],
      "name": "owner",
      "outputs": [
        {
          "internalType": "address",
          "name": "",
          "type": "address"
        }
      ],
      "stateMutability": "view",
      "type": "function"
    },
    {
      "inputs": [],
      "name": "proxiableUUID",
      "outputs": [
        {
          "internalType": "bytes32",
          "name": "",
          "type": "bytes32"
        }
      ],
      "stateMutability": "view",
      "type": "function"
    },
    {
      "inputs": [],
      "name": "renounceOwnership",
      "outputs": [],
      "stateMutability": "nonpayable",
      "type": "function"
    },
    {
      "inputs": [],
      "name": "shipPlacementVerifier",
      "outputs": [
        {
          "internalType": "contract IShipPlacementVerifier",
          "name": "",
          "type": "address"
        }
      ],
      "stateMutability": "view",
      "type": "function"
    },
    {
      "inputs": [
        {
          "internalType": "address",
          "name": "newOwner",
          "type": "address"
        }
      ],
      "name": "transferOwnership",
      "outputs": [],
      "stateMutability": "nonpayable",
      "type": "function"
    },
    {
      "inputs": [
        {
          "internalType": "address",
          "name": "newImplementation",
          "type": "address"
        },
        {
          "internalType": "bytes",
          "name": "data",
          "type": "bytes"
        }
      ],
      "name": "upgradeToAndCall",
      "outputs": [],
      "stateMutability": "payable",
      "type": "function"
    },
    {
      "inputs": [
        {
          "internalType": "uint256",
          "name": "gameId",
          "type": "uint256"
        },
        {
          "components": [
            {
              "internalType": "uint256[2]",
              "name": "pA",
              "type": "uint256[2]"
            },
            {
              "internalType": "uint256[2][2]",
              "name": "pB",
              "type": "uint256[2][2]"
            },
            {
              "internalType": "uint256[2]",
              "name": "pC",
              "type": "uint256[2]"
            },
            {
              "internalType": "uint256[3]",
              "name": "pubSignals",
              "type": "uint256[3]"
            }
          ],
          "internalType": "struct BattleshipWaku.WinProof",
          "name": "winProof",
          "type": "tuple"
        }
      ],
      "name": "winVerification",
      "outputs": [
        {
          "internalType": "bool",
          "name": "",
          "type": "bool"
        }
      ],
      "stateMutability": "nonpayable",
      "type": "function"
    },
    {
      "inputs": [],
      "name": "winVerifier",
      "outputs": [
        {
          "internalType": "contract IWinVerifier",
          "name": "",
          "type": "address"
        }
      ],
      "stateMutability": "view",
      "type": "function"
    }
  ],
  "bytecode": "0x60a0604052306080523480156200001557600080fd5b506200002062000026565b620000da565b7ff0c57e16840df040f15088dc2f81fe391c3923bec73e23a9662efc9c229c6a00805468010000000000000000900460ff1615620000775760405163f92ee8a960e01b815260040160405180910390fd5b80546001600160401b0390811614620000d75780546001600160401b0319166001600160401b0390811782556040519081527fc7f505b2f371ae2175ee4913f4499e1f2633a7b5936321eed1cdaeb6115181d29060200160405180910390a15b50565b608051612d276200010460003960008181611d7501528181611d9e0152611ee40152612d276000f3fe60806040526004361061011f5760003560e01c80638d2d99ee116100a0578063c539684411610064578063c5396844146103f0578063d173bf9c14610410578063d82c13f014610430578063db1c45f914610450578063f2fde38b1461047257600080fd5b80638d2d99ee146103065780638da5cb5b14610326578063a2f77bcc14610363578063ad3cb1cc14610392578063c0c53b8b146103d057600080fd5b806329b3e3b6116100e757806329b3e3b614610263578063489d2220146102835780634f1ef286146102bb57806352d1902d146102ce578063715018a6146102f157600080fd5b806309660513146101245780630f1bf4541461015a578063117a5b90146101a457806315a40f49146101dc5780632159e87014610241575b600080fd5b34801561013057600080fd5b5061014461013f3660046123fc565b610492565b6040516101519190612576565b60405180910390f35b34801561016657600080fd5b506101946101753660046123fc565b600090815260036020526040902060020154600160a01b900460ff1690565b6040519015158152602001610151565b3480156101b057600080fd5b506101c46101bf3660046123fc565b610781565b6040516101519c9b9a99989796959493929190612585565b3480156101e857600080fd5b506102216101f73660046123fc565b600090815260036020526040902060018101546002909101546001600160a01b0391821692911690565b604080516001600160a01b03938416815292909116602083015201610151565b34801561024d57600080fd5b5061026161025c366004612638565b610a1f565b005b34801561026f57600080fd5b5061019461027e3660046127e3565b610dd3565b34801561028f57600080fd5b506000546102a3906001600160a01b031681565b6040516001600160a01b039091168152602001610151565b6102616102c93660046128b0565b610ffd565b3480156102da57600080fd5b506102e361101c565b604051908152602001610151565b3480156102fd57600080fd5b50610261611039565b34801561031257600080fd5b506002546102a3906001600160a01b031681565b34801561033257600080fd5b507f9016d09d72d40fdae2fd8ceac6b6234c7706214fd39c1cd1e609a0528c199300546001600160a01b03166102a3565b34801561036f57600080fd5b5061038361037e3660046123fc565b61104d565b60405161015193929190612956565b34801561039e57600080fd5b506103c3604051806040016040528060058152602001640352e302e360dc1b81525081565b60405161015191906129a5565b3480156103dc57600080fd5b506102616103eb3660046129d8565b611376565b3480156103fc57600080fd5b5061026161040b366004612a1b565b6114b9565b34801561041c57600080fd5b506001546102a3906001600160a01b031681565b34801561043c57600080fd5b506102e361044b3660046123fc565b61172c565b34801561045c57600080fd5b5061046561174d565b6040516101519190612a5a565b34801561047e57600080fd5b5061026161048d366004612aa9565b611d2c565b61049a61224e565b6000828152600360208181526040928390208351610180810185528154815260018201546001600160a01b039081169382019390935260028083015480851683880152600160a01b900460ff161515606083015293820154909216608080840191909152600482015460a0840152600582015460c080850191909152600683015460e0850152600783015461010085015285519081019586905291949293610120850193600987019284929083019184919082845b81548152602001906001019080831161054f575050505050815260200160028201600280602002604051908101604052809291906000905b828210156105cd57604080518082019182905290600284810287019182845b8154815260200190600101908083116105a657505050505081526020019060010190610587565b50505090825250604080518082019182905260209092019190600684019060029082845b8154815260200190600101908083116105f1575050509183525050604080518082019182905260209092019190600884019060029082845b815481526020019060010190808311610629575050509190925250505081526040805160c081019091526020909101906013840181608081018260028282826020028201915b81548152602001906001019080831161066f575050505050815260200160028201600280602002604051908101604052809291906000905b828210156106ed57604080518082019182905290600284810287019182845b8154815260200190600101908083116106c6575050505050815260200190600101906106a7565b50505090825250604080518082019182905260209092019190600684019060029082845b815481526020019060010190808311610711575050509183525050604080518082019182905260209092019190600884019060029082845b81548152602001906001019080831161074957505050919092525050508152601d9092015461ffff1660209092019190915292915050565b600360208190526000918252604091829020805460018201546002808401549484015460048501546005860154600687015460078801548a5160c081019b8c9052979a6001600160a01b039788169a8881169a600160a01b90910460ff16999890961697949693959294919360098401918391608083019184919082845b8154815260200190600101908083116107ff575050505050815260200160028201600280602002604051908101604052809291906000905b8282101561087d57604080518082019182905290600284810287019182845b81548152602001906001019080831161085657505050505081526020019060010190610837565b50505090825250604080518082019182905260209092019190600684019060029082845b8154815260200190600101908083116108a1575050509183525050604080518082019182905260209092019190600884019060029082845b8154815260200190600101908083116108d9575050509190925250506040805160c0810190915291929190506013820181608081018260028282826020028201915b81548152602001906001019080831161091b575050505050815260200160028201600280602002604051908101604052809291906000905b8282101561099957604080518082019182905290600284810287019182845b81548152602001906001019080831161097257505050505081526020019060010190610953565b50505090825250604080518082019182905260209092019190600684019060029082845b8154815260200190600101908083116109bd575050509183525050604080518082019182905260209092019190600884019060029082845b8154815260200190600101908083116109f55750505091909252505050601d9091015461ffff168c565b6001600160a01b038416610a755760405162461bcd60e51b8152602060048201526018602482015277496e76616c696420706c617965722061646472657373657360401b60448201526064015b60405180910390fd5b600082815260036020526040902060020154600160a01b900460ff1615610ad45760405162461bcd60e51b815260206004820152601360248201527247616d6520616c72656164792065786973747360681b6044820152606401610a6c565b6000805460408051637ae4eb4f60e11b81526001600160a01b039092169163f5c9d69e91610b1491889182019060c0830190610100840190600401612ac4565b602060405180830381865afa158015610b31573d6000803e3d6000fd5b505050506040513d601f19601f82011682018060405250810190610b559190612b0f565b905080610bb55760405162461bcd60e51b815260206004820152602860248201527f506c617965722031207368697020706c6163656d656e742070726f6f66206973604482015267081a5b9d985b1a5960c21b6064820152608401610a6c565b60008381526003602081905260408220858155601d8101805461ffff191661ffff87161790556001810180546001600160a01b03199081166001600160a01b038b169081179092556002830180546001600160a81b0319169055928201805490931617909155610100860135600482015561012086013560058201556006810182905560078101919091558460098201610c4f8282612b68565b50506040805160c0810182526000608080830182815260a0840183905283528351908101845280840182815260608083018490529082528451808601865283815260208181018590528381019190915280850192909252845180860186528381528083018490528486015284518086019095528285529084019190915281019190915280516013830190610ce690829060026122be565b506020820151610cfc90600280840191906122fc565b506040820151610d1290600683019060026122be565b506060820151610d2890600883019060026122be565b5050506001600160a01b03861660008181526008830160209081526040808320805460ff191690556004805460018101825593527f8a35acfbc15ff81a39ae7d344fd709f28e8600b4aa8c65c6b64bfe7fe36bd19b9092018790558151928352610100880135908301526101208701359082015284907f7ed9b48d83e08a25a1572b27a365dfb386da7860c996e684e541e3433b7921479060600160405180910390a2505050505050565b60008281526003602052604081206002810154600160a01b900460ff16610e315760405162461bcd60e51b815260206004820152601260248201527147616d65206973206e6f742061637469766560701b6044820152606401610a6c565b60025483516020850151604080870151606088015191516308a3cff560e11b81526000956001600160a01b0316946311479fea94610e789491939092909190600401612be1565b602060405180830381865afa158015610e95573d6000803e3d6000fd5b505050506040513d601f19601f82011682018060405250810190610eb99190612b0f565b905080610eff5760405162461bcd60e51b815260206004820152601460248201527315da5b881c1c9bdbd9881a5cc81a5b9d985b1a5960621b6044820152606401610a6c565b60028201805460ff60a01b1916905560005b600454811015610fbd578560048281548110610f2f57610f2f612b31565b906000526020600020015403610fb55760048054610f4f90600190612c65565b81548110610f5f57610f5f612b31565b906000526020600020015460048281548110610f7d57610f7d612b31565b6000918252602090912001556004805480610f9a57610f9a612c86565b60019003818190600052602060002001600090559055610fbd565b600101610f11565b5060405133815285907f3d5fcd8fa3235aeb3897f25c8ea49989174981afcb01b9d03189d1056a16775b9060200160405180910390a29150505b92915050565b611005611d6a565b61100e82611e0f565b6110188282611e17565b5050565b6000611026611ed9565b50600080516020612cd283398151915290565b611041611f22565b61104b6000611f7d565b565b61105561224e565b60008281526003602081815260408084208151610180810183528154815260018201546001600160a01b039081169482019490945260028083015480861683860152600160a01b900460ff161515606083015294820154909316608080850191909152600482015460a0850152600582015460c080860191909152600683015460e0860152600783015461010086015283519081019384905286959294936101208501939192600987019284929183019184919082845b81548152602001906001019080831161110c575050505050815260200160028201600280602002604051908101604052809291906000905b8282101561118a57604080518082019182905290600284810287019182845b81548152602001906001019080831161116357505050505081526020019060010190611144565b50505090825250604080518082019182905260209092019190600684019060029082845b8154815260200190600101908083116111ae575050509183525050604080518082019182905260209092019190600884019060029082845b8154815260200190600101908083116111e6575050509190925250505081526040805160c081019091526020909101906013840181608081018260028282826020028201915b81548152602001906001019080831161122c575050505050815260200160028201600280602002604051908101604052809291906000905b828210156112aa57604080518082019182905290600284810287019182845b81548152602001906001019080831161128357505050505081526020019060010190611264565b50505090825250604080518082019182905260209092019190600684019060029082845b8154815260200190600101908083116112ce575050509183525050604080518082019182905260209092019190600884019060029082845b81548152602001906001019080831161130657505050919092525050508152601d83015461ffff1660209182015260018301546001600160a01b039081166000908152600885019092526040808320546002909501549091168252902054909660ff928316965091169350915050565b6000611380611fee565b805490915060ff600160401b820416159067ffffffffffffffff166000811580156113a85750825b905060008267ffffffffffffffff1660011480156113c55750303b155b9050811580156113d3575080155b156113f15760405163f92ee8a960e01b815260040160405180910390fd5b845467ffffffffffffffff19166001178555831561141b57845460ff60401b1916600160401b1785555b61142433612017565b61142c612028565b600080546001600160a01b03808b166001600160a01b031992831617909255600180548a8416908316179055600280549289169290911691909117905583156114af57845460ff60401b19168555604051600181527fc7f505b2f371ae2175ee4913f4499e1f2633a7b5936321eed1cdaeb6115181d29060200160405180910390a15b5050505050505050565b6001600160a01b03831661150a5760405162461bcd60e51b8152602060048201526018602482015277496e76616c696420706c617965722061646472657373657360401b6044820152606401610a6c565b6000818152600360205260409020600201546001600160a01b0316156115695760405162461bcd60e51b815260206004820152601460248201527311d85b5948185b1c9958591e481cdd185c9d195960621b6044820152606401610a6c565b6000805460408051637ae4eb4f60e11b81526001600160a01b039092169163f5c9d69e916115a991879182019060c0830190610100840190600401612ac4565b602060405180830381865afa1580156115c6573d6000803e3d6000fd5b505050506040513d601f19601f820116820180604052508101906115ea9190612b0f565b90508061164a5760405162461bcd60e51b815260206004820152602860248201527f506c617965722032207368697020706c6163656d656e742070726f6f66206973604482015267081a5b9d985b1a5960c21b6064820152608401610a6c565b60008281526003602052604090206002810180546001600160a81b0319166001600160a01b03871617600160a01b1790556101008401356006820155610120840135600782015583601382016116a08282612b68565b50506001600160a01b0385166000818152600883016020908152604091829020805460ff19169055905191825284917f45c4f9cbafe186141862608c493f28b823fde4c2142bedc3f5169961a73fdd22910160405180910390a260405183907f50ad08f58a27f2851d7e3a1b3a6a46b290f2ce677e99642d30ff639721e7779090600090a25050505050565b6004818154811061173c57600080fd5b600091825260209091200154905081565b60045460609060009067ffffffffffffffff81111561176e5761176e612692565b6040519080825280602002602001820160405280156117a757816020015b61179461224e565b81526020019060019003908161178c5790505b50905060005b600454811015611d265760405180610180016040528060036000600485815481106117da576117da612b31565b90600052602060002001548152602001908152602001600020600001548152602001600360006004858154811061181357611813612b31565b9060005260206000200154815260200190815260200160002060010160009054906101000a90046001600160a01b03166001600160a01b03168152602001600360006004858154811061186857611868612b31565b9060005260206000200154815260200190815260200160002060020160009054906101000a90046001600160a01b03166001600160a01b0316815260200160036000600485815481106118bd576118bd612b31565b9060005260206000200154815260200190815260200160002060020160149054906101000a900460ff1615158152602001600360006004858154811061190557611905612b31565b9060005260206000200154815260200190815260200160002060030160009054906101000a90046001600160a01b03166001600160a01b03168152602001600360006004858154811061195a5761195a612b31565b90600052602060002001548152602001908152602001600020600401548152602001600360006004858154811061199357611993612b31565b9060005260206000200154815260200190815260200160002060050154815260200160036000600485815481106119cc576119cc612b31565b906000526020600020015481526020019081526020016000206006015481526020016003600060048581548110611a0557611a05612b31565b906000526020600020015481526020019081526020016000206007015481526020016003600060048581548110611a3e57611a3e612b31565b600091825260208083209091015483528201929092526040908101909120815160c0810190925260090181608081018260028282826020028201915b815481526020019060010190808311611a7a575050505050815260200160028201600280602002604051908101604052809291906000905b82821015611af857604080518082019182905290600284810287019182845b815481526020019060010190808311611ad157505050505081526020019060010190611ab2565b50505090825250604080518082019182905260209092019190600684019060029082845b815481526020019060010190808311611b1c575050509183525050604080518082019182905260209092019190600884019060029082845b815481526020019060010190808311611b545750505050508152505081526020016003600060048581548110611b8c57611b8c612b31565b600091825260208083209091015483528201929092526040908101909120815160c0810190925260130181608081018260028282826020028201915b815481526020019060010190808311611bc8575050505050815260200160028201600280602002604051908101604052809291906000905b82821015611c4657604080518082019182905290600284810287019182845b815481526020019060010190808311611c1f57505050505081526020019060010190611c00565b50505090825250604080518082019182905260209092019190600684019060029082845b815481526020019060010190808311611c6a575050509183525050604080518082019182905260209092019190600884019060029082845b815481526020019060010190808311611ca25750505050508152505081526020016003600060048581548110611cda57611cda612b31565b600091825260208083209091015483528201929092526040019020601d015461ffff1690528251839083908110611d1357611d13612b31565b60209081029190910101526001016117ad565b50919050565b611d34611f22565b6001600160a01b038116611d5e57604051631e4fbdf760e01b815260006004820152602401610a6c565b611d6781611f7d565b50565b306001600160a01b037f0000000000000000000000000000000000000000000000000000000000000000161480611df157507f00000000000000000000000000000000000000000000000000000000000000006001600160a01b0316611de5600080516020612cd2833981519152546001600160a01b031690565b6001600160a01b031614155b1561104b5760405163703e46dd60e11b815260040160405180910390fd5b611d67611f22565b816001600160a01b03166352d1902d6040518163ffffffff1660e01b8152600401602060405180830381865afa925050508015611e71575060408051601f3d908101601f19168201909252611e6e91810190612c9c565b60015b611e9957604051634c9c8ce360e01b81526001600160a01b0383166004820152602401610a6c565b600080516020612cd28339815191528114611eca57604051632a87526960e21b815260048101829052602401610a6c565b611ed48383612030565b505050565b306001600160a01b037f0000000000000000000000000000000000000000000000000000000000000000161461104b5760405163703e46dd60e11b815260040160405180910390fd5b33611f547f9016d09d72d40fdae2fd8ceac6b6234c7706214fd39c1cd1e609a0528c199300546001600160a01b031690565b6001600160a01b03161461104b5760405163118cdaa760e01b8152336004820152602401610a6c565b7f9016d09d72d40fdae2fd8ceac6b6234c7706214fd39c1cd1e609a0528c19930080546001600160a01b031981166001600160a01b03848116918217845560405192169182907f8be0079c531659141344cd1fd0a4f28419497f9722a3daafe3b4186f6b6457e090600090a3505050565b6000807ff0c57e16840df040f15088dc2f81fe391c3923bec73e23a9662efc9c229c6a00610ff7565b61201f612086565b611d67816120ab565b61104b612086565b612039826120b3565b6040516001600160a01b038316907fbc7cd75a20ee27fd9adebab32041f755214dbc6bffa90cc0225b39da2e5c2d3b90600090a280511561207e57611ed48282612118565b61101861218e565b61208e6121ad565b61104b57604051631afcd79f60e31b815260040160405180910390fd5b611d34612086565b806001600160a01b03163b6000036120e957604051634c9c8ce360e01b81526001600160a01b0382166004820152602401610a6c565b600080516020612cd283398151915280546001600160a01b0319166001600160a01b0392909216919091179055565b6060600080846001600160a01b0316846040516121359190612cb5565b600060405180830381855af49150503d8060008114612170576040519150601f19603f3d011682016040523d82523d6000602084013e612175565b606091505b50915091506121858583836121c7565b95945050505050565b341561104b5760405163b398979f60e01b815260040160405180910390fd5b60006121b7611fee565b54600160401b900460ff16919050565b6060826121dc576121d782612226565b61221f565b81511580156121f357506001600160a01b0384163b155b1561221c57604051639996b31560e01b81526001600160a01b0385166004820152602401610a6c565b50805b9392505050565b80511561223557805160208201fd5b60405163d6bda27560e01b815260040160405180910390fd5b6040805161018081018252600080825260208201819052918101829052606081018290526080810182905260a0810182905260c0810182905260e0810182905261010081019190915261012081016122a4612343565b81526020016122b1612343565b8152600060209091015290565b82600281019282156122ec579160200282015b828111156122ec5782518255916020019190600101906122d1565b506122f8929150612382565b5090565b600483019183908215612337579160200282015b8281111561233757825161232790839060026122be565b5091602001919060020190612310565b506122f8929150612397565b60405180608001604052806123566123b1565b81526020016123636123cf565b81526020016123706123b1565b815260200161237d6123b1565b905290565b5b808211156122f85760008155600101612383565b808211156122f85760008082556001820155600201612397565b60405180604001604052806002906020820280368337509192915050565b60405180604001604052806002905b6123e66123b1565b8152602001906001900390816123de5790505090565b60006020828403121561240e57600080fd5b5035919050565b8060005b6002811015612438578151845260209384019390910190600101612419565b50505050565b612449828251612415565b602080820151604080850160005b600281101561247b5761246b828551612415565b9284019290820190600101612457565b5050505050604081015161249260c0840182612415565b506060810151611ed4610100840182612415565b8051825260208101516124c460208401826001600160a01b03169052565b5060408101516124df60408401826001600160a01b03169052565b5060608101516124f3606084018215159052565b50608081015161250e60808401826001600160a01b03169052565b5060a081015160a083015260c081015160c083015260e081015160e08301526101008082015181840152506101208082015161254c8285018261243e565b505061014081015161256261026084018261243e565b50610160015161ffff166103a09190910152565b6103c08101610ff782846124a6565b8c81526001600160a01b038c811660208301528b811660408301528a151560608301528916608082015260a0810188905260c0810187905260e0810186905261010081018590526103c081016125df61012083018661243e565b6125ed61026083018561243e565b61ffff83166103a08301529d9c50505050505050505050505050565b80356001600160a01b038116811461262057600080fd5b919050565b60006101408284031215611d2657600080fd5b6000806000806101a0858703121561264f57600080fd5b61265885612609565b93506126678660208701612625565b9250610160850135915061018085013561ffff8116811461268757600080fd5b939692955090935050565b634e487b7160e01b600052604160045260246000fd5b6040516080810167ffffffffffffffff811182821017156126cb576126cb612692565b60405290565b6040805190810167ffffffffffffffff811182821017156126cb576126cb612692565b604051601f8201601f1916810167ffffffffffffffff8111828210171561271d5761271d612692565b604052919050565b600082601f83011261273657600080fd5b61273e6126d1565b80604084018581111561275057600080fd5b845b8181101561276a578035845260209384019301612752565b509095945050505050565b600082601f83011261278657600080fd5b6040516060810181811067ffffffffffffffff821117156127a9576127a9612692565b6040528060608401858111156127be57600080fd5b845b818110156127d85780358352602092830192016127c0565b509195945050505050565b6000808284036101808112156127f857600080fd5b833592506020610160601f198301121561281157600080fd5b6128196126a8565b91506128288660208701612725565b825285607f86011261283957600080fd5b6128416126d1565b8060e087018881111561285357600080fd5b606088015b818110156128785761286a8a82612725565b845292840192604001612858565b508160208601526128898982612725565b6040860152505050506128a0856101208601612775565b6060820152809150509250929050565b600080604083850312156128c357600080fd5b6128cc83612609565b915060208084013567ffffffffffffffff808211156128ea57600080fd5b818601915086601f8301126128fe57600080fd5b81358181111561291057612910612692565b612922601f8201601f191685016126f4565b9150808252878482850101111561293857600080fd5b80848401858401376000848284010152508093505050509250929050565b610400810161296582866124a6565b60ff84166103c083015260ff83166103e0830152949350505050565b60005b8381101561299c578181015183820152602001612984565b50506000910152565b60208152600082518060208401526129c4816040850160208701612981565b601f01601f19169190910160400192915050565b6000806000606084860312156129ed57600080fd5b6129f684612609565b9250612a0460208501612609565b9150612a1260408501612609565b90509250925092565b60008060006101808486031215612a3157600080fd5b612a3a84612609565b9250612a498560208601612625565b915061016084013590509250925092565b6020808252825182820181905260009190848201906040850190845b81811015612a9d57612a898385516124a6565b928401926103c09290920191600101612a76565b50909695505050505050565b600060208284031215612abb57600080fd5b61221f82612609565b61014081016040808784378083018660005b6002811015612af357838284379183019190830190600101612ad6565b505050808560c085013780846101008501375095945050505050565b600060208284031215612b2157600080fd5b8151801515811461221f57600080fd5b634e487b7160e01b600052603260045260246000fd5b8160005b600281101561243857813583820155602090910190600101612b4b565b8160005b6002811015612b8957813583820155602090910190600101612b6c565b5050600260408084016002840160005b84811015612bbb57612bab8383612b47565b9183019190840190600101612b99565b5050505050612bd060c0830160068301612b47565b611018610100830160088301612b47565b6101608101612bf08287612415565b60408083018660005b6002811015612c2057612c0d838351612415565b9183019160209190910190600101612bf9565b50505050612c3160c0830185612415565b61010082018360005b6003811015612c59578151835260209283019290910190600101612c3a565b50505095945050505050565b81810381811115610ff757634e487b7160e01b600052601160045260246000fd5b634e487b7160e01b600052603160045260246000fd5b600060208284031215612cae57600080fd5b5051919050565b60008251612cc7818460208701612981565b919091019291505056fe360894a13ba1a3210667c828492db98dca3e2076cc3735a920a3ca505d382bbca2646970667358221220eb03f8ed1b553f2da22cff57480d6ebb6bf1c792658d92baa2e15198e419f19464736f6c63430008160033",
  "linkReferences": {},
  "deployedLinkReferences": {}
}