{
  "_format": "hh-sol-artifact-1",
  "contractName": "BattleshipWaku",
  "sourceName": "contracts/BattleshipWaku.sol",
  "abi": [
    {
      "inputs": [],
      "stateMutability": "nonpayable",
      "type": "constructor"
    },
    {
      "inputs": [
        {
          "internalType": "address",
          "name": "target",
          "type": "address"
        }
      ],
      "name": "AddressEmptyCode",
      "type": "error"
    },
    {
      "inputs": [
        {
          "internalType": "address",
          "name": "implementation",
          "type": "address"
        }
      ],
      "name": "ERC1967InvalidImplementation",
      "type": "error"
    },
    {
      "inputs": [],
      "name": "ERC1967NonPayable",
      "type": "error"
    },
    {
      "inputs": [],
      "name": "FailedCall",
      "type": "error"
    },
    {
      "inputs": [],
      "name": "InvalidInitialization",
      "type": "error"
    },
    {
      "inputs": [],
      "name": "NotInitializing",
      "type": "error"
    },
    {
      "inputs": [
        {
          "internalType": "address",
          "name": "owner",
          "type": "address"
        }
      ],
      "name": "OwnableInvalidOwner",
      "type": "error"
    },
    {
      "inputs": [
        {
          "internalType": "address",
          "name": "account",
          "type": "address"
        }
      ],
      "name": "OwnableUnauthorizedAccount",
      "type": "error"
    },
    {
      "inputs": [],
      "name": "UUPSUnauthorizedCallContext",
      "type": "error"
    },
    {
      "inputs": [
        {
          "internalType": "bytes32",
          "name": "slot",
          "type": "bytes32"
        }
      ],
      "name": "UUPSUnsupportedProxiableUUID",
      "type": "error"
    },
    {
      "anonymous": false,
      "inputs": [
        {
          "indexed": true,
          "internalType": "uint256",
          "name": "gameId",
          "type": "uint256"
        },
        {
          "indexed": false,
          "internalType": "address",
          "name": "player1",
          "type": "address"
        },
        {
          "indexed": false,
          "internalType": "uint256",
          "name": "player1BoardCommitment",
          "type": "uint256"
        },
        {
          "indexed": false,
          "internalType": "uint256",
          "name": "player1MerkleRoot",
          "type": "uint256"
        }
      ],
      "name": "GameCreated",
      "type": "event"
    },
    {
      "anonymous": false,
      "inputs": [
        {
          "indexed": true,
          "internalType": "uint256",
          "name": "gameId",
          "type": "uint256"
        },
        {
          "indexed": false,
          "internalType": "address",
          "name": "winner",
          "type": "address"
        }
      ],
      "name": "GameEnded",
      "type": "event"
    },
    {
      "anonymous": false,
      "inputs": [
        {
          "indexed": true,
          "internalType": "uint256",
          "name": "gameId",
          "type": "uint256"
        },
        {
          "indexed": false,
          "internalType": "address",
          "name": "player2",
          "type": "address"
        }
      ],
      "name": "GameJoined",
      "type": "event"
    },
    {
      "anonymous": false,
      "inputs": [
        {
          "indexed": true,
          "internalType": "uint256",
          "name": "gameId",
          "type": "uint256"
        }
      ],
      "name": "GameStarted",
      "type": "event"
    },
    {
      "anonymous": false,
      "inputs": [
        {
          "indexed": false,
          "internalType": "uint64",
          "name": "version",
          "type": "uint64"
        }
      ],
      "name": "Initialized",
      "type": "event"
    },
    {
      "anonymous": false,
      "inputs": [
        {
          "indexed": false,
          "internalType": "uint256",
          "name": "indexedgameId",
          "type": "uint256"
        },
        {
          "indexed": false,
          "internalType": "address",
          "name": "player",
          "type": "address"
        }
      ],
      "name": "MoveMade",
      "type": "event"
    },
    {
      "anonymous": false,
      "inputs": [
        {
          "indexed": true,
          "internalType": "address",
          "name": "previousOwner",
          "type": "address"
        },
        {
          "indexed": true,
          "internalType": "address",
          "name": "newOwner",
          "type": "address"
        }
      ],
      "name": "OwnershipTransferred",
      "type": "event"
    },
    {
      "anonymous": false,
      "inputs": [
        {
          "indexed": true,
          "internalType": "address",
          "name": "implementation",
          "type": "address"
        }
      ],
      "name": "Upgraded",
      "type": "event"
    },
    {
      "inputs": [
        {
          "internalType": "address",
          "name": "player2",
          "type": "address"
        },
        {
          "components": [
            {
              "internalType": "uint256[2]",
              "name": "pA",
              "type": "uint256[2]"
            },
            {
              "internalType": "uint256[2][2]",
              "name": "pB",
              "type": "uint256[2][2]"
            },
            {
              "internalType": "uint256[2]",
              "name": "pC",
              "type": "uint256[2]"
            },
            {
              "internalType": "uint256[2]",
              "name": "pubSignals",
              "type": "uint256[2]"
            }
          ],
          "internalType": "struct BattleshipWaku.ShipPlacementProof",
          "name": "shipPlacementProofPlayer2",
          "type": "tuple"
        },
        {
          "internalType": "uint256",
          "name": "gameId",
          "type": "uint256"
        }
      ],
      "name": "JoinGame",
      "outputs": [],
      "stateMutability": "nonpayable",
      "type": "function"
    },
    {
      "inputs": [],
      "name": "UPGRADE_INTERFACE_VERSION",
      "outputs": [
        {
          "internalType": "string",
          "name": "",
          "type": "string"
        }
      ],
      "stateMutability": "view",
      "type": "function"
    },
    {
      "inputs": [
        {
          "internalType": "address",
          "name": "player1",
          "type": "address"
        },
        {
          "components": [
            {
              "internalType": "uint256[2]",
              "name": "pA",
              "type": "uint256[2]"
            },
            {
              "internalType": "uint256[2][2]",
              "name": "pB",
              "type": "uint256[2][2]"
            },
            {
              "internalType": "uint256[2]",
              "name": "pC",
              "type": "uint256[2]"
            },
            {
              "internalType": "uint256[2]",
              "name": "pubSignals",
              "type": "uint256[2]"
            }
          ],
          "internalType": "struct BattleshipWaku.ShipPlacementProof",
          "name": "shipPlacementProofPlayer1",
          "type": "tuple"
        },
        {
          "internalType": "uint256",
          "name": "gameId",
          "type": "uint256"
        }
      ],
      "name": "createGame",
      "outputs": [],
      "stateMutability": "nonpayable",
      "type": "function"
    },
    {
      "inputs": [
        {
          "internalType": "uint256",
          "name": "",
          "type": "uint256"
        }
      ],
      "name": "games",
      "outputs": [
        {
          "internalType": "uint256",
          "name": "gameId",
          "type": "uint256"
        },
        {
          "internalType": "address",
          "name": "player1",
          "type": "address"
        },
        {
          "internalType": "address",
          "name": "player2",
          "type": "address"
        },
        {
          "internalType": "bool",
          "name": "isActive",
          "type": "bool"
        },
        {
          "internalType": "address",
          "name": "playerTurn",
          "type": "address"
        },
        {
          "internalType": "bytes32",
          "name": "player1_board_commitment",
          "type": "bytes32"
        },
        {
          "internalType": "bytes32",
          "name": "player1_merkle_root",
          "type": "bytes32"
        },
        {
          "internalType": "bytes32",
          "name": "player2_board_commitment",
          "type": "bytes32"
        },
        {
          "internalType": "bytes32",
          "name": "player2_merkle_root",
          "type": "bytes32"
        },
        {
          "components": [
            {
              "internalType": "uint256[2]",
              "name": "pA",
              "type": "uint256[2]"
            },
            {
              "internalType": "uint256[2][2]",
              "name": "pB",
              "type": "uint256[2][2]"
            },
            {
              "internalType": "uint256[2]",
              "name": "pC",
              "type": "uint256[2]"
            },
            {
              "internalType": "uint256[2]",
              "name": "pubSignals",
              "type": "uint256[2]"
            }
          ],
          "internalType": "struct BattleshipWaku.ShipPlacementProof",
          "name": "player1ShipPlacementProof",
          "type": "tuple"
        },
        {
          "components": [
            {
              "internalType": "uint256[2]",
              "name": "pA",
              "type": "uint256[2]"
            },
            {
              "internalType": "uint256[2][2]",
              "name": "pB",
              "type": "uint256[2][2]"
            },
            {
              "internalType": "uint256[2]",
              "name": "pC",
              "type": "uint256[2]"
            },
            {
              "internalType": "uint256[2]",
              "name": "pubSignals",
              "type": "uint256[2]"
            }
          ],
          "internalType": "struct BattleshipWaku.ShipPlacementProof",
          "name": "player2ShipPlacementProof",
          "type": "tuple"
        }
      ],
      "stateMutability": "view",
      "type": "function"
    },
    {
      "inputs": [
        {
          "internalType": "uint256",
          "name": "gameId",
          "type": "uint256"
        }
      ],
      "name": "getGame",
      "outputs": [
        {
          "components": [
            {
              "internalType": "uint256",
              "name": "gameId",
              "type": "uint256"
            },
            {
              "internalType": "address",
              "name": "player1",
              "type": "address"
            },
            {
              "internalType": "address",
              "name": "player2",
              "type": "address"
            },
            {
              "internalType": "bool",
              "name": "isActive",
              "type": "bool"
            },
            {
              "internalType": "address",
              "name": "playerTurn",
              "type": "address"
            },
            {
              "internalType": "bytes32",
              "name": "player1_board_commitment",
              "type": "bytes32"
            },
            {
              "internalType": "bytes32",
              "name": "player1_merkle_root",
              "type": "bytes32"
            },
            {
              "internalType": "bytes32",
              "name": "player2_board_commitment",
              "type": "bytes32"
            },
            {
              "internalType": "bytes32",
              "name": "player2_merkle_root",
              "type": "bytes32"
            },
            {
              "components": [
                {
                  "internalType": "uint256[2]",
                  "name": "pA",
                  "type": "uint256[2]"
                },
                {
                  "internalType": "uint256[2][2]",
                  "name": "pB",
                  "type": "uint256[2][2]"
                },
                {
                  "internalType": "uint256[2]",
                  "name": "pC",
                  "type": "uint256[2]"
                },
                {
                  "internalType": "uint256[2]",
                  "name": "pubSignals",
                  "type": "uint256[2]"
                }
              ],
              "internalType": "struct BattleshipWaku.ShipPlacementProof",
              "name": "player1ShipPlacementProof",
              "type": "tuple"
            },
            {
              "components": [
                {
                  "internalType": "uint256[2]",
                  "name": "pA",
                  "type": "uint256[2]"
                },
                {
                  "internalType": "uint256[2][2]",
                  "name": "pB",
                  "type": "uint256[2][2]"
                },
                {
                  "internalType": "uint256[2]",
                  "name": "pC",
                  "type": "uint256[2]"
                },
                {
                  "internalType": "uint256[2]",
                  "name": "pubSignals",
                  "type": "uint256[2]"
                }
              ],
              "internalType": "struct BattleshipWaku.ShipPlacementProof",
              "name": "player2ShipPlacementProof",
              "type": "tuple"
            }
          ],
          "internalType": "struct BattleshipWaku.GameView",
          "name": "gameData",
          "type": "tuple"
        },
        {
          "internalType": "uint8",
          "name": "player1Hits",
          "type": "uint8"
        },
        {
          "internalType": "uint8",
          "name": "player2Hits",
          "type": "uint8"
        }
      ],
      "stateMutability": "view",
      "type": "function"
    },
    {
      "inputs": [
        {
          "internalType": "uint256",
          "name": "gameId",
          "type": "uint256"
        }
      ],
      "name": "getGamePlayers",
      "outputs": [
        {
          "internalType": "address",
          "name": "",
          "type": "address"
        },
        {
          "internalType": "address",
          "name": "",
          "type": "address"
        }
      ],
      "stateMutability": "view",
      "type": "function"
    },
    {
      "inputs": [
        {
          "internalType": "uint256",
          "name": "gameId",
          "type": "uint256"
        }
      ],
      "name": "getGameStatus",
      "outputs": [
        {
          "internalType": "bool",
          "name": "",
          "type": "bool"
        }
      ],
      "stateMutability": "view",
      "type": "function"
    },
    {
      "inputs": [
        {
          "internalType": "address",
          "name": "_shipPlacementVerifier",
          "type": "address"
        },
        {
          "internalType": "address",
          "name": "_moveVerifier",
          "type": "address"
        },
        {
          "internalType": "address",
          "name": "_winVerifier",
          "type": "address"
        }
      ],
      "name": "initialize",
      "outputs": [],
      "stateMutability": "nonpayable",
      "type": "function"
    },
    {
      "inputs": [
        {
          "internalType": "uint256",
          "name": "gameId",
          "type": "uint256"
        },
        {
          "components": [
            {
              "internalType": "uint256[2]",
              "name": "pA",
              "type": "uint256[2]"
            },
            {
              "internalType": "uint256[2][2]",
              "name": "pB",
              "type": "uint256[2][2]"
            },
            {
              "internalType": "uint256[2]",
              "name": "pC",
              "type": "uint256[2]"
            },
            {
              "internalType": "uint256[3]",
              "name": "pubSignals",
              "type": "uint256[3]"
            }
          ],
          "internalType": "struct BattleshipWaku.MoveProof",
          "name": "moveProof",
          "type": "tuple"
        }
      ],
      "name": "makeMove",
      "outputs": [
        {
          "internalType": "bool",
          "name": "",
          "type": "bool"
        }
      ],
      "stateMutability": "nonpayable",
      "type": "function"
    },
    {
      "inputs": [],
      "name": "moveVerifier",
      "outputs": [
        {
          "internalType": "contract IMoveVerifier",
          "name": "",
          "type": "address"
        }
      ],
      "stateMutability": "view",
      "type": "function"
    },
    {
      "inputs": [],
      "name": "owner",
      "outputs": [
        {
          "internalType": "address",
          "name": "",
          "type": "address"
        }
      ],
      "stateMutability": "view",
      "type": "function"
    },
    {
      "inputs": [],
      "name": "proxiableUUID",
      "outputs": [
        {
          "internalType": "bytes32",
          "name": "",
          "type": "bytes32"
        }
      ],
      "stateMutability": "view",
      "type": "function"
    },
    {
      "inputs": [],
      "name": "renounceOwnership",
      "outputs": [],
      "stateMutability": "nonpayable",
      "type": "function"
    },
    {
      "inputs": [],
      "name": "shipPlacementVerifier",
      "outputs": [
        {
          "internalType": "contract IShipPlacementVerifier",
          "name": "",
          "type": "address"
        }
      ],
      "stateMutability": "view",
      "type": "function"
    },
    {
      "inputs": [
        {
          "internalType": "address",
          "name": "newOwner",
          "type": "address"
        }
      ],
      "name": "transferOwnership",
      "outputs": [],
      "stateMutability": "nonpayable",
      "type": "function"
    },
    {
      "inputs": [
        {
          "internalType": "address",
          "name": "newImplementation",
          "type": "address"
        },
        {
          "internalType": "bytes",
          "name": "data",
          "type": "bytes"
        }
      ],
      "name": "upgradeToAndCall",
      "outputs": [],
      "stateMutability": "payable",
      "type": "function"
    },
    {
      "inputs": [
        {
          "internalType": "uint256",
          "name": "gameId",
          "type": "uint256"
        },
        {
          "components": [
            {
              "internalType": "uint256[2]",
              "name": "pA",
              "type": "uint256[2]"
            },
            {
              "internalType": "uint256[2][2]",
              "name": "pB",
              "type": "uint256[2][2]"
            },
            {
              "internalType": "uint256[2]",
              "name": "pC",
              "type": "uint256[2]"
            },
            {
              "internalType": "uint256[3]",
              "name": "pubSignals",
              "type": "uint256[3]"
            }
          ],
          "internalType": "struct BattleshipWaku.WinProof",
          "name": "winProof",
          "type": "tuple"
        }
      ],
      "name": "winVerification",
      "outputs": [
        {
          "internalType": "bool",
          "name": "",
          "type": "bool"
        }
      ],
      "stateMutability": "nonpayable",
      "type": "function"
    },
    {
      "inputs": [],
      "name": "winVerifier",
      "outputs": [
        {
          "internalType": "contract IWinVerifier",
          "name": "",
          "type": "address"
        }
      ],
      "stateMutability": "view",
      "type": "function"
    }
  ],
  "bytecode": "0x60a0604052306080523480156200001557600080fd5b506200002062000026565b620000da565b7ff0c57e16840df040f15088dc2f81fe391c3923bec73e23a9662efc9c229c6a00805468010000000000000000900460ff1615620000775760405163f92ee8a960e01b815260040160405180910390fd5b80546001600160401b0390811614620000d75780546001600160401b0319166001600160401b0390811782556040519081527fc7f505b2f371ae2175ee4913f4499e1f2633a7b5936321eed1cdaeb6115181d29060200160405180910390a15b50565b6080516124f162000104600039600081816116670152818161169001526117d601526124f16000f3fe6080604052600436106101085760003560e01c8063715018a611610095578063ad3cb1cc11610064578063ad3cb1cc14610369578063c0c53b8b146103a7578063c5396844146103c7578063d173bf9c146103e7578063f2fde38b1461040757600080fd5b8063715018a6146102c85780638d2d99ee146102dd5780638da5cb5b146102fd578063a2f77bcc1461033a57600080fd5b806319635b0a116100dc57806319635b0a1461021857806329b3e3b61461023a578063489d22201461025a5780634f1ef2861461029257806352d1902d146102a557600080fd5b806256faa21461010d5780630f1bf45414610142578063117a5b901461017c57806315a40f49146101b3575b600080fd5b34801561011957600080fd5b5061012d610128366004611ebd565b610427565b60405190151581526020015b60405180910390f35b34801561014e57600080fd5b5061012d61015d366004611eeb565b600090815260036020526040902060020154600160a01b900460ff1690565b34801561018857600080fd5b5061019c610197366004611eeb565b61069c565b6040516101399b9a99989796959493929190611f95565b3480156101bf57600080fd5b506101f86101ce366004611eeb565b600090815260036020526040902060018101546002909101546001600160a01b0391821692911690565b604080516001600160a01b03938416815292909116602083015201610139565b34801561022457600080fd5b50610238610233366004612029565b610931565b005b34801561024657600080fd5b5061012d610255366004611ebd565b610c99565b34801561026657600080fd5b5060005461027a906001600160a01b031681565b6040516001600160a01b039091168152602001610139565b6102386102a0366004612074565b610ed0565b3480156102b157600080fd5b506102ba610eef565b604051908152602001610139565b3480156102d457600080fd5b50610238610f0c565b3480156102e957600080fd5b5060025461027a906001600160a01b031681565b34801561030957600080fd5b507f9016d09d72d40fdae2fd8ceac6b6234c7706214fd39c1cd1e609a0528c199300546001600160a01b031661027a565b34801561034657600080fd5b5061035a610355366004611eeb565b610f20565b6040516101399392919061211a565b34801561037557600080fd5b5061039a604051806040016040528060058152602001640352e302e360dc1b81525081565b604051610139919061221d565b3480156103b357600080fd5b506102386103c2366004612250565b611239565b3480156103d357600080fd5b506102386103e2366004612029565b611390565b3480156103f357600080fd5b5060015461027a906001600160a01b031681565b34801561041357600080fd5b50610238610422366004612293565b61161e565b60008281526003602052604081206002810154600160a01b900460ff1661048a5760405162461bcd60e51b815260206004820152601260248201527147616d65206973206e6f742061637469766560701b60448201526064015b60405180910390fd5b60038101546001600160a01b031633146104d65760405162461bcd60e51b815260206004820152600d60248201526c2737ba103cb7bab9103a3ab93760991b6044820152606401610481565b60015483516020850151604080870151606088015191516308a3cff560e11b81526000956001600160a01b0316946311479fea9461051d94919390929091906004016122ae565b602060405180830381865afa15801561053a573d6000803e3d6000fd5b505050506040513d601f19601f8201168201806040525081019061055e9190612332565b9050806105a55760405162461bcd60e51b8152602060048201526015602482015274135bdd99481c1c9bdbd9881a5cc81a5b9d985b1a59605a1b6044820152606401610481565b6060840151604001516001036105fc5760038201546001600160a01b031660009081526008830160205260408120805460ff16916105e283612354565b91906101000a81548160ff021916908360ff160217905550505b600182015460038301546001600160a01b0390811691161461062b5760018201546001600160a01b031661063a565b60028201546001600160a01b03165b6003830180546001600160a01b0319166001600160a01b0392909216919091179055604080518681523360208201527f5008547a534c07bdb1a5f781fbfc38d92af4d50429ccb847bcae5e7eb4915c2d910160405180910390a1949350505050565b600360208190526000918252604091829020805460018201546002808401549484015460048501546005860154600687015460078801548a5160c081019b8c9052979a6001600160a01b039788169a8881169a600160a01b90910460ff16999890961697949693959294919360098401918391608083019184919082845b81548152602001906001019080831161071a575050505050815260200160028201600280602002604051908101604052809291906000905b8282101561079857604080518082019182905290600284810287019182845b81548152602001906001019080831161077157505050505081526020019060010190610752565b50505090825250604080518082019182905260209092019190600684019060029082845b8154815260200190600101908083116107bc575050509183525050604080518082019182905260209092019190600884019060029082845b8154815260200190600101908083116107f4575050509190925250506040805160c0810190915291929190506013820181608081018260028282826020028201915b815481526020019060010190808311610836575050505050815260200160028201600280602002604051908101604052809291906000905b828210156108b457604080518082019182905290600284810287019182845b81548152602001906001019080831161088d5750505050508152602001906001019061086e565b50505090825250604080518082019182905260209092019190600684019060029082845b8154815260200190600101908083116108d8575050509183525050604080518082019182905260209092019190600884019060029082845b8154815260200190600101908083116109105750505050508152505090508b565b6001600160a01b0383166109825760405162461bcd60e51b8152602060048201526018602482015277496e76616c696420706c617965722061646472657373657360401b6044820152606401610481565b600081815260036020526040902060020154600160a01b900460ff16156109e15760405162461bcd60e51b815260206004820152601360248201527247616d6520616c72656164792065786973747360681b6044820152606401610481565b6000805460408051637ae4eb4f60e11b81526001600160a01b039092169163f5c9d69e91610a2191879182019060c0830190610100840190600401612381565b602060405180830381865afa158015610a3e573d6000803e3d6000fd5b505050506040513d601f19601f82011682018060405250810190610a629190612332565b905080610ac25760405162461bcd60e51b815260206004820152602860248201527f506c617965722031207368697020706c6163656d656e742070726f6f66206973604482015267081a5b9d985b1a5960c21b6064820152608401610481565b600082815260036020819052604082208481556001810180546001600160a01b0389166001600160a01b031991821681179092556002830180546001600160a81b0319169055928201805490931617909155610100850135600482015561012085013560058201556006810182905560078101919091558360098201610b4882826123ed565b50506040805160c0810182526000608080830182815260a0840183905283528351908101845280840182815260608083018490529082528451808601865283815260208181018590528381019190915280850192909252845180860186528381528083018490528486015284518086019095528285529084019190915281019190915280516013830190610bdf9082906002611b22565b506020820151610bf59060028084019190611b60565b506040820151610c0b9060068301906002611b22565b506060820151610c219060088301906002611b22565b5050506001600160a01b0385166000818152600883016020908152604091829020805460ff191690558151928352610100870135908301526101208601359082015283907f7ed9b48d83e08a25a1572b27a365dfb386da7860c996e684e541e3433b7921479060600160405180910390a25050505050565b60008281526003602052604081206002810154600160a01b900460ff16610cf75760405162461bcd60e51b815260206004820152601260248201527147616d65206973206e6f742061637469766560701b6044820152606401610481565b60018101546001600160a01b0316600090815260088201602052604081205460ff16600c03610d34575060018101546001600160a01b0316610dac565b60028201546001600160a01b0316600090815260088301602052604090205460ff16600c03610d71575060028101546001600160a01b0316610dac565b60405162461bcd60e51b815260206004820152601060248201526f23b0b6b29034b9903737ba1037bb32b960811b6044820152606401610481565b60025484516020860151604080880151606089015191516308a3cff560e11b81526000956001600160a01b0316946311479fea94610df394919390929091906004016122ae565b602060405180830381865afa158015610e10573d6000803e3d6000fd5b505050506040513d601f19601f82011682018060405250810190610e349190612332565b905080610e7a5760405162461bcd60e51b815260206004820152601460248201527315da5b881c1c9bdbd9881a5cc81a5b9d985b1a5960621b6044820152606401610481565b60028301805460ff60a01b191690556040516001600160a01b038316815286907f3d5fcd8fa3235aeb3897f25c8ea49989174981afcb01b9d03189d1056a16775b9060200160405180910390a295945050505050565b610ed861165c565b610ee182611701565b610eeb8282611709565b5050565b6000610ef96117cb565b5060008051602061249c83398151915290565b610f14611814565b610f1e600061186f565b565b610f28611ba7565b60008281526003602081815260408084208151610160810183528154815260018201546001600160a01b039081169482019490945260028083015480861683860152600160a01b900460ff161515606083015294820154909316608080850191909152600482015460a0850152600582015460c080860191909152600683015460e0860152600783015461010086015283519081019384905286959294936101208501939192600987019284929183019184919082845b815481526020019060010190808311610fdf575050505050815260200160028201600280602002604051908101604052809291906000905b8282101561105d57604080518082019182905290600284810287019182845b81548152602001906001019080831161103657505050505081526020019060010190611017565b50505090825250604080518082019182905260209092019190600684019060029082845b815481526020019060010190808311611081575050509183525050604080518082019182905260209092019190600884019060029082845b8154815260200190600101908083116110b9575050509190925250505081526040805160c081019091526020909101906013840181608081018260028282826020028201915b8154815260200190600101908083116110ff575050505050815260200160028201600280602002604051908101604052809291906000905b8282101561117d57604080518082019182905290600284810287019182845b81548152602001906001019080831161115657505050505081526020019060010190611137565b50505090825250604080518082019182905260209092019190600684019060029082845b8154815260200190600101908083116111a1575050509183525050604080518082019182905260209092019190600884019060029082845b8154815260200190600101908083116111d95750505091909252505050905260018201546001600160a01b0390811660009081526008840160205260408082205460029095015490921681522054909660ff928316965091169350915050565b7ff0c57e16840df040f15088dc2f81fe391c3923bec73e23a9662efc9c229c6a008054600160401b810460ff16159067ffffffffffffffff1660008115801561127f5750825b905060008267ffffffffffffffff16600114801561129c5750303b155b9050811580156112aa575080155b156112c85760405163f92ee8a960e01b815260040160405180910390fd5b845467ffffffffffffffff1916600117855583156112f257845460ff60401b1916600160401b1785555b6112fb336118e0565b6113036118f1565b600080546001600160a01b03808b166001600160a01b031992831617909255600180548a84169083161790556002805492891692909116919091179055831561138657845460ff60401b19168555604051600181527fc7f505b2f371ae2175ee4913f4499e1f2633a7b5936321eed1cdaeb6115181d29060200160405180910390a15b5050505050505050565b6001600160a01b0383166113e15760405162461bcd60e51b8152602060048201526018602482015277496e76616c696420706c617965722061646472657373657360401b6044820152606401610481565b6000818152600360205260409020600201546001600160a01b0316156114405760405162461bcd60e51b815260206004820152601460248201527311d85b5948185b1c9958591e481cdd185c9d195960621b6044820152606401610481565b6000805460408051637ae4eb4f60e11b81526001600160a01b039092169163f5c9d69e9161148091879182019060c0830190610100840190600401612381565b602060405180830381865afa15801561149d573d6000803e3d6000fd5b505050506040513d601f19601f820116820180604052508101906114c19190612332565b9050806115215760405162461bcd60e51b815260206004820152602860248201527f506c617965722032207368697020706c6163656d656e742070726f6f66206973604482015267081a5b9d985b1a5960c21b6064820152608401610481565b60008281526003602081905260409091206002810180546001600160a81b0319166001600160a01b038816908117600160a01b1790915591810180546001600160a01b03191690921790915561010084013560068201556101208401356007820155836013820161159282826123ed565b50506001600160a01b0385166000818152600883016020908152604091829020805460ff19169055905191825284917f45c4f9cbafe186141862608c493f28b823fde4c2142bedc3f5169961a73fdd22910160405180910390a260405183907f50ad08f58a27f2851d7e3a1b3a6a46b290f2ce677e99642d30ff639721e7779090600090a25050505050565b611626611814565b6001600160a01b03811661165057604051631e4fbdf760e01b815260006004820152602401610481565b6116598161186f565b50565b306001600160a01b037f00000000000000000000000000000000000000000000000000000000000000001614806116e357507f00000000000000000000000000000000000000000000000000000000000000006001600160a01b03166116d760008051602061249c833981519152546001600160a01b031690565b6001600160a01b031614155b15610f1e5760405163703e46dd60e11b815260040160405180910390fd5b611659611814565b816001600160a01b03166352d1902d6040518163ffffffff1660e01b8152600401602060405180830381865afa925050508015611763575060408051601f3d908101601f1916820190925261176091810190612466565b60015b61178b57604051634c9c8ce360e01b81526001600160a01b0383166004820152602401610481565b60008051602061249c83398151915281146117bc57604051632a87526960e21b815260048101829052602401610481565b6117c683836118f9565b505050565b306001600160a01b037f00000000000000000000000000000000000000000000000000000000000000001614610f1e5760405163703e46dd60e11b815260040160405180910390fd5b336118467f9016d09d72d40fdae2fd8ceac6b6234c7706214fd39c1cd1e609a0528c199300546001600160a01b031690565b6001600160a01b031614610f1e5760405163118cdaa760e01b8152336004820152602401610481565b7f9016d09d72d40fdae2fd8ceac6b6234c7706214fd39c1cd1e609a0528c19930080546001600160a01b031981166001600160a01b03848116918217845560405192169182907f8be0079c531659141344cd1fd0a4f28419497f9722a3daafe3b4186f6b6457e090600090a3505050565b6118e861194f565b61165981611998565b610f1e61194f565b611902826119a0565b6040516001600160a01b038316907fbc7cd75a20ee27fd9adebab32041f755214dbc6bffa90cc0225b39da2e5c2d3b90600090a2805115611947576117c68282611a05565b610eeb611a7b565b7ff0c57e16840df040f15088dc2f81fe391c3923bec73e23a9662efc9c229c6a0054600160401b900460ff16610f1e57604051631afcd79f60e31b815260040160405180910390fd5b61162661194f565b806001600160a01b03163b6000036119d657604051634c9c8ce360e01b81526001600160a01b0382166004820152602401610481565b60008051602061249c83398151915280546001600160a01b0319166001600160a01b0392909216919091179055565b6060600080846001600160a01b031684604051611a22919061247f565b600060405180830381855af49150503d8060008114611a5d576040519150601f19603f3d011682016040523d82523d6000602084013e611a62565b606091505b5091509150611a72858383611a9a565b95945050505050565b3415610f1e5760405163b398979f60e01b815260040160405180910390fd5b606082611aaf57611aaa82611af9565b611af2565b8151158015611ac657506001600160a01b0384163b155b15611aef57604051639996b31560e01b81526001600160a01b0385166004820152602401610481565b50805b9392505050565b805115611b095780518082602001fd5b60405163d6bda27560e01b815260040160405180910390fd5b8260028101928215611b50579160200282015b82811115611b50578251825591602001919060010190611b35565b50611b5c929150611c0f565b5090565b600483019183908215611b9b579160200282015b82811115611b9b578251611b8b9083906002611b22565b5091602001919060020190611b74565b50611b5c929150611c24565b6040805161016081018252600080825260208201819052918101829052606081018290526080810182905260a0810182905260c0810182905260e081018290526101008101919091526101208101611bfd611c3e565b8152602001611c0a611c3e565b905290565b5b80821115611b5c5760008155600101611c10565b80821115611b5c5760008082556001820155600201611c24565b6040518060800160405280611c51611c74565b8152602001611c5e611c92565b8152602001611c6b611c74565b8152602001611c0a5b60405180604001604052806002906020820280368337509192915050565b60405180604001604052806002905b611ca9611c74565b815260200190600190039081611ca15790505090565b634e487b7160e01b600052604160045260246000fd5b6040516080810167ffffffffffffffff81118282101715611cf857611cf8611cbf565b60405290565b6040805190810167ffffffffffffffff81118282101715611cf857611cf8611cbf565b604051601f8201601f1916810167ffffffffffffffff81118282101715611d4a57611d4a611cbf565b604052919050565b600082601f830112611d6357600080fd5b611d6b611cfe565b806040840185811115611d7d57600080fd5b845b81811015611d97578035845260209384019301611d7f565b509095945050505050565b600082601f830112611db357600080fd5b6040516060810181811067ffffffffffffffff82111715611dd657611dd6611cbf565b604052806060840185811115611deb57600080fd5b845b81811015611e05578035835260209283019201611ded565b509195945050505050565b60006101608284031215611e2357600080fd5b611e2b611cd5565b9050611e378383611d52565b8152604083605f840112611e4a57600080fd5b611e52611cfe565b8060c0850186811115611e6457600080fd5b604086015b81811015611e8a57611e7b8882611d52565b84526020909301928401611e69565b50816020860152611e9b8782611d52565b604086015250505050611eb2836101008401611da2565b606082015292915050565b6000806101808385031215611ed157600080fd5b82359150611ee28460208501611e10565b90509250929050565b600060208284031215611efd57600080fd5b5035919050565b8060005b6002811015611f27578151845260209384019390910190600101611f08565b50505050565b611f38828251611f04565b602080820151604080850160005b6002811015611f6a57611f5a828551611f04565b9284019290820190600101611f46565b50505050506040810151611f8160c0840182611f04565b5060608101516117c6610100840182611f04565b8b81526001600160a01b038b811660208301528a8116604083015289151560608301528816608082015260a0810187905260c0810186905260e0810185905261010081018490526103a08101611fef610120830185611f2d565b611ffd610260830184611f2d565b9c9b505050505050505050505050565b80356001600160a01b038116811461202457600080fd5b919050565b600080600083850361018081121561204057600080fd5b6120498561200d565b9350610140601f198201121561205e57600080fd5b5060208401915061016084013590509250925092565b6000806040838503121561208757600080fd5b6120908361200d565b915060208084013567ffffffffffffffff808211156120ae57600080fd5b818601915086601f8301126120c257600080fd5b8135818111156120d4576120d4611cbf565b6120e6601f8201601f19168501611d21565b915080825287848285010111156120fc57600080fd5b80848401858401376000848284010152508093505050509250929050565b835181526020808501516103e083019161213e908401826001600160a01b03169052565b50604085015161215960408401826001600160a01b03169052565b50606085015161216d606084018215159052565b50608085015161218860808401826001600160a01b03169052565b5060a085015160a083015260c085015160c083015260e085015160e0830152610100808601518184015250610120808601516121c682850182611f2d565b50506101408501516121dc610260840182611f2d565b5060ff84166103a083015260ff83166103c0830152949350505050565b60005b838110156122145781810151838201526020016121fc565b50506000910152565b602081526000825180602084015261223c8160408501602087016121f9565b601f01601f19169190910160400192915050565b60008060006060848603121561226557600080fd5b61226e8461200d565b925061227c6020850161200d565b915061228a6040850161200d565b90509250925092565b6000602082840312156122a557600080fd5b611af28261200d565b61016081016122bd8287611f04565b60408083018660005b60028110156122ed576122da838351611f04565b91830191602091909101906001016122c6565b505050506122fe60c0830185611f04565b61010082018360005b6003811015612326578151835260209283019290910190600101612307565b50505095945050505050565b60006020828403121561234457600080fd5b81518015158114611af257600080fd5b600060ff821660ff810361237857634e487b7160e01b600052601160045260246000fd5b60010192915050565b61014081016040808784378083018660005b60028110156123b057838284379183019190830190600101612393565b505050808560c085013780846101008501375095945050505050565b8160005b6002811015611f27578135838201556020909101906001016123d0565b8160005b600281101561240e578135838201556020909101906001016123f1565b5050600260408084016002840160005b848110156124405761243083836123cc565b918301919084019060010161241e565b505050505061245560c08301600683016123cc565b610eeb6101008301600883016123cc565b60006020828403121561247857600080fd5b5051919050565b600082516124918184602087016121f9565b919091019291505056fe360894a13ba1a3210667c828492db98dca3e2076cc3735a920a3ca505d382bbca2646970667358221220b9341c9668015c9c141fe6e2f66ccc8369a8f1f1e845a0c4cb70e2fbe49e042a64736f6c63430008160033",
  "linkReferences": {},
  "deployedLinkReferences": {}
}