{
  "_format": "hh-sol-artifact-1",
  "contractName": "BattleshipWakuOLD",
  "sourceName": "contracts/BattleshipWaku_OLD.sol",
  "abi": [
    {
      "inputs": [],
      "stateMutability": "nonpayable",
      "type": "constructor"
    },
    {
      "inputs": [
        {
          "internalType": "address",
          "name": "target",
          "type": "address"
        }
      ],
      "name": "AddressEmptyCode",
      "type": "error"
    },
    {
      "inputs": [
        {
          "internalType": "address",
          "name": "implementation",
          "type": "address"
        }
      ],
      "name": "ERC1967InvalidImplementation",
      "type": "error"
    },
    {
      "inputs": [],
      "name": "ERC1967NonPayable",
      "type": "error"
    },
    {
      "inputs": [],
      "name": "FailedCall",
      "type": "error"
    },
    {
      "inputs": [],
      "name": "InvalidInitialization",
      "type": "error"
    },
    {
      "inputs": [],
      "name": "NotInitializing",
      "type": "error"
    },
    {
      "inputs": [
        {
          "internalType": "address",
          "name": "owner",
          "type": "address"
        }
      ],
      "name": "OwnableInvalidOwner",
      "type": "error"
    },
    {
      "inputs": [
        {
          "internalType": "address",
          "name": "account",
          "type": "address"
        }
      ],
      "name": "OwnableUnauthorizedAccount",
      "type": "error"
    },
    {
      "inputs": [],
      "name": "UUPSUnauthorizedCallContext",
      "type": "error"
    },
    {
      "inputs": [
        {
          "internalType": "bytes32",
          "name": "slot",
          "type": "bytes32"
        }
      ],
      "name": "UUPSUnsupportedProxiableUUID",
      "type": "error"
    },
    {
      "anonymous": false,
      "inputs": [
        {
          "indexed": true,
          "internalType": "uint256",
          "name": "gameId",
          "type": "uint256"
        },
        {
          "indexed": false,
          "internalType": "address",
          "name": "player1",
          "type": "address"
        },
        {
          "indexed": false,
          "internalType": "uint256",
          "name": "player1BoardCommitment",
          "type": "uint256"
        },
        {
          "indexed": false,
          "internalType": "uint256",
          "name": "player1MerkleRoot",
          "type": "uint256"
        }
      ],
      "name": "GameCreated",
      "type": "event"
    },
    {
      "anonymous": false,
      "inputs": [
        {
          "indexed": true,
          "internalType": "uint256",
          "name": "gameId",
          "type": "uint256"
        },
        {
          "indexed": false,
          "internalType": "address",
          "name": "winner",
          "type": "address"
        }
      ],
      "name": "GameEnded",
      "type": "event"
    },
    {
      "anonymous": false,
      "inputs": [
        {
          "indexed": true,
          "internalType": "uint256",
          "name": "gameId",
          "type": "uint256"
        },
        {
          "indexed": false,
          "internalType": "address",
          "name": "player2",
          "type": "address"
        }
      ],
      "name": "GameJoined",
      "type": "event"
    },
    {
      "anonymous": false,
      "inputs": [
        {
          "indexed": true,
          "internalType": "uint256",
          "name": "gameId",
          "type": "uint256"
        }
      ],
      "name": "GameStarted",
      "type": "event"
    },
    {
      "anonymous": false,
      "inputs": [
        {
          "indexed": false,
          "internalType": "uint64",
          "name": "version",
          "type": "uint64"
        }
      ],
      "name": "Initialized",
      "type": "event"
    },
    {
      "anonymous": false,
      "inputs": [
        {
          "indexed": false,
          "internalType": "uint256",
          "name": "indexedgameId",
          "type": "uint256"
        },
        {
          "indexed": false,
          "internalType": "address",
          "name": "player",
          "type": "address"
        }
      ],
      "name": "MoveMade",
      "type": "event"
    },
    {
      "anonymous": false,
      "inputs": [
        {
          "indexed": true,
          "internalType": "address",
          "name": "previousOwner",
          "type": "address"
        },
        {
          "indexed": true,
          "internalType": "address",
          "name": "newOwner",
          "type": "address"
        }
      ],
      "name": "OwnershipTransferred",
      "type": "event"
    },
    {
      "anonymous": false,
      "inputs": [
        {
          "indexed": true,
          "internalType": "address",
          "name": "implementation",
          "type": "address"
        }
      ],
      "name": "Upgraded",
      "type": "event"
    },
    {
      "inputs": [
        {
          "internalType": "address",
          "name": "player2",
          "type": "address"
        },
        {
          "components": [
            {
              "internalType": "uint256[2]",
              "name": "pA",
              "type": "uint256[2]"
            },
            {
              "internalType": "uint256[2][2]",
              "name": "pB",
              "type": "uint256[2][2]"
            },
            {
              "internalType": "uint256[2]",
              "name": "pC",
              "type": "uint256[2]"
            },
            {
              "internalType": "uint256[2]",
              "name": "pubSignals",
              "type": "uint256[2]"
            }
          ],
          "internalType": "struct BattleshipWakuOLD.ShipPlacementProof",
          "name": "shipPlacementProofPlayer2",
          "type": "tuple"
        },
        {
          "internalType": "uint256",
          "name": "gameId",
          "type": "uint256"
        }
      ],
      "name": "JoinGame",
      "outputs": [],
      "stateMutability": "nonpayable",
      "type": "function"
    },
    {
      "inputs": [],
      "name": "UPGRADE_INTERFACE_VERSION",
      "outputs": [
        {
          "internalType": "string",
          "name": "",
          "type": "string"
        }
      ],
      "stateMutability": "view",
      "type": "function"
    },
    {
      "inputs": [
        {
          "internalType": "address",
          "name": "player1",
          "type": "address"
        },
        {
          "components": [
            {
              "internalType": "uint256[2]",
              "name": "pA",
              "type": "uint256[2]"
            },
            {
              "internalType": "uint256[2][2]",
              "name": "pB",
              "type": "uint256[2][2]"
            },
            {
              "internalType": "uint256[2]",
              "name": "pC",
              "type": "uint256[2]"
            },
            {
              "internalType": "uint256[2]",
              "name": "pubSignals",
              "type": "uint256[2]"
            }
          ],
          "internalType": "struct BattleshipWakuOLD.ShipPlacementProof",
          "name": "shipPlacementProofPlayer1",
          "type": "tuple"
        },
        {
          "internalType": "uint256",
          "name": "gameId",
          "type": "uint256"
        },
        {
          "internalType": "uint16",
          "name": "wakuRoomId",
          "type": "uint16"
        }
      ],
      "name": "createGame",
      "outputs": [],
      "stateMutability": "nonpayable",
      "type": "function"
    },
    {
      "inputs": [
        {
          "internalType": "uint256",
          "name": "",
          "type": "uint256"
        }
      ],
      "name": "gameIds",
      "outputs": [
        {
          "internalType": "uint256",
          "name": "",
          "type": "uint256"
        }
      ],
      "stateMutability": "view",
      "type": "function"
    },
    {
      "inputs": [
        {
          "internalType": "uint256",
          "name": "",
          "type": "uint256"
        }
      ],
      "name": "games",
      "outputs": [
        {
          "internalType": "uint256",
          "name": "gameId",
          "type": "uint256"
        },
        {
          "internalType": "address",
          "name": "player1",
          "type": "address"
        },
        {
          "internalType": "address",
          "name": "player2",
          "type": "address"
        },
        {
          "internalType": "bool",
          "name": "isActive",
          "type": "bool"
        },
        {
          "internalType": "address",
          "name": "playerTurn",
          "type": "address"
        },
        {
          "internalType": "bytes32",
          "name": "player1_board_commitment",
          "type": "bytes32"
        },
        {
          "internalType": "bytes32",
          "name": "player1_merkle_root",
          "type": "bytes32"
        },
        {
          "internalType": "bytes32",
          "name": "player2_board_commitment",
          "type": "bytes32"
        },
        {
          "internalType": "bytes32",
          "name": "player2_merkle_root",
          "type": "bytes32"
        },
        {
          "components": [
            {
              "internalType": "uint256[2]",
              "name": "pA",
              "type": "uint256[2]"
            },
            {
              "internalType": "uint256[2][2]",
              "name": "pB",
              "type": "uint256[2][2]"
            },
            {
              "internalType": "uint256[2]",
              "name": "pC",
              "type": "uint256[2]"
            },
            {
              "internalType": "uint256[2]",
              "name": "pubSignals",
              "type": "uint256[2]"
            }
          ],
          "internalType": "struct BattleshipWakuOLD.ShipPlacementProof",
          "name": "player1ShipPlacementProof",
          "type": "tuple"
        },
        {
          "components": [
            {
              "internalType": "uint256[2]",
              "name": "pA",
              "type": "uint256[2]"
            },
            {
              "internalType": "uint256[2][2]",
              "name": "pB",
              "type": "uint256[2][2]"
            },
            {
              "internalType": "uint256[2]",
              "name": "pC",
              "type": "uint256[2]"
            },
            {
              "internalType": "uint256[2]",
              "name": "pubSignals",
              "type": "uint256[2]"
            }
          ],
          "internalType": "struct BattleshipWakuOLD.ShipPlacementProof",
          "name": "player2ShipPlacementProof",
          "type": "tuple"
        },
        {
          "internalType": "uint16",
          "name": "wakuRoomId",
          "type": "uint16"
        }
      ],
      "stateMutability": "view",
      "type": "function"
    },
    {
      "inputs": [],
      "name": "getAllGames",
      "outputs": [
        {
          "components": [
            {
              "internalType": "uint256",
              "name": "gameId",
              "type": "uint256"
            },
            {
              "internalType": "address",
              "name": "player1",
              "type": "address"
            },
            {
              "internalType": "address",
              "name": "player2",
              "type": "address"
            },
            {
              "internalType": "bool",
              "name": "isActive",
              "type": "bool"
            },
            {
              "internalType": "address",
              "name": "playerTurn",
              "type": "address"
            },
            {
              "internalType": "bytes32",
              "name": "player1_board_commitment",
              "type": "bytes32"
            },
            {
              "internalType": "bytes32",
              "name": "player1_merkle_root",
              "type": "bytes32"
            },
            {
              "internalType": "bytes32",
              "name": "player2_board_commitment",
              "type": "bytes32"
            },
            {
              "internalType": "bytes32",
              "name": "player2_merkle_root",
              "type": "bytes32"
            },
            {
              "components": [
                {
                  "internalType": "uint256[2]",
                  "name": "pA",
                  "type": "uint256[2]"
                },
                {
                  "internalType": "uint256[2][2]",
                  "name": "pB",
                  "type": "uint256[2][2]"
                },
                {
                  "internalType": "uint256[2]",
                  "name": "pC",
                  "type": "uint256[2]"
                },
                {
                  "internalType": "uint256[2]",
                  "name": "pubSignals",
                  "type": "uint256[2]"
                }
              ],
              "internalType": "struct BattleshipWakuOLD.ShipPlacementProof",
              "name": "player1ShipPlacementProof",
              "type": "tuple"
            },
            {
              "components": [
                {
                  "internalType": "uint256[2]",
                  "name": "pA",
                  "type": "uint256[2]"
                },
                {
                  "internalType": "uint256[2][2]",
                  "name": "pB",
                  "type": "uint256[2][2]"
                },
                {
                  "internalType": "uint256[2]",
                  "name": "pC",
                  "type": "uint256[2]"
                },
                {
                  "internalType": "uint256[2]",
                  "name": "pubSignals",
                  "type": "uint256[2]"
                }
              ],
              "internalType": "struct BattleshipWakuOLD.ShipPlacementProof",
              "name": "player2ShipPlacementProof",
              "type": "tuple"
            },
            {
              "internalType": "uint16",
              "name": "wakuRoomId",
              "type": "uint16"
            }
          ],
          "internalType": "struct BattleshipWakuOLD.GameView[]",
          "name": "",
          "type": "tuple[]"
        }
      ],
      "stateMutability": "view",
      "type": "function"
    },
    {
      "inputs": [
        {
          "internalType": "uint256",
          "name": "gameId",
          "type": "uint256"
        }
      ],
      "name": "getGame",
      "outputs": [
        {
          "components": [
            {
              "internalType": "uint256",
              "name": "gameId",
              "type": "uint256"
            },
            {
              "internalType": "address",
              "name": "player1",
              "type": "address"
            },
            {
              "internalType": "address",
              "name": "player2",
              "type": "address"
            },
            {
              "internalType": "bool",
              "name": "isActive",
              "type": "bool"
            },
            {
              "internalType": "address",
              "name": "playerTurn",
              "type": "address"
            },
            {
              "internalType": "bytes32",
              "name": "player1_board_commitment",
              "type": "bytes32"
            },
            {
              "internalType": "bytes32",
              "name": "player1_merkle_root",
              "type": "bytes32"
            },
            {
              "internalType": "bytes32",
              "name": "player2_board_commitment",
              "type": "bytes32"
            },
            {
              "internalType": "bytes32",
              "name": "player2_merkle_root",
              "type": "bytes32"
            },
            {
              "components": [
                {
                  "internalType": "uint256[2]",
                  "name": "pA",
                  "type": "uint256[2]"
                },
                {
                  "internalType": "uint256[2][2]",
                  "name": "pB",
                  "type": "uint256[2][2]"
                },
                {
                  "internalType": "uint256[2]",
                  "name": "pC",
                  "type": "uint256[2]"
                },
                {
                  "internalType": "uint256[2]",
                  "name": "pubSignals",
                  "type": "uint256[2]"
                }
              ],
              "internalType": "struct BattleshipWakuOLD.ShipPlacementProof",
              "name": "player1ShipPlacementProof",
              "type": "tuple"
            },
            {
              "components": [
                {
                  "internalType": "uint256[2]",
                  "name": "pA",
                  "type": "uint256[2]"
                },
                {
                  "internalType": "uint256[2][2]",
                  "name": "pB",
                  "type": "uint256[2][2]"
                },
                {
                  "internalType": "uint256[2]",
                  "name": "pC",
                  "type": "uint256[2]"
                },
                {
                  "internalType": "uint256[2]",
                  "name": "pubSignals",
                  "type": "uint256[2]"
                }
              ],
              "internalType": "struct BattleshipWakuOLD.ShipPlacementProof",
              "name": "player2ShipPlacementProof",
              "type": "tuple"
            },
            {
              "internalType": "uint16",
              "name": "wakuRoomId",
              "type": "uint16"
            }
          ],
          "internalType": "struct BattleshipWakuOLD.GameView",
          "name": "gameData",
          "type": "tuple"
        },
        {
          "internalType": "uint8",
          "name": "player1Hits",
          "type": "uint8"
        },
        {
          "internalType": "uint8",
          "name": "player2Hits",
          "type": "uint8"
        }
      ],
      "stateMutability": "view",
      "type": "function"
    },
    {
      "inputs": [
        {
          "internalType": "uint256",
          "name": "gameId",
          "type": "uint256"
        }
      ],
      "name": "getGameById",
      "outputs": [
        {
          "components": [
            {
              "internalType": "uint256",
              "name": "gameId",
              "type": "uint256"
            },
            {
              "internalType": "address",
              "name": "player1",
              "type": "address"
            },
            {
              "internalType": "address",
              "name": "player2",
              "type": "address"
            },
            {
              "internalType": "bool",
              "name": "isActive",
              "type": "bool"
            },
            {
              "internalType": "address",
              "name": "playerTurn",
              "type": "address"
            },
            {
              "internalType": "bytes32",
              "name": "player1_board_commitment",
              "type": "bytes32"
            },
            {
              "internalType": "bytes32",
              "name": "player1_merkle_root",
              "type": "bytes32"
            },
            {
              "internalType": "bytes32",
              "name": "player2_board_commitment",
              "type": "bytes32"
            },
            {
              "internalType": "bytes32",
              "name": "player2_merkle_root",
              "type": "bytes32"
            },
            {
              "components": [
                {
                  "internalType": "uint256[2]",
                  "name": "pA",
                  "type": "uint256[2]"
                },
                {
                  "internalType": "uint256[2][2]",
                  "name": "pB",
                  "type": "uint256[2][2]"
                },
                {
                  "internalType": "uint256[2]",
                  "name": "pC",
                  "type": "uint256[2]"
                },
                {
                  "internalType": "uint256[2]",
                  "name": "pubSignals",
                  "type": "uint256[2]"
                }
              ],
              "internalType": "struct BattleshipWakuOLD.ShipPlacementProof",
              "name": "player1ShipPlacementProof",
              "type": "tuple"
            },
            {
              "components": [
                {
                  "internalType": "uint256[2]",
                  "name": "pA",
                  "type": "uint256[2]"
                },
                {
                  "internalType": "uint256[2][2]",
                  "name": "pB",
                  "type": "uint256[2][2]"
                },
                {
                  "internalType": "uint256[2]",
                  "name": "pC",
                  "type": "uint256[2]"
                },
                {
                  "internalType": "uint256[2]",
                  "name": "pubSignals",
                  "type": "uint256[2]"
                }
              ],
              "internalType": "struct BattleshipWakuOLD.ShipPlacementProof",
              "name": "player2ShipPlacementProof",
              "type": "tuple"
            },
            {
              "internalType": "uint16",
              "name": "wakuRoomId",
              "type": "uint16"
            }
          ],
          "internalType": "struct BattleshipWakuOLD.GameView",
          "name": "",
          "type": "tuple"
        }
      ],
      "stateMutability": "view",
      "type": "function"
    },
    {
      "inputs": [
        {
          "internalType": "uint256",
          "name": "gameId",
          "type": "uint256"
        }
      ],
      "name": "getGamePlayers",
      "outputs": [
        {
          "internalType": "address",
          "name": "",
          "type": "address"
        },
        {
          "internalType": "address",
          "name": "",
          "type": "address"
        }
      ],
      "stateMutability": "view",
      "type": "function"
    },
    {
      "inputs": [
        {
          "internalType": "uint256",
          "name": "gameId",
          "type": "uint256"
        }
      ],
      "name": "getGameStatus",
      "outputs": [
        {
          "internalType": "bool",
          "name": "",
          "type": "bool"
        }
      ],
      "stateMutability": "view",
      "type": "function"
    },
    {
      "inputs": [
        {
          "internalType": "address",
          "name": "_shipPlacementVerifier",
          "type": "address"
        },
        {
          "internalType": "address",
          "name": "_moveVerifier",
          "type": "address"
        },
        {
          "internalType": "address",
          "name": "_winVerifier",
          "type": "address"
        }
      ],
      "name": "initialize",
      "outputs": [],
      "stateMutability": "nonpayable",
      "type": "function"
    },
    {
      "inputs": [
        {
          "internalType": "uint256",
          "name": "gameId",
          "type": "uint256"
        },
        {
          "components": [
            {
              "internalType": "uint256[2]",
              "name": "pA",
              "type": "uint256[2]"
            },
            {
              "internalType": "uint256[2][2]",
              "name": "pB",
              "type": "uint256[2][2]"
            },
            {
              "internalType": "uint256[2]",
              "name": "pC",
              "type": "uint256[2]"
            },
            {
              "internalType": "uint256[3]",
              "name": "pubSignals",
              "type": "uint256[3]"
            }
          ],
          "internalType": "struct BattleshipWakuOLD.MoveProof",
          "name": "moveProof",
          "type": "tuple"
        }
      ],
      "name": "makeMove",
      "outputs": [
        {
          "internalType": "bool",
          "name": "",
          "type": "bool"
        }
      ],
      "stateMutability": "nonpayable",
      "type": "function"
    },
    {
      "inputs": [],
      "name": "moveVerifier",
      "outputs": [
        {
          "internalType": "contract IMoveVerifier",
          "name": "",
          "type": "address"
        }
      ],
      "stateMutability": "view",
      "type": "function"
    },
    {
      "inputs": [],
      "name": "owner",
      "outputs": [
        {
          "internalType": "address",
          "name": "",
          "type": "address"
        }
      ],
      "stateMutability": "view",
      "type": "function"
    },
    {
      "inputs": [],
      "name": "proxiableUUID",
      "outputs": [
        {
          "internalType": "bytes32",
          "name": "",
          "type": "bytes32"
        }
      ],
      "stateMutability": "view",
      "type": "function"
    },
    {
      "inputs": [],
      "name": "renounceOwnership",
      "outputs": [],
      "stateMutability": "nonpayable",
      "type": "function"
    },
    {
      "inputs": [],
      "name": "shipPlacementVerifier",
      "outputs": [
        {
          "internalType": "contract IShipPlacementVerifier",
          "name": "",
          "type": "address"
        }
      ],
      "stateMutability": "view",
      "type": "function"
    },
    {
      "inputs": [
        {
          "internalType": "address",
          "name": "newOwner",
          "type": "address"
        }
      ],
      "name": "transferOwnership",
      "outputs": [],
      "stateMutability": "nonpayable",
      "type": "function"
    },
    {
      "inputs": [
        {
          "internalType": "address",
          "name": "newImplementation",
          "type": "address"
        },
        {
          "internalType": "bytes",
          "name": "data",
          "type": "bytes"
        }
      ],
      "name": "upgradeToAndCall",
      "outputs": [],
      "stateMutability": "payable",
      "type": "function"
    },
    {
      "inputs": [
        {
          "internalType": "uint256",
          "name": "gameId",
          "type": "uint256"
        },
        {
          "components": [
            {
              "internalType": "uint256[2]",
              "name": "pA",
              "type": "uint256[2]"
            },
            {
              "internalType": "uint256[2][2]",
              "name": "pB",
              "type": "uint256[2][2]"
            },
            {
              "internalType": "uint256[2]",
              "name": "pC",
              "type": "uint256[2]"
            },
            {
              "internalType": "uint256[3]",
              "name": "pubSignals",
              "type": "uint256[3]"
            }
          ],
          "internalType": "struct BattleshipWakuOLD.WinProof",
          "name": "winProof",
          "type": "tuple"
        }
      ],
      "name": "winVerification",
      "outputs": [
        {
          "internalType": "bool",
          "name": "",
          "type": "bool"
        }
      ],
      "stateMutability": "nonpayable",
      "type": "function"
    },
    {
      "inputs": [],
      "name": "winVerifier",
      "outputs": [
        {
          "internalType": "contract IWinVerifier",
          "name": "",
          "type": "address"
        }
      ],
      "stateMutability": "view",
      "type": "function"
    }
  ],
  "bytecode": "0x60a0604052306080523480156200001557600080fd5b506200002062000026565b620000da565b7ff0c57e16840df040f15088dc2f81fe391c3923bec73e23a9662efc9c229c6a00805468010000000000000000900460ff1615620000775760405163f92ee8a960e01b815260040160405180910390fd5b80546001600160401b0390811614620000d75780546001600160401b0319166001600160401b0390811782556040519081527fc7f505b2f371ae2175ee4913f4499e1f2633a7b5936321eed1cdaeb6115181d29060200160405180910390a15b50565b6080516130a862000104600039600081816120c1015281816120ea015261223001526130a86000f3fe6080604052600436106101295760003560e01c8063715018a6116100ab578063c0c53b8b1161006f578063c0c53b8b146103f6578063c539684414610416578063d173bf9c14610436578063d82c13f014610456578063db1c45f914610476578063f2fde38b1461049857600080fd5b8063715018a6146103175780638d2d99ee1461032c5780638da5cb5b1461034c578063a2f77bcc14610389578063ad3cb1cc146103b857600080fd5b80632159e870116100f25780632159e8701461026757806329b3e3b614610289578063489d2220146102a95780634f1ef286146102e157806352d1902d146102f457600080fd5b806256faa21461012e57806309660513146101635780630f1bf45414610190578063117a5b90146101ca57806315a40f4914610202575b600080fd5b34801561013a57600080fd5b5061014e610149366004612946565b6104b8565b60405190151581526020015b60405180910390f35b34801561016f57600080fd5b5061018361017e366004612974565b61072f565b60405161015a9190612aee565b34801561019c57600080fd5b5061014e6101ab366004612974565b600090815260036020526040902060020154600160a01b900460ff1690565b3480156101d657600080fd5b506101ea6101e5366004612974565b610a1e565b60405161015a9c9b9a99989796959493929190612afd565b34801561020e57600080fd5b5061024761021d366004612974565b600090815260036020526040902060018101546002909101546001600160a01b0391821692911690565b604080516001600160a01b0393841681529290911660208301520161015a565b34801561027357600080fd5b50610287610282366004612bb0565b610cbc565b005b34801561029557600080fd5b5061014e6102a4366004612946565b61106b565b3480156102b557600080fd5b506000546102c9906001600160a01b031681565b6040516001600160a01b03909116815260200161015a565b6102876102ef366004612c0a565b611349565b34801561030057600080fd5b50610309611368565b60405190815260200161015a565b34801561032357600080fd5b50610287611385565b34801561033857600080fd5b506002546102c9906001600160a01b031681565b34801561035857600080fd5b507f9016d09d72d40fdae2fd8ceac6b6234c7706214fd39c1cd1e609a0528c199300546001600160a01b03166102c9565b34801561039557600080fd5b506103a96103a4366004612974565b611399565b60405161015a93929190612cb0565b3480156103c457600080fd5b506103e9604051806040016040528060058152602001640352e302e360dc1b81525081565b60405161015a9190612cff565b34801561040257600080fd5b50610287610411366004612d32565b6116c2565b34801561042257600080fd5b50610287610431366004612d75565b611805565b34801561044257600080fd5b506001546102c9906001600160a01b031681565b34801561046257600080fd5b50610309610471366004612974565b611a78565b34801561048257600080fd5b5061048b611a99565b60405161015a9190612db4565b3480156104a457600080fd5b506102876104b3366004612e03565b612078565b60008281526003602052604081206002810154600160a01b900460ff1661051b5760405162461bcd60e51b815260206004820152601260248201527147616d65206973206e6f742061637469766560701b60448201526064015b60405180910390fd5b60038101546001600160a01b031633146105675760405162461bcd60e51b815260206004820152600d60248201526c2737ba103cb7bab9103a3ab93760991b6044820152606401610512565b60015483516020850151604080870151606088015191516308a3cff560e11b81526000956001600160a01b0316946311479fea946105ae9491939092909190600401612e1e565b602060405180830381865afa1580156105cb573d6000803e3d6000fd5b505050506040513d601f19601f820116820180604052508101906105ef9190612ea2565b9050806106365760405162461bcd60e51b8152602060048201526015602482015274135bdd99481c1c9bdbd9881a5cc81a5b9d985b1a59605a1b6044820152606401610512565b60608401516040015160010361068d5760038201546001600160a01b031660009081526008830160205260408120805460ff169161067383612ef0565b91906101000a81548160ff021916908360ff160217905550505b600182015460038301546001600160a01b039081169116146106bc5760018201546001600160a01b03166106cb565b60028201546001600160a01b03165b6003830180546001600160a01b0319166001600160a01b0392909216919091179055604080518681523360208201527f5008547a534c07bdb1a5f781fbfc38d92af4d50429ccb847bcae5e7eb4915c2d910160405180910390a19150505b92915050565b61073761259a565b6000828152600360208181526040928390208351610180810185528154815260018201546001600160a01b039081169382019390935260028083015480851683880152600160a01b900460ff161515606083015293820154909216608080840191909152600482015460a0840152600582015460c080850191909152600683015460e0850152600783015461010085015285519081019586905291949293610120850193600987019284929083019184919082845b8154815260200190600101908083116107ec575050505050815260200160028201600280602002604051908101604052809291906000905b8282101561086a57604080518082019182905290600284810287019182845b81548152602001906001019080831161084357505050505081526020019060010190610824565b50505090825250604080518082019182905260209092019190600684019060029082845b81548152602001906001019080831161088e575050509183525050604080518082019182905260209092019190600884019060029082845b8154815260200190600101908083116108c6575050509190925250505081526040805160c081019091526020909101906013840181608081018260028282826020028201915b81548152602001906001019080831161090c575050505050815260200160028201600280602002604051908101604052809291906000905b8282101561098a57604080518082019182905290600284810287019182845b81548152602001906001019080831161096357505050505081526020019060010190610944565b50505090825250604080518082019182905260209092019190600684019060029082845b8154815260200190600101908083116109ae575050509183525050604080518082019182905260209092019190600884019060029082845b8154815260200190600101908083116109e657505050919092525050508152601d9092015461ffff1660209092019190915292915050565b600360208190526000918252604091829020805460018201546002808401549484015460048501546005860154600687015460078801548a5160c081019b8c9052979a6001600160a01b039788169a8881169a600160a01b90910460ff16999890961697949693959294919360098401918391608083019184919082845b815481526020019060010190808311610a9c575050505050815260200160028201600280602002604051908101604052809291906000905b82821015610b1a57604080518082019182905290600284810287019182845b815481526020019060010190808311610af357505050505081526020019060010190610ad4565b50505090825250604080518082019182905260209092019190600684019060029082845b815481526020019060010190808311610b3e575050509183525050604080518082019182905260209092019190600884019060029082845b815481526020019060010190808311610b76575050509190925250506040805160c0810190915291929190506013820181608081018260028282826020028201915b815481526020019060010190808311610bb8575050505050815260200160028201600280602002604051908101604052809291906000905b82821015610c3657604080518082019182905290600284810287019182845b815481526020019060010190808311610c0f57505050505081526020019060010190610bf0565b50505090825250604080518082019182905260209092019190600684019060029082845b815481526020019060010190808311610c5a575050509183525050604080518082019182905260209092019190600884019060029082845b815481526020019060010190808311610c925750505091909252505050601d9091015461ffff168c565b6001600160a01b038416610d0d5760405162461bcd60e51b8152602060048201526018602482015277496e76616c696420706c617965722061646472657373657360401b6044820152606401610512565b600082815260036020526040902060020154600160a01b900460ff1615610d6c5760405162461bcd60e51b815260206004820152601360248201527247616d6520616c72656164792065786973747360681b6044820152606401610512565b6000805460408051637ae4eb4f60e11b81526001600160a01b039092169163f5c9d69e91610dac91889182019060c0830190610100840190600401612f0f565b602060405180830381865afa158015610dc9573d6000803e3d6000fd5b505050506040513d601f19601f82011682018060405250810190610ded9190612ea2565b905080610e4d5760405162461bcd60e51b815260206004820152602860248201527f506c617965722031207368697020706c6163656d656e742070726f6f66206973604482015267081a5b9d985b1a5960c21b6064820152608401610512565b60008381526003602081905260408220858155601d8101805461ffff191661ffff87161790556001810180546001600160a01b03199081166001600160a01b038b169081179092556002830180546001600160a81b0319169055928201805490931617909155610100860135600482015561012086013560058201556006810182905560078101919091558460098201610ee78282612f7b565b50506040805160c0810182526000608080830182815260a0840183905283528351908101845280840182815260608083018490529082528451808601865283815260208181018590528381019190915280850192909252845180860186528381528083018490528486015284518086019095528285529084019190915281019190915280516013830190610f7e908290600261260a565b506020820151610f949060028084019190612648565b506040820151610faa906006830190600261260a565b506060820151610fc0906008830190600261260a565b5050506001600160a01b03861660008181526008830160209081526040808320805460ff191690556004805460018101825593527f8a35acfbc15ff81a39ae7d344fd709f28e8600b4aa8c65c6b64bfe7fe36bd19b9092018790558151928352610100880135908301526101208701359082015284907f7ed9b48d83e08a25a1572b27a365dfb386da7860c996e684e541e3433b7921479060600160405180910390a2505050505050565b60008281526003602052604081206002810154600160a01b900460ff166110c95760405162461bcd60e51b815260206004820152601260248201527147616d65206973206e6f742061637469766560701b6044820152606401610512565b60018101546001600160a01b0316600090815260088201602052604081205460ff16600c03611106575060018101546001600160a01b031661117e565b60028201546001600160a01b0316600090815260088301602052604090205460ff16600c03611143575060028101546001600160a01b031661117e565b60405162461bcd60e51b815260206004820152601060248201526f23b0b6b29034b9903737ba1037bb32b960811b6044820152606401610512565b60025484516020860151604080880151606089015191516308a3cff560e11b81526000956001600160a01b0316946311479fea946111c59491939092909190600401612e1e565b602060405180830381865afa1580156111e2573d6000803e3d6000fd5b505050506040513d601f19601f820116820180604052508101906112069190612ea2565b90508061124c5760405162461bcd60e51b815260206004820152601460248201527315da5b881c1c9bdbd9881a5cc81a5b9d985b1a5960621b6044820152606401610512565b60028301805460ff60a01b1916905560005b60045481101561130a57866004828154811061127c5761127c612ec4565b906000526020600020015403611302576004805461129c90600190612ff4565b815481106112ac576112ac612ec4565b9060005260206000200154600482815481106112ca576112ca612ec4565b60009182526020909120015560048054806112e7576112e7613007565b6001900381819060005260206000200160009055905561130a565b60010161125e565b5060405133815286907f3d5fcd8fa3235aeb3897f25c8ea49989174981afcb01b9d03189d1056a16775b9060200160405180910390a295945050505050565b6113516120b6565b61135a8261215b565b6113648282612163565b5050565b6000611372612225565b5060008051602061305383398151915290565b61138d61226e565b61139760006122c9565b565b6113a161259a565b60008281526003602081815260408084208151610180810183528154815260018201546001600160a01b039081169482019490945260028083015480861683860152600160a01b900460ff161515606083015294820154909316608080850191909152600482015460a0850152600582015460c080860191909152600683015460e0860152600783015461010086015283519081019384905286959294936101208501939192600987019284929183019184919082845b815481526020019060010190808311611458575050505050815260200160028201600280602002604051908101604052809291906000905b828210156114d657604080518082019182905290600284810287019182845b8154815260200190600101908083116114af57505050505081526020019060010190611490565b50505090825250604080518082019182905260209092019190600684019060029082845b8154815260200190600101908083116114fa575050509183525050604080518082019182905260209092019190600884019060029082845b815481526020019060010190808311611532575050509190925250505081526040805160c081019091526020909101906013840181608081018260028282826020028201915b815481526020019060010190808311611578575050505050815260200160028201600280602002604051908101604052809291906000905b828210156115f657604080518082019182905290600284810287019182845b8154815260200190600101908083116115cf575050505050815260200190600101906115b0565b50505090825250604080518082019182905260209092019190600684019060029082845b81548152602001906001019080831161161a575050509183525050604080518082019182905260209092019190600884019060029082845b81548152602001906001019080831161165257505050919092525050508152601d83015461ffff1660209182015260018301546001600160a01b039081166000908152600885019092526040808320546002909501549091168252902054909660ff928316965091169350915050565b60006116cc61233a565b805490915060ff600160401b820416159067ffffffffffffffff166000811580156116f45750825b905060008267ffffffffffffffff1660011480156117115750303b155b90508115801561171f575080155b1561173d5760405163f92ee8a960e01b815260040160405180910390fd5b845467ffffffffffffffff19166001178555831561176757845460ff60401b1916600160401b1785555b61177033612363565b611778612374565b600080546001600160a01b03808b166001600160a01b031992831617909255600180548a8416908316179055600280549289169290911691909117905583156117fb57845460ff60401b19168555604051600181527fc7f505b2f371ae2175ee4913f4499e1f2633a7b5936321eed1cdaeb6115181d29060200160405180910390a15b5050505050505050565b6001600160a01b0383166118565760405162461bcd60e51b8152602060048201526018602482015277496e76616c696420706c617965722061646472657373657360401b6044820152606401610512565b6000818152600360205260409020600201546001600160a01b0316156118b55760405162461bcd60e51b815260206004820152601460248201527311d85b5948185b1c9958591e481cdd185c9d195960621b6044820152606401610512565b6000805460408051637ae4eb4f60e11b81526001600160a01b039092169163f5c9d69e916118f591879182019060c0830190610100840190600401612f0f565b602060405180830381865afa158015611912573d6000803e3d6000fd5b505050506040513d601f19601f820116820180604052508101906119369190612ea2565b9050806119965760405162461bcd60e51b815260206004820152602860248201527f506c617965722032207368697020706c6163656d656e742070726f6f66206973604482015267081a5b9d985b1a5960c21b6064820152608401610512565b60008281526003602052604090206002810180546001600160a81b0319166001600160a01b03871617600160a01b1790556101008401356006820155610120840135600782015583601382016119ec8282612f7b565b50506001600160a01b0385166000818152600883016020908152604091829020805460ff19169055905191825284917f45c4f9cbafe186141862608c493f28b823fde4c2142bedc3f5169961a73fdd22910160405180910390a260405183907f50ad08f58a27f2851d7e3a1b3a6a46b290f2ce677e99642d30ff639721e7779090600090a25050505050565b60048181548110611a8857600080fd5b600091825260209091200154905081565b60045460609060009067ffffffffffffffff811115611aba57611aba612748565b604051908082528060200260200182016040528015611af357816020015b611ae061259a565b815260200190600190039081611ad85790505b50905060005b600454811015612072576040518061018001604052806003600060048581548110611b2657611b26612ec4565b906000526020600020015481526020019081526020016000206000015481526020016003600060048581548110611b5f57611b5f612ec4565b9060005260206000200154815260200190815260200160002060010160009054906101000a90046001600160a01b03166001600160a01b031681526020016003600060048581548110611bb457611bb4612ec4565b9060005260206000200154815260200190815260200160002060020160009054906101000a90046001600160a01b03166001600160a01b031681526020016003600060048581548110611c0957611c09612ec4565b9060005260206000200154815260200190815260200160002060020160149054906101000a900460ff16151581526020016003600060048581548110611c5157611c51612ec4565b9060005260206000200154815260200190815260200160002060030160009054906101000a90046001600160a01b03166001600160a01b031681526020016003600060048581548110611ca657611ca6612ec4565b906000526020600020015481526020019081526020016000206004015481526020016003600060048581548110611cdf57611cdf612ec4565b906000526020600020015481526020019081526020016000206005015481526020016003600060048581548110611d1857611d18612ec4565b906000526020600020015481526020019081526020016000206006015481526020016003600060048581548110611d5157611d51612ec4565b906000526020600020015481526020019081526020016000206007015481526020016003600060048581548110611d8a57611d8a612ec4565b600091825260208083209091015483528201929092526040908101909120815160c0810190925260090181608081018260028282826020028201915b815481526020019060010190808311611dc6575050505050815260200160028201600280602002604051908101604052809291906000905b82821015611e4457604080518082019182905290600284810287019182845b815481526020019060010190808311611e1d57505050505081526020019060010190611dfe565b50505090825250604080518082019182905260209092019190600684019060029082845b815481526020019060010190808311611e68575050509183525050604080518082019182905260209092019190600884019060029082845b815481526020019060010190808311611ea05750505050508152505081526020016003600060048581548110611ed857611ed8612ec4565b600091825260208083209091015483528201929092526040908101909120815160c0810190925260130181608081018260028282826020028201915b815481526020019060010190808311611f14575050505050815260200160028201600280602002604051908101604052809291906000905b82821015611f9257604080518082019182905290600284810287019182845b815481526020019060010190808311611f6b57505050505081526020019060010190611f4c565b50505090825250604080518082019182905260209092019190600684019060029082845b815481526020019060010190808311611fb6575050509183525050604080518082019182905260209092019190600884019060029082845b815481526020019060010190808311611fee575050505050815250508152602001600360006004858154811061202657612026612ec4565b600091825260208083209091015483528201929092526040019020601d015461ffff169052825183908390811061205f5761205f612ec4565b6020908102919091010152600101611af9565b50919050565b61208061226e565b6001600160a01b0381166120aa57604051631e4fbdf760e01b815260006004820152602401610512565b6120b3816122c9565b50565b306001600160a01b037f000000000000000000000000000000000000000000000000000000000000000016148061213d57507f00000000000000000000000000000000000000000000000000000000000000006001600160a01b0316612131600080516020613053833981519152546001600160a01b031690565b6001600160a01b031614155b156113975760405163703e46dd60e11b815260040160405180910390fd5b6120b361226e565b816001600160a01b03166352d1902d6040518163ffffffff1660e01b8152600401602060405180830381865afa9250505080156121bd575060408051601f3d908101601f191682019092526121ba9181019061301d565b60015b6121e557604051634c9c8ce360e01b81526001600160a01b0383166004820152602401610512565b600080516020613053833981519152811461221657604051632a87526960e21b815260048101829052602401610512565b612220838361237c565b505050565b306001600160a01b037f000000000000000000000000000000000000000000000000000000000000000016146113975760405163703e46dd60e11b815260040160405180910390fd5b336122a07f9016d09d72d40fdae2fd8ceac6b6234c7706214fd39c1cd1e609a0528c199300546001600160a01b031690565b6001600160a01b0316146113975760405163118cdaa760e01b8152336004820152602401610512565b7f9016d09d72d40fdae2fd8ceac6b6234c7706214fd39c1cd1e609a0528c19930080546001600160a01b031981166001600160a01b03848116918217845560405192169182907f8be0079c531659141344cd1fd0a4f28419497f9722a3daafe3b4186f6b6457e090600090a3505050565b6000807ff0c57e16840df040f15088dc2f81fe391c3923bec73e23a9662efc9c229c6a00610729565b61236b6123d2565b6120b3816123f7565b6113976123d2565b612385826123ff565b6040516001600160a01b038316907fbc7cd75a20ee27fd9adebab32041f755214dbc6bffa90cc0225b39da2e5c2d3b90600090a28051156123ca576122208282612464565b6113646124da565b6123da6124f9565b61139757604051631afcd79f60e31b815260040160405180910390fd5b6120806123d2565b806001600160a01b03163b60000361243557604051634c9c8ce360e01b81526001600160a01b0382166004820152602401610512565b60008051602061305383398151915280546001600160a01b0319166001600160a01b0392909216919091179055565b6060600080846001600160a01b0316846040516124819190613036565b600060405180830381855af49150503d80600081146124bc576040519150601f19603f3d011682016040523d82523d6000602084013e6124c1565b606091505b50915091506124d1858383612513565b95945050505050565b34156113975760405163b398979f60e01b815260040160405180910390fd5b600061250361233a565b54600160401b900460ff16919050565b6060826125285761252382612572565b61256b565b815115801561253f57506001600160a01b0384163b155b1561256857604051639996b31560e01b81526001600160a01b0385166004820152602401610512565b50805b9392505050565b80511561258157805160208201fd5b60405163d6bda27560e01b815260040160405180910390fd5b6040805161018081018252600080825260208201819052918101829052606081018290526080810182905260a0810182905260c0810182905260e0810182905261010081019190915261012081016125f061268f565b81526020016125fd61268f565b8152600060209091015290565b8260028101928215612638579160200282015b8281111561263857825182559160200191906001019061261d565b506126449291506126ce565b5090565b600483019183908215612683579160200282015b82811115612683578251612673908390600261260a565b509160200191906002019061265c565b506126449291506126e3565b60405180608001604052806126a26126fd565b81526020016126af61271b565b81526020016126bc6126fd565b81526020016126c96126fd565b905290565b5b8082111561264457600081556001016126cf565b8082111561264457600080825560018201556002016126e3565b60405180604001604052806002906020820280368337509192915050565b60405180604001604052806002905b6127326126fd565b81526020019060019003908161272a5790505090565b634e487b7160e01b600052604160045260246000fd5b6040516080810167ffffffffffffffff8111828210171561278157612781612748565b60405290565b6040805190810167ffffffffffffffff8111828210171561278157612781612748565b604051601f8201601f1916810167ffffffffffffffff811182821017156127d3576127d3612748565b604052919050565b600082601f8301126127ec57600080fd5b6127f4612787565b80604084018581111561280657600080fd5b845b81811015612820578035845260209384019301612808565b509095945050505050565b600082601f83011261283c57600080fd5b6040516060810181811067ffffffffffffffff8211171561285f5761285f612748565b60405280606084018581111561287457600080fd5b845b8181101561288e578035835260209283019201612876565b509195945050505050565b600061016082840312156128ac57600080fd5b6128b461275e565b90506128c083836127db565b8152604083605f8401126128d357600080fd5b6128db612787565b8060c08501868111156128ed57600080fd5b604086015b818110156129135761290488826127db565b845260209093019284016128f2565b5081602086015261292487826127db565b60408601525050505061293b83610100840161282b565b606082015292915050565b600080610180838503121561295a57600080fd5b8235915061296b8460208501612899565b90509250929050565b60006020828403121561298657600080fd5b5035919050565b8060005b60028110156129b0578151845260209384019390910190600101612991565b50505050565b6129c182825161298d565b602080820151604080850160005b60028110156129f3576129e382855161298d565b92840192908201906001016129cf565b50505050506040810151612a0a60c084018261298d565b50606081015161222061010084018261298d565b805182526020810151612a3c60208401826001600160a01b03169052565b506040810151612a5760408401826001600160a01b03169052565b506060810151612a6b606084018215159052565b506080810151612a8660808401826001600160a01b03169052565b5060a081015160a083015260c081015160c083015260e081015160e083015261010080820151818401525061012080820151612ac4828501826129b6565b5050610140810151612ada6102608401826129b6565b50610160015161ffff166103a09190910152565b6103c081016107298284612a1e565b8c81526001600160a01b038c811660208301528b811660408301528a151560608301528916608082015260a0810188905260c0810187905260e0810186905261010081018590526103c08101612b576101208301866129b6565b612b656102608301856129b6565b61ffff83166103a08301529d9c50505050505050505050505050565b80356001600160a01b0381168114612b9857600080fd5b919050565b6000610140828403121561207257600080fd5b6000806000806101a08587031215612bc757600080fd5b612bd085612b81565b9350612bdf8660208701612b9d565b9250610160850135915061018085013561ffff81168114612bff57600080fd5b939692955090935050565b60008060408385031215612c1d57600080fd5b612c2683612b81565b915060208084013567ffffffffffffffff80821115612c4457600080fd5b818601915086601f830112612c5857600080fd5b813581811115612c6a57612c6a612748565b612c7c601f8201601f191685016127aa565b91508082528784828501011115612c9257600080fd5b80848401858401376000848284010152508093505050509250929050565b6104008101612cbf8286612a1e565b60ff84166103c083015260ff83166103e0830152949350505050565b60005b83811015612cf6578181015183820152602001612cde565b50506000910152565b6020815260008251806020840152612d1e816040850160208701612cdb565b601f01601f19169190910160400192915050565b600080600060608486031215612d4757600080fd5b612d5084612b81565b9250612d5e60208501612b81565b9150612d6c60408501612b81565b90509250925092565b60008060006101808486031215612d8b57600080fd5b612d9484612b81565b9250612da38560208601612b9d565b915061016084013590509250925092565b6020808252825182820181905260009190848201906040850190845b81811015612df757612de3838551612a1e565b928401926103c09290920191600101612dd0565b50909695505050505050565b600060208284031215612e1557600080fd5b61256b82612b81565b6101608101612e2d828761298d565b60408083018660005b6002811015612e5d57612e4a83835161298d565b9183019160209190910190600101612e36565b50505050612e6e60c083018561298d565b61010082018360005b6003811015612e96578151835260209283019290910190600101612e77565b50505095945050505050565b600060208284031215612eb457600080fd5b8151801515811461256b57600080fd5b634e487b7160e01b600052603260045260246000fd5b634e487b7160e01b600052601160045260246000fd5b600060ff821660ff8103612f0657612f06612eda565b60010192915050565b61014081016040808784378083018660005b6002811015612f3e57838284379183019190830190600101612f21565b505050808560c085013780846101008501375095945050505050565b8160005b60028110156129b057813583820155602090910190600101612f5e565b8160005b6002811015612f9c57813583820155602090910190600101612f7f565b5050600260408084016002840160005b84811015612fce57612fbe8383612f5a565b9183019190840190600101612fac565b5050505050612fe360c0830160068301612f5a565b611364610100830160088301612f5a565b8181038181111561072957610729612eda565b634e487b7160e01b600052603160045260246000fd5b60006020828403121561302f57600080fd5b5051919050565b60008251613048818460208701612cdb565b919091019291505056fe360894a13ba1a3210667c828492db98dca3e2076cc3735a920a3ca505d382bbca2646970667358221220323e20dd422ca05eed3934f4f582a20ffcb9076c300dbc7986639145b703006e64736f6c63430008160033",
  "linkReferences": {},
  "deployedLinkReferences": {}
}